:1000000000600020E904000045D7000015D700007B
:1000100000000000000000000000000000000000E0
:1000200000000000000000000000000075D7000084
:100030000000000000000000A5D70000C9C30000B8
:100040006105000065050000690500006D05000000
:100050004905000049050000490500004905000068
:100060007105000075050000790500007D050000A0
:1000700081050000C1D80000890500004905000085
:1000800049050000490500004905000059EB000042
:10009000490500004905000089C300008D050000E6
:1000A000B5D20000490500004905000049050000DF
:1000B0002561000049050000490500004DC300000E
:1003C0006B636667FFFFFFFFFFFFFFFFFFFFFFFF9E
:1003D000F0FFFFFFF70812000C360100FFFFFF00DF
:1003E000FFFFFFFFFFFFFFFF00FFFFFFFFFFFFFF1C
:1003F000FFFFFFFF00000000000000000000000001
:10040000FFFFFFFFFFFFFFFFFFFFFFFFFE31FFFFCB
:1004100010B5064C2378002B07D1054B002B02D0DA
:10042000044800E000BF0123237010BD00E2FF1F5D
:10043000000000008054010008B5084B002B03D0D9
:100440000748084900E000BF07480368002B03D0B5
:10045000064B002B00D0984708BDC04600000000A6
:100460008054010004E2FF1FE4E1FF1F00000000D0
:10047000164B002B00D1144B9D46402292029A1A33
:10048000924600218B460F461348144A121A10F068
:1004900018F80F4B002B00D098470E4B002B00D0C4
:1004A00098470020002104000D000D48002802D0CC
:1004B0000C4800E000BF0FF0D5FF200029000DF030
:1004C0006DF80FF0B9FFC046000008000060002082
:1004D000000000000000000000E2FF1F981700204D
:1004E000000000000000000072B60E480E490160D6
:1004F0000A6882F308880D4880470D490D4A0E4B63
:100500009B1A03DD043BC858D050FBDC0B490C4A56
:10051000521A03DD00208850043AFCDA62B609481A
:100520008047000008ED00E000000000ADA90000D9
:10053000A854010000E0FF1FE8E1FF1F00E2FF1FD9
:100540009817002071040000114800471148004727
:10055000114800471148004711480047114800471B
:10056000114800471148004711480047114800470B
:1005700011480047114800471148004711480047FB
:1005800011480047114800471148004711480047EB
:10059000D5D7000045D7000015D7000075D700005B
:1005A000A5D70000C9C30000E98B0000F98B00004B
:1005B000098C0000198C0000B1980000C998000057
:1005C000A1A10000D9A10000B19D0000CD9D0000B7
:1005D00099910000799E0000002934D00123002267
:1005E00010B488422CD301242407A14204D28142B2
:1005F00002D209011B01F8E7E400A14204D28142C2
:1006000002D249005B00F8E7884201D3401A1A433E
:100610004C08A04202D3001B5C0822438C08A04275
:1006200002D3001B9C082243CC08A04202D3001B2B
:10063000DC082243002803D01B0901D00909E3E7A5
:10064000101C10BC7047002801D00020C04307B424
:10065000024802A14018029003BDC046D900000024
:100660000029F0D003B5FFF7B9FF0EBC4243891A49
:100670001847C046002941D010B4041C4C40A44681
:1006800001230022002900D54942002800D540421C
:1006900088422CD301242407A14204D2814202D2F1
:1006A00009011B01F8E7E400A14204D2814202D211
:1006B00049005B00F8E7884201D3401A1A434C080E
:1006C000A04202D3001B5C0822438C08A04202D344
:1006D000001B9C082243CC08A04202D3001BDC086C
:1006E0002243002803D01B0901D00909E3E7101CAD
:1006F0006446002C00D5404210BC7047002806D04C
:1007000003DB0020C043400801E08020000607B45E
:10071000024802A14018029003BDC0461900000023
:100720000029EBD003B5FFF7A7FF0EBC4243891A9F
:100730001847C0467047C0468446101C62468C4627
:10074000191C634600E0C0461FB501F049FF0028B0
:1007500001D40021C8421FBD10B501F079FE40420E
:10076000013010BD10B501F03BFF002801DB002077
:1007700010BD012010BDC04610B501F031FF0028AA
:1007800001DD002010BD012010BDC04610B501F0F4
:10079000A9FE002801DC002010BD012010BDC046CC
:1007A00010B501F09FFE002801DA002010BD0120E5
:1007B00010BDC0468446081C6146FFE71FB500F027
:1007C00049FC002801D40021C8421FBD10B500F02B
:1007D000CFFB4042013010BD10B500F03BFC0028BB
:1007E00001DB002010BD012010BDC04610B500F097
:1007F00031FC002801DD002010BD012010BDC046E5
:1008000010B500F0DFFB002801DC002010BD012046
:1008100010BDC04610B500F0D5FB002801DA00205D
:1008200010BD012010BDC046002B15D1002A13D1E8
:10083000002900D1002807D003DB0020C043410875
:1008400002E080210906002007B4024801A14018F7
:10085000029003BDE1FEFFFF03B4684601B50298B4
:1008600000F0BEF8019B9E4602B00CBC7047C0462B
:10087000002B11D1002A0FD1002900D1002802D06D
:100880000021C943081C07B4024802A14018029085
:1008900003BDC046A1FEFFFF03B4684601B5029840
:1008A00000F0BAF8019B9E4602B00CBC7047C046EF
:1008B0009C460304F0B51B0C17043F0C150C1E1CC2
:1008C000041C000C7E436B4347434543FB18300C2C
:1008D0001818874202D980235B02ED18030CED182B
:1008E00063465C434A433604360CA1180004801961
:1008F0004919F0BD9E2110B5C905041CFFF78AFFF8
:10090000002803D1201C00F091FE10BD9E21C905D6
:10091000201C00F015FD00F089FE80231B06C01886
:10092000F3E7C0460000000038B50E4B0C4A051C2A
:100930000C1CFFF717FF002804D1281C211C00F015
:1009400013F838BD80231B06E118281C00F00CF8B2
:10095000021C0B1C002150429941F2E7C046C046E0
:10096000000000000000000070B50E4B0C4A0D1C8A
:10097000041C01F0B3FE02F017FE061C02F0E4FCBA
:10098000094A0A4B01F0AAFE021C0B1C201C291C60
:1009900002F034F902F008FE311C70BDC046C046BA
:1009A000000000000000F03D000000000000F041E9
:1009B00070B5061C081C02F089FC084B064A01F0C1
:1009C0008DFE0D1C041C301C02F0BEFC2B1C221CD6
:1009D00000F0F8FE70BDC046000000000000F041CD
:1009E000F0B583B0161C1F1C0090019102F0FCFDB5
:1009F000041C0D1C221C2B1C301C391CFFF758FF3B
:100A0000009A019B121A8B410899201C0A604B60C6
:100A1000291C03B0F0BDC046F0B583B0141C1D1CEA
:100A20000090019102F0BCFF221C2B1C061C0F1C25
:100A3000FFF73EFF009A019B121A8B410899301C68
:100A40000A604B60391C03B0F0BDC046F8B54302E4
:100A50004400C50F4E024800240E2A1C9B09000EBC
:100A6000C90FB6098D425BD0221A002A00DC89E04A
:100A700000281DD1002E00D075E0580704D00F22A9
:100A80001A40042A00D004338021C90419402A1CCA
:100A900000293AD00134FF2C00D17FE09B015B0A92
:100AA0005B02E4B2E405580AD20720431043F8BDC4
:100AB000FF2CE2D08021C9040E431B2A00DD2DE16A
:100AC000311C2020D140821A9640721E96410E435E
:100AD0009B1B5801D1D59B019F09381C02F046FD94
:100AE000421F974094425BDC141B1F231B1B3A1CC4
:100AF0009F40611C3B1CCA405F1EBB411343002446
:100B0000BBE7131EB9D100230022DB08FF2C04D160
:100B1000002B43D08020C00303435B025B0ABFE786
:100B2000211A002940DD002823D0FF2CA5D08020E9
:100B3000C00406431B2900DDEEE0301C2027C8401E
:100B4000791A8E40711E8E4106439B19590100D4BB
:100B500093E70134FF2C55D0714901221A400B4014
:100B60005B08134389E7013A002AB1D0FF2CA4D1D6
:100B700083E7002E00D180E701390029E5D0FF2C62
:100B8000D8D17AE7002A1BD1621CD2B2012A4BDDF0
:100B90009F1B7A0123D5F71A0D1C9EE700237FE7E0
:100BA0005F4BA41A3B4068E7002946D1611CC8B2DC
:100BB000012829DDFF2924D0F3185B080C1C5CE711
:100BC000002C13D0FF2818D08024E4045242234381
:100BD0001B2A4DDD0123F31A041C0D1C79E7002F9D
:100BE00000D07AE70023002200248EE7002B3BD0C0
:100BF000D243002AEFD0FF28EAD1331CFF240D1C7A
:100C00003BE7FF24002380E7002C5CD1002B00D1C0
:100C100080E0002E00D130E79B19580100D42CE76A
:100C20003F4A0124134028E7002C15D1002B40D166
:100C3000002E63D0331C0D1C1FE7002C21D1002B8C
:100C400054D0C943002904D0FF284CD01B2958DDBB
:100C500001239B19041C79E7002B19D1002E48D0E1
:100C6000331C0D1CFF2408E7331C041C0D1C04E777
:100C70001C1C2025D440AA1A93405A1E934123439A
:100C8000A9E7FF282FD08024E40449422343DDE76D
:100C9000FF24002E00D1F0E68022DB08D2031342AD
:100CA00004D0F608164201D1331C0D1CDB00FF24D2
:100CB000E3E6002E00D1E0E69A1B500100D420E7C5
:100CC000F31A0D1CD9E6002B0DD0FF24002E00D105
:100CD000D3E68022DB08D2031342E7D0F60816429F
:100CE000E4D1331CE2E7331CFF24C6E6331C041CAA
:100CF000C3E6802300229B04FF2406E7231C002276
:100D000003E71C1C2027CC40791A8B40591E8B41CD
:100D100023439EE7331CB0E6012616E70126D7E6FB
:100D2000FFFFFFFBF0B55F4656464D464446F0B424
:100D300046024500C00F85B00F1C760A2D0E804676
:100D400041D0FF2D26D08024240400212643F60024
:100D50007F3D89468B46F90F7C027800640A000EBD
:100D600000918A463CD0FF2834D080231B041C43CA
:100D70000023E4007F380193009F4346019A7B40A3
:100D800049469C4611430F2900D971E0764F8900EE
:100D90007F58BF46002E3ED10822022391469B4633
:100DA000D9E75A46341CC24601920199022937D02C
:100DB000032900D1CFE0012900D0ABE053460B401E
:100DC0000022002632E0002E19D10421012289469A
:100DD0009346C0E7221C531E9A4102320192CBE790
:100DE00001270197002CC7D0201C02F0BFFB431F36
:100DF0009C4076235B420021181A0191BCE7301C0D
:100E000002F0B4FB7625431F9E406D4200232D1A4D
:100E100099469B469FE70C23032199468B469AE708
:100E2000D446012367463B40FF2200267602D205C6
:100E3000700ADB071043184305B03CBC9046994646
:100E4000A246AB46F0BD80260023F603FF22EDE765
:100E500000220026EAE78020C00306423BD004427D
:100E600039D1061C26437602760A009BFF22DDE775
:100E7000281A039076016401A64239D3361B1A2240
:100E800001230120311C5B007600002901DBB44204
:100E900001D8361B0343013A002AF3DC741EA64135
:100EA000341C1C43039A7F32002A27DD630704D0D9
:100EB0000F232340042B00D00434270103D52B4BF0
:100EC000039A1C408032FE2A0BDD012361460B4051
:100ED000FF220026AAE706437602760A4346FF224F
:100EE000A4E7A40101236746660AD2B23B409DE70E
:100EF000039F1B22013F03970023C2E77E23039F2A
:100F00005B42DB1B1B2B07DD012361460B400022EC
:100F100000268BE7D446C5E7221CDA40039B9E33AC
:100F20009C40231C5C1EA34113435A0704D00F228C
:100F30001A40042A00D004335F0105D5012361461D
:100F40000B400122002671E79E01624601231340F7
:100F5000760A00226AE78026F60326437602760A9E
:100F60005346FF2262E7C04630190100FFFFFFF73A
:100F70004A02430270B55C0A550A43004A001B0E40
:100F8000C60F120EC90FFF2B05D0FF2A08D0012073
:100F900093420BD070BD0120002CFBD1FF2AF6D16B
:100FA0000120002DF6D101209342F3D1AC42F1D1C2
:100FB0008E4205D0002BEDD1201C441EA041E9E754
:100FC0000020E7E74A024302F0B55C0A550A4300F5
:100FD0004A001B0EC60F120EC90FFF2B31D0FF2A7D
:100FE00034D0002B16D1604260418446002A14D0D0
:100FF000002820D18E4217D1934215DC04DBAC428D
:1010000012D80020AC4212D27042704140420123FB
:1010100018430CE0002AEDD194466F426F416046C0
:10102000002805D1002FE5D0704201231843F0BD00
:101030000020002FFBD14842484140420123184381
:10104000F5E7002CCBD002204042F0E7002DC8D0BD
:10105000F9E7C0464A024302F0B55C0A550A43006C
:101060004A001B0EC60F120EC90FFF2B27D0FF2AF6
:1010700029D0002B10D0002A15D194466F426F4121
:101080006046002815D00020002F04D14842484176
:10109000404201231843F0BD604260418446002A6B
:1010A000ECD00028F2D18E4211D0704201231843B7
:1010B000F1E7002FF7D0704201231843EBE702203D
:1010C000002CE8D1D3E70220002DE4D1D1E79342F0
:1010D000EBDC04DBAC42E8D80020AC42DBD270424F
:1010E0007041404201231843D5E7C046F0B55F4642
:1010F00056464D464446F0B44402460083B00F1CA9
:10110000640A360EC50F002E41D0FF2E22D0802358
:101110001B0400201C43E4007F3E82468046391CAD
:101120004B007F02C90F7F0A1B0E8B463BD0FF2B63
:1011300034D0802212041743FF007F3B00215A461F
:101140006A40019252460A430F2A63D87A489200B5
:1011500082589746002C3FD1082202239246984697
:10116000DDE70195404602282AD1019A0125154064
:10117000FF2300246402DB05600AED0718432843BF
:1011800003B03CBC90469946A246AB46F0BD002C4D
:1011900027D10420012282469046C0E7391C4A1E0E
:1011A00091410231CBE70121002FC8D0381C02F059
:1011B000DDF9431F9F4076235B421B1A0021BEE7E7
:1011C000032800D1AEE001284FD1019842461040DB
:1011D000C5B200230024CDE70C2303209A468046A5
:1011E0009DE7201C02F0C2F97626431F9C40764200
:1011F0000023361A9A46984691E780240025E40396
:10120000FF23B7E75B463C1C01938846AAE73C1CDA
:101210008846A7E7250C24043A0C240C3F04F61852
:101220003F0C211C231C794353436F435543FB1848
:101230000A0C9B18B1469F4202D980225202AD1877
:1012400009041A04090C521894011B0C611E8C41EC
:10125000920EED181443AD012C43230105D5012254
:1012600063080120144081441C434B467F33002B0C
:101270002DDD600704D00F222240042A00D0043460
:10128000220103D52D4B1C404B468033FE2B17DD2E
:10129000019B01251D400024FF236BE78020C00334
:1012A000044208D0074206D1041C3C436402640A8D
:1012B0005D46FF235EE704436402640AFF2359E7A7
:1012C0000198A4010125640ADBB2054052E77E23A0
:1012D0005B424A469B1A1B2B05DD019B01251D40E5
:1012E0000024002346E7221CDA404B469E339C40F4
:1012F000231C5C1EA3411343580704D00F221A403D
:10130000042A00D004335A0105D5019B01251D4054
:10131000002401232EE701989C010125640A054061
:10132000002327E78027FF03019B3C43640201253C
:101330001D40640AFF231DE770190100FFFFFFF73E
:10134000F8B5C20F430244004D024800240E161C9B
:101350009B09000EC90FAD09FF2800D183E00127CA
:1013600079408A425CD0221A002A00DC8EE00028F4
:101370001ED1002D00D07AE0580704D00F221A4069
:10138000042A00D004338021C904012219403240CC
:1013900000293AD00134FF2C00D183E09B015B0A85
:1013A0005B02E4B2E405580AD20720431043F8BDBB
:1013B000FF2CE1D08021C9040D431B2A00DD31E15F
:1013C000291C2020D140821A95406A1E95410D4368
:1013D0005B1B5801D0D59B019F09381C02F0C6F851
:1013E000421F974094425FDC141B1F231B1B3A1CB7
:1013F0009F40611C3B1CCA405F1EBB41134300243D
:10140000BAE7131EB8D100230022DB08FF2C04D159
:10141000002B47D08020C00303435B025B0ABFE779
:10142000211A002944DD002827D0FF2CA4D08020D9
:10143000C00405431B2900DDF2E0281C2027C8401A
:10144000791A8D40691E8D4105435B19590100D4FD
:1014500092E70134FF2C59D0734901221A400B4006
:101460005B08134388E7002D00D07AE777E7013A5D
:10147000002AADD0FF2CA0D17EE7002D00D17BE764
:1014800001390029E1D0FF2CD4D175E7002A1BD106
:10149000621CD2B2012A4BDD5F1B7A0123D5EF1A01
:1014A0000E1C9AE700237BE75F4BA41A3B4063E7DF
:1014B000002946D1611CC8B2012829DDFF2924D0AA
:1014C000EB185B080C1C57E7002C13D0FF2818D032
:1014D0008024E404524223431B2A4DDD0123EB1AEE
:1014E000041C0E1C75E7002F00D076E700230022B5
:1014F00000248AE7002B3BD0D243002AEFD0FF28FC
:10150000EAD12B1CFF240E1C36E7FF2400237CE7C6
:10151000002C5CD1002B00D180E0002D00D12BE706
:101520005B19580100D427E73F4A0124134023E701
:10153000002C15D1002B40D1002D63D02B1C0E1C8C
:101540001AE7002C21D1002B54D0C943002904D024
:10155000FF284CD01B2958DD01235B19041C75E7BB
:10156000002B19D1002D48D02B1C0E1CFF2403E7A3
:101570002B1C041C0E1CFFE61C1C2026D440B21A97
:1015800093405A1E93412343A9E7FF282FD080247C
:10159000E40449422343DDE7FF24002D00D1EBE6BC
:1015A0008022DB08D203134204D0ED08154201D19A
:1015B0002B1C0E1CDB00FF24DEE6002D00D1DBE639
:1015C0005A1B500100D41CE7EB1A0E1CD4E6002B6A
:1015D0000DD0FF24002D00D1CEE68022DB08D203FF
:1015E0001342E7D0ED081542E4D12B1CE2E72B1C97
:1015F000FF24C1E62B1C041CBEE6802300229B04B2
:10160000FF2402E7231C0022FFE61C1C2027CC40FD
:10161000791A8B40591E8B4123439EE72B1CABE666
:10162000012512E70125D3E6FFFFFFFB4302590A1C
:101630004300C20F1B0E00207E2B0DDD9D2B0CDC0A
:10164000802000040143952B0ADC9620C31AD94060
:101650004842002A00D1081C7047034BD018FBE712
:10166000963B9940F4E7C046FFFFFF7F70B5041E2C
:101670003CD0C60F00D04442201C01F077FF9E23CF
:10168000251C1B1A962B0CDC083884406402640A63
:10169000DBB2321C6402DB05600AD2071843104338
:1016A00070BD992B0ADD0522121A211CD1400A1C9B
:1016B000011C1B318D40691E8D411543052801DD3C
:1016C000421F9540164C2C406A0704D00F2215404B
:1016D000042D00D0043461010CD59F23181AFF2873
:1016E0001AD0A401640AC3B2321CD3E7002200233B
:1016F0000024CFE7E408FF2B04D06402640ADBB2C5
:10170000321CC7E7002C04D08020C00304436402CD
:10171000640A321CFF23BDE7321CFF230024B9E713
:10172000FFFFFFFB10B5041E33D001F01FFF9E2307
:101730001B1A962B09DC083884406402640ADBB269
:101740006402DB05600A184310BD992B0ADD0522EF
:10175000121A211CD1400A1C011C1B318C40611E35
:101760008C411443052801DD421F9440144A224055
:10177000610704D00F210C40042C00D00432510129
:101780000AD59F23181AFF2816D09401640AC3B201
:10179000D6E700230024D3E7D208FF2B03D054025E
:1017A000640ADBB2CCE7002A06D08024E4031443A9
:1017B0006402640AFF23C3E7FF230024C0E7C04696
:1017C000FFFFFFFBF8B55F46564644464D46F0B472
:1017D0000C034D00CE0F610A440F2143C4001803CF
:1017E00080465800400D8246D80F84464046400A45
:1017F000530F0343D0006D0D371C83465246664598
:1018000000D1A4E0AF1A002F00DC09E1002A3BD18F
:10181000184300D0EAE0630700D187E00F2323409C
:10182000042B00D182E0221DA242A4416442802305
:1018300009191B040B40371C141C002B00D17CE041
:10184000CE4B01359D4200D105E1CD4BE408194056
:101850004807490204430B0B002000211B031A0B0D
:101860000B0D6D051B0513436A08C64DFF071D4090
:1018700015436D006D08291C3943201C3CBC904663
:101880009946A246AB46F8BDBC488542C3D08020ED
:1018900000040343382F00DDF0E01F2F00DD24E1BA
:1018A0002020C01B1A1C814682405846F840024343
:1018B000944658464A469040421E9041FB4062463C
:1018C00002431F1CA21A9442A4416442C91B091B73
:1018D000141C0B029FD549024F0A002F00D1C8E00B
:1018E000381C01F043FE021C083A1F2A00DDB5E057
:1018F0002821091A201C9740C8400743944095426C
:1019000000DDB2E0551B691C1F2900DDDCE01F2251
:10191000551B3B1C221CAB40CA40AC40651EAC4171
:101920001343CF401C43391C002574E780231B045C
:101930000B40371C002B00D082E7904B4807E4088F
:101940000443C9089D4248D009030B0B84E7AA1A37
:101950009446002A00DC98E05046002852D0874880
:10196000854200D157E78020000403436246382AAD
:1019700000DDFCE01F2A00DD4AE120226046101A4B
:101980001A1C82408246914658466246D0404A46DA
:1019900002439046584652469040421E904142466D
:1019A00002436046C3401219A242A441644259183E
:1019B0000919141C080200D42DE7704B01359D4213
:1019C00000D122E16E4B60081940012323401C1C0A
:1019D0000443CB071C4349081DE7231C0B433AD0A3
:1019E00080231B030B431B031B0B35E7013F002F19
:1019F00065D15846221A9442A4416442C91A091B6F
:101A0000141C66E75846184300D104E701225242ED
:101A100094446046002800D0C5E058460219C3E748
:101A2000002F73D1681C4005400D012800DCDEE06A
:101A30005A46A21A9442BF41C81A7F42C71B3802B5
:101A400000D489E05A46141BA3459241591A5242C8
:101A50008F1A664641E700230024FDE6271C28383C
:101A600087400024954200DC4CE74549AD1A3940D7
:101A7000D1E6201C01F07AFD203034E75A461A43A3
:101A8000531E9A41D2B200271CE7002A00D0DCE0A6
:101A9000681C4205520D012A00DC8DE0374DA8423A
:101AA00000D1F3E05D462A19A242A44164425918CC
:101AB0000919CC07520814434908051CABE62F4806
:101AC000854200D0E6E6A6E62B1C1F3B3A1CDA4016
:101AD000131C20296CD03F22551BAF403C43601E95
:101AE00084411C430021002595E6381C20381A1C2F
:101AF000C240101C202F5DD04022D71BBB405A464D
:101B00001A43531E9A4102430027DBE6002D3BD0C7
:101B10001A4DAA4500D193E080252D047F42294328
:101B2000382F00DDACE01F2F00DD29E12025ED1B63
:101B3000081C261CA840FE40AC400643651EAC4174
:101B40003443F9405D462C1BA34592415B1A524237
:101B5000991A55466646BCE6131C3B43141C002BE1
:101B600000D0BAE60027002100250024E5E65A4609
:101B70001A43531E9A41D2B2002314E7FF07000014
:101B8000FFFF7FFFFFFF0F800D1C254358D0FF4351
:101B9000002F51D1041BA3459241591A5242891A70
:101BA0005546664695E69648854200D0DEE632E622
:101BB000002793E70023A2E7081C2043002D00D054
:101BC000C4E0002800D1F7E05846184300D122E6CF
:101BD00058460219A242A441644259180919141C1A
:101BE0000A0200D417E6874B0125194013E6081CAA
:101BF0002043002D39D1002871D15946194303D013
:101C0000191C5C46664606E600270021002494E67F
:101C1000604620381A1CC24060469146202800D1F8
:101C2000ACE04022121A93405A461A43531E9A417E
:101C30004B461A430023B6E6714DAA4500D06FE724
:101C4000191C5C4655466646E5E5002D22D10D1C63
:101C5000254377D0D543002D71D15C445C4592413A
:101C60005918524289185546A4E600284DD15946C4
:101C7000194300D194E0191C5C466646604DCAE5E4
:101C80000C43611E8C41E4B200215BE7051C00217E
:101C9000002452E65A4DAA4554D0554280221004E1
:101CA0000143382D00DD81E01F2D00DD92E0202270
:101CB000501B0A1C84468240201CE8400243904688
:101CC00062469440601E844142461443E9405C44AD
:101CD0005C459241CB185242991855466AE65846DF
:101CE000184300D197E55846271ABC429241C81ABA
:101CF0005242801A020266D55846041BA3459241FF
:101D0000591A5242891A664685E55846184333D017
:101D10004807E40804438020C9080003014208D0B2
:101D2000DD08054205D15946CA085C071443291C41
:101D30006646630FC9001943E400314D6BE5304A34
:101D40009245AED1191C5C46554664E5002836D054
:101D50005846184310D080254807E408C9082D03C9
:101D600004432942E5D0D8082842E2D15D46EA087A
:101D70005C071443011CDCE7214D4CE5002353E7CD
:101D80003D1C203D0A1CEA40151C202F34D0402663
:101D9000F71BB9400C43611E8C412C430021D1E656
:101DA00080210027C903164D0024C6E50C43611E9F
:101DB0008C41E4B200218AE7191C5C462BE5191C12
:101DC0005C460F4D27E5031C3B4300D11CE7011C7B
:101DD0003C1C20E52020404240190A1CC24090468D
:101DE000202D0BD04020451BA9400C43611E8C4187
:101DF00045462C4300216AE70021CBE70021F4E7A8
:101E0000FF070000FFFF7FFFF0B5564644465F46E0
:101E10004D46F0B41F1C0B031B0B98464B0087B0BC
:101E2000041C81465B0DC80F161C9A460090002BBF
:101E300051D06A4B9A4531D08022414652030A4321
:101E4000630FD2001A43664B90460025E20091468C
:101E50009A44002402953B031B0B9B46FD0F7B001D
:101E6000311C5B0D019560D05C4A934254D08021B7
:101E7000584649030143720FC9001143584A8B4623
:101E80009B18F1000020009A04436A4003920F2C33
:101E900000D9ADE0534EA4003459A7464046044350
:101EA0006ED1002102250824884689460295D2E792
:101EB000009C0298C34649460194022864D0032836
:101EC00000D1ABE2012800D038E2019A00240240A0
:101ED0000025A14660E0434623434AD040460028FF
:101EE00000D1C0E101F042FB031E272B00DDB3E16E
:101EF00028210D1A211C083B4246E9409A400D1C3E
:101F00001543221C9A40A8469146374B00251B1AC0
:101F10009A46002402959EE75A4616430320002E57
:101F2000B1D1B34600210220ADE75A4632431BD05F
:101F30005B46002B00D18AE1584601F017FB2728A9
:101F400000DD7DE12822171A011C321C08395B468E
:101F5000FA408B40171C1F43331C8B40BB46191C97
:101F6000214B1B1A00208EE70027BB4600210120D1
:101F700089E70020012504248046814602956AE70E
:101F800003250C24029566E7019C0394039D01221E
:101F90002A400024114DA146002000212403260BD5
:101FA0000C0D2405114B34432D0523402B435B00BE
:101FB0005B08D207191C4846114307B03CBC904649
:101FC0009946A246AB46F0BD0022802424039146E8
:101FD000024DE1E700240025A146DDE7FF070000F0
:101FE00001FCFFFFB01901000DFCFFFFFFFF0F8098
:101FF0005546ED1A0495D84500D953E100D14EE17C
:10200000049C0025013C4E4604944746A946584688
:1020100003020C0E1C430902250C23041B0C009127
:10202000381C291C0193FEF7D7FA019983464143D6
:10203000381C8A46291CFEF713FB330C090419438C
:102040008A450CD95B460919013B8C4200D947E10E
:102050008A4500D844E1022252429344091953466A
:10206000CB1A181C291C9846FEF7B6FA071C0198D3
:10207000291C784382464046FEF7F2FA36040B04E8
:10208000360C33439A4509D91B197A1E9C4200D954
:1020900024E19A4500D821E1023F1B195E46320433
:1020A0001743380CBB46009E009F51463F0C32043C
:1020B0005B1A5946BA46120C0F043F0C9046514623
:1020C0007A434F434146414356467043CF19160C5D
:1020D000BE19B14202D980277F02C019310C120407
:1020E0003604120C4018B618834200D2C4E000D166
:1020F000BEE0191A4846861BB145BF417F42CF1B3F
:10210000A74200D113E1291C381CFEF765FA01999A
:1021100002904143381C8946291CFEF7A1FA330C72
:102120000904194389450CD9029B0919013B8C42CA
:1021300000D9FFE0894500D8FCE0029F0919023F61
:1021400002974F46CF1B381C291C0597FEF744FA0F
:10215000071C0198291C784381460598FEF780FAF0
:1021600036040904360C0E43B14509D936197B1ED5
:10217000B44200D9E0E0B14500D8DDE0023F3619B5
:10218000029D4946761A290439430B0457460A0C26
:102190001B0C40464546584355437B437A43EB1856
:1021A000070CDB199D4202D980256D0252191D0CC6
:1021B00000041B04000C52191B18964235D300D1A1
:1021C000FCE001231943049E994FF519002D00DC12
:1021D000A1E0480709D00F230B40042B05D00B1DAD
:1021E0008B42894149428B44191C5A46D20107D57A
:1021F000904B5C46049E80271C40FF00A346F519C7
:102200008D4B9D427ADD039C0122224000248B4DA0
:10221000A146C1E680242403474627424CD13C43D3
:102220002403240B009A854DB6E63619481EB442A5
:102230005ED9011C9642C4D1009E9E42C1D1C2E724
:10224000031C283B311C99408B46002188E6301C3A
:1022500001F08CF9203072E6283B211C99400022C5
:102260008846914651E6201C01F080F920303BE67B
:102270000021B14500D33DE7009F5A46B944B94516
:10228000BF417F423F19FB18013A9C421ED298423F
:1022900000D97EE000D1B5E0191A93462AE78945B6
:1022A00000D8ADE64846464642467708D30746087A
:1022B000C0071E438146AAE65846204212D1044375
:1022C00024032A1C240B89465C4D65E6A342E3D116
:1022D000009F4F45DBD9211A93460BE7171CDDE61B
:1022E0009B46BCE63C432403240B009A534D53E623
:1022F000B24259D800D18AE0011C62E75F46C908A2
:102300007B07039E0B437C026D0501229946240B3B
:102310006D0D324040E64A4B049FDB1B382B10DD2D
:10232000039C0122224000240025A14634E601211D
:10233000494248E7029304E71F1C21E7019C0394EC
:1023400041E71F2B40DC3F48049F0C1C3A185846BD
:102350009140DC40904020430A1C511E8A41011CE0
:1023600011435A46DA40131C480709D00F220A408D
:10237000042A05D00A1D8A42894149425B18111C72
:102380001A0234D5039C0122224000240125A146D3
:1023900002E6009F02214942B9448B44B945894174
:1023A00049420919CB18A4E6009D881E6900A9427C
:1023B000AD416D422C19361900913AE7002B00D03F
:1023C00033E70024009437E71F4A049C5D46121B44
:1023D000D5402A1C202B1FD01C4E5F46A3199F40BE
:1023E0003B1C19434B1E994111430023BCE75A077C
:1023F000C9080A43039F91465B0201221C0B3A4025
:102400000025C9E54E45C4D89346002172E6009FD9
:102410009F42C9D3011C0FE70023E2E78024240375
:102420005F463C432403240B019A8946034DB3E5E0
:10243000FF030000FFFFFFFEFE070000FF07000094
:1024400002FCFFFF1E040000E2FBFFFF3E04000051
:10245000F0B55F4656464D464446F0B40D1C041C8C
:102460008046E80F814618030F03000B3F0B83B033
:1024700084461B48009749005E00DF0F490D9246D5
:10248000760DBB4681420CD01548864210D0012003
:10249000B14215D003B03CBC90469946A246AB462B
:1024A000F0BD009F01202743F4D10D488642EED1B4
:1024B000604602430120002AECD10120B142E9D15B
:1024C000009B6345E6D1D045E4D1D94506D000292B
:1024D000E0D11C43201C441EA041DBE70020D9E7CB
:1024E000FF070000F0B55F4656464D464446F0B43F
:1024F000CD0FDE0FAC461D032D0BB146374E0F033B
:102500004C00AB465D0080463F0B640D92466D0D5E
:10251000B44232D0314EB54235D0002C0ED13843C2
:1025200041424141081C002D0BD0002919D1CC4556
:102530002DD0654668420123184318E0002DF6D1DE
:10254000281C59460A4353425341002806D1002B08
:10255000EDD0634658420123184308E00020002BC9
:1025600005D14A46504250414042012318433CBCE9
:1025700090469946A246AB46F0BD3E1C0643C9D0E4
:1025800002204042F3E75E461643C6D0F8E7AC426D
:1025900007DC0BDA614648424841404201231843B8
:1025A000E5E76646704201231843E0E75F450AD835
:1025B0000ED000205F45DAD265466842684140424D
:1025C00001231843D3E76246504201231843CEE764
:1025D000D045F8D80020D045EED3C8E7FF0700006B
:1025E000F0B556464D4644465F46F0B40D1C83B0E8
:1025F000041C0190E80F814618030F03000B3F0BEA
:1026000084463548009749005E00DF0F490D924629
:10261000760DB846814234D02F48864236D0002904
:1026200018D0002E1FD1341C67463A435342534101
:10263000002C1FD00020002B05D1424650425041B3
:1026400040420123184303B03CBC90469946A24641
:10265000AB46F0BD0098044360426041041C002E6C
:10266000E2D00028E9D1C14515D04F467842012378
:102670001843E8E7002BF6D04B4658420123184395
:10268000E1E7009F02202743DDD1C5E7674602202E
:102690001743D8D1C3E7B14204DD4A465042012373
:1026A0001843D0E7B14207DB00986045E4D80AD070
:1026B000009F00206745C6D24F467842784140428D
:1026C00001231843BFE7019A5245D5D8019A00204B
:1026D0005245F1D3B7E7C046FF070000F0B55646B4
:1026E00044465F464D46F0B41F1C0B031B0B9A4635
:1026F0004B0087B0041C80465B0DC80F161C02936C
:102700008146002B68D0694B0299994232D08022D1
:10271000534652031A43D200630F1A439246644A47
:10272000E000891880460291002400253B031B0B22
:102730009B467800FB0F321C400D039300D175E0DF
:102740005A4B984269D08022594652030A43730F6C
:10275000D2001A43564B9346C018F2000023039947
:102760004E4671401C430F2C00D9A9E0514EA400E5
:102770003459A74653461C4300D087E00025AA469B
:10278000A84608240225D1E74946022D6CD0032D26
:1027900000D117E2012D00D058E10D40EDB2002428
:1027A000A9460023A0460020002125030A0D1C0590
:1027B0002D0B1205404B2A43134023435B004C462C
:1027C0005B08E207191C4046114307B03CBC904629
:1027D0009946A246AB46F0BD5346234350D05346DC
:1027E000002B00D184E1504600F0C0FE031E272BD1
:1027F00000DD76E128210D1A211C083B5246E940F4
:102800009A400D1C1543221C9A40AA4690462B4B19
:1028100000241B1A0293002588E75B461E4303230E
:10282000002E9CD1B3460022022398E75B46334337
:1028300021D05846002800D14EE100F097FE27280D
:1028400000DD42E128210F1A021C311C083A5B46C8
:10285000F94093400F1C1F43331C9340BB461A1C86
:10286000164B181A00237AE701230B4000249946DF
:10287000A0460E4B97E70027BB46002201236EE7D8
:10288000002104248A46884601254FE70C240325AD
:102890004CE700258024A9462403A846034B82E781
:1028A000DA46904603991D1C6FE7C046FF070000FB
:1028B00001FCFFFFF0190100FFFF0F800DFCFFFF7F
:1028C000029F160C381804904046070C0004000CB8
:1028D0001204120C031C5343041C3D1C7443554347
:1028E00098463B1C73436419A44644460293230C48
:1028F00063449D4204D9029D802464022D190295EF
:102900001D0C039545462C041B04240C1C1905942E
:102910005C46230C051C58432404240C8446381CB4
:10292000604365435F438146CC44280C6044BB460A
:10293000814502D980277F02BB442D04070C2D0C52
:10294000000440195546BC462F04E3448446280C35
:102950003D0C2F1C5743B8462F1C77434243B946C2
:1029600047463F0C9144BA46D14446434A4502D9B2
:1029700080225202B6184F463A0CB6183A0447461F
:102980003F043F0CB8462F1C67435D434443584304
:1029900065190190380C2D184244B846AC4204D950
:1029A000019880235B02C0180190039C029F201CA9
:1029B0006044C0196045A44147466442A4462B04C4
:1029C0003C049946240C4C44A046D8448018C24686
:1029D000E24490429241574652429146F219E245F2
:1029E000BF417F424B46BC46D845BF41D4187F42C9
:1029F00063461F432D0C7F19B24292414C45AD41B5
:102A000052426D421543019E7D19AB19E20D5B02E6
:102A1000059F134342023A439A46531E9A41C30DFF
:102A2000101C18436402204380465046C0010DD557
:102A3000454601225646049C6B082A401A43F30778
:102A400001341A43760804949046B246049E634FBC
:102A5000F319002B61DD404640070BD00F2244469E
:102A60002240042A06D04246043242458041404278
:102A7000824490465546ED0107D5594B5646049F72
:102A800080201E40C000B2463B18564A934200DDEB
:102A9000EAE644465546E2086807104301226C0204
:102AA0005B050A408046240B5B0D91467BE6DA46C7
:102AB00090461D1C69E680242403574627421CD1FA
:102AC0003C432403240B484B6DE6031C283B311C7C
:102AD00099408B460022C3E6301C00F047FD2030B1
:102AE000ADE6283B211C994000228A4690468EE69E
:102AF000201C00F03BFD203078E65846204207D1EC
:102B0000044303992403240B89469046364B4AE636
:102B10003C432403240B344B45E6344B049E9B1B5F
:102B2000382B06DD01230B4000249946A0460023E4
:102B300039E61F2B25DC049C2D4D46466019524674
:102B400044468640DC4082405746301C2243DF40EA
:102B5000441EA04102433B1C540709D00F201040E3
:102B6000042805D0101D9042924152429B18021C2D
:102B70001D021AD501230B4000249946A0460123CB
:102B800011E61C48049C5546001BC540281C202B00
:102B900016D0194E5746A21997403A1C43461A437D
:102BA000531E9A4102430023D6E758075B02D2081E
:102BB0001C0B01230B401043994680460023F2E58D
:102BC0000022EBE7802424035046012304431940EC
:102BD0002403240B8946044BE5E5C046FF030000AF
:102BE000FFFFFFFEFE070000FF07000002FCFFFFE3
:102BF0001E040000E2FBFFFF3E040000F8B55F4644
:102C0000564644464D46F0B40C034D00CF0F610AC2
:102C1000440F2143C4001803DE0F8046B4464646E5
:102C20005800760A530F3343D600D14A6D0DBA4689
:102C3000400DB346904200D1F5E062460126724055
:102C40009446674500D1ABE02F1A002F00DC11E15C
:102C500000283ED15846184300D0F1E0600700D16B
:102C600097E00F232340042B00D122E1221DA24232
:102C7000A4416442802309191B04012750460B40DC
:102C80000740141C002B00D179E0B94B01359D425F
:102C900000D10BE1B74BE40819404807490204434F
:102CA0000B0B002000211B031A0B0B0D6D051B05E0
:102CB00013436A08B04DFF071D4015436D006D08B2
:102CC000291C3943201C3CBC90469946A246AB4681
:102CD000F8BDA7488542C1D0802000040343382FA7
:102CE00000DDFDE01F2F00DD31E12020C01B1A1C9C
:102CF0005E468240FE40324394465A468240101C53
:102D0000421E9041FB40624602431F1CA21A94429D
:102D1000A4416442C91B091B141C0A029ED5490226
:102D20004F0A002F00D1D6E0381C00F01FFC021C17
:102D3000083A1F2A00DDC3E02821231C091A974006
:102D4000CB401F439440954200DDC0E0551B691CF9
:102D50001F2900DDEAE01F22551B3B1C221CAB4053
:102D6000CA40AC40651EAC411343CF401C43391CE4
:102D7000002573E780217E4D0027C90300247C4B8A
:102D80004807E4080443C9089D4250D009030B0BCF
:102D900087E780231B04012752460B40174071E749
:102DA0002A1A9446002A00DCA1E0002854D070487A
:102DB000854200D152E78020000403436046382852
:102DC00000DD0EE11F2800DD57E162462020801A59
:102DD0001E1C8640B1465E46D6404A4632435E4699
:102DE00086409046301C421E904142460243604657
:102DF000C3401219A242A441644259180919141C73
:102E0000080200D42AE75A4B01359D4200D131E136
:102E1000584B60081940012323401C1C0443CB0776
:102E20001C4349081AE71E4300D00AE705E7231CA4
:102E30000B433BD080231B030B431B031B0B30E7CF
:102E4000013F002F6DD15E46A21B9442A441644213
:102E5000C91A091B141C60E75846184300D1FDE647
:102E600001267642B4446046002800D0D0E05E4699
:102E70003219BFE7002F00D080E0681C4005400DEC
:102E8000012800DCE8E05A46A21A9442BF41C81A61
:102E90007F42C71B3E0200D498E05846041BA3455E
:102EA0009241591A52428F1AE2463AE7002300240F
:102EB000F7E680231B04012756460B403740E1E626
:102EC000271C283887400024954200DC3EE729492A
:102ED000AD1A3940C2E6201C00F048FB203026E73E
:102EE0005A461A43531E9A41D2B200270EE7002ACF
:102EF00000D0DEE0681C4605760D012E00DC90E077
:102F00001B4DA84200D1F5E05E463219A242A44111
:102F1000644259180919CC07520814434908051C82
:102F20009CE61348854200D0D9E697E62B1C1F3B50
:102F30003E1CDE40331C20296FD03F22551BAF4082
:102F40003C43601E84411C430021002586E6381C5A
:102F500020381E1CC640301C202F60D04022D71BBA
:102F6000BB405A461A43531E9A4102430027CDE6FE
:102F7000FF070000FFFF7FFFFFFF0F80002D37D00E
:102F8000B64DA84200D18FE080252D047F42294311
:102F9000382F00DDA8E01F2F00DD24E12025ED1BE8
:102FA0000E1CAE40B046261CFE404246AC401643C6
:102FB000651EAC413443F9405A46141BA345924167
:102FC0005B1A5242991A051CE246A6E6131C3B43C3
:102FD000141C002B00D0A4E60027002100250024AB
:102FE000CDE65A461A43531E9A41D2B2002300E757
:102FF0000D1C254358D0FF43002F51D15A46141BB6
:10300000A3459241591A5242891A051CE24684E6A8
:103010009248854200D0D1E620E6002790E70023C1
:103020009FE7081C2043002D00D0C2E0002800D1FB
:10303000EFE05846184300D110E658460219A24264
:10304000A441644259180919141C0A0200D405E667
:10305000834B0125194001E6081C2043002D38D17F
:1030600000286FD15946194303D0191C5C46E2462B
:10307000F4E500270021002481E6604620381A1C70
:10308000C2406646101C202E00D1AAE04022921BAE
:1030900093405A461A43531E9A4102430023A8E61E
:1030A0006E4DA84200D073E7191C5C46051CE24631
:1030B000D4E5002D22D10D1C254376D0D543002D1B
:1030C00070D15C445C459241591852428918051CE4
:1030D00096E600284CD15946194300D14AE6191CFE
:1030E0005C46E2465D4DB9E50C43611E8C41E4B29D
:1030F000002161E7051C0021002440E6574DA8424D
:1031000053D05542802216043143382D7BDC1F2DCD
:1031100000DD8CE02022561B0A1CB446B240261C5F
:10312000EE403243904662469440661EB4414246A9
:103130001443E9405C445C459241CB1852429918D3
:10314000051C5DE65846184300D187E55E46A71B7F
:10315000BC429241C81A5242801A060260D55846B3
:10316000041BA3459241591A5242891AE24675E559
:103170005846184333D04807E40804438020C90860
:103180000003014208D0DD08054205D15946CA08AE
:103190005C071443291CE246630FC9001943E4008D
:1031A0002E4D5BE52D4A9042AFD1191C5C46051CA3
:1031B00054E5002830D05846184310D080254807E1
:1031C000E408C9082D0304432942E5D0D808284261
:1031D000E2D15D46EA085C071443011CDCE71F4DA1
:1031E0003CE5002355E73D1C203D0E1CEE40351C00
:1031F000202F2ED04026F71BB9400C43611E8C4176
:103200002C430021D8E60C43611E8C41E4B200211E
:1032100090E7191C5C4621E5191C5C460F4D1DE525
:10322000031C3B4300D124E7011C3C1C16E520266F
:10323000764276190A1CF2409046202D0BD040268B
:10324000751BA9400C43611E8C4145462C4300214F
:1032500070E70021D1E70021F4E7C046FF07000036
:10326000FFFF7FFF70B50B1C124C09030E0B5900BA
:10327000021C490DDD0F0020A14211DD0E488142E4
:103280000FDC8020400306430C48401A1F280BDD4A
:103290000B4A521AD640321C5042002D00D1101C4D
:1032A00070BD084BE818FBE7074BC240C9188E40B9
:1032B0003243F1E7FE0300001D0400003304000068
:1032C00013040000FFFFFF7FEDFBFFFFF8B5041EB6
:1032D00031D0C70F00D04442201C00F047F9184DF0
:1032E0002D1A0A2819DD0B38844024036D05240BA0
:1032F0006D0D3A1C0026002000210B0D2403240B29
:103300001B0523430F4C2D051C402C43640064080F
:10331000D307211C301C1943F8BD061C1536231C8D
:10332000B3401E1C0B23181AC44024036D05240B44
:103330006D0D3A1CDFE70022002500240026DAE7A5
:103340001E040000FFFF0F8010B5041E28D000F0FF
:103350000DF9154A121A0A2815DD0B38844024038A
:103360005205240B520D0023002000212403181CB9
:103370000B0D240B1B0523430C4C12051C4014435E
:103380006400610810BD031C1533211C99400B1CFF
:103390000B21081AC44024035205240B520DE3E705
:1033A000002200240023DFE71E040000FFFF0F803F
:1033B00043001B0E5A1C4102D2B270B54C0AC50F15
:1033C000012A17DDE02292006407090B98180022F9
:1033D00000231E0D221C34050C431B4940054008E8
:1033E0002140014349004908ED070B1C2B43101CE9
:1033F000191C70BD002B15D1002C1CD0201C00F016
:10340000B5F80A281ADC0B21091A231CCB40191C19
:10341000031C15339C400D4B0903181A4005090B7A
:10342000400DD4E7002C03D06407090B0848CEE711
:1034300007480021CBE700200021C8E7011C0B3919
:103440008C40211C0024E6E7FFFF0F808903000069
:10345000FF070000F0B54B000D03420F5B0D6D0A36
:1034600015435A1C5205CC0FC600520D012A27DD08
:10347000394FDA19FE2A1ADC002A35DD8001ED0009
:10348000431E98412843760F3043430704D00F234F
:103490000340042B00D004308021C904014027D010
:1034A0000132FF2A1DD083015B0AD1B201E0FF2166
:1034B00000235802C905400AE40708432043F0BD31
:1034C000002B06D1354311D10021002043025B0AB5
:1034D000EFE72E43EBD08020ED0080042843FF224D
:1034E000D3E7FF210023E4E717320DDA052000229D
:1034F000C008D1B2FF2AE9D10028D9D08023DB034C
:1035000003435B025B0AD4E780221449120415438B
:10351000C91A1F290DDC124A371C9B18281C9F4012
:1035200098403B1C5A1E93411843CE403043002222
:10353000ABE70C4F2A1CFF1AFA40171C202909D0B0
:10354000094A98188540281C3043461EB04138432C
:1035500000229AE70020F7E780FCFFFF9E030000AF
:1035600082FCFFFF7E030000A2FCFFFF1C21012361
:103570001B04984201D3000C10391B0A984201D356
:10358000000A08391B09984201D30009043902A234
:10359000105C40187047C04604030202010101019B
:1035A000000000000000000038B50E4B0C4A041C5F
:1035B0000D1CFDF7F5F8002804D1201C291CFFF78D
:1035C00051FE38BD074B064A201C291CFFF716FB8D
:1035D000FFF748FE80231B06C018F2E7C046C0462E
:1035E000000000000000E041F0B544465F4656464A
:1035F0004D46F0B41C1C85B0002900DADBE00F1C3E
:103600000021061C8A46101C191C002C00DAC9E097
:103610000196009089468046002951D1B84200D8D1
:1036200071E0FFF7A3FF002809D020234546311C95
:103630001B1A85408740D940A8460F438640424622
:10364000150C13041B0C291C381C9B46FCF7C4FFEB
:103650005B464343041C291C381C9946FDF700F8BF
:10366000330C08041843814509D94044631E804542
:1036700000D978E1814500D875E1023C40444946D3
:10368000411A8946081C291CFCF7A6FF5A464243EA
:10369000071C291C48469346FCF7E2FF3604090440
:1036A000360C0E43B34507D946447B1EB04502D8BD
:1036B000023FB34500D81F1C24042743002403E025
:1036C000B94211D9002400275246381C211C002A77
:1036D00003D03B1C00215842A14105B03CBC9046A0
:1036E0009946A246AB46F0BD081CFFF73FFF041EFB
:1036F00000D0BFE0B94500D242E1019D0099071C0E
:103700008D424741E0E7002804D101200021FCF769
:1037100063FF80464046FFF729FF002852D141460B
:1037200044460B043C1B1B0CA3460D0C00930124C8
:10373000291C5846FCF750FF009F81464743291C2F
:103740005846FCF78DFF330C090419438F4208D902
:103750004B464144013B884502D88F4200D91AE1CB
:103760009946C91B8B46081C291CFCF735FF009B9A
:10377000291C4343071C58460093FCF771FF36048D
:10378000009D0904360C0E43B54207D946447B1E02
:10379000B04502D8023FB54200D81F1C49460E046E
:1037A000374391E75246D243031C0C1C924600213A
:1037B0005842A1412CE7002746428F41012149424E
:1037C0008A4620E720231B1A4246351C82403C1CB7
:1037D000DD40DC4087402B1C150C3B43291C8640F8
:1037E000201C009317049046FCF7F6FE3F0C011CCA
:1037F000794381468B46201C291CFCF731FF009C35
:103800000904230C19438B450CD94B464144013B19
:10381000884500D9BDE08B4500D8BAE0022252426B
:10382000914441445C460C1B201C291C0194FCF76C
:10383000D3FE391C4143041C8B460198291CFCF71C
:103840000FFF009A090413041B0C19438B4509D977
:103850004144631E884500D997E08B4500D894E029
:10386000023C41445B46CB1A49469B460B041C4331
:1038700000975DE7009D20231B1A4A468240DD40E9
:103880001543391C009AD94082408846311C009269
:10389000D9403A1C82400B1C134301932F0C2B047C
:1038A0001B0C391C40460293FCF796FE029A814697
:1038B0004243391C40469346FCF7D2FE019A090464
:1038C000130C19438B450AD94B464919013B8D42CC
:1038D0005DD88B455BD902235B42994449195A460E
:1038E0008A1A101C391C0392FCF776FE029B804654
:1038F0004343391C03989B46FCF7B2FE019A090426
:1039000013041B0C19438B450AD943464919013B43
:103910008D4238D88B4536D902235B4298444919E9
:103920005D464D1BAB464946009D0F04424617437A
:103930002A04120C3B042D0C1B0C380C111C59438F
:1039400042436B436843D3180D0C5B198C469A4273
:1039500002D98022520280181D0C401983450CD3D5
:1039600003D00024B0E61C1C89E665462A041B042B
:10397000120C9B18A6409E42F3D2013F0024A3E6FE
:1039800000240127A0E69846CAE71C1C6AE799466E
:10399000A5E7994646E70222524291444144E0E6B7
:1039A000F0B55F4656464D464446F0B40D1C85B012
:1039B000061C924698460290019103921F1C141C0B
:1039C0008346A946002B59D1AA4269D9101CFFF79A
:1039D000CDFD00280AD020231B1A311CD940854078
:1039E0000B1C2B43864084409946B346250C230488
:1039F0001B0C291C48469846FCF7EEFD4646071C62
:103A00004643291C4846FCF72BFE5A460904130C72
:103A100019438E4209D909197B1E8C4200D957E1FE
:103A20008E4200D854E1023F0919891B8946081CBF
:103A3000291CFCF7D1FD43464343061C291C48467C
:103A40009846FCF70DFE5A46130409041B0C194353
:103A5000884508D90919731E8C4200D936E1023E07
:103A6000884500D832E1380430430027391C05B0BE
:103A70003CBC90469946A246AB46F0BD019A9342A3
:103A800062D8181CFFF772FD041E60D1019B9F4293
:103A900000D22CE1029F03998F4260410027E5E7A5
:103AA000002A04D101200021FCF796FD041C201CF3
:103AB000FFF75CFD002800D0B9E023042D1B1B0C90
:103AC000A946260C98460127311C4846FCF784FD80
:103AD00041464143051C8A464846311CFCF7C0FD5F
:103AE0005A460804130C1843824507D900196B1E67
:103AF000844202D8824500D910E11D1C5346C31AE6
:103B0000181C311C9A46FCF767FD4146414381462B
:103B100088465046311CFCF7A3FD5A46130409049D
:103B20001B0C194388450BD94B460919013B8C42A4
:103B300000D9CFE0884500D8CCE002235B4299440D
:103B400028044946084391E7002700208EE72023F8
:103B50001B1A424657468240DF4017435246824076
:103B60000192321CDA40291CD9408540131C2B439A
:103B700002933D0C3B041B0C8846081C291C9A46EA
:103B8000FCF72AFD534643438146291C40469B4689
:103B9000FCF766FD029A0904130C19438B4506D9FC
:103BA0004B46C919013B8F4200D8ABE099465A46B3
:103BB0008A1A101C291C9346FCF70EFD53464343FA
:103BC000291C804658469A46FCF74AFD029A090489
:103BD00015042D0C29438A4506D94346C919013BD2
:103BE0008F4200D886E098465746CF1BBA464946D2
:103BF000019F0804424610433D042D0C03043F0C72
:103C00001B0C020C291C594355437B437A43EB1888
:103C10000F0CDB198C469D4202D980277F02D219F6
:103C20001D0C521992455FD356D000271EE7202362
:103C30001B1A311C2F1CD940DF4085400B1C8440CF
:103C40002B4386400193B3462304260C1B0C381CDF
:103C5000311C9846FCF7C0FC42464243051C311C0F
:103C6000381C9146FCF7FCFC019F09043B0C1943EE
:103C7000894507D909196B1E8C424DD889454BD906
:103C8000023D09194A468A1A101C311C9246FCF75B
:103C9000A3FC43464343071C311C50469946FCF79E
:103CA000DFFC019A090413041B0C1943894507D949
:103CB00009197B1E8C422DD889452BD9023F091941
:103CC0004B46CB1A2D0499462F43FDE61E1CCAE62F
:103CD0001F1CAAE6994633E761460A041B04120C2E
:103CE0009B18A6409E42A0D201380027BEE60027BE
:103CF0000120BBE68A4500D875E702235B42984461
:103D0000C91971E78B4500D850E702235B429944FB
:103D1000C9194CE71F1CD3E71D1CB3E7023D00196E
:103D2000ECE6C04608B5094A094BD058094901409C
:103D30008020C0040143D15004F06AFC031C0648F3
:103D4000E1214902022204F0E3F908BD00700440B9
:103D500004100000FFFFFFF30040054000B585B0F0
:103D600002A80D49083106220CF0A2FB00236A4686
:103D7000137080235B0201930849094B094AD15013
:103D800002A804F0C1FC684604F0E6FB064A074BB3
:103D90001A6005B000BDC0461019010000000710F0
:103DA0004410000000700440006CDC0208E0FF1FBB
:103DB000F8B508F04FFB3A48826F3A4B1A408267D9
:103DC000394A94681C40802189000C4394605468EF
:103DD0001C402143516094691C40802149000C43E0
:103DE0009461D4691C400C43D461304C25681D405B
:103DF0000D43256065681D400D436560456E1D409F
:103E00000D434566056E1D400D430566466F1E4019
:103E10008025ED002E4346672548466C1E403543FD
:103E2000456445681D400D434560A068184008433F
:103E3000A06010680340194311601E4D1E4C281CE1
:103E40000621221C05F0ACF9281C0721221C05F0D4
:103E5000A7F91A4E301C0021221C05F0A1F9301CD4
:103E60000121221C05F09CF9154F381C1921221C38
:103E700005F096F9381C1821221C05F091F911481B
:103E80000121114A05F08CF9104C301C0221221C32
:103E900005F086F9281C0021221C05F081F9F8BDE7
:103EA00000D00440FFF8FFFF00B0044000C0044011
:103EB00000A0044080F00F40301A0100C0F00F4015
:103EC00000F10F4040F00F40341A0100381A010091
:103ED00010B584B0041C0D480BF0C2FF80B20B2853
:103EE00012D901A963880B8023884B80A3885B4289
:103EF0008B802389CB80E3880B8163895B424B8174
:103F000002480C220BF0ECFE04B010BD000A0020A9
:103F1000F0B557464E464546E0B4A0B0041C0D1C13
:103F200000266A4B684A801859410890099117E2A7
:103F3000B3019B1BDB00684A9B5C002B00D10EE2A7
:103F4000B3019B1BDB009B5C012B00D074E0B30131
:103F50009B1BDB00D3189A69DB69AB4200DDFEE1F5
:103F600002D1A24200D9FAE1B701BF1BFF005A4BB0
:103F7000DF193C637D63594B1B680E93DB170F936E
:103F80000E9A0F9B12196B41BA62FB62504851495D
:103F900012184B413A627B62BC63FD630899099A2F
:103FA00039647A643B7A002B40D10822D2199446B6
:103FB0005368109300201190BA6AFB6A1098119907
:103FC00012184B41BA62FB626146496812910022A5
:103FD00013923A6A7B6A1298139912184B413A620B
:103FE0007B6261464968149100221592221C2B1CA9
:103FF0001498159912184B413A637B6339691691ED
:1040000000221792221C2B1C1698179912184B414C
:10401000BA63FB6339691891002219923A6C7B6C80
:104020001898199912184B413A647B64B3019B1B91
:10403000DB000221284A9954B3019B1BDB00264A6E
:10404000D3189A6ADB6AAB4219DC01D1A24216D8B6
:10405000B3019B1BDB002049C918CA680C920023DE
:104060000D930C9A0D9B12196B418A62CB621C480E
:1040700002F024FB002802D11A4804F09FF81A4BE2
:104080001B78022B08D0184B1B78032B04D0164B3F
:104090001B78042B00D0BCE0B3019B1BDB000E4A55
:1040A000D3181A6C5B6CAB422DDC01D1A2422AD82A
:1040B0000E4B1B78002B26D10D4B1B69DF0719D443
:1040C00001220A4B1A701EE000A493D600000000E3
:1040D000A86100000000000030E6FF1F1CE6FF1F83
:1040E000D13E0000581A010020EAFF1F32EAFF1FEC
:1040F00040F00F40B3019B1BDB00A14AD318089886
:10410000099918645964B3019B1BDB009C4AD318BE
:104110009A6BDB6BAB4200DD7BE002D1A24200D99F
:1041200077E0B101891BC900954B59180A690A92B9
:1041300000230B930A9A0B9B12196B418A63CB6382
:10414000F8277F00CB195A88013292B25A805A88D8
:104150001B8892B29A425CD38A4B5B689BB21BA8C5
:104160000380894B5B689BB269466E310B80028885
:104170009446B3019B1BDB00814AD2189146F4237D
:104180005B001A1C4A4453886746FB1A9BB29A4646
:104190000B881788DB1B9BB29C46008880B250803E
:1041A000098889B21180F0277F003B1C4B441A68B4
:1041B00062441A601A685046121A1A601A685B68DC
:1041C0009A4207D00022714B1A704B460899099AFF
:1041D00019645A64B3019B1BDB00694AD218F027AB
:1041E0007F00D31919685960F132FF3200215180E4
:1041F0001868FFF76BF8614B5F4AFEF76FFAFFF73D
:1042000029F91F901D941E9561481DA90C220BF0E1
:1042100067FDB3019B1BDB00594AD3181A6B5B6B1C
:10422000AB425ADC01D1A24257D8B101891BC90067
:10423000534B5918C868049000220592049A059BB4
:1042400012196B410A634B63F4277F00CB19DA889C
:10425000013292B2DA80DA889B8892B29A4235D3E0
:10426000484B5B689BB21CA90B80474B5B689BB2B9
:104270006A467232138008888446B3019B1BDB00B8
:104280003F48C01881464F447B886046C31A9BB2A2
:104290009A46138838881B1A9BB29C46098889B2B3
:1042A0007980128892B23A80F0204000031C4B447F
:1042B0001A6862441A601A685146521A1A601868DD
:1042C000FDF7D4F91D900023FB8001E0314B1D93D5
:1042D00031481DA904220BF003FDB3019B1BDB0039
:1042E000274AD3181A6A5B6AAB4238DC01D1A24272
:1042F00035D8B101891BC900214B59188C64CD6494
:10430000CA68069200230793069A079B12196B410D
:104310000A624B62214B1B78002B03D00122204BF9
:104320001A701CE01F4B1B681F4FB84604220092F6
:104330009B0001930127029740461C491C4B04F047
:1043400021FB1C480221424604F096FA134B1F70D1
:10435000194A172313601948002103F0F7FF0136AB
:10436000012E00DCE4E520B01CBC90469946A24634
:10437000F0BDC046C046C046DFDA7892520F303FEB
:1043800030E6FF1F009003400080034032EAFF1F29
:10439000D80900200000C07F2C11002028E6FF1F54
:1043A00020E6FF1F00E0FF1F4411002010B0034073
:1043B0001CE2FF1F00800040240B002000B00340DF
:1043C00070B52B4A1F2313602A48002103F0BEFF5B
:1043D000002300202849294C03E09A001259801834
:1043E00001330A689342F8D3234B1968FCF7F4F8B9
:1043F000234B18800024234D34E0A3011B1BDB005A
:104400005B5D022B2DD120480BF02AFD012803D93A
:104410001E4B1B78002B1FD0A3011B1BDB00194A6E
:10442000D31860331B78002B12D1A3011B1BDB00B8
:10443000D618B26CF36C32657365331C58330D2299
:104440001A70E0B2402106F00BFF60360123337092
:104450000E4B1B78002B04D00B48094902220BF0AD
:104460003FFC0134012CC8DD0022094B1A7070BDDD
:10447000240B002000B0034000E0FF1F1CE2FF1FE0
:1044800024E6FF1F30E6FF1FA801002020E6FF1FE3
:1044900028E6FF1F00000000F0B557464E4645468F
:1044A000E0B486B0B24B1B78022B08D0B04B1B781F
:1044B000032B04D0AE4B1B78042B00D04CE1AD4B4A
:1044C0001B78002B01D106F00DFBA94CA068616898
:1044D000FCF736FFF8218905FCF708FE80462378B3
:1044E000022B03D02378032B00D0F4E0A24B1B78DF
:1044F000002B10D0A1480BF0ABFC0B280BD903AC60
:104500009E48211C0C220BF039FC00229A4B1A7099
:104510009B4B23CC23C3984B1B78002B15D1994B75
:104520001B78002B11D095480BF092FC0B280CD96E
:1045300003AC9248211C0C220BF020FC0022914B72
:104540001A708F4B0C3307CC07C38B4B1B78002B97
:1045500000D001E18B4B1B78002B00D0FCE087489A
:104560000BF076FC0B2800D8F6E0834B1B78002B71
:1045700000D0F1E0834B1B78002B00D0ECE07F48AB
:1045800003A90C220BF0FAFB7D4B9946DC681D69F0
:10459000196800915A680192201C291C009A019BFD
:1045A000801A9941FCF704FA704B6F4AFDF72CFC16
:1045B000FEF750FF8246039E049F301C391C001BEF
:1045C000A941FCF7F5F9694B674AFDF71DFCFEF7B9
:1045D00041FF041C301C391C009A019B801A994130
:1045E000FCF7E6F9614B604AFDF70EFCFEF732FF7F
:1045F000061C4B465D699968281CFCF7A1FE5146D4
:10460000FCF790FB071C0598291CFCF799FE211C60
:10461000FCF788FB051C564B1B78022B11D1381C6C
:10462000211CFCF763FD041C281C5146FCF75EFDB1
:10463000011C201CFCF70AFA311CFCF773FB071C59
:1046400009E0391CFCF77CFE011CFCF7FFF9311C6A
:10465000FCF768FB071CFE24A405012500264A4838
:104660008146A2461CE0201C4146FCF73FFD391C58
:10467000FCF7BCF800280AD18021090660184146E1
:10468000FCF734FD391CFCF7C5F8002800D02E4398
:104690002DB26D00ADB2201C5146FCF7D7F9041CB9
:1046A000201C4946FCF798F80028DCD1381C002172
:1046B000FCF792F8002801D07642B6B230B201F091
:1046C0002FFC2F4B1A1C191C0C3131C931C203AB02
:1046D00031CB31C240E029480BF0BAFB0B283BD963
:1046E000264803A90C220BF049FB059FFE24A405D4
:1046F0000125002624498946A2461CE0201C41468B
:10470000FCF7F4FC391CFCF771F800280AD1802270
:104710001206A0184146FCF7E9FC391CFCF77AF8B0
:10472000002800D02E432DB26D00ADB2201C5146A2
:10473000FCF78CF9041C201C4946FCF74DF80028B6
:10474000DCD1381C0021FCF747F8002801D0764264
:10475000B6B230B201F0E4FB06B01CBC90469946FC
:10476000A246F0BDC046C0460000000080842E4135
:1047700020EAFF1F32EAFF1F30EAFF1FD80900209E
:10478000C003002031EAFF1F00001041C046C046B0
:1047900008B5FFF781FE08BD38B5041C83011B1A5C
:1047A000DB001B48C518682008F066F800282DD0EB
:1047B0006835011C5831281C48220BF079FE144B37
:1047C000A201111BC9000025CD54111BC9005918A5
:1047D0004D60FA239B00CB60002001F0D5FB0D4B10
:1047E0001D705D7000225A609A605D80DD600A4B2A
:1047F00000221A7009480BF03DFB09480BF03AFB08
:1048000008480BF037FB08480BF034FB38BDC046B6
:1048100030E6FF1F20EAFF1F32EAFF1F000A0020D8
:10482000A80100202C110020D8090020F8B5642030
:1048300057490AF061FA574C201C03F04FFD012341
:10484000237000226270A270E370A37123720323AD
:10485000237104236371504D281C211C03F0E2FCDA
:104860002B6A402293432B62281C032103F054FD42
:10487000281C03F0AFFD002802D0484803F09EFC3E
:10488000474B17221A6000221A715A71424B196A5B
:1048900004220A431A62434B9A783F218A43282113
:1048A0000A439A70997880220A439A703E4D3F4C91
:1048B000281C211C022204F027F8281C3C49002255
:1048C00004F0D6F896235B00E158802212060A43D2
:1048D000E250E158374A0A40802189050A43E250F4
:1048E000354AC0239B00D058344901408020000441
:1048F0000143D150324B1968802252040A431A6096
:104900001A68802189040A431A6010232D4A136013
:104910002D4A13602D4A2E4BD4582E482040D0509B
:10492000D0580143D15009F00DFA01F0C1F901F05E
:1049300039FDC024E40028482849221C0BF0C8F99E
:1049400027482849802252000BF0C2F926482749FF
:10495000802292000BF0BCF925482649221C0BF05E
:10496000B7F90024244E00250D270EE0A3011B1BE0
:10497000DB00F31860335D709D70DD701D715F7139
:104980009D71E0B2FFF708FF0134012CEEDDF8BDA8
:10499000113F0000180B002000B00340681A01000E
:1049A000240B002000100240F0090020008000408D
:1049B000C1430000FFFFFFDF00E100E0FFFF00FF59
:1049C0003C8004400080034000900340007004409D
:1049D0000C100000FFFFFFFE000A00202C0B00203F
:1049E000A8010020180A00202C110020C00100207E
:1049F000D8090020D803002030E6FF1F0000000087
:104A0000F0B5474680B4061C8846171C06AB03CB9E
:104A10001D7809AB1C7880480BF02CFA7F480BF00E
:104A200029FA7F480BF026FA7E480BF023FAB101F1
:104A3000891BC9007C4B5918002088700B1C6033FF
:104A4000187042464A60CF60069A079B8A61CB6124
:104A50000D724C70002200230A654B650B1C583305
:104A60000C221A7001225A70D880D931FF310860A7
:104A70004860381CFCF756FEFEF79AFC634B624A0E
:104A8000FDF72CFE624A634BFDF7BEF9FEF7E2FC30
:104A9000FC218905FBF7DAFFFBF72CFF634B18605D
:104AA0001B68002B02D10122604B1A605F4B1A6811
:104AB00080235B009A4202D91A1C5C4B1A60B30136
:104AC0009B1BDB00584AD318F42040001C1800221E
:104AD000E280F133FF335A805548391CFBF77CFDE7
:104AE00080B2A080A3889BB2002B13D0B3019B1B84
:104AF000DB004D4AD318A18889B2F82040001A186B
:104B000011801F6113889BB24A48391C3A1C03F07C
:104B100055FB24E0B3019B1BDB00434AD318F13360
:104B2000FF3300221A80381C4149FBF755FD041C55
:104B3000381C3F49FBF794FD002900D00134381C94
:104B4000211CFBF749FD011CB3019B1BDB00364A0E
:104B5000D318186138483A1C231C03F02FFBB3010B
:104B60009B1BDB00304AD318E933FF339A887A4322
:104B7000324B9A420AD8B3019B1BDB002A4AD31856
:104B8000E933FF339A88013292B29A80B3019B1BBA
:104B9000DB00254AD318E933FF339B887B43DF1BB7
:104BA000274B1F6001D500221A60204B1968254849
:104BB00003F004FB2448414603F000FB2348311C6A
:104BC00003F0FCFA0022224B1A70224B1A70224981
:104BD00008680B791B01C3180933FF33586880211B
:104BE000C9050143596001231C490B701C490B7016
:104BF0001C490A70B201961BF6000B4AB35404BC60
:104C00009046F0BDC046C0467B14AE47E17A943F63
:104C10000000000000C05240000A0020A80100204F
:104C20002C110020D809002030E6FF1F00E0FF1FF4
:104C3000E88000008C1A0100C81A0100E78000001B
:104C40001CE6FF1F001B0100181B0100281B0100B0
:104C500020E6FF1F28E6FF1FF009002030EAFF1FB3
:104C600031EAFF1F32EAFF1FF8B5041C144D86011C
:104C7000321AD20000275755124A1F2313601248D8
:104C8000002103F063FB114803F056FF104B1F7027
:104C90001048211C03F092FA331BDB00EB18603341
:104CA0001B78002B03D00C48211C03F087FA0B4B18
:104CB0001B78002B03D00A48211C03F07FFAF8BDB3
:104CC00030E6FF1F240B002000B00340F009002055
:104CD00028E6FF1F401B0100581B010020E6FF1FB4
:104CE000801B0100CBB2062B33D899001A4B5B58BE
:104CF0009F468301181AC000184B1818603040787E
:104D000028E08301181AC000144B1818603080780E
:104D100020E08301181AC000104B18186030C078CA
:104D200018E08301181AC0000C4B18186030007985
:104D300010E08301181AC000084B18186030407941
:104D400008E08301181AC000044B181860308079FD
:104D500000E000207047C0463C1A010030E6FF1F0B
:104D600070B51E1C049D0024FF2001E0285501346D
:104D70001F2CFBDD012913D1B218802A12D100218A
:104D8000002402E00878444001317E29FADD281C25
:104D90000021321C0BF08CFB7F23EC54B0B202E0FC
:104DA000202000E0202000B270BDC046081C7047E3
:104DB0008301181AC0006830014B18187047C046AC
:104DC00030E6FF1F08B58301181AC000B030044B4D
:104DD0001818002160220BF074FB002008BDC046AB
:104DE00030E6FF1FF0B54F464646C0B4072916D837
:104DF0000D4D4F007C18A4008601331ADB00E31828
:104E00005B199946B0239846C844012443461C7058
:104E100008331A60454600236B60002000E0322012
:104E20000CBC90469946F0BD30E6FF1F08B5072937
:104E30000FD84B00591889008301181AC0000918AF
:104E4000B03105484118101C0C220BF031FB00203A
:104E500000E0322008BDC04630E6FF1FF0B585B047
:104E6000061C0F1C141C0B78072B0AD1062001F01E
:104E70008BF8244800F042FF002001F085F8302034
:104E80003EE0FFF7F1FEE26A61680024002500942D
:104E900001950123029300230393301CFFF7B0FD1B
:104EA0003B78002B19D0012B19D0022B19D0032BE2
:104EB00019D0042B19D0052B19D0062B19D0362068
:104EC0001EE0E000001B800040191130FF300E4B47
:104ED000181809F03FF901340FE000240AE000241B
:104EE00008E0002406E0002404E0002402E000249E
:104EF00000E00024B501AD1BED00062CE1DD302003
:104F000005B0F0BD2CE6FF1F30E6FF1F00000000DB
:104F1000F0B55F4656464D464446F0B48DB08146E6
:104F200003910592041C83011B1ADB00D04AD2189E
:104F300092460B78072B38D1CE4C2178CE4803F01F
:104F40003DF96178CD4803F039F9A178CC4803F0F8
:104F500035F9E178CB4803F031F9FE229205C423FC
:104F60005146CA500125BC23CD542078FCF7DAFB0A
:104F7000D0235246D050C823D5546078FCF7D2FBDA
:104F8000DC235646F050D423F554A078FCF7CAFB36
:104F9000E823F050E023F554E078FCF7C3FBF4235A
:104FA000F050EC23F5540020EDE2B7480AF050FF32
:104FB0000C21FBF711FB85B2B4480AF049FF460803
:104FC000B6B2B3480AF044FF800880B283462BB2E1
:104FD000002B00DCCCE233B2002B00DCCAE203B2CF
:104FE000002B00DCC8E22BB232B2934200DC2E1C54
:104FF0005A4613B232B2934200DBB34600279C4DAF
:10500000A601361BF600882464003319EB180493BC
:105010006FE009AC9C48211C0C220AF0AFFE08A9E5
:1050200088469A4802220AF0A9FE994807A9042254
:105030000AF0A4FE42461088FCF774FB021C049898
:10504000022109F091F89621490073185B199846DE
:105050000022A05EFCF70AFB021C4046022109F078
:1050600083F8A421490073185B1998460222A05EB8
:10507000FCF7FCFA021C4046022109F075F8B22147
:10508000490073185B1998460422A05EFCF7EEFAFB
:10509000021C4046022109F067F8C021490073183C
:1050A0005B1998460622A05EFCF7E0FA021C404617
:1050B000022109F059F8CE21490073185B1998466E
:1050C0000822A05EFCF7D2FA021C4046022109F039
:1050D0004BF8DC21490073185B1998460A22A05E40
:1050E000FCF7C4FA021C4046022109F03DF80137E2
:1050F000BFB23BB25C4622B293428ADB4D46AB0163
:105100005B1BDB005A4AD3181133FF339888FCF736
:10511000ADFA059E3469211CFBF75EFB002800D028
:105120002CE2039D2B78012B62D833785A00D318D8
:105130009B005344B8331C6033785A00D3189B004B
:105140005344B0330120187033780133484C4E4635
:10515000B201911BC90061182131FF3149685D001E
:10516000EB189B005344B8331960059D2B7801332D
:10517000921BD200A2182132FF3212685900CB18BC
:105180009B005344B0335A602B7801335A00D31834
:105190009B005344B03318702B78042B00D0EFE100
:1051A000B8235646F158DC23F358D022B058F422E5
:1051B000B25880246400251C554486267600341C91
:1051C00054440095019409F099FA002807D1052369
:1051D000F82251468B54822252008B54D3E1012392
:1051E000F8225446A35482225200A3540020CAE15C
:1051F000022B4FD1C4235546EC500124BC23EC5460
:105200001B4EB046494689018B464A468B1ADB0045
:1052100043442133FF335868AF6F391CFBF766FFF7
:10522000ED6F291CFBF712FC061CD0235146C85019
:105230005A464946531ADB0043442133FF33196869
:10524000381CFBF753FFCC235246D050C823D4540C
:10525000B823D058311CFCF773F8011C281CFBF74D
:10526000F5FBDC235546E850D423EC5400208AE1BA
:1052700030E6FF1F2CE6FF1FAC1B0100C01B010026
:10528000D41B0100E81B0100000A0020A801002037
:105290002C110020032B00D0C8E0C4235646F45044
:1052A0000124BC23F454C04D49468E01771AFF00F7
:1052B000EF199E225200D21990465068FEF778F8F6
:1052C000B64BB54AFDF70AFAFEF7C4F8D0235146AB
:1052D000C85042461068FEF76BF8B04BAE4AFDF777
:1052E000FDF9FEF7B7F8CC235146C850C823CC547B
:1052F000AC225200D21990465068FEF759F8A74BDD
:10530000A54AFDF7EBF9FEF7A5F8DC235146C85096
:1053100042461068FEF74CF8A04B9F4AFDF7DEF9B5
:10532000FEF798F8D8235146C850D423CC54BA225B
:105330005200D21990465068FEF73AF8974B964AB9
:10534000FDF7CCF9FEF786F8E8235146C8504246EF
:105350001068FEF72DF8914B8F4AFDF7BFF9FEF765
:1053600079F8E4235146C850E023CC54C8225200B7
:10537000D21990465068FEF71BF8894A894BFDF711
:10538000ADF9FEF767F8F4235146C850424610685D
:10539000FEF70EF8824A834BFDF7A0F9FEF75AF8A4
:1053A000F0235146C850EC23CC54D6225200D219D7
:1053B00090465068FDF7FCFF794A7A4BFDF78EF96D
:1053C000FEF748F880235B005146C85042461068FB
:1053D000FDF7EEFF724A734BFDF780F9FEF73AF8DE
:1053E000FC235146C850F823CC54C937FF3778689E
:1053F000FDF7DEFF6A4A6B4BFDF770F9FEF72AF8FE
:1054000086235B005246D0503868FDF7D1FF644ACE
:10541000644BFDF763F9FEF71DF884235B005546E6
:10542000E85082235B00EC540020ACE0042B33D125
:10543000C4235646F4500124BC23F4545A4E494622
:105440008F017A1AD200B218C8235B009B189846C5
:10545000803211685868FBF749FE051CD02351467D
:10546000C8504246106849467B1ADB00F318803367
:105470001968FBF73BFECC235246D050C823D454C6
:10548000B823D058291CFBF75BFFDC235546E850B6
:10549000D423EC54002076E0052B33D1C4235646A8
:1054A000F4500124BC23F4543F4E49468F017A1A2C
:1054B000D200B218D6235B009B1898468832116838
:1054C0005868FBF713FE051CD0235146C8504246CE
:1054D000106849467B1ADB00F31888331968FBF71C
:1054E00005FECC235246D050C823D454B823D058FC
:1054F000291CFBF725FFDC235546E850D423EC5448
:10550000002040E0062B3DD1C4235646F450012430
:10551000BC23F454244E49468F017A1AD200B218A3
:10552000E4235B009B189846903211685868FBF79B
:10553000DDFD051CD0235146C8504246106849463F
:105540007B1ADB00F31890331968FBF7CFFDCC23EF
:105550005246D050C823D454B823D058291CFBF746
:10556000EFFEDC235546E850D423EC5400200AE03B
:10557000302008E0302006E0302004E0302002E057
:10558000002000E036200DB03CBC90469946A24673
:10559000AB46F0BDC046C0464AFDC00EAF6F513F9E
:1055A000C397923A019D733F30E6FF1FC046C04645
:1055B000F8B55F4656464D464446F0B4051C0E1CF1
:1055C0008401241AE4007E4B1C190B78012B1ED891
:1055D00080235B00E358A36786235B00E358E367FF
:1055E0000A787848291C02F0E9FDA06FFDF7E0FE7B
:1055F000021C0B1C744802F0E1FDE06FFDF7D8FEC1
:10560000021C0B1C714802F0D9FD0020CCE0022BDB
:1056100011D1DC23E358E3670A786A48291C02F0B9
:10562000CDFDE06FFDF7C4FE021C0B1C674802F0C5
:10563000C5FD0020B8E0032B72D1D023E3588022AF
:1056400012069B189C229346A350DC23E358802229
:1056500012069B18A4229246A350E823E358802206
:1056600012069B18AC229146A350F423E3588022E3
:1056700012069B1884229046A35080235B00E358B7
:10568000802212069B188C27E35186235B00E0588A
:10569000FDF78EFE021C0B1C48494748FDF7AEFA89
:1056A000FDF7D8FE9423E05032784648291C02F0DA
:1056B00085FD5A46A058FDF77BFE021C0B1C444892
:1056C00002F07CFD5346E058FDF772FE021C0B1CF5
:1056D000404802F073FD4A46A058FDF769FE021CDF
:1056E0000B1C3D4802F06AFD4346E058FDF760FEA2
:1056F000021C0B1C394802F061FDE059FDF758FE11
:10570000021C0B1C364802F059FD9422A058FDF7EC
:105710004FFE021C0B1C334802F050FD002043E0FA
:10572000042B12D1DC23E3588427E3510A7825485F
:10573000291C02F043FDE059FDF73AFE021C0B1C48
:10574000294802F03BFD00202EE0052B12D1DC237E
:10575000E3588C27E3510A781A48291C02F02EFDE1
:10576000E059FDF725FE021C0B1C204802F026FD27
:10577000002019E0062B12D1DC23E3589427E351D3
:105780000A781048291C02F019FDE059FDF710FEB7
:10579000021C0B1C164802F011FD002004E0072B30
:1057A00001D0322000E000203CBC90469946A24641
:1057B000AB46F8BDC046C04605A3923A019D2340C2
:1057C00030E6FF1FFC1B01002C1C0100401C0100E7
:1057D000541C0100681C01007C1C0100901C01008D
:1057E000A41C0100B81C0100CC1C0100E01C01003D
:1057F000F41C0100C046C046F0B585B0071C0C1C67
:10580000161C0BA90D782178022957D15922A25CC8
:10581000002A10D00093231C5A33019301330293C2
:105820000133039360682A49E268331C05F0C8FD20
:1058300000225923E2545823E35C002B16D0002D9C
:1058400003D000225823E25410E0A278009261684D
:1058500001910293381C226D636D05F057FDA3780A
:105860000133A37000225823E2542EE019480AF0B5
:10587000EFFA00B20C21FAF7AFFE85B216480AF033
:10588000E7FA06B27608B6B214480AF0E1FA00B2B6
:10589000800880B22DB25B23E35C9D4210DB36B200
:1058A000B3420FDC00B283420EDC0C9A1380381C2A
:1058B0000021FF220AF005FE094806E0002004E06E
:1058C000002002E0002000E0002000B205B0F0BDA2
:1058D000A0860100000A0020A80100202C11002051
:1058E000FFFF000000000000F0B557464E46454659
:1058F000E0B48CB00F1C6B460022DA8216338401B0
:10590000201AC000944C2418122100910192029395
:10591000381C211C09220423FFF76EFF002800DB3E
:105920000DE1002600258D4A91468D4B9846ECE00E
:105930005E23E25A0132E252484608A90C220AF0DC
:105940001DFA404607A902220AF018FA854806A95E
:1059500004220AF013FA6268920712D50698FDF73E
:1059600027FD7C4B7A4AFCF7B9FEFDF773FD0B90DF
:1059700028B2381809300BA904220AF099FD043521
:10598000ADB263685B0716D5A26F924607AB188865
:10599000FBF76CFE011C5046FBF7A8FBE16FFBF721
:1059A00055F80B9028B2381809300BA904220AF0D8
:1059B0007FFD0435ADB263681B0718D58023E3581B
:1059C0009A4608AB0622985EFBF750FE5146FBF75D
:1059D0008DFB8423E158FBF739F80B9028B2381877
:1059E00009300BA904220AF063FD0435ADB26368E7
:1059F000DB0618D58823E3589A4608AB0822985E40
:105A0000FBF734FE5146FBF771FB8C23E158FBF7A3
:105A10001DF80B9028B2381809300BA904220AF09F
:105A200047FD0435ADB263689B0618D59023E35853
:105A30009A4608AB0A22985EFBF718FE5146FBF720
:105A400055FB9423E158FBF701F80B9028B2381866
:105A500009300BA904220AF02BFD0435ADB26368AE
:105A60005B0618D59823E3589A4608AB0022985E47
:105A7000FBF7FCFD5146FBF739FB9C23E158FAF795
:105A8000E5FF0B9028B2381809300BA904220AF060
:105A90000FFD0435ADB263681B0618D5A023E3588B
:105AA0009A4608AB0222985EFBF7E0FD5146FBF7F1
:105AB0001DFBA423E158FAF7C9FF0B9028B2381850
:105AC00009300BA904220AF0F3FC0435ADB2636877
:105AD000DB0518D5A823E3589A4608AB0422985E44
:105AE000FBF7C4FD5146FBF701FBAC23E158FAF785
:105AF000ADFF0B9028B2381809300BA904220AF028
:105B0000D7FC0435ADB20136B6B26B46D98A33B292
:105B10000AB2934200DA0BE7002D0FD0C9B25A2324
:105B2000E25C6378A078451CA570A488009001947D
:105B300006200290381C05F01DFC00E0002000B299
:105B40000CB01CBC90469946A246F0BDC046C0466B
:105B5000DFDA7892520F303F30E6FF1F000A002054
:105B6000A80100202C1100200020704738B5041C2B
:105B700002250570013025490AF023FD201C113053
:105B800023490AF01EFD201C213022490AF019FD8C
:105B90000022002342216252442162524622A35431
:105BA0004722A354A564A022A35496225200E26483
:105BB00022655822A3540022002322666366164BF6
:105BC000A366164BE366164A226700236367A26743
:105BD000E367802162508422A350124A88216250D8
:105BE0008C2163509021625094216350982162501F
:105BF0009C22A3500023002203E0E15C8A18D2B269
:105C00000133A72BF9D9A023E25438BD081D0100A8
:105C1000141D0100201D01004E2B053B000080C219
:105C20000AE89C3B787D8B3A70B5051C0678022EFD
:105C300018D0012E0DD1022303700023002203E0AF
:105C4000EC5CA218D2B20133A72BF9D9A023EA54F5
:105C500001E0FFF78BFF2A780348311C02F0AEFA0F
:105C6000012000E0002070BD341D01000122044B22
:105C70009A600422034B9A600222034B9A60704799
:105C800080F00F40C0F00F4040F00F400020704700
:105C9000430018180001014B18187047581A0100EA
:105CA000002313703620704700231370362070478E
:105CB00010B582B0684603F06BFE00236A4613718C
:105CC000D370537193705370137002239371094C06
:105CD000201C694603F020FE0923A360064AC7235F
:105CE0009B00D158FF208143C0200143D15002B016
:105CF00010BDC0460000044000E100E0F8B5041CFF
:105D00000125057045708570C57053480121534ABF
:105D100003F046FAFA20400006F08EFB504E514F39
:105D2000301C00213A1C03F03BFA301C01213A1CC4
:105D300003F036FA012006F07FFB33691D4204D1DF
:105D400000232370484802F039FA454B1B699A0733
:105D500004D400236370454802F030FA404D281CFB
:105D60000121404A03F01CFA281C0021404A03F09C
:105D700017FA012006F060FB2B699A0704D500236F
:105D800063703C4802F01AFA354D281C0021354A50
:105D900003F006FA281C0121354A03F001FA01201C
:105DA00006F04AFB2B69DA0704D50023237032483A
:105DB00002F004FA314D2B4E281C1921321C03F03D
:105DC000EFF9281C1821321C03F0EAF9012006F033
:105DD00033FB2B699A0104D40023A370284802F0F6
