:1000000000600020E90400004DD400001DD4000071
:1000100000000000000000000000000000000000E0
:100020000000000000000000000000007DD400007F
:100030000000000000000000ADD40000D9C00000A6
:100040006105000065050000690500006D05000000
:100050004905000049050000490500004905000068
:100060007105000075050000790500007D050000A0
:1000700081050000C9D50000890500004905000080
:1000800049050000490500004905000001E800009D
:10009000490500004905000099C000008D050000D9
:1000A000BDCF0000490500004905000049050000DA
:1000B0002166000049050000490500005DC0000000
:1003C0006B636667FFFFFFFFFFFFFFFFFFFFFFFF9E
:1003D000F0FFFFFFF70812009C7E0100FFFFFF0007
:1003E000FFFFFFFFFFFFFFFF00FFFFFFFFFFFFFF1C
:1003F000FFFFFFFF00000000000000000000000001
:10040000FFFFFFFFFFFFFFFFFFFFFFFFFE31FFFFCB
:1004100010B5064C2378002B07D1054B002B02D0DA
:10042000044800E000BF0123237010BD00E4FF1F5B
:10043000000000009896010008B5084B002B03D07F
:100440000748084900E000BF07480368002B03D0B5
:10045000064B002B00D0984708BDC04600000000A6
:100460009896010004E4FF1F44E2FF1F0000000013
:10047000164B002B00D1144B9D46402292029A1A33
:10048000924600218B460F461348144A121A0FF069
:100490006EFE0F4B002B00D098470E4B002B00D068
:1004A00098470020002104000D000D48002802D0CC
:1004B0000C4800E000BF0FF02BFE200029000CF0DC
:1004C000F1FE0FF00FFEC0460000080000600020A3
:1004D000000000000000000000E4FF1FFC2B0020D3
:1004E000000000000000000072B60E480E490160D6
:1004F0000A6882F308880D4880470D490D4A0E4B63
:100500009B1A03DD043BC858D050FBDC0B490C4A56
:10051000521A03DD00208850043AFCDA62B609481A
:100520008047000008ED00E00000000035A6000054
:10053000C096010000E0FF1F48E2FF1F00E4FF1F1C
:10054000FC2B0020710400001148004711480047AF
:10055000114800471148004711480047114800471B
:10056000114800471148004711480047114800470B
:1005700011480047114800471148004711480047FB
:1005800011480047114800471148004711480047EB
:10059000DDD400004DD400001DD400007DD4000047
:1005A000ADD40000D9C0000071880000818800002F
:1005B00091880000A1880000399500005195000045
:1005C000299E0000619E0000399A0000559A0000A3
:1005D000218E0000019B0000002934D0012300225D
:1005E00010B488422CD301242407A14204D28142B2
:1005F00002D209011B01F8E7E400A14204D28142C2
:1006000002D249005B00F8E7884201D3401A1A433E
:100610004C08A04202D3001B5C0822438C08A04275
:1006200002D3001B9C082243CC08A04202D3001B2B
:10063000DC082243002803D01B0901D00909E3E7A5
:10064000101C10BC7047002801D00020C04307B424
:10065000024802A14018029003BDC046D900000024
:100660000029F0D003B5FFF7B9FF0EBC4243891A49
:100670001847C046002941D010B4041C4C40A44681
:1006800001230022002900D54942002800D540421C
:1006900088422CD301242407A14204D2814202D2F1
:1006A00009011B01F8E7E400A14204D2814202D211
:1006B00049005B00F8E7884201D3401A1A434C080E
:1006C000A04202D3001B5C0822438C08A04202D344
:1006D000001B9C082243CC08A04202D3001BDC086C
:1006E0002243002803D01B0901D00909E3E7101CAD
:1006F0006446002C00D5404210BC7047002806D04C
:1007000003DB0020C043400801E08020000607B45E
:10071000024802A14018029003BDC0461900000023
:100720000029EBD003B5FFF7A7FF0EBC4243891A9F
:100730001847C0467047C0468446101C62468C4627
:10074000191C634600E0C0461FB501F06DFF00288C
:1007500001D40021C8421FBD10B501F09DFE4042EA
:10076000013010BD10B501F05FFF002801DB002053
:1007700010BD012010BDC04610B501F055FF002886
:1007800001DD002010BD012010BDC04610B501F0F4
:10079000CDFE002801DC002010BD012010BDC046A8
:1007A00010B501F0C3FE002801DA002010BD0120C1
:1007B00010BDC0468446081C6146FFE71FB500F027
:1007C0006DFC002801D40021C8421FBD10B500F007
:1007D000F3FB4042013010BD10B500F05FFC002873
:1007E00001DB002010BD012010BDC04610B500F097
:1007F00055FC002801DD002010BD012010BDC046C1
:1008000010B500F003FC002801DC002010BD012021
:1008100010BDC04610B500F0F9FB002801DA002039
:1008200010BD012010BDC046002B15D1002A13D1E8
:10083000002900D1002807D003DB0020C043410875
:1008400002E080210906002007B4024801A14018F7
:10085000029003BDE1FEFFFF03B4684601B50298B4
:1008600000F0E2F8019B9E4602B00CBC7047C04607
:10087000002B11D1002A0FD1002900D1002802D06D
:100880000021C943081C07B4024802A14018029085
:1008900003BDC046A1FEFFFF03B4684601B5029840
:1008A00000F0DEF8019B9E4602B00CBC7047C046CB
:1008B0009C460304F0B51B0C17043F0C150C1E1CC2
:1008C000041C000C7E436B4347434543FB18300C2C
:1008D0001818874202D980235B02ED18030CED182B
:1008E00063465C434A433604360CA1180004801961
:1008F0004919F0BD9E2110B5C905041CFFF78AFFF8
:10090000002803D1201C00F0B5FE10BD9E21C905B2
:10091000201C00F039FD00F0ADFE80231B06C0183E
:10092000F3E7C0460000000038B50E4B0C4A051C2A
:100930000C1CFFF717FF002804D1281C211C00F015
:1009400037F838BD80231B06E118281C00F030F86A
:10095000021C0B1C002150429941F2E7C046C046E0
:10096000000000000000000070B502F045FD0D4BD6
:100970000B4A0D1C041C01F0D5FE02F039FE061CCA
:1009800002F006FD084A094B01F0CCFE021C0B1CCC
:10099000201C291C02F056F902F02AFE311C70BD01
:1009A000000000000000F03D000000000000F041E9
:1009B00070B50E4B0C4A0D1C041C01F0B3FE02F086
:1009C00017FE061C02F0E4FC094A0A4B01F0AAFEDD
:1009D000021C0B1C201C291C02F034F902F008FE3A
:1009E000311C70BDC046C046000000000000F03D54
:1009F000000000000000F04170B5061C081C02F069
:100A000089FC084B064A01F08DFE0D1C041C301CAD
:100A100002F0BEFC2B1C221C00F0F8FE70BDC0468C
:100A2000000000000000F041F0B583B0161C1F1C50
:100A30000090019102F0FCFD041C0D1C221C2B1CDB
:100A4000301C391CFFF734FF009A019B121A8B41AE
:100A50000899201C0A604B60291C03B0F0BDC046F9
:100A6000F0B583B0141C1D1C0090019102F0BCFF76
:100A7000221C2B1C061C0F1CFFF71AFF009A019B5F
:100A8000121A8B410899301C0A604B60391C03B064
:100A9000F0BDC046F8B543024400C50F4E02480001
:100AA000240E2A1C9B09000EC90FB6098D425BD08B
:100AB000221A002A00DC89E000281DD1002E00D077
:100AC00075E0580704D00F221A40042A00D00433DE
:100AD0008021C90419402A1C00293AD00134FF2C76
:100AE00000D17FE09B015B0A5B02E4B2E405580A97
:100AF000D20720431043F8BDFF2CE2D08021C90467
:100B00000E431B2A00DD2DE1311C2020D140821A2A
:100B10009640721E96410E439B1B5801D1D59B01F6
:100B20009F09381C02F046FD421F974094425BDC4F
:100B3000141B1F231B1B3A1C9F40611C3B1CCA40FB
:100B40005F1EBB4113430024BBE7131EB9D1002332
:100B50000022DB08FF2C04D1002B43D08020C003EF
:100B600003435B025B0ABFE7211A002940DD00282E
:100B700023D0FF2CA5D08020C00406431B2900DD14
:100B8000EEE0301C2027C840791A8E40711E8E413D
:100B900006439B19590100D493E70134FF2C55D02B
:100BA000714901221A400B405B08134389E7013A5F
:100BB000002AB1D0FF2CA4D183E7002E00D180E71A
:100BC00001390029E5D0FF2CD8D17AE7002A1BD1C2
:100BD000621CD2B2012A4BDD9F1B7A0123D5F71A82
:100BE0000D1C9EE700237FE75F4BA41A3B4068E79C
:100BF000002946D1611CC8B2012829DDFF2924D073
:100C0000F3185B080C1C5CE7002C13D0FF2818D0ED
:100C10008024E404524223431B2A4DDD0123F31AAE
:100C2000041C0D1C79E7002F00D07AE70023002276
:100C300000248EE7002B3BD0D243002AEFD0FF28C0
:100C4000EAD1331CFF240D1C3BE7FF24002380E77F
:100C5000002C5CD1002B00D180E0002E00D130E7C9
:100C60009B19580100D42CE73F4A0124134028E780
:100C7000002C15D1002B40D1002E63D0331C0D1C4D
:100C80001FE7002C21D1002B54D0C943002904D0E8
:100C9000FF284CD01B2958DD01239B19041C79E740
:100CA000002B19D1002E48D0331C0D1CFF2408E75F
:100CB000331C041C0D1C04E71C1C2025D440AA1A5C
:100CC00093405A1E93412343A9E7FF282FD0802445
:100CD000E40449422343DDE7FF24002E00D1F0E67F
:100CE0008022DB08D203134204D0F608164201D159
:100CF000331C0D1CDB00FF24E3E6002E00D1E0E6F0
:100D00009A1B500100D420E7F31A0D1CD9E6002BE2
:100D10000DD0FF24002E00D1D3E68022DB08D203C1
:100D20001342E7D0F6081642E4D1331CE2E7331C45
:100D3000FF24C6E6331C041CC3E6802300229B0468
:100D4000FF2406E7231C002203E71C1C2027CC40BD
:100D5000791A8B40591E8B4123439EE7331CB0E622
:100D6000012616E70126D7E6FFFFFFFBF0B55F4639
:100D700056464D464446F0B446024500C00F85B085
:100D80000F1C760A2D0E804641D0FF2D26D08024E0
:100D9000240400212643F6007F3D89468B46F90F47
:100DA0007C027800640A000E00918A463CD0FF283D
:100DB00034D080231B041C430023E4007F380193BC
:100DC000009F4346019A7B4049469C4611430F29A8
:100DD00000D971E0764F89007F58BF46002E3ED182
:100DE0000822022391469B46D9E75A46341CC24644
:100DF00001920199022937D0032900D1CFE00129BE
:100E000000D0ABE053460B400022002632E0002E1B
:100E100019D10421012289469346C0E7221C531EA2
:100E20009A4102320192CBE701270197002CC7D0EB
:100E3000201C02F0BFFB431F9C4076235B42002135
:100E4000181A0191BCE7301C02F0B4FB7625431F51
:100E50009E406D4200232D1A99469B469FE70C2326
:100E6000032199468B469AE7D446012367463B40C7
:100E7000FF2200267602D205700ADB0710431843D2
:100E800005B03CBC90469946A246AB46F0BD8026D4
:100E90000023F603FF22EDE700220026EAE7802088
:100EA000C00306423BD0044239D1061C26437602D9
:100EB000760A009BFF22DDE7281A03907601640181
:100EC000A64239D3361B1A2201230120311C5B00B4
:100ED0007600002901DBB44201D8361B0343013AF6
:100EE000002AF3DC741EA641341C1C43039A7F3293
:100EF000002A27DD630704D00F232340042B00D0F2
:100F00000434270103D52B4B039A1C408032FE2A60
:100F10000BDD012361460B40FF220026AAE70643B2
:100F20007602760A4346FF22A4E7A401012367461E
:100F3000660AD2B23B409DE7039F1B22013F039705
:100F40000023C2E77E23039F5B42DB1B1B2B07DDD5
:100F5000012361460B40002200268BE7D446C5E7FB
:100F6000221CDA40039B9E339C40231C5C1EA34141
:100F700013435A0704D00F221A40042A00D0043326
:100F80005F0105D5012361460B400122002671E770
:100F90009E01624601231340760A00226AE78026FA
:100FA000F60326437602760A5346FF2262E7C046DE
:100FB00010280100FFFFFFF74A02430270B55C0AE8
:100FC000550A43004A001B0EC60F120EC90FFF2B15
:100FD00005D0FF2A08D0012093420BD070BD01201C
:100FE000002CFBD1FF2AF6D10120002DF6D10120E3
:100FF0009342F3D1AC42F1D18E4205D0002BEDD11A
:10100000201C441EA041E9E70020E7E74A02430212
:10101000F0B55C0A550A43004A001B0EC60F120EBB
:10102000C90FFF2B31D0FF2A34D0002B16D16042DC
:1010300060418446002A14D0002820D18E4217D166
:10104000934215DC04DBAC4212D80020AC4212D231
:10105000704270414042012318430CE0002AEDD158
:1010600094466F426F416046002805D1002FE5D0BD
:10107000704201231843F0BD0020002FFBD14842ED
:101080004841404201231843F5E7002CCBD0022011
:101090004042F0E7002DC8D0F9E7C0464A024302BB
:1010A000F0B55C0A550A43004A001B0EC60F120E2B
:1010B000C90FFF2B27D0FF2A29D0002B10D0002AE0
:1010C00015D194466F426F416046002815D000202C
:1010D000002F04D148424841404201231843F0BD4B
:1010E000604260418446002AECD00028F2D18E4252
:1010F00011D0704201231843F1E7002FF7D070425E
:1011000001231843EBE70220002CE8D1D3E70220AB
:10111000002DE4D1D1E79342EBDC04DBAC42E8D80C
:101120000020AC42DBD270427041404201231843A0
:10113000D5E7C046F0B55F4656464D464446F0B446
:101140004402460083B00F1C640A360EC50F002E01
:1011500041D0FF2E22D080231B0400201C43E4003A
:101160007F3E82468046391C4B007F02C90F7F0AB2
:101170001B0E8B463BD0FF2B34D08022120417432A
:10118000FF007F3B00215A466A40019252460A43C3
:101190000F2A63D87A48920082589746002C3FD194
:1011A0000822022392469846DDE701954046022830
:1011B0002AD1019A01251540FF2300246402DB0592
:1011C000600AED071843284303B03CBC904699469B
:1011D000A246AB46F0BD002C27D104200122824656
:1011E0009046C0E7391C4A1E91410231CBE70121EC
:1011F000002FC8D0381C02F0DDF9431F9F40762332
:101200005B421B1A0021BEE7032800D1AEE0012893
:101210004FD1019842461040C5B200230024CDE7CB
:101220000C2303209A4680469DE7201C02F0C2F959
:101230007626431F9C4076420023361A9A469846EB
:1012400091E780240025E403FF23B7E75B463C1CBD
:1012500001938846AAE73C1C8846A7E7250C24048E
:101260003A0C240C3F04F6183F0C211C231C794334
:1012700053436F435543FB180A0C9B18B1469F42DA
:1012800002D980225202AD1809041A04090C52181E
:1012900094011B0C611E8C41920EED181443AD019C
:1012A0002C43230105D50122630801201440814409
:1012B0001C434B467F33002B2DDD600704D00F22EB
:1012C0002240042A00D00434220103D52D4B1C40B7
:1012D0004B468033FE2B17DD019B01251D4000246A
:1012E000FF236BE78020C003044208D0074206D1E9
:1012F000041C3C436402640A5D46FF235EE704432A
:101300006402640AFF2359E70198A4010125640AD5
:10131000DBB2054052E77E235B424A469B1A1B2BF9
:1013200005DD019B01251D400024002346E7221C0A
:10133000DA404B469E339C40231C5C1EA341134362
:10134000580704D00F221A40042A00D004335A014F
:1013500005D5019B01251D40002401232EE701989E
:101360009C010125640A0540002327E78027FF032D
:10137000019B3C43640201251D40640AFF231DE7D5
:1013800050280100FFFFFFF7F8B5C20F43024400E9
:101390004D024800240E161C9B09000EC90FAD0912
:1013A000FF2800D183E0012779408A425CD0221ACD
:1013B000002A00DC8EE000281ED1002D00D07AE04B
:1013C000580704D00F221A40042A00D00433802189
:1013D000C90401221940324000293AD00134FF2CBF
:1013E00000D183E09B015B0A5B02E4B2E405580A8A
:1013F000D20720431043F8BDFF2CE1D08021C9045F
:101400000D431B2A00DD31E1291C2020D140821A26
:1014100095406A1E95410D435B1B5801D0D59B0139
:101420009F09381C02F0C6F8421F974094425FDCC7
:10143000141B1F231B1B3A1C9F40611C3B1CCA40F2
:101440005F1EBB4113430024BAE7131EB8D100232B
:101450000022DB08FF2C04D1002B47D08020C003E2
:1014600003435B025B0ABFE7211A002944DD002821
:1014700027D0FF2CA4D08020C00405431B2900DD09
:10148000F2E0281C2027C840791A8D40691E8D4142
:1014900005435B19590100D492E70134FF2C59D060
:1014A000734901221A400B405B08134388E7002D63
:1014B00000D07AE777E7013A002AADD0FF2CA0D11F
:1014C0007EE7002D00D17BE701390029E1D0FF2C18
:1014D000D4D175E7002A1BD1621CD2B2012A4BDDA0
:1014E0005F1B7A0123D5EF1A0E1C9AE700237BE7D6
:1014F0005F4BA41A3B4063E7002946D1611CC8B288
:10150000012829DDFF2924D0EB185B080C1C57E7C4
:10151000002C13D0FF2818D08024E4045242234327
:101520001B2A4DDD0123EB1A041C0E1C75E7002F4E
:1015300000D076E70023002200248AE7002B3BD06E
:10154000D243002AEFD0FF28EAD12B1CFF240E1C27
:1015500036E7FF2400237CE7002C5CD1002B00D170
:1015600080E0002D00D12BE75B19580100D427E75C
:101570003F4A0124134023E7002C15D1002B40D112
:10158000002D63D02B1C0E1C1AE7002C21D1002B40
:1015900054D0C943002904D0FF284CD01B2958DD62
:1015A00001235B19041C75E7002B19D1002D48D0CD
:1015B0002B1C0E1CFF2403E72B1C041C0E1CFFE637
:1015C0001C1C2026D440B21A93405A1E9341234338
:1015D000A9E7FF282FD08024E40449422343DDE714
:1015E000FF24002D00D1EBE68022DB08D20313425A
:1015F00004D0ED08154201D12B1C0E1CDB00FF248A
:10160000DEE6002D00D1DBE65A1B500100D41CE7BA
:10161000EB1A0E1CD4E6002B0DD0FF24002D00D1B8
:10162000CEE68022DB08D2031342E7D0ED08154254
:10163000E4D12B1CE2E72B1CFF24C1E62B1C041C6D
:10164000BEE6802300229B04FF2402E7231C002225
:10165000FFE61C1C2027CC40791A8B40591E8B4179
:1016600023439EE72B1CABE6012512E70125D3E6B9
:10167000FFFFFFFB4302590A4300C20F1B0E00206D
:101680007E2B0DDD9D2B0CDC802000040143952B6F
:101690000ADC9620C31AD9404842002A00D1081C0F
:1016A0007047034BD018FBE7963B9940F4E7C046E0
:1016B000FFFFFF7F70B5041E3CD0C60F00D0444230
:1016C000201C01F077FF9E23251C1B1A962B0CDC97
:1016D000083884406402640ADBB2321C6402DB0511
:1016E000600AD2071843104370BD992B0ADD05220A
:1016F000121A211CD1400A1C011C1B318D40691E8D
:101700008D411543052801DD421F9540164C2C40A4
:101710006A0704D00F221540042D00D00434610163
:101720000CD59F23181AFF281AD0A401640AC3B24B
:10173000321CD3E7002200230024CFE7E408FF2B6C
:1017400004D06402640ADBB2321CC7E7002C04D068
:101750008020C00304436402640A321CFF23BDE7F7
:10176000321CFF230024B9E7FFFFFFFB10B5041E66
:1017700033D001F01FFF9E231B1A962B09DC08387B
:1017800084406402640ADBB26402DB05600A184329
:1017900010BD992B0ADD0522121A211CD1400A1C0A
:1017A000011C1B318C40611E8C411443052801DD56
:1017B000421F9440144A2240610704D00F210C407C
:1017C000042C00D0043251010AD59F23181AFF2897
:1017D00016D09401640AC3B2D6E700230024D3E7ED
:1017E000D208FF2B03D05402640ADBB2CCE7002AF4
:1017F00006D08024E40314436402640AFF23C3E791
:10180000FF230024C0E7C046FFFFFFFBF8B55F469B
:10181000564644464D46F0B40C034D00CE0F610AC7
:10182000440F2143C400180380465800400D8246EF
:10183000D80F84464046400A530F0343D0006D0D35
:10184000371C83465246664500D1A4E0AF1A002FEC
:1018500000DC09E1002A3BD1184300D0EAE063072D
:1018600000D187E00F232340042B00D182E0221D0A
:10187000A242A4416442802309191B040B40371C77
:10188000141C002B00D17CE0CE4B01359D4200D1D1
:1018900005E1CD4BE40819404807490204430B0B0E
:1018A000002000211B031A0B0B0D6D051B051343B4
:1018B0006A08C64DFF071D4015436D006D08291CC1
:1018C0003943201C3CBC90469946A246AB46F8BD25
:1018D000BC488542C3D0802000040343382F00DD7C
:1018E000F0E01F2F00DD24E12020C01B1A1C8146E0
:1018F00082405846F8400243944658464A46904033
:10190000421E9041FB40624602431F1CA21A9442B1
:10191000A4416442C91B091B141C0B029FD5490238
:101920004F0A002F00D1C8E0381C01F043FE021C12
:10193000083A1F2A00DDB5E02821091A201C97402B
:10194000C84007439440954200DDB2E0551B691C36
:101950001F2900DDDCE01F22551B3B1C221CAB4075
:10196000CA40AC40651EAC411343CF401C43391CF8
:10197000002574E780231B040B40371C002B00D08C
:1019800082E7904B4807E4080443C9089D4248D0C9
:1019900009030B0B84E7AA1A9446002A00DC98E09E
:1019A0005046002852D08748854200D157E7802012
:1019B000000403436246382A00DDFCE01F2A00DDF4
:1019C0004AE120226046101A1A1C82408246914643
:1019D00058466246D0404A460243904658465246D0
:1019E0009040421E9041424602436046C340121955
:1019F000A242A441644259180919141C080200D4D7
:101A00002DE7704B01359D4200D122E16E4B6008FD
:101A10001940012323401C1C0443CB071C434908E5
:101A20001DE7231C0B433AD080231B030B431B03EE
:101A30001B0B35E7013F002F65D15846221A94420F
:101A4000A4416442C91A091B141C66E7584618438E
:101A500000D104E70122524294446046002800D09D
:101A6000C5E058460219C3E7002F73D1681C400532
:101A7000400D012800DCDEE05A46A21A9442BF4124
:101A8000C81A7F42C71B380200D489E05A46141B8B
:101A9000A3459241591A52428F1A664641E70023E4
:101AA0000024FDE6271C283887400024954200DCEE
:101AB0004CE74549AD1A3940D1E6201C01F07AFDCA
:101AC000203034E75A461A43531E9A41D2B20027B7
:101AD0001CE7002A00D0DCE0681C4205520D012AF8
:101AE00000DC8DE0374DA84200D1F3E05D462A19B5
:101AF000A242A441644259180919CC075208144360
:101B00004908051CABE62F48854200D0E6E6A6E66C
:101B10002B1C1F3B3A1CDA40131C20296CD03F229F
:101B2000551BAF403C43601E84411C4300210025EF
:101B300095E6381C20381A1CC240101C202F5DD09E
:101B40004022D71BBB405A461A43531E9A410243B8
:101B50000027DBE6002D3BD01A4DAA4500D193E0CB
:101B600080252D047F422943382F00DDACE01F2F54
:101B700000DD29E12025ED1B081C261CA840FE40A5
:101B8000AC400643651EAC413443F9405D462C1B16
:101B9000A34592415B1A5242991A55466646BCE6E5
:101BA000131C3B43141C002B00D0BAE60027002175
:101BB00000250024E5E65A461A43531E9A41D2B244
:101BC000002314E7FF070000FFFF7FFFFFFF0F80E8
:101BD0000D1C254358D0FF43002F51D1041BA345B2
:101BE0009241591A5242891A5546664695E69648D8
:101BF000854200D0DEE632E6002793E70023A2E725
:101C0000081C2043002D00D0C4E0002800D1F7E0DC
:101C10005846184300D122E658460219A242A44170
:101C2000644259180919141C0A0200D417E6874B9C
:101C30000125194013E6081C2043002D39D1002846
:101C400071D15946194303D0191C5C46664606E615
:101C500000270021002494E6604620381A1CC24068
:101C600060469146202800D1ACE04022121A9340F1
:101C70005A461A43531E9A414B461A430023B6E66E
:101C8000714DAA4500D06FE7191C5C465546664663
:101C9000E5E5002D22D10D1C254377D0D543002D3D
:101CA00071D15C445C45924159185242891855469D
:101CB000A4E600284DD15946194300D194E0191CDF
:101CC0005C466646604DCAE50C43611E8C41E4B239
:101CD00000215BE7051C0021002452E65A4DAA456D
:101CE00054D05542802210040143382D00DD81E09C
:101CF0001F2D00DD92E02022501B0A1C84468240EA
:101D0000201CE8400243904662469440601E844195
:101D100042461443E9405C445C459241CB18524230
:101D2000991855466AE65846184300D197E5584633
:101D3000271ABC429241C81A5242801A020266D542
:101D40005846041BA3459241591A5242891A6646C5
:101D500085E55846184333D04807E40804438020FB
:101D6000C9080003014208D0DD08054205D15946E3
:101D7000CA085C071443291C6646630FC90019434F
:101D8000E400314D6BE5304A9245AED1191C5C46FA
:101D9000554664E5002836D05846184310D08025B3
:101DA0004807E408C9082D0304432942E5D0D808B0
:101DB0002842E2D15D46EA085C071443011CDCE7D7
:101DC000214D4CE5002353E73D1C203D0A1CEA4011
:101DD000151C202F34D04026F71BB9400C43611E40
:101DE0008C412C430021D1E680210027C903164DE8
:101DF0000024C6E50C43611E8C41E4B200218AE751
:101E0000191C5C462BE5191C5C460F4D27E5031C8D
:101E10003B4300D11CE7011C3C1C20E52020404234
:101E200040190A1CC2409046202D0BD04020451B73
:101E3000A9400C43611E8C4145462C4300216AE7B2
:101E40000021CBE70021F4E7FF070000FFFF7FFF41
:101E5000F0B5564644465F464D46F0B41F1C0B0392
:101E60001B0B98464B0087B0041C81465B0DC80FC6
:101E7000161C9A460090002B51D06A4B9A4531D0DF
:101E80008022414652030A43630FD2001A43664B35
:101E900090460025E20091469A44002402953B03B7
:101EA0001B0B9B46FD0F7B00311C5B0D019560D029
:101EB0005C4A934254D08021584649030143720F33
:101EC000C9001143584A8B469B18F1000020009A24
:101ED00004436A4003920F2C00D9ADE0534EA40096
:101EE0003459A746404604436ED1002102250824F8
:101EF000884689460295D2E7009C0298C346494627
:101F00000194022864D0032800D1ABE2012800D05C
:101F100038E2019A002402400025A14660E04346D1
:101F200023434AD04046002800D1C0E101F042FBE3
:101F3000031E272B00DDB3E128210D1A211C083BCD
:101F40004246E9409A400D1C1543221C9A40A8467F
:101F50009146374B00251B1A9A46002402959EE7AE
:101F60005A4616430320002EB1D1B3460021022069
:101F7000ADE75A4632431BD05B46002B00D18AE1C5
:101F8000584601F017FB272800DD7DE12822171AAB
:101F9000011C321C08395B46FA408B40171C1F435A
:101FA000331C8B40BB46191C214B1B1A00208EE7AB
:101FB0000027BB460021012089E7002001250424D9
:101FC0008046814602956AE703250C24029566E760
:101FD000019C0394039D01222A400024114DA14637
:101FE000002000212403260B0C0D2405114B344343
:101FF0002D0523402B435B005B08D207191C484684
:10200000114307B03CBC90469946A246AB46F0BD92
:102010000022802424039146024DE1E7002400259C
:10202000A146DDE7FF07000001FCFFFF902801004B
:102030000DFCFFFFFFFF0F805546ED1A0495D845B4
:1020400000D953E100D14EE1049C0025013C4E46ED
:1020500004944746A946584603020C0E1C43090245
:10206000250C23041B0C0091381C291C0193FEF73E
:10207000B3FA019983464143381C8A46291CFEF76E
:10208000EFFA330C090419438A450CD95B46091948
:10209000013B8C4200D947E18A4500D844E1022245
:1020A0005242934409195346CB1A181C291C9846CE
:1020B000FEF792FA071C0198291C78438246404695
:1020C000FEF7CEFA36040B04360C33439A4509D991
:1020D0001B197A1E9C4200D924E19A4500D821E1BF
:1020E000023F1B195E4632041743380CBB46009E64
:1020F000009F51463F0C32045B1A5946BA46120CF7
:102100000F043F0C904651467A434F4341464143AA
:1021100056467043CF19160CBE19B14202D980271A
:102120007F02C019310C12043604120C4018B61884
:10213000834200D2C4E000D1BEE0191A4846861B93
:10214000B145BF417F42CF1BA74200D113E1291CFB
:10215000381CFEF741FA019902904143381C894628
:10216000291CFEF77DFA330C0904194389450CD963
:10217000029B0919013B8C4200D9FFE0894500D838
:10218000FCE0029F0919023F02974F46CF1B381C03
:10219000291C0597FEF720FA071C0198291C784393
:1021A00081460598FEF75CFA36040904360C0E43A6
:1021B000B14509D936197B1EB44200D9E0E0B145DA
:1021C00000D8DDE0023F3619029D4946761A2904FF
:1021D00039430B0457460A0C1B0C404645465843EE
:1021E00055437B437A43EB18070CDB199D4202D918
:1021F00080256D0252191D0C00041B04000C52199D
:102200001B18964235D300D1FCE001231943049EEC
:10221000994FF519002D00DCA1E0480709D00F23E4
:102220000B40042B05D00B1D8B42894149428B4446
:10223000191C5A46D20107D5904B5C46049E802754
:102240001C40FF00A346F5198D4B9D427ADD039C8F
:102250000122224000248B4DA146C1E680242403A4
:10226000474627424CD13C432403240B009A854D1A
:10227000B6E63619481EB4425ED9011C9642C4D156
:10228000009E9E42C1D1C2E7031C283B311C9940ED
:102290008B46002188E6301C01F08CF9203072E674
:1022A000283B211C994000228846914651E6201C7B
:1022B00001F080F920303BE60021B14500D33DE735
:1022C000009F5A46B944B945BF417F423F19FB18A8
:1022D000013A9C421ED2984200D97EE000D1B5E07E
:1022E000191A93462AE7894500D8ADE6484646467E
:1022F00042467708D3074608C0071E438146AAE630
:102300005846204212D1044324032A1C240B894638
:102310005C4D65E6A342E3D1009F4F45DBD9211A0E
:1023200093460BE7171CDDE69B46BCE63C432403C3
:10233000240B009A534D53E6B24259D800D18AE09B
:10234000011C62E75F46C9087B07039E0B437C02C2
:102350006D0501229946240B6D0D324040E64A4B33
:10236000049FDB1B382B10DD039C0122224000243C
:102370000025A14634E60121494248E7029304E7DB
:102380001F1C21E7019C039441E71F2B40DC3F48C1
:10239000049F0C1C3A1858469140DC409040204362
:1023A0000A1C511E8A41011C11435A46DA40131C73
:1023B000480709D00F220A40042A05D00A1D8A4284
:1023C000894149425B18111C1A0234D5039C012231
:1023D000224000240125A14602E6009F0221494235
:1023E000B9448B44B945894149420919CB18A4E63F
:1023F000009D881E6900A942AD416D422C19361915
:1024000000913AE7002B00D033E70024009437E72F
:102410001F4A049C5D46121BD5402A1C202B1FD04E
:102420001C4E5F46A3199F403B1C19434B1E99410C
:1024300011430023BCE75A07C9080A43039F91468A
:102440005B0201221C0B3A400025C9E54E45C4D869
:102450009346002172E6009F9F42C9D3011C0FE7FB
:102460000023E2E7802424035F463C432403240B3B
:10247000019A8946034DB3E5FF030000FFFFFFFE0D
:10248000FE070000FF07000002FCFFFF1E04000023
:10249000E2FBFFFF3E040000F0B55F4656464D46A6
:1024A0004446F0B40D1C041C8046E80F8146180316
:1024B0000F03000B3F0B83B084461B480097490075
:1024C0005E00DF0F490D9246760DBB4681420CD06F
:1024D0001548864210D00120B14215D003B03CBC53
:1024E00090469946A246AB46F0BD009F0120274387
:1024F000F4D10D488642EED1604602430120002A05
:10250000ECD10120B142E9D1009B6345E6D1D04531
:10251000E4D1D94506D00029E0D11C43201C441E3B
:10252000A041DBE70020D9E7FF070000F0B55F46D8
:1025300056464D464446F0B4CD0FDE0FAC461D0363
:102540002D0BB146374E0F034C00AB465D00804665
:102550003F0B640D92466D0DB44232D0314EB54200
:1025600035D0002C0ED1384341424141081C002D8A
:102570000BD0002919D1CC452DD0654668420123E6
:10258000184318E0002DF6D1281C59460A4353423F
:102590005341002806D1002BEDD063465842012359
:1025A000184308E00020002B05D14A465042504114
:1025B0004042012318433CBC90469946A246AB4694
:1025C000F0BD3E1C0643C9D002204042F3E75E4600
:1025D0001643C6D0F8E7AC4207DC0BDA6146484246
:1025E0004841404201231843E5E766467042012313
:1025F0001843E0E75F450AD80ED000205F45DAD2E5
:10260000654668426841404201231843D3E7624669
:10261000504201231843CEE7D045F8D80020D045DA
:10262000EED3C8E7FF070000F0B556464D464446D6
:102630005F46F0B40D1C83B0041C0190E80F814686
:1026400018030F03000B3F0B8446354800974900E1
:102650005E00DF0F490D9246760DB846814234D0B8
:102660002F48864236D0002918D0002E1FD1341CA6
:1026700067463A4353425341002C1FD00020002BA1
:1026800005D142465042504140420123184303B015
:102690003CBC90469946A246AB46F0BD0098044328
:1026A00060426041041C002EE2D00028E9D1C145FF
:1026B00015D04F46784201231843E8E7002BF6D0A7
:1026C0004B46584201231843E1E7009F022027436D
:1026D000DDD1C5E7674602201743D8D1C3E7B14231
:1026E00004DD4A46504201231843D0E7B14207DBDC
:1026F00000986045E4D80AD0009F00206745C6D204
:102700004F4678427841404201231843BFE7019A7F
:102710005245D5D8019A00205245F1D3B7E7C046BB
:10272000FF070000F0B5564644465F464D46F0B4FC
:102730001F1C0B031B0B9A464B0087B0041C8046E2
:102740005B0DC80F161C02938146002B68D0694BA5
:102750000299994232D08022534652031A43D20042
:10276000630F1A439246644AE0008918804602913A
:10277000002400253B031B0B9B467800FB0F321CFB
:10278000400D039300D175E05A4B984269D08022E6
:10279000594652030A43730FD2001A43564B9346CD
:1027A000C018F200002303994E4671401C430F2CC1
:1027B00000D9A9E0514EA4003459A74653461C4302
:1027C00000D087E00025AA46A84608240225D1E7C4
:1027D0004946022D6CD0032D00D117E2012D00D007
:1027E00058E10D40EDB20024A9460023A046002088
:1027F000002125030A0D1C052D0B1205404B2A4311
:10280000134023435B004C465B08E207191C40461B
:10281000114307B03CBC90469946A246AB46F0BD7A
:102820005346234350D05346002B00D184E15046F9
:1028300000F0C0FE031E272B00DD76E128210D1AD3
:10284000211C083B5246E9409A400D1C1543221CAE
:102850009A40AA4690462B4B00241B1A029300254F
:1028600088E75B461E430323002E9CD1B34600221B
:10287000022398E75B46334321D05846002800D115
:102880004EE100F097FE272800DD42E128210F1AD3
:10289000021C311C083A5B46F94093400F1C1F4351
:1028A000331C9340BB461A1C164B181A00237AE7B8
:1028B00001230B4000249946A0460E4B97E70027C2
:1028C000BB46002201236EE7002104248A46884685
:1028D00001254FE70C2403254CE700258024A94659
:1028E0002403A846034B82E7DA46904603991D1C51
:1028F0006FE7C046FF07000001FCFFFFD028010082
:10290000FFFF0F800DFCFFFF029F160C381804908C
:102910004046070C0004000C1204120C031C534325
:10292000041C3D1C7443554398463B1C7343641977
:10293000A44644460293230C63449D4204D9029D5D
:10294000802464022D1902951D0C039545462C0424
:102950001B04240C1C1905945C46230C051C5843CD
:102960002404240C8446381C604365435F4381463D
:10297000CC44280C6044BB46814502D980277F02A5
:10298000BB442D04070C2D0C000440195546BC46D1
:102990002F04E3448446280C3D0C2F1C5743B846B3
:1029A0002F1C77434243B94647463F0C9144BA46F1
:1029B000D14446434A4502D980225202B6184F46B6
:1029C0003A0CB6183A0447463F043F0CB8462F1C51
:1029D00067435D434443584365190190380C2D18F3
:1029E0004244B846AC4204D9019880235B02C01827
:1029F0000190039C029F201C6044C0196045A441C3
:102A000047466442A4462B043C049946240C4C449B
:102A1000A046D8448018C246E244904292415746AC
:102A200052429146F219E245BF417F424B46BC46B5
:102A3000D845BF41D4187F4263461F432D0C7F19F0
:102A4000B24292414C45AD4152426D421543019E06
:102A50007D19AB19E20D5B02059F134342023A4315
:102A60009A46531E9A41C30D101C1843640220431A
:102A700080465046C0010DD5454601225646049C6D
:102A80006B082A401A43F30701341A43760804946A
:102A90009046B246049E634FF319002B61DD404619
:102AA00040070BD00F2244462240042A06D042465B
:102AB0000432424580414042824490465546ED01F1
:102AC00007D5594B5646049F80201E40C000B24691
:102AD0003B18564A934200DDEAE644465546E20872
:102AE0006807104301226C025B050A408046240BF4
:102AF0005B0D91467BE6DA4690461D1C69E6802414
:102B00002403574627421CD13C432403240B484B43
:102B10006DE6031C283B311C99408B460022C3E61E
:102B2000301C00F047FD2030ADE6283B211C9940C9
:102B300000228A4690468EE6201C00F03BFD2030A5
:102B400078E65846204207D1044303992403240B16
:102B500089469046364B4AE63C432403240B344BCB
:102B600045E6344B049E9B1B382B06DD01230B40AE
:102B700000249946A046002339E61F2B25DC049C3F
:102B80002D4D46466019524644468640DC40824000
:102B90005746301C2243DF40441EA04102433B1CE9
:102BA000540709D00F201040042805D0101D904272
:102BB000924152429B18021C1D021AD501230B4060
:102BC00000249946A046012311E61C48049C554662
:102BD000001BC540281C202B16D0194E5746A219A1
:102BE00097403A1C43461A43531E9A41024300231E
:102BF000D6E758075B02D2081C0B01230B40104399
:102C0000994680460023F2E50022EBE78024240366
:102C100050460123044319402403240B8946044BE6
:102C2000E5E5C046FF030000FFFFFFFEFE070000D2
:102C3000FF07000002FCFFFF1E040000E2FBFFFF95
:102C40003E040000F8B55F46564644464D46F0B493
:102C50000C034D00CF0F610A440F2143C400180339
:102C6000DE0F8046B44646465800760A530F33437B
:102C7000D600D14A6D0DBA46400DB346904200D100
:102C8000F5E06246012672409446674500D1ABE00C
:102C90002F1A002F00DC11E100283ED158461843BE
:102CA00000D0F1E0600700D197E00F232340042B10
:102CB00000D122E1221DA242A441644280230919CD
:102CC0001B04012750460B400740141C002B00D169
:102CD00079E0B94B01359D4200D10BE1B74BE408D7
:102CE00019404807490204430B0B002000211B0335
:102CF0001A0B0B0D6D051B0513436A08B04DFF073A
:102D00001D4015436D006D08291C3943201C3CBC37
:102D100090469946A246AB46F8BDA7488542C1D029
:102D2000802000040343382F00DDFDE01F2F00DD6D
:102D300031E12020C01B1A1C5E468240FE40324317
:102D400094465A468240101C421E9041FB40624607
:102D500002431F1CA21A9442A4416442C91B091BCE
:102D6000141C0A029ED549024F0A002F00D1D6E05A
:102D7000381C00F01FFC021C083A1F2A00DDC3E0CB
:102D80002821231C091A9740CB401F4394409542A9
:102D900000DDC0E0551B691C1F2900DDEAE01F2291
:102DA000551B3B1C221CAB40CA40AC40651EAC41CD
:102DB0001343CF401C43391C002573E780217E4D0F
:102DC0000027C90300247C4B4807E4080443C908D2
:102DD0009D4250D009030B0B87E780231B0401277A
:102DE00052460B40174071E72A1A9446002A00DC2D
:102DF000A1E0002854D07048854200D152E78020DD
:102E0000000403436046382800DD0EE11F2800DD82
:102E100057E162462020801A1E1C8640B1465E465D
:102E2000D6404A4632435E4686409046301C421E9B
:102E30009041424602436046C3401219A242A44157
:102E4000644259180919141C080200D42AE75A4B85
:102E500001359D4200D131E1584B600819400123F2
:102E600023401C1C0443CB071C4349081AE71E439C
:102E700000D00AE705E7231C0B433BD080231B034C
:102E80000B431B031B0B30E7013F002F6DD15E4648
:102E9000A21B9442A4416442C91A091B141C60E796
:102EA0005846184300D1FDE601267642B4446046F8
:102EB000002800D0D0E05E463219BFE7002F00D0D6
:102EC00080E0681C4005400D012800DCE8E05A461F
:102ED000A21A9442BF41C81A7F42C71B3E0200D4C7
:102EE00098E05846041BA3459241591A52428F1A42
:102EF000E2463AE700230024F7E680231B0401277B
:102F000056460B403740E1E6271C2838874000240E
:102F1000954200DC3EE72949AD1A3940C2E6201C43
:102F200000F048FB203026E75A461A43531E9A41C8
:102F3000D2B200270EE7002A00D0DEE0681C46056A
:102F4000760D012E00DC90E01B4DA84200D1F5E08B
:102F50005E463219A242A441644259180919CC07AD
:102F6000520814434908051C9CE61348854200D0CA
:102F7000D9E697E62B1C1F3B3E1CDE40331C202964
:102F80006FD03F22551BAF403C43601E84411C4321
:102F90000021002586E6381C20381E1CC640301C47
:102FA000202F60D04022D71BBB405A461A43531EE5
:102FB0009A4102430027CDE6FF070000FFFF7FFF95
:102FC000FFFF0F80002D37D0B64DA84200D18FE013
:102FD00080252D047F422943382F00DDA8E01F2FD4
:102FE00000DD24E12025ED1B0E1CAE40B046261C62
:102FF000FE404246AC401643651EAC413443F940A6
:103000005A46141BA34592415B1A5242991A051C59
:10301000E246A6E6131C3B43141C002B00D0A4E69A
:103020000027002100250024CDE65A461A43531EEE
:103030009A41D2B2002300E70D1C254358D0FF432C
:10304000002F51D15A46141BA3459241591A52429E
:10305000891A051CE24684E69248854200D0D1E6F2
:1030600020E6002790E700239FE7081C2043002D5F
:1030700000D0C2E0002800D1EFE05846184300D14C
:1030800010E658460219A242A4416442591809198F
:10309000141C0A0200D405E6834B0125194001E601
:1030A000081C2043002D38D100286FD15946194300
:1030B00003D0191C5C46E246F4E5002700210024F9
:1030C00081E6604620381A1CC2406646101C202E3D
:1030D00000D1AAE04022921B93405A461A43531E45
:1030E0009A4102430023A8E66E4DA84200D073E740
:1030F000191C5C46051CE246D4E5002D22D10D1CAE
:10310000254376D0D543002D70D15C445C45924177
:10311000591852428918051C96E600284CD1594688
:10312000194300D14AE6191C5C46E2465D4DB9E5FB
:103130000C43611E8C41E4B2002161E7051C0021B3
:10314000002440E6574DA84253D055428022160431
:103150003143382D7BDC1F2D00DD8CE02022561BF7
:103160000A1CB446B240261CEE40324390466246EA
:103170009440661EB44142461443E9405C445C45B9
:103180009241CB1852429918051C5DE658461843E7
:1031900000D187E55E46A71BBC429241C81A524245
:1031A000801A060260D55846041BA3459241591A5D
:1031B0005242891AE24675E55846184333D048070B
:1031C000E40804438020C9080003014208D0DD0858
:1031D000054205D15946CA085C071443291CE2463A
:1031E000630FC9001943E4002E4D5BE52D4A904260
:1031F000AFD1191C5C46051C54E5002830D0584658
:10320000184310D080254807E408C9082D0304435B
:103210002942E5D0D8082842E2D15D46EA085C0799
:103220001443011CDCE71F4D3CE5002355E73D1C22
:10323000203D0E1CEE40351C202F2ED04026F71BC3
:10324000B9400C43611E8C412C430021D8E60C434D
:10325000611E8C41E4B2002190E7191C5C4621E517
:10326000191C5C460F4D1DE5031C3B4300D124E7B0
:10327000011C3C1C16E52026764276190A1CF240F9
:103280009046202D0BD04026751BA9400C43611E93
:103290008C4145462C43002170E70021D1E70021F5
:1032A000F4E7C046FF070000FFFF7FFF70B50B1C6F
:1032B000124C09030E0B5900021C490DDD0F0020B2
:1032C000A14211DD0E4881420FDC802040030643FD
:1032D0000C48401A1F280BDD0B4A521AD640321CEC
:1032E0005042002D00D1101C70BD084BE818FBE7C0
:1032F000074BC240C9188E403243F1E7FE0300007D
:103300001D0400003304000013040000FFFFFF7FD2
:10331000EDFBFFFFF8B5041E31D0C70F00D04442CB
:10332000201C00F047F9184D2D1A0A2819DD0B381A
:10333000844024036D05240B6D0D3A1C00260020EB
:1033400000210B0D2403240B1B0523430F4C2D05DB
:103350001C402C4364006408D307211C301C194313
:10336000F8BD061C1536231CB3401E1C0B23181A6F
:10337000C44024036D05240B6D0D3A1CDFE70022C9
:10338000002500240026DAE71E040000FFFF0F805E
:1033900010B5041E28D000F00DF9154A121A0A289B
:1033A00015DD0B38844024035205240B520D0023F5
:1033B000002000212403181C0B0D240B1B052343A4
:1033C0000C4C12051C4014436400610810BD031C22
:1033D0001533211C99400B1C0B21081AC4402403EF
:1033E0005205240B520DE3E7002200240023DFE7FF
:1033F0001E040000FFFF0F8043001B0E5A1C4102F9
:10340000D2B270B54C0AC50F012A17DDE022920036
:103410006407090B9818002200231E0D221C340596
:103420000C431B494005400821400143490049081D
:10343000ED070B1C2B43101C191C70BD002B15D164
:10344000002C1CD0201C00F0B5F80A281ADC0B2137
:10345000091A231CCB40191C031C15339C400D4B2F
:103460000903181A4005090B400DD4E7002C03D0BE
:103470006407090B0848CEE707480021CBE7002086
:103480000021C8E7011C0B398C40211C0024E6E711
:10349000FFFF0F8089030000FF070000F0B54B001D
:1034A0000D03420F5B0D6D0A15435A1C5205CC0FDC
:1034B000C600520D012A27DD394FDA19FE2A1ADC1F
:1034C000002A35DD8001ED00431E98412843760F28
:1034D0003043430704D00F230340042B00D00430B3
:1034E0008021C904014027D00132FF2A1DD0830169
:1034F0005B0AD1B201E0FF2100235802C905400A4E
:10350000E40708432043F0BD002B06D1354311D119
:103510000021002043025B0AEFE72E43EBD080201E
:10352000ED0080042843FF22D3E7FF210023E4E7D6
:1035300017320DDA05200022C008D1B2FF2AE9D1E6
:103540000028D9D08023DB0303435B025B0AD4E766
:103550008022144912041543C91A1F290DDC124A8E
:10356000371C9B18281C9F4098403B1C5A1E9341B7
:103570001843CE4030430022ABE70C4F2A1CFF1A01
:10358000FA40171C202909D0094A98188540281CA0
:103590003043461EB041384300229AE70020F7E747
:1035A00080FCFFFF9E03000082FCFFFF7E03000003
:1035B000A2FCFFFF1C2101231B04984201D3000C35
:1035C00010391B0A984201D3000A08391B09984296
:1035D00001D30009043902A2105C40187047C046AC
:1035E00004030202010101010000000000000000CC
:1035F00038B50E4B0C4A041C0D1CFDF7D1F8002801
:1036000004D1201C291CFFF751FE38BD074B064A88
:10361000201C291CFFF716FBFFF748FE80231B0622
:10362000C018F2E7C046C046000000000000E041BC
:10363000F0B544465F4656464D46F0B41C1C85B076
:10364000002900DADBE00F1C0021061C8A46101C52
:10365000191C002C00DAC9E00196009089468046CA
:10366000002951D1B84200D871E0FFF7A3FF00282C
:1036700009D020234546311C1B1A85408740D9407C
:10368000A8460F4386404246150C13041B0C291C08
:10369000381C9B46FCF7A0FF5B464343041C291CD7
:1036A000381C9946FCF7DCFF330C080418438145AD
:1036B00009D94044631E804500D978E1814500D88E
:1036C00075E1023C40444946411A8946081C291CC0
:1036D000FCF782FF5A464243071C291C4846934682
:1036E000FCF7BEFF36040904360C0E43B34507D978
:1036F00046447B1EB04502D8023FB34500D81F1C8C
:1037000024042743002403E0B94211D900240027F0
:103710005246381C211C002A03D03B1C0021584271
:10372000A14105B03CBC90469946A246AB46F0BDCF
:10373000081CFFF73FFF041E00D0BFE0B94500D2D0
:1037400042E1019D0099071C8D424741E0E70028B6
:1037500004D101200021FCF73FFF80464046FFF7DF
:1037600029FF002852D1414644460B043C1B1B0C48
:10377000A3460D0C00930124291C5846FCF72CFF8E
:10378000009F81464743291C5846FCF769FF330CCC
:10379000090419438F4208D94B464144013B8845EF
:1037A00002D88F4200D91AE19946C91B8B46081CE2
:1037B000291CFCF711FF009B291C4343071C58469A
:1037C0000093FCF74DFF3604009D0904360C0E43B0
:1037D000B54207D946447B1EB04502D8023FB542E8
:1037E00000D81F1C49460E04374391E75246D24386
:1037F000031C0C1C924600215842A1412CE70027D3
:1038000046428F41012149428A4620E720231B1A64
:103810004246351C82403C1CDD40DC4087402B1C6E
:10382000150C3B43291C8640201C0093170490462E
:10383000FCF7D2FE3F0C011C794381468B46201CCD
:10384000291CFCF70DFF009C0904230C19438B4530
:103850000CD94B464144013B884500D9BDE08B451E
:1038600000D8BAE002225242914441445C460C1B0B
:10387000201C291C0194FCF7AFFE391C4143041C99
:103880008B460198291CFCF7EBFE009A09041304EF
:103890001B0C19438B4509D94144631E884500D947
:1038A00097E08B4500D894E0023C41445B46CB1A3C
:1038B00049469B460B041C4300975DE7009D20236F
:1038C0001B1A4A468240DD401543391C009AD940F4
:1038D00082408846311C0092D9403A1C82400B1C21
:1038E000134301932F0C2B041B0C391C40460293ED
:1038F000FCF772FE029A81464243391C40469346C9
:10390000FCF7AEFE019A0904130C19438B450AD942
:103910004B464919013B8D425DD88B455BD902234B
:103920005B42994449195A468A1A101C391C039261
:10393000FCF752FE029B80464343391C03989B468A
:10394000FCF78EFE019A090413041B0C19438B45E6
:103950000AD943464919013B8D4238D88B4536D99F
:1039600002235B42984449195D464D1BAB464946CC
:10397000009D0F04424617432A04120C3B042D0CF1
:103980001B0C380C111C594342436B436843D3183A
:103990000D0C5B198C469A4202D980225202801883
:1039A0001D0C401983450CD303D00024B0E61C1C29
:1039B00089E665462A041B04120C9B18A6409E4209
:1039C000F3D2013F0024A3E600240127A0E6984695
:1039D000CAE71C1C6AE79946A5E7994646E7022212
:1039E000524291444144E0E6F0B55F4656464D46AA
:1039F0004446F0B40D1C85B0061C924698460290D1
:103A0000019103921F1C141C8346A946002B59D117
:103A1000AA4269D9101CFFF7CDFD00280AD0202347
:103A20001B1A311CD94085400B1C2B438640844017
:103A30009946B346250C23041B0C291C484698467E
:103A4000FCF7CAFD4646071C4643291C4846FCF7BE
:103A500007FE5A460904130C19438E4209D9091965
:103A60007B1E8C4200D957E18E4200D854E1023FC0
:103A70000919891B8946081C291CFCF7ADFD434622
:103A80004343061C291C48469846FCF7E9FD5A4664
:103A9000130409041B0C1943884508D90919731E1E
:103AA0008C4200D936E1023E884500D832E1380424
:103AB00030430027391C05B03CBC90469946A246CD
:103AC000AB46F0BD019A934262D8181CFFF772FD15
:103AD000041E60D1019B9F4200D22CE1029F0399FA
:103AE0008F4260410027E5E7002A04D10120002130
:103AF000FCF772FD041C201CFFF75CFD002800D0C1
:103B0000B9E023042D1B1B0CA946260C984601275F
:103B1000311C4846FCF760FD41464143051C8A467E
:103B20004846311CFCF79CFD5A460804130C184308
:103B3000824507D900196B1E844202D8824500D9FC
:103B400010E11D1C5346C31A181C311C9A46FCF781
:103B500043FD41464143814688465046311CFCF7AF
:103B60007FFD5A46130409041B0C194388450BD9E1
:103B70004B460919013B8C4200D9CFE0884500D85B
:103B8000CCE002235B42994428044946084391E76C
:103B9000002700208EE720231B1A4246574682400A
:103BA000DF401743524682400192321CDA40291C02
:103BB000D9408540131C2B4302933D0C3B041B0C46
:103BC0008846081C291C9A46FCF706FD53464343C9
:103BD0008146291C40469B46FCF742FD029A090497
:103BE000130C19438B4506D94B46C919013B8F422B
:103BF00000D8ABE099465A468A1A101C291C9346F5
:103C0000FCF7EAFC53464343291C804658469A4633
:103C1000FCF726FD029A090415042D0C29438A4558
:103C200006D94346C919013B8F4200D886E0984621
:103C30005746CF1BBA464946019F080442461043E7
:103C40003D042D0C03043F0C1B0C020C291C594392
:103C500055437B437A43EB180F0CDB198C469D428E
:103C600002D980277F02D2191D0C521992455FD3C9
:103C700056D000271EE720231B1A311C2F1CD940C9
:103C8000DF4085400B1C84402B4386400193B346A4
:103C90002304260C1B0C381C311C9846FCF79CFC9A
:103CA00042464243051C311C381C9146FCF7D8FCA7
:103CB000019F09043B0C1943894507D909196B1E5B
:103CC0008C424DD889454BD9023D09194A468A1A7A
:103CD000101C311C9246FCF77FFC43464343071CF3
:103CE000311C50469946FCF7BBFC019A09041304A9
:103CF0001B0C1943894507D909197B1E8C422DD805
:103D000089452BD9023F09194B46CB1A2D049946F8
:103D10002F43FDE61E1CCAE61F1CAAE6994633E7A0
:103D200061460A041B04120C9B18A6409E42A0D2B6
:103D300001380027BEE600270120BBE68A4500D8EF
:103D400075E702235B429844C91971E78B4500D897
:103D500050E702235B429944C9194CE71F1CD3E783
:103D60001D1CB3E7023D0019ECE6C04608B5094A40
:103D7000094BD058094901408020C0040143D1506B
:103D800004F028FB031C0648E1214902022204F04A
:103D9000F3F908BD0070044004100000FFFFFFF3BA
:103DA0000040054000B585B002A80D490831062243
:103DB0000CF0D4F900236A46137080235B02019350
:103DC0000849094B094AD15002A804F07FFB684614
:103DD00004F0A4FA064A074B1A6005B000BDC046BD
:103DE000F02701000000071044100000007004409C
:103DF000006CDC0268E0FF1FF0B5474680B48046E7
:103E00000E1C101CFFF7F8FA041C0D1C301CFFF7E9
:103E1000F3FA021C0B1C201C291CFEF719F8021CCB
:103E20000B1CFDF7F3FC1B4B194AFEF77BFC0CF057
:103E300043FA021C0B1CFDF7E9FC041C0D1C164A7E
:103E4000164BFDF7E3FC061C0F1C154A154BFCF73F
:103E500083FC00280AD1201C291C0F4A0F4BFEF7B7
:103E6000F1FE321C3B1CFDF7F3FF01E00E480F4949
:103E7000FFF714FB802212068018434618600023C7
:103E800042465360936004BC9046F0BDC046C046B5
:103E9000182D4454FB21F93F0000000000000040B1
:103EA0000000000000000000000000000000F03FE3
:103EB00000238360416000207047C04670B5041C39
:103EC0000D1C06688068FDF7F5FB011C301CFDF732
:103ED00031F9FDF7CFFB6268AB1A1818A060656076
:103EE00070BDC04600000000F0B5474680B482B007
:103EF00080460E1C101CFFF77FFA041C0D1C301CA2
:103F0000FFF77AFA021C0B1C201C291CFDF7A0FFEE
:103F1000021C0B1CFDF77AFC2A4B294AFEF702FC17
:103F20000CF0CAF9021C0B1CFDF770FC041C0D1CE4
:103F3000254A264BFDF76AFC061C0F1C244A254B1C
:103F4000FCF70AFC002814D1201C291C1E4A1F4B18
:103F5000FEF778FE321C3B1CFDF77AFF00900191C2
:103F6000201C291C321C3B1CFDF772FF041C0D1C7D
:103F700003E0194C194D00940195002642469268C1
:103F8000966043469F6800980199FFF787FA78602A
:103F9000FE239B0542469268136043469B685E6120
:103FA00042469668201C291CFFF778FA3061424689
:103FB0009368D86002B004BC9046F0BDC046C046CD
:103FC000182D4454FB21F93F000000000000004080
:103FD0000000000000000000000000000000F03FB2
:103FE000F0B5474680B4041C081CFDF763FB051CB4
:103FF000A668646867687068391CFDF79BF8011C47
:10400000281CFDF7C1F9051C2060F168FDF792F846
:1040100080463169381CFDF78DF8011C4046FCF7DD
:1040200039FD6560FDF726FB04BC9046F0BDC04637
:1040300038B508F097F8164B9868164A104080215A
:10404000890008439860586810400143596012483D
:1040500044681440802149000C4344609869104032
:104060000843986158690240114359610B48012186
:104070000B4A04F0D9FE0B4D0B4C281C0621221CC8
:1040800004F0D2FE281C0521221C04F0CDFE38BD10
:1040900000B00440FFF8FFFF00A0044040F00F40D4
:1040A0001029010080F00F401429010070B584B080
:1040B000041C0D1C002676E09C235B0073433C49E6
:1040C0005B5C002B6ED09C235B0073435B5C012B1D
:1040D00034D19C235B007343CB181A695B69AB42F4
:1040E00060DC01D1A2425DD89C235B007343304A5F
:1040F000D318982149005A18002111701B7A002BFF
:1041000007D09C235B007343294AD3189C61DD616F
:104110000EE09C235B0073432549C918CA680292CC
:1041200000230393029A039B12196B418A61CB61AE
:104130009C225200724302211D4BD1549C235B00F0
:1041400073431B49CB189A69DB69AB422ADC01D166
:10415000A24227D89C2149007143154B59180C6283
:104160004D62CA68009200230193009A019B1219C4
:104170006B418A61CB6102F0DDFA002809D09C23F3
:104180005B0073430A4AD3183133FF3302221A709B
:1041900008E09C235B007343054AD3183133FF3397
:1041A00001221A700136012E86DD04B070BDC046B2
:1041B00030EDFF1F00000000F0B55F4656464D464B
:1041C0004446F0B483B04E4B1B785B084D4A1278DE
:1041D000D2B24D49097801918A4200D880E0494A1B
:1041E0001278D2B29A427DD9464A1278D21A013A4E
:1041F000D2B251B21E1C994200DDDAB241490978AF
:10420000019C091B0139C9B248B2864200DAD9B211
:1042100050B24DB2A84200DB0A1CD1B2019C651A13
:10422000EDB25B1ADBB20021002057B2F719374A12
:104230009046374CA44610E04246D65C6AB2540021
:10424000A1464A44920062440424125F72438018DB
:1042500089190135EDB20133DBB2BB42ECDDFCF76D
:10426000BBF92B498946019C6400A24601990B1CAD
:1042700053449B004B44D880264A90461588264ECE
:104280006F007B19DB0008229A55FFF781F81B4B62
:10429000194AFDF7DDFD7B19DB009B199B46FFF7F3
:1042A000FDF85C4620610198031C53449B0049467D
:1042B00058581A4B1A6800210023FCF7F9FAA0603D
:1042C000E1600135ADB2424615801F2D02D90022B2
:1042D00043461A80019C01340B4B1C70012002E004
:1042E000002000E0002003B03CBC90469946A24666
:1042F000AB46F0BDC046C04600000000000059407B
:10430000EE0C0020CC0C0020D40C0020F0F9FF1F94
:1043100028E4FF1F1CE4FF1F30EAFF1FCCF9FF1F3A
:10432000F0B55F4656464D464446F0B48BB08046E5
:104330008C460493002314980360002009AB188076
:10434000AB4EAC4FAC48AD4D13E009AB1B88DB0066
:10435000EB189B881CB239B28C4200DA1F1C19B2D0
:1043600034B2A14200DD1E1C09AB1988013189B2AB
:10437000198009AB198889B203889942E5D3BFB285
:10438000F61BB4B2310400D590E124B2944200DCB3
:104390008CE1604660436421FCF76CF9381880B208
:1043A0008146404660436421FCF764F93F18BFB280
:1043B0000097934B1F8800226B46DA84002000246C
:1043C000019400260596002301219B468A4CA046B5
:1043D0000691351C0396029030E13CB2944200DB1A
:1043E00000273EB2F200854CA2189488002B07D01B
:1043F000F200824CA21800249480013B9BB216E18B
:1044000022B2494608B2824216DB069A002A07D039
:104410000135012D00D105960196A3460020069096
:1044200022B2594609B28A4200DC00E1012D00D1D6
:1044300005960196A346FAE022B2009E36B2B24239
:1044400000DDE9E00698002800D0E5E06D4B1B7820
:10445000013B9AB2002B0DDB019EF30067495958CE
:1044600013B25A00D3189B00674A9B58994203D84D
:10447000002302E0012300E00123002B00D1ABE088
:104480005E4B019EF2009A189288039E36B2029605
:10449000F1005B189B88D21A92B2F423FF339A4240
:1044A00000D999E0574B1E78544884460199C900B9
:1044B0000391085806905449700082465644B6004D
:1044C000069870501E7803988246E2445046079042
:1044D000C0888446700082465644B6008E19039602
:1044E00056086046801B039E30811E78700084460B
:1044F0006644B6008E19B2801A780132D2B21A70B0
:1045000042490E88424A9246730003939B19DB008E
:10451000092250461A5407990420085EFEF7FAFE55
:10452000324B314AFDF794FC039A9319DB00534454
:104530000793FEF7B3FF079B1861364B1B68079381
:10454000069800211A1C0023FCF7B2F9039A93196C
:10455000DB0053449860D9600136B6B22B4B1E8005
:104560001F2E01D900221A802848068828498A4629
:10457000720003929319DB000A225A540299C9006F
:1045800002911E4A53180421585EFEF7C3FE174BD2
:10459000154AFDF75DFC039A9319DB00534406931B
:1045A000FEF77CFF069B1861029814494258079851
:1045B00000210023FCF77CF9039A9319DB00534494
:1045C0009860D9600136B6B2104B1E801F2E01D9FB
:1045D00000221A80FFF7F0FD02940397049B012448
:1045E000069424E0C046C046000000000000594088
:1045F000D08A000030750000EC0C00200CFAFF1F80
:10460000C4F9FF1FCC0C002028E4FF1F1CE4FF1F8F
:1046100030EAFF1FCCF9FF1F22B2009E36B2B24231
:1046200005DC029800B2824201DA029403976A46DE
:10463000D48C0134A4B2D4840137BFB26A46D48C7E
:10464000A4B241460A88944200D2C6E6AA46012D89
:104650002CDD1D4B019CE200D058059EF200D35882
:10466000C01AFDF727F8061C184B1868FEF790FED5
:10467000144B134AFDF7ECFB041C0D1C301CFEF719
:10468000BBFE221C2B1CFEF74DF8FEF707FF041C97
:104690000021FCF7ABF8002808D150460138FDF79F
:1046A00009F8211CFCF762FB149908600BB03CBCB4
:1046B00090469946A246AB46F0BDC046C046C046AD
:1046C00000000000389C8C410CFAFF1FCCF9FF1F42
:1046D000F0B55F4656464D464446F0B48BB0059063
:1046E00004910892099302280BD1E94B1868E94913
:1046F000FCF73CFB069004990391002207920024EA
:104700000FE0E54B1A78013A11B203911B78013B97
:104710009BB20793E14B1868DE49FCF727FB069034
:10472000049C039A131B032B00DCCBE10023984667
:1047300099469A46DA4E04994B005B189B009B46BB
:10474000F31802933EE067003B199B0098595A46C4
:104750009259801AFCF7AEFF051C3B199B00F31819
:104760000421585E029A0423D35EC01AFCF7A2FF0C
:1047700001903F19BF00F7190823F85E029908233A
:10478000CB5EC01AFCF796FF071C281C0199FCF7AA
:10479000D1FC011C5046FCF77DF98246281C391CCF
:1047A000FCF7C8FC011C4846FCF774F98146281C3C
:1047B000291CFCF7BFFC011C4046FCF76BF9804646
:1047C000013424B2039A9442BDDD40460021FBF738
:1047D000FDFF002800D077E150464146FCF7C6FABD
:1047E000041C48464146FCF7C1FA051C0021FCF7B1
:1047F00011F8002800D069E1281CAA49FBF7ECFF5A
:10480000002800D064E1059B022B0DD1201C002163
:10481000FBF7ECFF002800D05CE1281CA249FBF765
:10482000EFFF00280ED057E1201C0021FBF7F2FF1C
:10483000002800D052E1281C9A49FBF7CDFF002840
:1048400000D04DE196498A46049A52009146049957
:104850000B1C4B449B00524699588846049A131CE3
:104860004B449B0053440421585EFCF723FF029005
:10487000211CFCF77BFA83460698FEF7BDFD021C5F
:104880000B1C82498048FEF7DDF9061C0F1C5846B8
:10489000FEF7B2FD321C3B1CFDF744FF061C0F1C4B
:1048A0004046FEF775FD321C3B1CFEF7CBF9FEF7C8
:1048B000F5FD061C80221206AD184046FCF756FF97
:1048C0008046311CFCF760FD011C281CFCF732FC03
:1048D000051C04990B1C4B449B0053441889FCF79E
:1048E000E9FE011C281CFCF7D5F86A49FCF73EFAE2
:1048F00083466E49FBF784FF002800D0F2E058465B
:104900006B49FBF769FF002800D0EDE0301CFCF795
:10491000B1FE099A002A00D01498002800DA00207D
:10492000644B1B680193984200D9181C624B9A464D
:104930001D88624A91466F007B19DB00059A494643
:104940005A547B19DB004B44594619615C4B1B6878
:104950000393C1171A1C0023FBF7AAFF7F19FF005E
:104960004F44B860F9600135ADB2524615801F2D35
:1049700002D9002253461A8007990BB25A00D31865
:104980009B00474A9858FCF7F1FE051C4146FCF78E
:10499000FBFC211CFCF7CEFB011C0298FCF77AF80B
:1049A000454A17887B009A46DB19DB000B224349F6
:1049B0005A545246D319DB00C91889463549FCF7C9
:1049C000D5F94B4618610398FCF7D0FE8146291CA7
:1049D000FCF7B0FB5146CD19ED00384A5519FBF7ED
:1049E000C3FFA860E9600137BFB2334B1F801F2FA0
:1049F00001D900221A80301C0021FBF7EDFE0028AF
:104A000001D1351C00E000250198FCF7AFFE071C22
:104A1000291CFBF7E1FE002800D12F1C301C414669
:104A2000FCF7B2FC211CFCF785FB011C0298FCF78B
:104A300031F8214988460C88204D66003319DB0087
:104A40000B225A553319DB005B199A461149FCF7C2
:104A50008DF953461861381C4946FCF76BFB5646E6
:104A6000FBF782FFB060F1600134A4B241460C80D4
:104A70001F2C01D900220A805B46089A136001208E
:104A800033E0C046C046C046000000000000F03FD2
:104A900010E0FF1F0000C842CC0C00200CE0FF1FFC
:104AA00028E4FF1F000020C10000204100007A43DD
:104AB0000000F041F40C00201CE4FF1F30EAFF1F4F
:104AC000CCF9FF1F002010E000200EE000200CE0D9
:104AD00000200AE0002008E0002006E0002004E0BA
:104AE000002002E0002000E000200BB03CBC90461B
:104AF0009946A246AB46F0BD08B51E4B1870042877
:104B000017D880001C4B1B589F4601231B4A13607B
:104B10001B4A136012E00122184B1A600022184B46
:104B20001A600BE00022154B1A600122144B1A6028
:104B300004E00123114A1360114A136007F0F6FAEA
:104B4000C830104B18600D4B1B78002B03D140224E
:104B50000D4B9A6002E040220B4B5A60084B1B78C9
:104B6000002B03D12022084B9A6002E02022064B42
:104B70005A6008BDA0EFFF1F182901002CE0FF1F9D
:104B80003CE0FF1FD4F9FF1F80F00F40F0B55F46F7
:104B900056464D464446F0B483B0071C88469446BA
:104BA00001930CAA01CA127800920E9C0F9D4349F2
:104BB0008A460E88424972009319DB00022058543D
:104BC0009319DB0099468944484607618460C560B3
:104BD0000136B6B251460E801F2E02D90021524630
:104BE0001180364A91461688354F72009119C900D6
:104BF0000320C8559119C9007918404608618C6096
:104C0000CD600136B6B249460E801F2E02D9002172
:104C10004A461180294A90461188294E4F007A1839
:104C2000D200042090557A18D200B2186046106164
:104C30007A18D200B2189460D560013189B2424628
:104C400011801F2901D9002111801C4B9C461A8814
:104C50001B495600B718FF0005237B54B718FF0007
:104C6000CF19019B3B61BC60FD60013292B260468E
:104C700002801F2A01D900220280104F3B88104970
:104C80005A00D618F60006207054D618F6008E1971
:104C90000C983061B460F56001339BB23B801F2BF0
:104CA00001D900223A800098FFF726FF03B03CBCF0
:104CB00090469946A246AB46F0BDC0461CE4FF1F95
:104CC00030EAFF1F10B5244B18680021FBF77EFD6A
:104CD000002805D1214B40229A6020229A603AE0B8
:104CE0001F4B1B78013B012B35D807F01FFA1D4BDA
:104CF0001B6898422FD31A4B1B78012B08D11A4BF3
:104D00001C68624262411A600122184B1A6009E075
:104D1000022B07D1154B1C68624262411A600122C6
:104D2000114B1A60C8300F4B1860104B1B78002BCA
:104D300003D14022094B9A6002E04022074B5A609F
:104D4000094B1B78002B03D12022044B9A6002E010
:104D50002022024B5A6010BD340D002080F00F401D
:104D6000A0EFFF1FD4F9FF1F3CE0FF1F2CE0FF1F47
:104D7000F0B55F4656464D464446F0B495B0002324
:104D80000E93FFF79FFF0026A1498A46B34600F025
:104D900044FC9C22520072439E4BD35C022B01D0F8
:104DA00000F03AFC131C9B4AD3183133FF331B78B5
:104DB000002B01D100F030FC9C235B007343D3181F
:104DC0003133FF331B78022B05D101F0ABFC0028F7
:104DD00001D000F026FC9C24640074438D4B1C1908
:104DE00098225200A31800221A700FA801F082FC2A
:104DF000216D0F98FBF74EFE1290874B1868FE212D
:104E00008905FBF7E3FC002819D084490A88531C64
:104E10009BB20B809200824952581292814A1288AA
:104E2000934202D3013A7D4B1A807F4B18687F4929
:104E3000FBF716FC002902D10022784B1A807C4B2C
:104E40005C681C609D685D60DF689F601298D86038
:104E5000784B1D78002D03D1754B18605860986011
:104E6000734B1C68211CFCF78FFA7349FBF7C8FCD5
:104E7000002801D0012083466D4F79688846081CC0
:104E8000211CFCF781FA8146BF684046391CFCF7BB
:104E90007BFA80464846FEF7AFFA5C4B5A4AFBF76E
:104EA00075FC002812D04046FEF7A6FA574B564A2A
:104EB000FBF76CFC002809D0201C391CFBF7EAFD2D
:104EC000FC218905FCF736F9594B5860584B586856
:104ED00012905146FCF72EF9FCF7CCFB041E00DAC9
:104EE0000024082D00D96EE2AD00544B5B599F465B
:104EF0000022534B1A800023524F534D06E0D90035
:104F00006818C28082804A5101339BB239888B4233
:104F1000F5D300234D4A13704D4A13704D4A137058
:104F20004D4A13604D4A136001214D4A11704D4A9C
:104F300013609C235B007343364AD3185A684A4B6C
:104F40001A420FD10022494B1A700020FFF7D4FDFE
:104F5000474803F067F9474803F064F90122354BED
:104F60001A7030E2424803F05DF9434803F05AF901
:104F70000222304B1A7026E203222E4B1A703F4851
:104F800003F050F91FE23E4B9C4200DC1BE2022082
:104F9000FFF7B2FD0422274B1A703A4803F042F99A
:104FA00011E2394B9C4200DC0DE20120FFF7A4FD29
:104FB0000622204B1A70354803F034F903E25A46B2
:104FC000002A02D00022244B1A60234B1B68304A6F
:104FD000934206D90722174B1A702E4803F022F984
:104FE000F1E12D4A12689B181B4A1360EBE12B4B31
:104FF0009C4200DDE7E12A4BD88801220023134DB3
:10500000274FA4461C1C59E09A9999999999A93F50
:105010000000C84230EDFF1FA4F9FF1F1EE4FF1F70
:10502000602A010024E4FF1FF40C0020941100000A
:10503000000D002028EAFF1F0000A0402C290100DD
:10504000C4F9FF1FEC0C00200CFAFF1FCC0C002051
:10505000F80C0020D40C0020F00C0020B4F9FF1F45
:1050600008E0FF1F20E4FF1FFC0F0000D0F9FF1F26
:10507000206A0100306A0100486A0100586A010094
:1050800070170000686A0100983A00007C6A01000D
:1050900080841E008C6A0100CCF9FF1F871300007A
:1050A00028E4FF1F5900CB189B00FB18DB8819B2BE
:1050B000814201DD98B2141C013292B213B22978F8
:1050C000C9B28B42EEDBA1466446C94B1B6807930D
:1050D0009C235B007343C74AD3185B687C221A4049
:1050E000934205D0C44B1D6807952A1C01321A60F3
:1050F0004F463FB208977B00DB199B00BF4AD3188D
:105100001889FEF707F9B74BB54AFCF7A1FEFEF781
:10511000C5F9BB4B1860BB4F3D88BB4F6900884643
:105120004B19DB000422DA554B19DB00FB18186120
:10513000079A0D92B54B1B680B93101C00211A1C8B
:105140000023FBF7B5FB42465319DB00FF18B8609C
:10515000F9600135ADB2AB4F3D801F2D01D9002262
:105160003A80A84F3D88A84880466F007B19DB0035
:105170000B221A54089A52000A92089813189B009E
:105180009E49CB180622985EFEF7C4F8954B944AC8
:10519000FCF75EFE7B19DB0043440C93FEF77EF9BF
:1051A0000C9B18610A98089943189B0093481A5859
:1051B0000B9800210023FBF77BFB7B19DB004344AA
:1051C0009860D9600135ADB28E4F3D801F2D01D959
:1051D00000223A8000258E4F05E0FEF7EDFF002803
:1051E00006D00135EDB26BB23A7852089342F4DB47
:1051F000484601B2079D00950220864A0123FFF729
:1052000067FA002802D001270A9701E000250A95D5
:105210004F4639B2079D009503207F4A0123FFF7CF
:1052200057FA002801D100270A977A4B18687A4B61
:105230001968FCF7A9F8794B1860724989460D88FE
:10524000714F6B0098465B19DB000522DA55414629
:105250004B19DB00FB1818616C4B1B6807930D980A
:1052600000211A1C0023FBF723FB089009914246FA
:105270005319DB00FF18B860F9600135ADB24B4639
:105280001D801F2D01D900221A80654B1B78053B1C
:105290009AB2002B03DA624B1A78013A92B291B2B9
:1052A000081C1E3883B2050400D50023C91A8DB22C
:1052B0000F0400D50025514912B250008218920007
:1052C00050581BB25A00D3189B005B58C01A079F56
:1052D0007843FEF75DF8444A444BFCF7B9FDFEF70E
:1052E000DDF8071C0021FBF781FA002802D12BB260
:1052F000002B05DC00224B4B1A6000250A9507E0C5
:1053000028B2FCF7D7F9391CFBF730FD454B186084
:105310003C4803883C4A5900CD18ED000627AF549D
:10532000CD18ED0055193F4F3F682F610899099A34
:10533000A960EA6001339BB203801F2B01D90022D0
:1053400002800A9D002D0CD19C235B007343294AE7
:10535000D3185B687C221A4203D00422324B1A70A5
:1053600002E00322304B1A702F4B1878FFF7C4FB72
:1053700008222E4B1A702E4802F054FF23E02D4BCA
:105380009C4220DD0022294B1A709C235B00734352
:10539000184AD3185A68284B1A4214D0164B18686A
:1053A000421C1A60194B1A680025009500230193CE
:1053B0000021FBF77DFA02900391281C291C2A1C6E
:1053C0002B1CFFF7E3FB194B1B78072B3AD01B482C
:1053D000211CFEF76DFD011C1948FEF701FE39E0A6
:1053E000000000000000594000000000389C8C4183
:1053F000F40C002030EDFF1FE00C002028E4FF1F1C
:10540000100D00201CE4FF1F30EAFF1FCCF9FF1F26
:10541000EE0C0020C8F9FF1FD00C0020FC0C00206F
:10542000CC0C0020E40C0020D0F9FF1F28EAFF1F5D
:105430009C6A010070170000820F0000A8F9FF1F8E
:1054400030E0FF1F7C48211CFEF738FD011C7B4823
:10545000FEF7C6FDFDF75EFF764B754AFDF762F974
:10546000FDF724FF051C764B1B78072B48D1754BA5
:105470001A6875490F68D3190B6074498B4217D9A4
:105480000021714B19607248804603887148DF0023
:10549000C119CC808D80704C24683C5001339BB284
:1054A00047463B806D4909888B4201D300213980F2
:1054B0006B4B186812181A606A4B1B78002B08D0C7
:1054C00069498A4205D90023654A1360654A137009
:1054D0000EE0002B0CD1654B9A4209D90022604B9B
:1054E0001A600EAB009323203C210023FEF718FF27
:1054F000281CFCF7DFF85146FBF738FC139001E05D
:1055000000231393544B1A6801321A609C235B00EA
:1055100073435749CB185B68990701D41C067BD5A8
:10552000012A04D153480FA914220AF017FE514D45
:105530000F982968FBF728FF071C4F4B0021585E86
:10554000FCF7B8F8041C381C211CFBF70FFC814643
:105550001298E968FBF718FF211CFBF707FC80464F
:1055600013982969FBF710FF211CFBF7FFFB071CB1
:1055700000259C235B0073433D4CE418079408947A
:105580003B1C4F46B146464698463FE0394C2068A2
:10559000391CFBF77FFA2060E068311CFBF77AFAD0
:1055A000E06020694146FBF775FA2061334A1388B1
:1055B00001339BB213801BB2314A0021525E9342E9
:1055C00022DB00222D4B1A802E480AF09FFA132866
:1055D00015D8079B30335B79002B15D1089B1A6ACD
:1055E0005B6A089CA262E36230340D232370494653
:1055F000C8B2402105F0C2FC0123637104E02148D8
:105600001C4914220AF0BEF90135EDB21A4B0022F2
:105610009B5E9D42BADB4E460136012E01DCFFF750
:10562000B8FB15B03CBC90469946A246AB46F0BDCF
:10563000333333333333F33FA8F9FF1F30E0FF1F19
:1056400028EAFF1FCCF9FF1F20E4FF1F0F270000EF
:10565000C4F9FF1F0CFAFF1FF40C0020EC0C002013
:10566000B4F9FF1F08E0FF1F7F8D5B003F420F0072
:1056700030EDFF1FDCF9FF1F380D0020EA0C002081
:10568000D8F9FF1F140D002070B5061C9C235B0089
:1056900043431E48C518682006F072FF041E34D02C
:1056A000281C4030211C583120220AF057FD174A8F
:1056B0009C235B00734300259D54D3185D60144AFE
:1056C000DA6014480AF02CFA134BE26E1A60134B9E
:1056D000226F1A60626F124B1A600023114A136026
:1056E000114A1570114A1360114A1360114A136070
:1056F000114A1360114A1360114B1D700020FFF70F
:10570000FBF91048311C02F08DFD70BD30EDFF1F1C
:10571000C4090000140D002010E0FF1F0CE0FF1F63
:10572000D80C0020340D002028EAFF1FC8F9FF1F05
:10573000D00C0020100D0020FC0C0020E40C0020F8
:10574000D0F9FF1FAC6A0100F8B56420134909F0D5
:1057500027F908F07BF900F007FE0024104F114EE6
:10576000114D18E09C2252006243BA18111C3031CE
:1057700079238B710023CB7138321370537093707F
:10578000D370301C291CA02212010AF0F1F8E0B2FB
:10579000FFF77AFF0134012CE4DDF8BDAD400000D5
:1057A00030EDFF1F140D0020A4EFFF1F00000000CC
:1057B000F0B55F4656464D464446F0B489B0079072
:1057C0008B46904612AB06CB1B789A4615AB1F78DA
:1057D000AF480AF0A5F90123AE4A1380AE4A138000
:1057E0000022AE4B1A80AE4B984516D94046191C84
:1057F000FAF7F2FE80B2A84B188003B2A84A5343CE
:10580000434502D00130A44B1880A34B0022995E7F
:105810004046FAF7E1FE061C00E04646A14B9E42D8
:1058200012D8A148311CFAF7D7FE80B2994B1880E4
:1058300002B272439C4B9A4202D00130954B1880C1
:10584000944B00241B5F5E43934B00215D5E974C9D
:10585000206868438F4B00215A5E9146111CFAF76D
:10586000BBFE934B18600096924807994A462B1C42
:1058700002F0D8FC9C214900079A51438E4B5918DD
:1058800000238B70081C303043715B464B60CE6048
:10589000129A139B0A614B6153460B724F700022A0
:1058A00000238A62CB620C230370012343702660BD
:1058B000301CFDF76DFD021C0B1C70496E48FCF797
:1058C000C7FAFDF7EBFD81467C4F381C4946FC22A8
:1058D0009205FEF791FA4846FDF78EFD041C0D1C5B
:1058E0003868674A674B00920193FDF785FD029087
:1058F00003917348221C2B1C02F094FC714F381C3E
:105900004946714AFEF7F0FABB685868DF685E4A9C
:105910005E4B00920193FDF76FFD02900391381CDE
:10592000FDF76AFD049005916848221C2B1C02F0CB
:1059300079FC6748311CFAF74FFE80B2654B18803E
:1059400096239B00984202D91A1C624B1A80614B25
:105950001A886148079902F065FC00225F4B1A70B3
:105960005F4B1968081CFBF795F8FE218905FBF7CA
:1059700091F8FAF7BFFFC0B25A4B1870421CD2B26E
:105980000023594D411ECC0F6418641008E0EA54FE
:105990009C4202DC023AD2B201E00232D2B20133BE
:1059A000011E9942F3DC514802F03CFC00244D4DAD
:1059B0004D4F4F4E04E0395D301C02F033FC013492
:1059C0002B78A342F7DC4B4802F02CFC00234A4A18
:1059D00013804A4A13804A4A13604A4A13604A4B6A
:1059E0001B78082B1DD1494B98451AD1484B186894
:1059F000484B1968484B1A68484B1B68484C246848
:105A00000094484C247801940024002502940395C6
:105A1000FFF7BCF808223C4B1A700122394B1A6080
:105A200009E000243F4B1C700020FFF765F8364B5F
:105A30001C70344B1C6000223B4B1A80FF22120169
:105A40003A4B1A801C4B9C225200079C62439918C7
:105A50003131FF31002008700121D1543448211C1C
:105A600002F0E0FB09B03CBC90469946A246AB462A
:105A7000F0BDC046C046C0460000000080842E41F4
:105A8000000000000000E03F000000000000244093
:105A9000140D0020380D0020D8F9FF1FEA0C00205B
:105AA000204E00000F27000010270000CCF9FF1F38
:105AB000DC0C0020C06A010030EDFF1FA8F9FF1FB9
:105AC000146B010030E0FF1F000020413C6B01001F
:105AD000808D5B00EC0C0020686B0100D40C002072
:105AE000D80C0020EE0C0020F0F9FF1F886B01009D
:105AF000A46B0100A86B01001CE4FF1FE80C002050
:105B0000F40C0020E00C002028EAFF1F20A1070071
:105B1000C8F9FF1FD00C0020100D0020FC0C002045
:105B2000E40C0020D0F9FF1F1EE4FF1F24E4FF1F38
:105B3000AC6B0100C046C04610B5041C9C2252004C
:105B40004243194BD35C002B23D0184B1B78032BFB
:105B50001FD9082B1DD0131C134AD3185B687C2255
:105B60001A4216D00822114B1A700023104A1360F3
:105B7000104A1360104A1360104A1360104A1360F1
:105B80000422104B1A700420FEF7B6FF0E4802F0F4
:105B900049FB9C22520062430021034BD1540B4825
:105BA000211C02F03FFB10BD30EDFF1F28EAFF1F54
:105BB000C8F9FF1FD00C0020100D0020FC0C0020A5
:105BC000E40C0020D0F9FF1FC46B0100E46B01005E
:105BD000CBB2062B33D899001A4B5B589F469C23B7
:105BE0005B005843184B18183030807928E09C230C
:105BF0005B005843144B18183030C07920E09C23C8
:105C00005B005843104B18183830007818E09C237C
:105C10005B0058430C4B18183830407810E09C2338
:105C20005B005843084B18183830807808E09C23F4
:105C30005B005843044B18183830C07800E000204F
:105C40007047C0465029010030EDFF1F002070470B
:105C5000081C70479C235B0058434030014B1818C8
:105C60007047C04630EDFF1F08B59C235B005843CA
:105C70006030044B18180021B4220AF078FA002092
:105C800008BDC04630EDFF1FF0B50E2912D80A4CF2
:105C90004D006B189B009C26760070431B18E31880
:105CA0001E1C6036012737709A661C1C0023636631
:105CB000002000E03220F0BD30EDFF1F08B50E29B6
:105CC0000FD84B00591889009C235B0058430918D2
:105CD0006031054B5918101C0C220AF03FFA0020C5
:105CE00000E0322008BDC04630EDFF1FF0B585B0A2
:105CF000061C0F1C141CFFF71FFFE26A61680024DA
:105D00000025009401950123029300230393301C86
:105D1000FFF74EFD3B78012B0DD9362012E0E00055
:105D2000001B80008019084B18181530FF3008F050
:105D300099F8013403E000249C235B005E43002CAF
:105D4000EDDD302005B0F0BD30EDFF1FF0B54F4662
:105D50004646C0B487B0071C9146061C9C235B00D6
:105D60004343304AD21890462F4809F0C7FE142109
:105D7000FAF732FC85B22BB2002B4ADD00249C23BB
:105D80005B005E43274886191536FF360BE0264830
:105D900001A9142209F044FE301C0221019A08F0E6
:105DA0006BF80134A4B223B229B28B42EFDB9C23FF
:105DB0005B007B431B4AD3181133FF331889FBF771
:105DC00079FC49460C69211CFAF706FD002822D10E
:105DD0004246546701246C23D4549C235B005F43E8
