:1000000000600020E90400004DC500001DC500008F
:1000100000000000000000000000000000000000E0
:100020000000000000000000000000007DC500008E
:100030000000000000000000ADC50000D9B10000C4
:100040006105000065050000690500006D05000000
:100050004905000049050000490500004905000068
:100060007105000075050000790500007D050000A0
:10007000E5520000C9C600008905000049050000DE
:1000800049050000490500004905000011D900009C
:10009000490500004905000099B100008D050000E8
:1000A000BDC00000490500004905000049050000E9
:1000B0004905000049050000490500005DB1000048
:1003C0006B636667FFFFFFFFFFFFFFFFFFFFFFFF9E
:1003D000F0FFFFFFF708120094200100FFFFFF006D
:1003E000FFFFFFFFFFFFFFFF00FFFFFFFFFFFFFF1C
:1003F000FFFFFFFF00000000000000000000000001
:10040000FFFFFFFFFFFFFFFFFFFFFFFFFE31FFFFCB
:1004100010B5064C2378002B07D1054B002B02D0DA
:10042000044800E000BF0123237010BD00E4FF1F5B
:1004300000000000E039010008B5084B002B03D094
:100440000748084900E000BF07480368002B03D0B5
:10045000064B002B00D0984708BDC04600000000A6
:10046000E039010004E4FF1F0CE2FF1F0000000060
:10047000164B002B00D1144B9D46402292029A1A33
:10048000924600218B460F461348144A121A0EF06A
:10049000F0FE0F4B002B00D098470E4B002B00D0E6
:1004A00098470020002104000D000D48002802D0CC
:1004B0000C4800E000BF0EF0ADFE200029000BF05C
:1004C00071FF0EF091FEC0460000080000600020A1
:1004D000000000000000000000E4FF1F5436002070
:1004E000000000000000000072B60E480E490160D6
:1004F0000A6882F308880D4880470D490D4A0E4B63
:100500009B1A03DD043BC858D050FBDC0B490C4A56
:10051000521A03DD00208850043AFCDA62B609481A
:100520008047000008ED00E0000000001198000086
:10053000083A010000E0FF1F10E2FF1F00E4FF1F68
:10054000543600207104000011480047114800474C
:10055000114800471148004711480047114800471B
:10056000114800471148004711480047114800470B
:1005700011480047114800471148004711480047FB
:1005800011480047114800471148004711480047EB
:10059000DDC500004DC500001DC500007DC5000083
:1005A000ADC50000D9B1000089810000998100002B
:1005B000A9810000B9810000C1870000D98700002F
:1005C000CD8F000005900000DD8B0000F98B00004E
:1005D00039870000A58C0000002934D001230022B7
:1005E00010B488422CD301242407A14204D28142B2
:1005F00002D209011B01F8E7E400A14204D28142C2
:1006000002D249005B00F8E7884201D3401A1A433E
:100610004C08A04202D3001B5C0822438C08A04275
:1006200002D3001B9C082243CC08A04202D3001B2B
:10063000DC082243002803D01B0901D00909E3E7A5
:10064000101C10BC7047002801D00020C04307B424
:10065000024802A14018029003BDC046D900000024
:100660000029F0D003B5FFF7B9FF0EBC4243891A49
:100670001847C046002941D010B4041C4C40A44681
:1006800001230022002900D54942002800D540421C
:1006900088422CD301242407A14204D2814202D2F1
:1006A00009011B01F8E7E400A14204D2814202D211
:1006B00049005B00F8E7884201D3401A1A434C080E
:1006C000A04202D3001B5C0822438C08A04202D344
:1006D000001B9C082243CC08A04202D3001BDC086C
:1006E0002243002803D01B0901D00909E3E7101CAD
:1006F0006446002C00D5404210BC7047002806D04C
:1007000003DB0020C043400801E08020000607B45E
:10071000024802A14018029003BDC0461900000023
:100720000029EBD003B5FFF7A7FF0EBC4243891A9F
:100730001847C0467047C0468446101C62468C4627
:10074000191C634600E0C0461FB501F069FF002890
:1007500001D40021C8421FBD10B501F099FE4042EE
:10076000013010BD10B501F05BFF002801DB002057
:1007700010BD012010BDC04610B501F051FF00288A
:1007800001DD002010BD012010BDC04610B501F0F4
:10079000C9FE002801DC002010BD012010BDC046AC
:1007A00010B501F0BFFE002801DA002010BD0120C5
:1007B00010BDC0468446081C6146FFE71FB500F027
:1007C00069FC002801D40021C8421FBD10B500F00B
:1007D000EFFB4042013010BD10B500F05BFC00287B
:1007E00001DB002010BD012010BDC04610B500F097
:1007F00051FC002801DD002010BD012010BDC046C5
:1008000010B500F0FFFB002801DC002010BD012026
:1008100010BDC04610B500F0F5FB002801DA00203D
:1008200010BD012010BDC046002B15D1002A13D1E8
:10083000002900D1002807D003DB0020C043410875
:1008400002E080210906002007B4024801A14018F7
:10085000029003BDE1FEFFFF03B4684601B50298B4
:1008600000F0DEF8019B9E4602B00CBC7047C0460B
:10087000002B11D1002A0FD1002900D1002802D06D
:100880000021C943081C07B4024802A14018029085
:1008900003BDC046A1FEFFFF03B4684601B5029840
:1008A00000F0DAF8019B9E4602B00CBC7047C046CF
:1008B0009C460304F0B51B0C17043F0C150C1E1CC2
:1008C000041C000C7E436B4347434543FB18300C2C
:1008D0001818874202D980235B02ED18030CED182B
:1008E00063465C434A433604360CA1180004801961
:1008F0004919F0BD9E2110B5C905041CFFF78AFFF8
:10090000002803D1201C00F0B1FE10BD9E21C905B6
:10091000201C00F035FD00F0A9FE80231B06C01846
:10092000F3E7C0460000000038B50E4B0C4A041C2B
:100930000D1CFFF735FF002804D1201C291C02F0F4
:10094000B1FC38BD074B064A201C291C02F076F981
:1009500002F0A8FC80231B06C018F2E7C046C04680
:10096000000000000000E04138B50E4B0C4A051CA9
:100970000C1CFFF7F7FE002804D1281C211C00F0F6
:1009800013F838BD80231B06E118281C00F00CF872
:10099000021C0B1C002150429941F2E7C046C046A0
:1009A000000000000000000070B50E4B0C4A0D1C4A
:1009B000041C01F0B3FEFFF7B7FF061C02F0E4FCD5
:1009C000094A0A4B01F0AAFE021C0B1C201C291C20
:1009D00002F034F9FFF7A8FF311C70BDC046C046D5
:1009E000000000000000F03D000000000000F041A9
:1009F00070B5061C081C02F089FC084B064A01F081
:100A00008DFE0D1C041C301C02F0BEFC2B1C221C95
:100A100000F0F8FE70BDC046000000000000F0418C
:100A2000F0B583B0161C1F1C0090019102F0DCFD94
:100A3000041C0D1C221C2B1C301C391CFFF738FF1A
:100A4000009A019B121A8B410899201C0A604B6086
:100A5000291C03B0F0BDC046F0B583B0141C1D1CAA
:100A60000090019102F09CFF221C2B1C061C0F1C05
:100A7000FFF71EFF009A019B121A8B410899301C48
:100A80000A604B60391C03B0F0BDC046F8B54302A4
:100A90004400C50F4E024800240E2A1C9B09000E7C
:100AA000C90FB6098D425BD0221A002A00DC89E00A
:100AB00000281DD1002E00D075E0580704D00F2269
:100AC0001A40042A00D004338021C90419402A1C8A
:100AD00000293AD00134FF2C00D17FE09B015B0A52
:100AE0005B02E4B2E405580AD20720431043F8BD84
:100AF000FF2CE2D08021C9040E431B2A00DD2DE12A
:100B0000311C2020D140821A9640721E96410E431D
:100B10009B1B5801D1D59B019F09381C02F046FD53
:100B2000421F974094425BDC141B1F231B1B3A1C83
:100B30009F40611C3B1CCA405F1EBB411343002405
:100B4000BBE7131EB9D100230022DB08FF2C04D120
:100B5000002B43D08020C00303435B025B0ABFE746
:100B6000211A002940DD002823D0FF2CA5D08020A9
:100B7000C00406431B2900DDEEE0301C2027C840DE
:100B8000791A8E40711E8E4106439B19590100D47B
:100B900093E70134FF2C55D0714901221A400B40D4
:100BA0005B08134389E7013A002AB1D0FF2CA4D196
:100BB00083E7002E00D180E701390029E5D0FF2C22
:100BC000D8D17AE7002A1BD1621CD2B2012A4BDDB0
:100BD0009F1B7A0123D5F71A0D1C9EE700237FE7A0
:100BE0005F4BA41A3B4068E7002946D1611CC8B29C
:100BF000012829DDFF2924D0F3185B080C1C5CE7D1
:100C0000002C13D0FF2818D08024E4045242234340
:100C10001B2A4DDD0123F31A041C0D1C79E7002F5C
:100C200000D07AE70023002200248EE7002B3BD07F
:100C3000D243002AEFD0FF28EAD1331CFF240D1C39
:100C40003BE7FF24002380E7002C5CD1002B00D180
:100C500080E0002E00D130E79B19580100D42CE72A
:100C60003F4A0124134028E7002C15D1002B40D126
:100C7000002E63D0331C0D1C1FE7002C21D1002B4C
:100C800054D0C943002904D0FF284CD01B2958DD7B
:100C900001239B19041C79E7002B19D1002E48D0A1
:100CA000331C0D1CFF2408E7331C041C0D1C04E737
:100CB0001C1C2025D440AA1A93405A1E934123435A
:100CC000A9E7FF282FD08024E40449422343DDE72D
:100CD000FF24002E00D1F0E68022DB08D20313426D
:100CE00004D0F608164201D1331C0D1CDB00FF2492
:100CF000E3E6002E00D1E0E69A1B500100D420E785
:100D0000F31A0D1CD9E6002B0DD0FF24002E00D1C4
:100D1000D3E68022DB08D2031342E7D0F60816425E
:100D2000E4D1331CE2E7331CFF24C6E6331C041C69
:100D3000C3E6802300229B04FF2406E7231C002235
:100D400003E71C1C2027CC40791A8B40591E8B418D
:100D500023439EE7331CB0E6012616E70126D7E6BB
:100D6000FFFFFFFBF0B55F4656464D464446F0B4E4
:100D700046024500C00F85B00F1C760A2D0E804636
:100D800041D0FF2D26D08024240400212643F600E4
:100D90007F3D89468B46F90F7C027800640A000E7D
:100DA00000918A463CD0FF2834D080231B041C438A
:100DB0000023E4007F380193009F4346019A7B4063
:100DC00049469C4611430F2900D971E0764F8900AE
:100DD0007F58BF46002E3ED10822022391469B46F3
:100DE000D9E75A46341CC24601920199022937D0EC
:100DF000032900D1CFE0012900D0ABE053460B40DE
:100E00000022002632E0002E19D104210122894659
:100E10009346C0E7221C531E9A4102320192CBE74F
:100E200001270197002CC7D0201C02F0BFFB431FF5
:100E30009C4076235B420021181A0191BCE7301CCC
:100E400002F0B4FB7625431F9E406D4200232D1A0D
:100E500099469B469FE70C23032199468B469AE7C8
:100E6000D446012367463B40FF2200267602D20586
:100E7000700ADB071043184305B03CBC9046994606
:100E8000A246AB46F0BD80260023F603FF22EDE725
:100E900000220026EAE78020C00306423BD004423D
:100EA00039D1061C26437602760A009BFF22DDE735
:100EB000281A039076016401A64239D3361B1A2200
:100EC00001230120311C5B007600002901DBB442C4
:100ED00001D8361B0343013A002AF3DC741EA641F5
:100EE000341C1C43039A7F32002A27DD630704D099
:100EF0000F232340042B00D00434270103D52B4BB0
:100F0000039A1C408032FE2A0BDD012361460B4010
:100F1000FF220026AAE706437602760A4346FF220E
:100F2000A4E7A40101236746660AD2B23B409DE7CD
:100F3000039F1B22013F03970023C2E77E23039FE9
:100F40005B42DB1B1B2B07DD012361460B400022AC
:100F500000268BE7D446C5E7221CDA40039B9E336C
:100F60009C40231C5C1EA34113435A0704D00F224C
:100F70001A40042A00D004335F0105D501236146DD
:100F80000B400122002671E79E01624601231340B7
:100F9000760A00226AE78026F60326437602760A5E
:100FA0005346FF2262E7C046DC060100FFFFFFF761
:100FB0004A02430270B55C0A550A43004A001B0E00
:100FC000C60F120EC90FFF2B05D0FF2A08D0012033
:100FD00093420BD070BD0120002CFBD1FF2AF6D12B
:100FE0000120002DF6D101209342F3D1AC42F1D182
:100FF0008E4205D0002BEDD1201C441EA041E9E714
:101000000020E7E74A024302F0B55C0A550A4300B4
:101010004A001B0EC60F120EC90FFF2B31D0FF2A3C
:1010200034D0002B16D1604260418446002A14D08F
:10103000002820D18E4217D1934215DC04DBAC424C
:1010400012D80020AC4212D27042704140420123BB
:1010500018430CE0002AEDD194466F426F41604680
:10106000002805D1002FE5D0704201231843F0BDC0
:101070000020002FFBD14842484140420123184341
:10108000F5E7002CCBD002204042F0E7002DC8D07D
:10109000F9E7C0464A024302F0B55C0A550A43002C
:1010A0004A001B0EC60F120EC90FFF2B27D0FF2AB6
:1010B00029D0002B10D0002A15D194466F426F41E1
:1010C0006046002815D00020002F04D14842484136
:1010D000404201231843F0BD604260418446002A2B
:1010E000ECD00028F2D18E4211D070420123184377
:1010F000F1E7002FF7D0704201231843EBE70220FD
:10110000002CE8D1D3E70220002DE4D1D1E79342AF
:10111000EBDC04DBAC42E8D80020AC42DBD270420E
:101120007041404201231843D5E7C046F0B55F4601
:1011300056464D464446F0B44402460083B00F1C68
:10114000640A360EC50F002E41D0FF2E22D0802318
:101150001B0400201C43E4007F3E82468046391C6D
:101160004B007F02C90F7F0A1B0E8B463BD0FF2B23
:1011700034D0802212041743FF007F3B00215A46DF
:101180006A40019252460A430F2A63D87A48920075
:1011900082589746002C3FD1082202239246984657
:1011A000DDE70195404602282AD1019A0125154024
:1011B000FF2300246402DB05600AED07184328437F
:1011C00003B03CBC90469946A246AB46F0BD002C0D
:1011D00027D10420012282469046C0E7391C4A1ECE
:1011E00091410231CBE70121002FC8D0381C02F019
:1011F000DDF9431F9F4076235B421B1A0021BEE7A7
:10120000032800D1AEE001284FD10198424610409A
:10121000C5B200230024CDE70C2303209A46804664
:101220009DE7201C02F0C2F97626431F9C407642BF
:101230000023361A9A46984691E780240025E40355
:10124000FF23B7E75B463C1C01938846AAE73C1C9A
:101250008846A7E7250C24043A0C240C3F04F61812
:101260003F0C211C231C794353436F435543FB1808
:101270000A0C9B18B1469F4202D980225202AD1837
:1012800009041A04090C521894011B0C611E8C41AC
:10129000920EED181443AD012C43230105D5012214
:1012A00063080120144081441C434B467F33002BCC
:1012B0002DDD600704D00F222240042A00D0043420
:1012C000220103D52D4B1C404B468033FE2B17DDEE
:1012D000019B01251D400024FF236BE78020C003F4
:1012E000044208D0074206D1041C3C436402640A4D
:1012F0005D46FF235EE704436402640AFF2359E767
:101300000198A4010125640ADBB2054052E77E235F
:101310005B424A469B1A1B2B05DD019B01251D40A4
:101320000024002346E7221CDA404B469E339C40B3
:10133000231C5C1EA3411343580704D00F221A40FC
:10134000042A00D004335A0105D5019B01251D4014
:10135000002401232EE701989C010125640A054021
:10136000002327E78027FF03019B3C4364020125FC
:101370001D40640AFF231DE71C070100FFFFFFF764
:10138000F8B5C20F430244004D024800240E161C5B
:101390009B09000EC90FAD09FF2800D183E001278A
:1013A00079408A425CD0221A002A00DC8EE00028B4
:1013B0001ED1002D00D07AE0580704D00F221A4029
:1013C000042A00D004338021C9040122194032408C
:1013D00000293AD00134FF2C00D183E09B015B0A45
:1013E0005B02E4B2E405580AD20720431043F8BD7B
:1013F000FF2CE1D08021C9040D431B2A00DD31E11F
:10140000291C2020D140821A95406A1E95410D4327
:101410005B1B5801D0D59B019F09381C02F0C6F810
:10142000421F974094425FDC141B1F231B1B3A1C76
:101430009F40611C3B1CCA405F1EBB4113430024FC
:10144000BAE7131EB8D100230022DB08FF2C04D119
:10145000002B47D08020C00303435B025B0ABFE739
:10146000211A002944DD002827D0FF2CA4D0802099
:10147000C00405431B2900DDF2E0281C2027C840DA
:10148000791A8D40691E8D4105435B19590100D4BD
:1014900092E70134FF2C59D0734901221A400B40C6
:1014A0005B08134388E7002D00D07AE777E7013A1D
:1014B000002AADD0FF2CA0D17EE7002D00D17BE724
:1014C00001390029E1D0FF2CD4D175E7002A1BD1C6
:1014D000621CD2B2012A4BDD5F1B7A0123D5EF1AC1
:1014E0000E1C9AE700237BE75F4BA41A3B4063E79F
:1014F000002946D1611CC8B2012829DDFF2924D06A
:10150000EB185B080C1C57E7002C13D0FF2818D0F1
:101510008024E404524223431B2A4DDD0123EB1AAD
:10152000041C0E1C75E7002F00D076E70023002274
:1015300000248AE7002B3BD0D243002AEFD0FF28BB
:10154000EAD12B1CFF240E1C36E7FF2400237CE786
:10155000002C5CD1002B00D180E0002D00D12BE7C6
:101560005B19580100D427E73F4A0124134023E7C1
:10157000002C15D1002B40D1002D63D02B1C0E1C4C
:101580001AE7002C21D1002B54D0C943002904D0E4
:10159000FF284CD01B2958DD01235B19041C75E77B
:1015A000002B19D1002D48D02B1C0E1CFF2403E763
:1015B0002B1C041C0E1CFFE61C1C2026D440B21A57
:1015C00093405A1E93412343A9E7FF282FD080243C
:1015D000E40449422343DDE7FF24002D00D1EBE67C
:1015E0008022DB08D203134204D0ED08154201D15A
:1015F0002B1C0E1CDB00FF24DEE6002D00D1DBE6F9
:101600005A1B500100D41CE7EB1A0E1CD4E6002B29
:101610000DD0FF24002D00D1CEE68022DB08D203BE
:101620001342E7D0ED081542E4D12B1CE2E72B1C56
:10163000FF24C1E62B1C041CBEE6802300229B0471
:10164000FF2402E7231C0022FFE61C1C2027CC40BD
:10165000791A8B40591E8B4123439EE72B1CABE626
:10166000012512E70125D3E6FFFFFFFB4302590ADC
:101670004300C20F1B0E00207E2B0DDD9D2B0CDCCA
:10168000802000040143952B0ADC9620C31AD94020
:101690004842002A00D1081C7047034BD018FBE7D2
:1016A000963B9940F4E7C046FFFFFF7F70B5041EEC
:1016B0003CD0C60F00D04442201C01F077FF9E238F
:1016C000251C1B1A962B0CDC083884406402640A23
:1016D000DBB2321C6402DB05600AD20718431043F8
:1016E00070BD992B0ADD0522121A211CD1400A1C5B
:1016F000011C1B318D40691E8D411543052801DDFC
:10170000421F9540164C2C406A0704D00F2215400A
:10171000042D00D0043461010CD59F23181AFF2832
:101720001AD0A401640AC3B2321CD3E700220023FA
:101730000024CFE7E408FF2B04D06402640ADBB284
:10174000321CC7E7002C04D08020C003044364028D
:10175000640A321CFF23BDE7321CFF230024B9E7D3
:10176000FFFFFFFB10B5041E33D001F01FFF9E23C7
:101770001B1A962B09DC083884406402640ADBB229
:101780006402DB05600A184310BD992B0ADD0522AF
:10179000121A211CD1400A1C011C1B318C40611EF5
:1017A0008C411443052801DD421F9440144A224015
:1017B000610704D00F210C40042C00D004325101E9
:1017C0000AD59F23181AFF2816D09401640AC3B2C1
:1017D000D6E700230024D3E7D208FF2B03D054021E
:1017E000640ADBB2CCE7002A06D08024E403144369
:1017F0006402640AFF23C3E7FF230024C0E7C04656
:10180000FFFFFFFBF8B55F46564644464D46F0B431
:101810000C034D00CE0F610A440F2143C40018038E
:1018200080465800400D8246D80F84464046400A04
:10183000530F0343D0006D0D371C83465246664557
:1018400000D1A4E0AF1A002F00DC09E1002A3BD14F
:10185000184300D0EAE0630700D187E00F2323405C
:10186000042B00D182E0221DA242A44164428023C5
:1018700009191B040B40371C141C002B00D17CE001
:10188000CE4B01359D4200D105E1CD4BE408194016
:101890004807490204430B0B002000211B031A0BCD
:1018A0000B0D6D051B0513436A08C64DFF071D4050
:1018B00015436D006D08291C3943201C3CBC904623
:1018C0009946A246AB46F8BDBC488542C3D08020AD
:1018D00000040343382F00DDF0E01F2F00DD24E17A
:1018E0002020C01B1A1C814682405846F840024303
:1018F000944658464A469040421E9041FB406246FC
:1019000002431F1CA21A9442A4416442C91B091B32
:10191000141C0B029FD549024F0A002F00D1C8E0CA
:10192000381C01F043FE021C083A1F2A00DDB5E016
:101930002821091A201C9740C8400743944095422B
:1019400000DDB2E0551B691C1F2900DDDCE01F2211
:10195000551B3B1C221CAB40CA40AC40651EAC4131
:101960001343CF401C43391C002574E780231B041C
:101970000B40371C002B00D082E7904B4807E4084F
:101980000443C9089D4248D009030B0B84E7AA1AF7
:101990009446002A00DC98E05046002852D0874840
:1019A000854200D157E78020000403436246382A6D
:1019B00000DDFCE01F2A00DD4AE120226046101A0B
:1019C0001A1C82408246914658466246D0404A469A
:1019D00002439046584652469040421E904142462D
:1019E00002436046C3401219A242A44164425918FE
:1019F0000919141C080200D42DE7704B01359D42D3
:101A000000D122E16E4B60081940012323401C1CC9
:101A10000443CB071C4349081DE7231C0B433AD062
:101A200080231B030B431B031B0B35E7013F002FD8
:101A300065D15846221A9442A4416442C91A091B2E
:101A4000141C66E75846184300D104E701225242AD
:101A500094446046002800D0C5E058460219C3E708
:101A6000002F73D1681C4005400D012800DCDEE02A
:101A70005A46A21A9442BF41C81A7F42C71B380275
:101A800000D489E05A46141BA3459241591A524288
:101A90008F1A664641E700230024FDE6271C2838FC
:101AA00087400024954200DC4CE74549AD1A394097
:101AB000D1E6201C01F07AFD203034E75A461A4363
:101AC000531E9A41D2B200271CE7002A00D0DCE066
:101AD000681C4205520D012A00DC8DE0374DA842FA
:101AE00000D1F3E05D462A19A242A441644259188C
:101AF0000919CC07520814434908051CABE62F48C6
:101B0000854200D0E6E6A6E62B1C1F3B3A1CDA40D5
:101B1000131C20296CD03F22551BAF403C43601E54
:101B200084411C430021002595E6381C20381A1CEE
:101B3000C240101C202F5DD04022D71BBB405A460C
:101B40001A43531E9A4102430027DBE6002D3BD087
:101B50001A4DAA4500D193E080252D047F422943E8
:101B6000382F00DDACE01F2F00DD29E12025ED1B23
:101B7000081C261CA840FE40AC400643651EAC4134
:101B80003443F9405D462C1BA34592415B1A5242F7
:101B9000991A55466646BCE6131C3B43141C002BA1
:101BA00000D0BAE60027002100250024E5E65A46C9
:101BB0001A43531E9A41D2B2002314E7FF070000D4
:101BC000FFFF7FFFFFFF0F800D1C254358D0FF4311
:101BD000002F51D1041BA3459241591A5242891A30
:101BE0005546664695E69648854200D0DEE632E6E2
:101BF000002793E70023A2E7081C2043002D00D014
:101C0000C4E0002800D1F7E05846184300D122E68E
:101C100058460219A242A441644259180919141CD9
:101C20000A0200D417E6874B0125194013E6081C69
:101C30002043002D39D1002871D15946194303D0D2
:101C4000191C5C46664606E600270021002494E63F
:101C5000604620381A1CC24060469146202800D1B8
:101C6000ACE04022121A93405A461A43531E9A413E
:101C70004B461A430023B6E6714DAA4500D06FE7E4
:101C8000191C5C4655466646E5E5002D22D10D1C23
:101C9000254377D0D543002D71D15C445C459241FA
:101CA0005918524289185546A4E600284DD1594684
:101CB000194300D194E0191C5C466646604DCAE5A4
:101CC0000C43611E8C41E4B200215BE7051C00213E
:101CD000002452E65A4DAA4554D0554280221004A1
:101CE0000143382D00DD81E01F2D00DD92E0202230
:101CF000501B0A1C84468240201CE8400243904648
:101D000062469440601E844142461443E9405C446C
:101D10005C459241CB185242991855466AE658469E
:101D2000184300D197E55846271ABC429241C81A79
:101D30005242801A020266D55846041BA3459241BE
:101D4000591A5242891A664685E55846184333D0D7
:101D50004807E40804438020C9080003014208D072
:101D6000DD08054205D15946CA085C071443291C01
:101D70006646630FC9001943E400314D6BE5304AF4
:101D80009245AED1191C5C46554664E5002836D014
:101D90005846184310D080254807E408C9082D0389
:101DA00004432942E5D0D8082842E2D15D46EA083A
:101DB0005C071443011CDCE7214D4CE5002353E78D
:101DC0003D1C203D0A1CEA40151C202F34D0402623
:101DD000F71BB9400C43611E8C412C430021D1E616
:101DE00080210027C903164D0024C6E50C43611E5F
:101DF0008C41E4B200218AE7191C5C462BE5191CD2
:101E00005C460F4D27E5031C3B4300D11CE7011C3A
:101E10003C1C20E52020404240190A1CC24090464C
:101E2000202D0BD04020451BA9400C43611E8C4146
:101E300045462C4300216AE70021CBE70021F4E767
:101E4000FF070000FFFF7FFFF0B5564644465F46A0
:101E50004D46F0B41F1C0B031B0B98464B0087B07C
:101E6000041C81465B0DC80F161C9A460090002B7F
:101E700051D06A4B9A4531D08022414652030A43E1
:101E8000630FD2001A43664B90460025E20091464C
:101E90009A44002402953B031B0B9B46FD0F7B00DD
:101EA000311C5B0D019560D05C4A934254D0802177
:101EB000584649030143720FC9001143584A8B46E3
:101EC0009B18F1000020009A04436A4003920F2CF3
:101ED00000D9ADE0534EA4003459A7464046044310
:101EE0006ED1002102250824884689460295D2E752
:101EF000009C0298C34649460194022864D00328F6
:101F000000D1ABE2012800D038E2019A002402405F
:101F10000025A14660E0434623434AD040460028BE
:101F200000D1C0E101F042FB031E272B00DDB3E12D
:101F300028210D1A211C083B4246E9409A400D1CFD
:101F40001543221C9A40A8469146374B00251B1A80
:101F50009A46002402959EE75A4616430320002E17
:101F6000B1D1B34600210220ADE75A4632431BD01F
:101F70005B46002B00D18AE1584601F017FB272869
:101F800000DD7DE12822171A011C321C08395B464E
:101F9000FA408B40171C1F43331C8B40BB46191C57
:101FA000214B1B1A00208EE70027BB460021012091
:101FB00089E70020012504248046814602956AE7CE
:101FC00003250C24029566E7019C0394039D0122DE
:101FD0002A400024114DA146002000212403260B95
:101FE0000C0D2405114B34432D0523402B435B007E
:101FF0005B08D207191C4846114307B03CBC904609
:102000009946A246AB46F0BD0022802424039146A7
:10201000024DE1E700240025A146DDE7FF070000AF
:1020200001FCFFFF5C0701000DFCFFFFFFFF0F80BD
:102030005546ED1A0495D84500D953E100D14EE13B
:10204000049C0025013C4E4604944746A946584648
:1020500003020C0E1C430902250C23041B0C0091E7
:10206000381C291C0193FEF7B7FA019983464143B6
:10207000381C8A46291CFEF7F3FA330C090419436D
:102080008A450CD95B460919013B8C4200D947E1CE
:102090008A4500D844E1022252429344091953462A
:1020A000CB1A181C291C9846FEF796FA071C0198B3
:1020B000291C784382464046FEF7D2FA36040B04C8
:1020C000360C33439A4509D91B197A1E9C4200D914
:1020D00024E19A4500D821E1023F1B195E463204F3
:1020E0001743380CBB46009E009F51463F0C3204FC
:1020F0005B1A5946BA46120C0F043F0C90465146E3
:102100007A434F434146414356467043CF19160C1C
:10211000BE19B14202D980277F02C019310C1204C6
:102120003604120C4018B618834200D2C4E000D125
:10213000BEE0191A4846861BB145BF417F42CF1BFE
:10214000A74200D113E1291C381CFEF745FA01997A
:1021500002904143381C8946291CFEF781FA330C52
:102160000904194389450CD9029B0919013B8C428A
:1021700000D9FFE0894500D8FCE0029F0919023F21
:1021800002974F46CF1B381C291C0597FEF724FAEF
:10219000071C0198291C784381460598FEF760FAD0
:1021A00036040904360C0E43B14509D936197B1E95
:1021B000B44200D9E0E0B14500D8DDE0023F361975
:1021C000029D4946761A290439430B0457460A0CE6
:1021D0001B0C40464546584355437B437A43EB1816
:1021E000070CDB199D4202D980256D0252191D0C86
:1021F00000041B04000C52191B18964235D300D161
:10220000FCE001231943049E994FF519002D00DCD1
:10221000A1E0480709D00F230B40042B05D00B1D6C
:102220008B42894149428B44191C5A46D20107D539
:10223000904B5C46049E80271C40FF00A346F51986
:102240008D4B9D427ADD039C0122224000248B4D60
:10225000A146C1E680242403474627424CD13C4393
:102260002403240B009A854DB6E63619481EB44265
:102270005ED9011C9642C4D1009E9E42C1D1C2E7E4
:10228000031C283B311C99408B46002188E6301CFA
:1022900001F08CF9203072E6283B211C9940002285
:1022A0008846914651E6201C01F080F920303BE63B
:1022B0000021B14500D33DE7009F5A46B944B945D6
:1022C000BF417F423F19FB18013A9C421ED29842FF
:1022D00000D97EE000D1B5E0191A93462AE7894576
:1022E00000D8ADE64846464642467708D30746083A
:1022F000C0071E438146AAE65846204212D1044335
:1023000024032A1C240B89465C4D65E6A342E3D1D5
:10231000009F4F45DBD9211A93460BE7171CDDE6DA
:102320009B46BCE63C432403240B009A534D53E6E2
:10233000B24259D800D18AE0011C62E75F46C90861
:102340007B07039E0B437C026D0501229946240BFB
:102350006D0D324040E64A4B049FDB1B382B10DDED
:10236000039C0122224000240025A14634E60121DD
:10237000494248E7029304E71F1C21E7019C0394AC
:1023800041E71F2B40DC3F48049F0C1C3A1858467D
:102390009140DC40904020430A1C511E8A41011CA0
:1023A00011435A46DA40131C480709D00F220A404D
:1023B000042A05D00A1D8A42894149425B18111C32
:1023C0001A0234D5039C0122224000240125A14693
:1023D00002E6009F02214942B9448B44B945894134
:1023E00049420919CB18A4E6009D881E6900A9423C
:1023F000AD416D422C19361900913AE7002B00D0FF
:1024000033E70024009437E71F4A049C5D46121B03
:10241000D5402A1C202B1FD01C4E5F46A3199F407D
:102420003B1C19434B1E994111430023BCE75A073B
:10243000C9080A43039F91465B0201221C0B3A40E4
:102440000025C9E54E45C4D89346002172E6009F99
:102450009F42C9D3011C0FE70023E2E78024240335
:102460005F463C432403240B019A8946034DB3E5A0
:10247000FF030000FFFFFFFEFE070000FF07000054
:1024800002FCFFFF1E040000E2FBFFFF3E04000011
:10249000F0B55F4656464D464446F0B40D1C041C4C
:1024A0008046E80F814618030F03000B3F0B83B0F3
:1024B00084461B48009749005E00DF0F490D924695
:1024C000760DBB4681420CD01548864210D00120C3
:1024D000B14215D003B03CBC90469946A246AB46EB
:1024E000F0BD009F01202743F4D10D488642EED174
:1024F000604602430120002AECD10120B142E9D11B
:10250000009B6345E6D1D045E4D1D94506D00029EA
:10251000E0D11C43201C441EA041DBE70020D9E78A
:10252000FF070000F0B55F4656464D464446F0B4FE
:10253000CD0FDE0FAC461D032D0BB146374E0F03FA
:102540004C00AB465D0080463F0B640D92466D0D1E
:10255000B44232D0314EB54235D0002C0ED1384382
:1025600041424141081C002D0BD0002919D1CC4516
:102570002DD0654668420123184318E0002DF6D19E
:10258000281C59460A4353425341002806D1002BC8
:10259000EDD0634658420123184308E00020002B89
:1025A00005D14A46504250414042012318433CBCA9
:1025B00090469946A246AB46F0BD3E1C0643C9D0A4
:1025C00002204042F3E75E461643C6D0F8E7AC422D
:1025D00007DC0BDA61464842484140420123184378
:1025E000E5E76646704201231843E0E75F450AD8F5
:1025F0000ED000205F45DAD265466842684140420D
:1026000001231843D3E76246504201231843CEE723
:10261000D045F8D80020D045EED3C8E7FF0700002A
:10262000F0B556464D4644465F46F0B40D1C83B0A7
:10263000041C0190E80F814618030F03000B3F0BA9
:1026400084463548009749005E00DF0F490D9246E9
:10265000760DB846814234D02F48864236D00029C4
:1026600018D0002E1FD1341C67463A4353425341C1
:10267000002C1FD00020002B05D142465042504173
:1026800040420123184303B03CBC90469946A24601
:10269000AB46F0BD0098044360426041041C002E2C
:1026A000E2D00028E9D1C14515D04F467842012338
:1026B0001843E8E7002BF6D04B4658420123184355
:1026C000E1E7009F02202743DDD1C5E767460220EE
:1026D0001743D8D1C3E7B14204DD4A465042012333
:1026E0001843D0E7B14207DB00986045E4D80AD030
:1026F000009F00206745C6D24F467842784140424D
:1027000001231843BFE7019A5245D5D8019A00200A
:102710005245F1D3B7E7C046FF070000F0B5564673
:1027200044465F464D46F0B41F1C0B031B0B9A46F4
:102730004B0087B0041C80465B0DC80F161C02932B
:102740008146002B68D0694B0299994232D0802291
:10275000534652031A43D200630F1A439246644A07
:10276000E000891880460291002400253B031B0BE2
:102770009B467800FB0F321C400D039300D175E09F
:102780005A4B984269D08022594652030A43730F2C
:10279000D2001A43564B9346C018F2000023039907
:1027A0004E4671401C430F2C00D9A9E0514EA400A5
:1027B0003459A74653461C4300D087E00025AA465B
:1027C000A84608240225D1E74946022D6CD0032DE6
:1027D00000D117E2012D00D058E10D40EDB20024E8
:1027E000A9460023A0460020002125030A0D1C0550
:1027F0002D0B1205404B2A43134023435B004C46EC
:102800005B08E207191C4046114307B03CBC9046E8
:102810009946A246AB46F0BD5346234350D053469B
:10282000002B00D184E1504600F0C0FE031E272B90
:1028300000DD76E128210D1A211C083B5246E940B3
:102840009A400D1C1543221C9A40AA4690462B4BD9
:1028500000241B1A0293002588E75B461E430323CE
:10286000002E9CD1B3460022022398E75B463343F7
:1028700021D05846002800D14EE100F097FE2728CD
:1028800000DD42E128210F1A021C311C083A5B4688
:10289000F94093400F1C1F43331C9340BB461A1C46
:1028A000164B181A00237AE701230B40002499469F
:1028B000A0460E4B97E70027BB46002201236EE798
:1028C000002104248A46884601254FE70C2403256D
:1028D0004CE700258024A9462403A846034B82E741
:1028E000DA46904603991D1C6FE7C046FF070000BB
:1028F00001FCFFFF9C070100FFFF0F800DFCFFFFA5
:10290000029F160C381804904046070C0004000C77
:102910001204120C031C5343041C3D1C7443554306
:1029200098463B1C73436419A44644460293230C07
:1029300063449D4204D9029D802464022D190295AE
:102940001D0C039545462C041B04240C1C190594EE
:102950005C46230C051C58432404240C8446381C74
:10296000604365435F438146CC44280C6044BB46CA
:10297000814502D980277F02BB442D04070C2D0C12
:10298000000440195546BC462F04E3448446280CF5
:102990003D0C2F1C5743B8462F1C77434243B94682
:1029A00047463F0C9144BA46D14446434A4502D972
:1029B00080225202B6184F463A0CB6183A044746DF
:1029C0003F043F0CB8462F1C67435D4344435843C4
:1029D00065190190380C2D184244B846AC4204D910
:1029E000019880235B02C0180190039C029F201C69
:1029F0006044C0196045A44147466442A4462B0484
:102A00003C049946240C4C44A046D8448018C24645
:102A1000E24490429241574652429146F219E245B1
:102A2000BF417F424B46BC46D845BF41D4187F4288
:102A300063461F432D0C7F19B24292414C45AD4174
:102A400052426D421543019E7D19AB19E20D5B02A6
:102A5000059F134342023A439A46531E9A41C30DBF
:102A6000101C18436402204380465046C0010DD517
:102A7000454601225646049C6B082A401A43F30738
:102A800001341A43760804949046B246049E634F7C
:102A9000F319002B61DD404640070BD00F2244465E
:102AA0002240042A06D04246043242458041404238
:102AB000824490465546ED0107D5594B5646049F32
:102AC00080201E40C000B2463B18564A934200DDAB
:102AD000EAE644465546E2086807104301226C02C4
:102AE0005B050A408046240B5B0D91467BE6DA4687
:102AF00090461D1C69E680242403574627421CD1BA
:102B00003C432403240B484B6DE6031C283B311C3B
:102B100099408B460022C3E6301C00F047FD203070
:102B2000ADE6283B211C994000228A4690468EE65D
:102B3000201C00F03BFD203078E65846204207D1AB
:102B4000044303992403240B89469046364B4AE6F6
:102B50003C432403240B344B45E6344B049E9B1B1F
:102B6000382B06DD01230B4000249946A0460023A4
:102B700039E61F2B25DC049C2D4D46466019524634
:102B800044468640DC4082405746301C2243DF40AA
:102B9000441EA04102433B1C540709D00F201040A3
:102BA000042805D0101D9042924152429B18021CED
:102BB0001D021AD501230B4000249946A04601238B
:102BC00011E61C48049C5546001BC540281C202BC0
:102BD00016D0194E5746A21997403A1C43461A433D
:102BE000531E9A4102430023D6E758075B02D208DE
:102BF0001C0B01230B401043994680460023F2E54D
:102C00000022EBE7802424035046012304431940AB
:102C10002403240B8946044BE5E5C046FF0300006E
:102C2000FFFFFFFEFE070000FF07000002FCFFFFA2
:102C30001E040000E2FBFFFF3E040000F8B55F4603
:102C4000564644464D46F0B40C034D00CF0F610A82
:102C5000440F2143C4001803DE0F8046B4464646A5
:102C60005800760A530F3343D600D14A6D0DBA4649
:102C7000400DB346904200D1F5E062460126724015
:102C80009446674500D1ABE02F1A002F00DC11E11C
:102C900000283ED15846184300D0F1E0600700D12B
:102CA00097E00F232340042B00D122E1221DA242F2
:102CB000A4416442802309191B04012750460B409C
:102CC0000740141C002B00D179E0B94B01359D421F
:102CD00000D10BE1B74BE40819404807490204430F
:102CE0000B0B002000211B031A0B0B0D6D051B05A0
:102CF00013436A08B04DFF071D4015436D006D0872
:102D0000291C3943201C3CBC90469946A246AB4640
:102D1000F8BDA7488542C1D0802000040343382F66
:102D200000DDFDE01F2F00DD31E12020C01B1A1C5B
:102D30005E468240FE40324394465A468240101C12
:102D4000421E9041FB40624602431F1CA21A94425D
:102D5000A4416442C91B091B141C0A029ED54902E6
:102D60004F0A002F00D1D6E0381C00F01FFC021CD7
:102D7000083A1F2A00DDC3E02821231C091A9740C6
:102D8000CB401F439440954200DDC0E0551B691CB9
:102D90001F2900DDEAE01F22551B3B1C221CAB4013
:102DA000CA40AC40651EAC411343CF401C43391CA4
:102DB000002573E780217E4D0027C90300247C4B4A
:102DC0004807E4080443C9089D4250D009030B0B8F
:102DD00087E780231B04012752460B40174071E709
:102DE0002A1A9446002A00DCA1E0002854D070483A
:102DF000854200D152E78020000403436046382812
:102E000000DD0EE11F2800DD57E162462020801A18
:102E10001E1C8640B1465E46D6404A4632435E4658
:102E200086409046301C421E904142460243604616
:102E3000C3401219A242A441644259180919141C32
:102E4000080200D42AE75A4B01359D4200D131E1F6
:102E5000584B60081940012323401C1C0443CB0736
:102E60001C4349081AE71E4300D00AE705E7231C64
:102E70000B433BD080231B030B431B031B0B30E78F
:102E8000013F002F6DD15E46A21B9442A4416442D3
:102E9000C91A091B141C60E75846184300D1FDE607
:102EA00001267642B4446046002800D0D0E05E4659
:102EB0003219BFE7002F00D080E0681C4005400DAC
:102EC000012800DCE8E05A46A21A9442BF41C81A21
:102ED0007F42C71B3E0200D498E05846041BA3451E
:102EE0009241591A52428F1AE2463AE700230024CF
:102EF000F7E680231B04012756460B403740E1E6E6
:102F0000271C283887400024954200DC3EE72949E9
:102F1000AD1A3940C2E6201C00F048FB203026E7FD
:102F20005A461A43531E9A41D2B200270EE7002A8E
:102F300000D0DEE0681C4605760D012E00DC90E036
:102F40001B4DA84200D1F5E05E463219A242A441D1
:102F5000644259180919CC07520814434908051C42
:102F60009CE61348854200D0D9E697E62B1C1F3B10
:102F70003E1CDE40331C20296FD03F22551BAF4042
:102F80003C43601E84411C430021002586E6381C1A
:102F900020381E1CC640301C202F60D04022D71B7A
:102FA000BB405A461A43531E9A4102430027CDE6BE
:102FB000FF070000FFFF7FFFFFFF0F80002D37D0CE
:102FC000B64DA84200D18FE080252D047F422943D1
:102FD000382F00DDA8E01F2F00DD24E12025ED1BA8
:102FE0000E1CAE40B046261CFE404246AC40164386
:102FF000651EAC413443F9405A46141BA345924127
:103000005B1A5242991A051CE246A6E6131C3B4382
:10301000141C002B00D0A4E600270021002500246A
:10302000CDE65A461A43531E9A41D2B2002300E716
:103030000D1C254358D0FF43002F51D15A46141B75
:10304000A3459241591A5242891A051CE24684E668
:103050009248854200D0D1E620E6002790E7002381
:103060009FE7081C2043002D00D0C2E0002800D1BB
:10307000EFE05846184300D110E658460219A24224
:10308000A441644259180919141C0A0200D405E627
:10309000834B0125194001E6081C2043002D38D13F
:1030A00000286FD15946194303D0191C5C46E246EB
:1030B000F4E500270021002481E6604620381A1C30
:1030C000C2406646101C202E00D1AAE04022921B6E
:1030D00093405A461A43531E9A4102430023A8E6DE
:1030E0006E4DA84200D073E7191C5C46051CE246F1
:1030F000D4E5002D22D10D1C254376D0D543002DDB
:1031000070D15C445C459241591852428918051CA3
:1031100096E600284CD15946194300D14AE6191CBD
:103120005C46E2465D4DB9E50C43611E8C41E4B25C
:10313000002161E7051C0021002440E6574DA8420C
:1031400053D05542802216043143382D7BDC1F2D8D
:1031500000DD8CE02022561B0A1CB446B240261C1F
:10316000EE403243904662469440661EB441424669
:103170001443E9405C445C459241CB185242991893
:10318000051C5DE65846184300D187E55E46A71B3F
:10319000BC429241C81A5242801A060260D5584673
:1031A000041BA3459241591A5242891AE24675E519
:1031B0005846184333D04807E40804438020C90820
:1031C0000003014208D0DD08054205D15946CA086E
:1031D0005C071443291CE246630FC9001943E4004D
:1031E0002E4D5BE52D4A9042AFD1191C5C46051C63
:1031F00054E5002830D05846184310D080254807A1
:10320000E408C9082D0304432942E5D0D808284220
:10321000E2D15D46EA085C071443011CDCE71F4D60
:103220003CE5002355E73D1C203D0E1CEE40351CBF
:10323000202F2ED04026F71BB9400C43611E8C4135
:103240002C430021D8E60C43611E8C41E4B20021DE
:1032500090E7191C5C4621E5191C5C460F4D1DE5E5
:10326000031C3B4300D124E7011C3C1C16E520262F
:10327000764276190A1CF2409046202D0BD040264B
:10328000751BA9400C43611E8C4145462C4300210F
:1032900070E70021D1E70021F4E7C046FF070000F6
:1032A000FFFF7FFF70B50B1C124C09030E0B59007A
:1032B000021C490DDD0F0020A14211DD0E488142A4
:1032C0000FDC8020400306430C48401A1F280BDD0A
:1032D0000B4A521AD640321C5042002D00D1101C0D
:1032E00070BD084BE818FBE7074BC240C9188E4079
:1032F0003243F1E7FE0300001D0400003304000028
:1033000013040000FFFFFF7FEDFBFFFFF8B5041E75
:1033100031D0C70F00D04442201C00F047F9184DAF
:103320002D1A0A2819DD0B38844024036D05240B5F
:103330006D0D3A1C0026002000210B0D2403240BE8
:103340001B0523430F4C2D051C402C4364006408CF
:10335000D307211C301C1943F8BD061C1536231C4D
:10336000B3401E1C0B23181AC44024036D05240B04
:103370006D0D3A1CDFE70022002500240026DAE765
:103380001E040000FFFF0F8010B5041E28D000F0BF
:103390000DF9154A121A0A2815DD0B38844024034A
:1033A0005205240B520D0023002000212403181C79
:1033B0000B0D240B1B0523430C4C12051C4014431E
:1033C0006400610810BD031C1533211C99400B1CBF
:1033D0000B21081AC44024035205240B520DE3E7C5
:1033E000002200240023DFE71E040000FFFF0F80FF
:1033F00043001B0E5A1C4102D2B270B54C0AC50FD5
:10340000012A17DDE02292006407090B98180022B8
:1034100000231E0D221C34050C431B4940054008A7
:103420002140014349004908ED070B1C2B43101CA8
:10343000191C70BD002B15D1002C1CD0201C00F0D5
:10344000B5F80A281ADC0B21091A231CCB40191CD9
:10345000031C15339C400D4B0903181A4005090B3A
:10346000400DD4E7002C03D06407090B0848CEE7D1
:1034700007480021CBE700200021C8E7011C0B39D9
:103480008C40211C0024E6E7FFFF0F808903000029
:10349000FF070000F0B54B000D03420F5B0D6D0AF6
:1034A00015435A1C5205CC0FC600520D012A27DDC8
:1034B000394FDA19FE2A1ADC002A35DD8001ED00C9
:1034C000431E98412843760F3043430704D00F230F
:1034D0000340042B00D004308021C904014027D0D0
:1034E0000132FF2A1DD083015B0AD1B201E0FF2126
:1034F00000235802C905400AE40708432043F0BDF1
:10350000002B06D1354311D10021002043025B0A74
:10351000EFE72E43EBD08020ED0080042843FF220C
:10352000D3E7FF210023E4E717320DDA052000225C
:10353000C008D1B2FF2AE9D10028D9D08023DB030B
:1035400003435B025B0AD4E780221449120415434B
:10355000C91A1F290DDC124A371C9B18281C9F40D2
:1035600098403B1C5A1E93411843CE4030430022E2
:10357000ABE70C4F2A1CFF1AFA40171C202909D070
:10358000094A98188540281C3043461EB0413843EC
:1035900000229AE70020F7E780FCFFFF9E0300006F
:1035A00082FCFFFF7E030000A2FCFFFF1C21012321
:1035B0001B04984201D3000C10391B0A984201D316
:1035C000000A08391B09984201D30009043902A2F4
:1035D000105C40187047C04604030202010101015B
:1035E0000000000000000000F0B544465F4656466B
:1035F0004D46F0B41C1C85B0002900DADBE00F1C3E
:103600000021061C8A46101C191C002C00DAC9E097
:103610000196009089468046002951D1B84200D8D1
:1036200071E0FFF7C3FF002809D020234546311C75
:103630001B1A85408740D940A8460F438640424622
:10364000150C13041B0C291C381C9B46FCF7C4FFEB
:103650005B464343041C291C381C9946FDF700F8BF
:10366000330C08041843814509D94044631E804542
:1036700000D978E1814500D875E1023C40444946D3
:10368000411A8946081C291CFCF7A6FF5A464243EA
:10369000071C291C48469346FCF7E2FF3604090440
:1036A000360C0E43B34507D946447B1EB04502D8BD
:1036B000023FB34500D81F1C24042743002403E025
:1036C000B94211D9002400275246381C211C002A77
:1036D00003D03B1C00215842A14105B03CBC9046A0
:1036E0009946A246AB46F0BD081CFFF75FFF041EDB
:1036F00000D0BFE0B94500D242E1019D0099071C0E
:103700008D424741E0E7002804D101200021FCF769
:1037100063FF80464046FFF749FF002852D14146EB
:1037200044460B043C1B1B0CA3460D0C00930124C8
:10373000291C5846FCF750FF009F81464743291C2F
:103740005846FCF78DFF330C090419438F4208D902
:103750004B464144013B884502D88F4200D91AE1CB
:103760009946C91B8B46081C291CFCF735FF009B9A
:10377000291C4343071C58460093FCF771FF36048D
:10378000009D0904360C0E43B54207D946447B1E02
:10379000B04502D8023FB54200D81F1C49460E046E
:1037A000374391E75246D243031C0C1C924600213A
:1037B0005842A1412CE7002746428F41012149424E
:1037C0008A4620E720231B1A4246351C82403C1CB7
:1037D000DD40DC4087402B1C150C3B43291C8640F8
:1037E000201C009317049046FCF7F6FE3F0C011CCA
:1037F000794381468B46201C291CFCF731FF009C35
:103800000904230C19438B450CD94B464144013B19
:10381000884500D9BDE08B4500D8BAE0022252426B
:10382000914441445C460C1B201C291C0194FCF76C
:10383000D3FE391C4143041C8B460198291CFCF71C
:103840000FFF009A090413041B0C19438B4509D977
:103850004144631E884500D997E08B4500D894E029
:10386000023C41445B46CB1A49469B460B041C4331
:1038700000975DE7009D20231B1A4A468240DD40E9
:103880001543391C009AD94082408846311C009269
:10389000D9403A1C82400B1C134301932F0C2B047C
:1038A0001B0C391C40460293FCF796FE029A814697
:1038B0004243391C40469346FCF7D2FE019A090464
:1038C000130C19438B450AD94B464919013B8D42CC
:1038D0005DD88B455BD902235B42994449195A460E
:1038E0008A1A101C391C0392FCF776FE029B804654
:1038F0004343391C03989B46FCF7B2FE019A090426
:1039000013041B0C19438B450AD943464919013B43
:103910008D4238D88B4536D902235B4298444919E9
:103920005D464D1BAB464946009D0F04424617437A
:103930002A04120C3B042D0C1B0C380C111C59438F
:1039400042436B436843D3180D0C5B198C469A4273
:1039500002D98022520280181D0C401983450CD3D5
:1039600003D00024B0E61C1C89E665462A041B042B
:10397000120C9B18A6409E42F3D2013F0024A3E6FE
:1039800000240127A0E69846CAE71C1C6AE799466E
:10399000A5E7994646E70222524291444144E0E6B7
:1039A000F0B55F4656464D464446F0B40D1C85B012
:1039B000061C924698460290019103921F1C141C0B
:1039C0008346A946002B59D1AA4269D9101CFFF79A
:1039D000EDFD00280AD020231B1A311CD940854058
:1039E0000B1C2B43864084409946B346250C230488
:1039F0001B0C291C48469846FCF7EEFD4646071C62
:103A00004643291C4846FCF72BFE5A460904130C72
:103A100019438E4209D909197B1E8C4200D957E1FE
:103A20008E4200D854E1023F0919891B8946081CBF
:103A3000291CFCF7D1FD43464343061C291C48467C
:103A40009846FCF70DFE5A46130409041B0C194353
:103A5000884508D90919731E8C4200D936E1023E07
:103A6000884500D832E1380430430027391C05B0BE
:103A70003CBC90469946A246AB46F0BD019A9342A3
:103A800062D8181CFFF792FD041E60D1019B9F4273
:103A900000D22CE1029F03998F4260410027E5E7A5
:103AA000002A04D101200021FCF796FD041C201CF3
:103AB000FFF77CFD002800D0B9E023042D1B1B0C70
:103AC000A946260C98460127311C4846FCF784FD80
:103AD00041464143051C8A464846311CFCF7C0FD5F
:103AE0005A460804130C1843824507D900196B1E67
:103AF000844202D8824500D910E11D1C5346C31AE6
:103B0000181C311C9A46FCF767FD4146414381462B
:103B100088465046311CFCF7A3FD5A46130409049D
:103B20001B0C194388450BD94B460919013B8C42A4
:103B300000D9CFE0884500D8CCE002235B4299440D
:103B400028044946084391E7002700208EE72023F8
:103B50001B1A424657468240DF4017435246824076
:103B60000192321CDA40291CD9408540131C2B439A
:103B700002933D0C3B041B0C8846081C291C9A46EA
:103B8000FCF72AFD534643438146291C40469B4689
:103B9000FCF766FD029A0904130C19438B4506D9FC
:103BA0004B46C919013B8F4200D8ABE099465A46B3
:103BB0008A1A101C291C9346FCF70EFD53464343FA
:103BC000291C804658469A46FCF74AFD029A090489
:103BD00015042D0C29438A4506D94346C919013BD2
:103BE0008F4200D886E098465746CF1BBA464946D2
:103BF000019F0804424610433D042D0C03043F0C72
:103C00001B0C020C291C594355437B437A43EB1888
:103C10000F0CDB198C469D4202D980277F02D219F6
:103C20001D0C521992455FD356D000271EE7202362
:103C30001B1A311C2F1CD940DF4085400B1C8440CF
:103C40002B4386400193B3462304260C1B0C381CDF
:103C5000311C9846FCF7C0FC42464243051C311C0F
:103C6000381C9146FCF7FCFC019F09043B0C1943EE
:103C7000894507D909196B1E8C424DD889454BD906
:103C8000023D09194A468A1A101C311C9246FCF75B
:103C9000A3FC43464343071C311C50469946FCF79E
:103CA000DFFC019A090413041B0C1943894507D949
:103CB00009197B1E8C422DD889452BD9023F091941
:103CC0004B46CB1A2D0499462F43FDE61E1CCAE62F
:103CD0001F1CAAE6994633E761460A041B04120C2E
:103CE0009B18A6409E42A0D201380027BEE60027BE
:103CF0000120BBE68A4500D875E702235B42984461
:103D0000C91971E78B4500D850E702235B429944FB
:103D1000C9194CE71F1CD3E71D1CB3E7023D00196E
:103D2000ECE6C04608B5094A094BD058094901409C
:103D3000802040050143D15003F0D8FF031C064802
:103D4000E1214902022203F07BFE08BD007004401D
:103D500004100000FFFFFFCF0050054008B503F03E
:103D6000C5FE08BD00B585B002A80D490831062280
:103D70000BF076FA00236A46137080235B020193EE
:103D80000849094B094AD15002A804F02BF86846AB
:103D900003F050FF064A074B1A6005B000BDC0464D
:103DA000C00601000000071044100000007004402D
:103DB000006CDC0230E0FF1F10B507F053FA124A26
:103DC0009068124B18408021890008439060506829
:103DD0001840014351600E4A506818408021490044
:103DE000084350600B4A90690340194391610A4CA3
:103DF0000A480121221C04F0A3FC09480621221CC8
:103E000004F09EFC10BDC04600900440FFF8FFFF88
:103E100000A0044000B00440DC07010040F00F4067
:103E200080F00F40F0B583B0002655E02C4C744371
:103E30002C4D645D002C4ED0294C7443645D012CE4
:103E400029D1274C74432C19256964698C4242DCC2
:103E500001D185423FD8224C7443224F3C19247A29
:103E6000002C05D01E4C74433C19A061E1610DE0AB
:103E70001B4C74431B4D2F19FC68009400250195C1
:103E8000009C019D24184D41BC61FD61144C74439C
:103E90000225144FE555124C7443124D2C19A56997
:103EA000E4698C4217DC01D1854214D80C4C744370
:103EB0000C4B1F1938627962FA680023141C1D1C10
:103EC00024184D41BC61FD61B2252D017C19257876
:103ED0000135EDB225700136012EA7DD03B0F0BD2E
:103EE000B80C000020E4FF1FF0B55F4656464D4673
:103EF0004446F0B491B001F015FF002100914AE171
:103F0000AA4B009A5343AA495B5C022B00D03FE1C5
:103F1000A64B5343CB18B22109015B181A785B7882
:103F2000D2B29A4200D133E10BA801F065FE9F4A5C
:103F3000009B5A439E498C18B22109016318597895
:103F40000131C9B259709B4BE518AB799900CB1878
:103F50009B00981896490818974A80180BA91422B4
:103F60000BF07EF9AB79D9B28B460133DBB2AB7182
:103F7000CA221201A4182278934208D38B4B0099CD
:103F80004B438B4AD3188B4A9B1800229A71874B5C
:103F900000994B43864AD31886495A18D279CA21C8
:103FA00009015B181B789A4208D2804B00994B4359
:103FB0007F49CB187F495B180132DA7106A80021CE
:103FC00014220BF056F9794B009A5343784AD318D0
:103FD00078495B18DE79013E00220292734B00990A
:103FE00059430191724A52180492714A5318CA21D6
:103FF00009015918059174E0049A9319CA2109011D
:104000005B185B789A465A4657B2BB009846DB1954
:104010009B0001995B18664AD2189146674B1D1C9C
:104020004D446B88AA8812041A4303925046FDF748
:104030003DFB041C0398211CFDF778F8011C08982F
:10404000FCF724FD0890B221090189444A46D3882F
:10405000118909041943201CFDF768F8011C079811
:10406000FCF714FD0790EB88298909041943201CEB
:10407000FDF75CF8011C0998FCF708FD099049461A
:104080004B88898809041943201CFDF74FF8011C4F
:104090000698FCF7FBFC06904744BF00019ABF1846
:1040A000434BDF19B32109017F187B88B9880904C4
:1040B0001943201CFDF73AF8011C0A98FCF7E6FCAE
:1040C0000A90029A131C534402935B46013BD9B2F7
:1040D0008B461A0604D505990B78013BDBB29B464B
:1040E000013E002E00DB87E70298FDF7DFFA041C93
:1040F0000898211CFCF736FE08900798211CFCF755
:1041000031FE07900998211CFCF72CFE09900698B7
:10411000211CFCF727FE06900A98211CFCF722FEC2
:104120000A900BA806A914220BF09AF81F4C009ACB
:10413000544338341E4B1C19201C0AF069FD132807
:1041400021D81A4B00994B43194AD318A5221201C2
:104150009B181B78002B1BD1144B4B43144CE418B9
:10416000216A626AA162E262231C30330D221A7056
:10417000009AD0B2402105F08DFFA5231B01E41861
:104180000123237004E0201C0BA914220AF080FCF8
:10419000009901310091009A012A00DCB0E611B0CB
:1041A0003CBC90469946A246AB46F0BDB80C000018
:1041B00020E4FF1F980C0000220B0000280B0000D9
:1041C00038B5041C0F4B43430F48C518682007F04F
:1041D00057FA002814D00D4BED18011C5831281C3B
:1041E00020220BF03DF8084B064860430021C154E3
:1041F0001A1851600649D160383018180AF012FDBB
:1042000038BDC046B80C000020E4FF1F580A00006B
:10421000A0860100F8B56420144909F049FC08F0B3
:10422000A9FC01F07BFD0024114D124F622619E01C
:10423000381C60432B18A52212019B185E700022C7
:104240009A70DA701A715A719A71011C503169189A
:1042500038302818A02212010AF012FCE0B2FFF751
:10426000AFFF0134012CE3DDF8BDC046253E000060
:1042700020E4FF1FB80C0000F8B55F4656464D46D7
:104280004446F0B4061C0D1C171C0AAB06CB1B7869
:1042900099460DAB1C788046794A9346794B434347
:1042A0009A46181C383058440AF0BCFC5B4653440C
:1042B00000209870A52109015A1810705D60DF6018
:1042C0000A990B9A19615A614A461A725C70002465
:1042D00000259C62DD621A1C30320C211170012114
:1042E0005170B22424011A191070507066495B187D
:1042F0009871D871654B9F4208D85346604AD318CD
:10430000CA2212019B1813221A7056E0604B9F427A
:1043100009D85C4B73435A4AD318CA2424011B1989
:1043200011221A7049E05B4B9F4209D8554B7343E9
:10433000534AD318CA2109015B180D221A703CE0B8
:10434000554B9F4209D84F4B73434D4AD318CA224D
:1043500012019B180D221A702FE0504B9F4209D872
:10436000484B7343464AD318CA2424011B19092217
:104370001A7022E04A4B9F4209D8424B7343404A8D
:10438000D318CA2109015B1805221A7015E0454BA4
:104390009F4209D83B4B7343394AD318CA221201B2
:1043A0009B1803221A7008E0364B7343344AD31823
:1043B000CA2424011B1901221A70314D314C744357
:1043C0002819394940180021BE2252000AF051FF35
:1043D0002C19CA221201A41822780132D2B2002369
:1043E000284844466043264D2D18CA2109016D18FE
:1043F000234C20182F1C11E0C118CA2424010919CC
:104400004A703C78013CE10F0C1964109C4202DCBC
:10441000023AD2B201E00232D2B201332978994293
:10442000EADC224803F08AFB0024164B47465F4330
:10443000134DED19CA2109016D18114AD71908E069
:104440003B19CA2109015B185978194803F076FB1A
:1044500001342B78A342F3DC164803F06FFB01F024
:1044600045FD084A72430121054BD1541248311CC5
:1044700003F064FB3CBC90469946A246AB46F8BDAF
:1044800020E4FF1FB80C0000980C0000A08601007B
:1044900048E80100400D030090D0030020A1070070
:1044A00040420F0080841E00220B000030080100F3
:1044B0004C080100500801005408010008B5044BE5
:1044C00058430022034BC25401F012FD08BDC04600
:1044D000B80C000020E4FF1FCBB2062B39D899009E
:1044E0001D4B5B589F461D4B58431D4B1818A52369
:1044F0001B01C01840782DE0184B5843184B181872
:10450000A5231B01C018807824E0144B5843144B9A
:104510001818A5231B01C018C0781BE00F4B584387
:104520000F4B1818A5231B01C018007912E00B4B84
:1045300058430B4B1818A5231B01C018407909E0FC
:10454000064B5843064B1818A5231B01C018807949
:1045500000E000207047C046E0070100B80C0000F2
:1045600020E4FF1F00990023FF2201E0CA54013319
:104570001F2BFBDD2020704708B5074B994202D066
:10458000064B994206D1064803F0D8FA07F03CFBE7
:10459000044800E0081C08BDD2040000CE0400005E
:1045A0006C08010040420F00034B5843034BC018F6
:1045B000034B18187047C046B80C0000580A00009A
:1045C00020E4FF1F08B5064B5843064BC018064BA6
:1045D0001818002154220AF04CFE002008BDC046E5
:1045E000B80C0000780A000020E4FF1FF0B506298F
:1045F00019D80E4C4D006B189B000D4E70431B18C4
:10460000E3180C4FDE1901273770A82636019B19D5
:104610001A606918890009186418064FE419002304
:104620006360002000E03220F0BDC04620E4FF1FA0
:10463000B80C0000780A000008B506290FD84B0016
:1046400059188900074B58430918074BC918074BDD
:104650005918101C0C220AF003FE002000E0322042
:1046600008BDC046B80C0000780A000020E4FF1F17
:1046700070B5061C151C1478062C4DD80B78022B2F
:1046800025D1002C23D101F0F9F92A78264B5100CD
:104690008A18920025494E4392199A1824495218B3
:1046A000012111702A7851008A18920092199A18E3
:1046B0001F495218002151602A7850008218920038
:1046C00096199B19A82212019B18196029E0042B46
:1046D00024D1002C24D1144B6200121992001349EA
:1046E0004E4392199A1812495218012111702A78D2
:1046F00051008A18920092199A180D4952180021F7
:1047000051602A7850008218920096199B19A822AD
:1047100012019B18196004E0322402E0322400E008
:104720003224201C70BDC04620E4FF1FB80C0000DE
:10473000780A0000F0B557464E464546E0B482B0D0
:10474000051C141C1378062B00D9B0E00A78022A45
:1047500067D1012B65D1684607300023037001F053
:10476000B1F902280FD0012806D1206AFCF7C2F85F
:104770006B46D871012707E0206AFCF7BBF86B464F
:10478000D871002700E0002723784E4E5A00D31836
:104790009B004D4A55435B19F3184C481B180121E7
:1047A0008946197023785A00D3189B005B19F318B7
:1047B0001B1800208046586023785A00D3189B00AD
:1047C0005B19F318A8210901C9188A466B46D879E4
:1047D000FCF7C8FF52461060237801335A00D31803
:1047E0009B005B19F31839481B1849461970237848
:1047F00001335A00D3189B005B19F3181B1842466B
:104800005A60237801335A00D3189B005D1976193A
:10481000A8231B01F618381CFCF7A4FF3060002009
:104820004AE0042A45D1012B45D1264A5900CB182C
:104830009B0025494D435B19D318244E9B19012039
:10484000187023785900CB189B005B19D3189B195B
:104850000021596023785E00F3189B005B19D31880
:10486000A82636019B191A4E1E60237801335E007C
:10487000F3189B005B19D318144E9B1918702378FA
:1048800001335800C3189B005B19D3189B1959605A
:10489000237801335900CB189B005D195219A820C9
:1048A00000011218FE239B051360002004E0322053
:1048B00002E0322000E0322002B01CBC9046994653
:1048C000A246F0BD20E4FF1FB80C0000780A0000EB
:1048D0000000C84270B584B0061C0B78002B02D1D2
:1048E00001F0CCF812E0012B10D0032B0ED0052BD9
:1048F0001FD1D36A5168002400250094019501223C
:104900000292002203921A1CFFF7B6FC00240A4D03
:104910000A4B5E4309E0E3001B1B9B009819281813
:10492000074BC01808F01EFB0134022CF3DD3020C9
:1049300000E0362004B070BD20E4FF1FB80C00007A
:10494000CC0A0000F0B55F4656464D464446F0B4EA
:1049500087B0051C161CB34C4443B34B1C190F788D
:10496000002F1FD11269B14BE2500126B04BE65423
:104970006D460023EB700335281C01F0A3F828785E
:10498000FCF7F0FEAB4BE0500023AB4AA350A9224A
:104990001201A654A94AA350AA221201A350A84B5F
:1049A000E65436E1012F01D0032F16D132699F4B17
:1049B000E25001229E4BE25400239E4963509E49DF
:1049C0006350A921090162549C496350AA2109013D
:1049D00063509B4BE25400271BE1052F00D013E1ED
:1049E000382109198946081C0AF00AF900B2142175
:1049F000FBF7F2FD80B2804603B2002B00DC05E13C
:104A00000027884B291C59438A46874A131C534464
:104A10008C49C9188B4621E0484601A914220AF0A6
:104A200085F801F0F9FA002816D058460F21049AAB
:104A300008F0A2FA7C4A101C5044834BC0180F2186
:104A4000019A08F099FA7849081C50447F4A801866
:104A5000029A0F2108F090FA0137BFB23BB24146EB
:104A60000AB29342D8DB6F4B6B436F4AD318784A34
:104A70009B181889FCF71AFE80463769381C75495F
:104A8000FCF77EFC011C4046FBF7A6FE002800D088
:104A9000BEE033785A00D3189B00E318A82109011F
:104AA0005B181F6033785A00D3189B00E3186A4ADA
:104AB0009B1801271F70337801335A4A55435A4ACD
:104AC000551966496A185900CB189B00E318A821AC
:104AD00009015B18916819603378013352685900F5
:104AE000CB189B00E3185C495B185A60337801339C
:104AF0005A00D3189B00E3185B181F7033780233F9
:104B000057496A185900CB189B00E318A8210901DE
:104B10005B18916819603378023352685900CB18DA
:104B20009B00E3184C495B185A60337802335A00F3
:104B3000D3189B00E3185B181F7033780333B1223E
:104B40001201AD185A00D3189B00E318A8210901DF
:104B50005B18AA681A60337803336A685900CB1867
:104B60009B00E3183C495B185A60337803335A00C2
:104B7000D3189B00E3185B181F703578043501F0DB
:104B8000B9F96B005B199B00E318A82212019D186C
:104B9000FCF7E8FD2860337804335A00D3189B00F3
:104BA000E3182D495B181F703578053501F0A8F919
:104BB0006B005B199B00E318A82212019D18FCF7FB
:104BC000D1FD2860337805335A00D3189B00E318D1
:104BD00021495B181F703578063501F097F96B0095
:104BE0005B199B00E318A82212019D18FCF75EFDDB
:104BF0002860337806335A00D3189B00E31816490F
:104C00005B181F70002704E0322702E0302700E025
:104C10003027381C07B03CBC90469946A246AB46AC
:104C2000F0BDC046B80C000020E4FF1F8C0A000055
:104C3000840A0000980A0000940A0000A40A0000F8
:104C40009C0A0000CC0A0000E80A0000040B0000E7
:104C5000C80A000000007041780A0000D80A00006D
:104C6000F40A000010B50C78002C02D101F050F8C5
:104C700037E0012C0ED11C4B58431C4B1818A823AD
:104C80001B01C0180068FCF7F1FC00B201F044F908
:104C9000002426E0022C03D101F03AF8002420E0A1
:104CA000032C0BD1104B5843104B1818A8231B0191
:104CB000C018006801F074F9002412E0042C0BD134
:104CC000094B5843094B1818A8231B01C01800684A
:104CD00001F066F9002404E0052C01D0322400E044
:104CE0000024201C10BDC046B80C000020E4FF1FAB
:104CF000F0B5474680B484B080460C1C94460AA99F
:104D000000228E5E0BAD2F782578022D45D1312201
:104D1000A25C002A10D00093231C3233019301338C
:104D200002930133039360682049E268634605F00B
:104D300085FA00223123E2543023E35C002B16D0A5
:104D4000002F03D000223023E25410E0A27800921A
:104D50006168019102934046A26AE36A05F0F0F9A6
:104D6000A3780133A37000223023E25418E0201C02
:104D7000383009F045FF00B2311CFBF77BFC00B274
:104D80003323E35C98420ADB0C9A138040460021EF
:104D9000FF220AF06EFA064802E0002000E0002040
:104DA00000B204B004BC9046F0BDC046A08601002D
:104DB000FFFF0000F0B54F464646C0B48DB08846B0
:104DC0006B460022DA821633414C6043414C241872
:104DD00014210091019202934046211C09220423D0
:104DE000FFF786FF00286CDA002600256F4616378D
:104DF00038231B1999464CE0484606A9142209F0AD
:104E000095FE63689B070AD5089B0B9328B2404424
:104E100009300BA904220AF023FA0435ADB2636805
:104E20005B070AD5099B0B9328B2404409300BA9B4
:104E300004220AF015FA0435ADB263681B070AD5DF
:104E4000069B0B9328B2404409300BA904220AF0B8
:104E500007FA0435ADB26368DB060AD5079B0B93EE
:104E600028B2404409300BA904220AF0F9F90435AC
:104E7000ADB263689B060AD50A9B0B9328B24044E7
:104E800009300BA904220AF0EBF90435ADB2013662
:104E9000B6B23B8832B219B28A42ADDB002D0FD0D8
:104EA000D9B23223E25C6378A078451CA570A4884F
:104EB0000090019406200290404605F099F900E028
:104EC000002000B20DB00CBC90469946F0BDC04623
:104ED000B80C000020E4FF1F70B55E464D4660B47C
:104EE0008AB08B466B4600225A821233344A5043B2
:104EF000344A151814220092012201920293081CD0
:104F0000291C08220223FFF7F3FE002849DA0026B5
:104F100000248F23DB0599462AE0281C383005A998
:104F2000142209F003FE6B689B071FD50798FEF754
:104F30005FFA204B1E4AFCF765FCFEF7ABFA4946C8
:104F4000FCF7F4F8FEF754FA1B4A1C4BFCF77CFF05
:104F5000FEF7A0FAFBF7CEFC04A9088020B20830C7
:104F6000584402220AF07CF9A31C9CB2731C9EB226
:104F70006B46598A33B20AB29342CEDB002C0FD073
:104F8000C9B23223EA5C6B78A878441CAC700090FC
:104F90000220019000200290584605F005F900E03B
:104FA000002000B20AB00CBC91469B4670BDC046C2
:104FB000FD304278B471DC3F46B6F3FDD43836405C
:104FC000B80C000020E4FF1F10B5041C012303707F
:104FD00001301B490AF0CDF9201C113019490AF0A3
:104FE000C8F9201C213018490AF0C3F90022002317
:104FF00042216252442162524622A3544722A354C2
:105000000222A2647822A35496235B00E364236502
:1050100004225823E2540022002322666366A2661B
:10502000E366226763670023002203E0E15C8A18DD
:10503000D2B201337F2BF9D97823E25410BDC04698
:1050400090080100A00801009808010038B5041C70
:105050000578012D08D0FFF7B7FF22780348291CF7
:1050600002F06CFD012000E0002038BDAC0801001A
:105070007047C04601207047430018180001014BDB
:10508000181870470008010070B50D1C141C00238F
:105090001370002821D100F0BFFF002815D000F0C8
:1050A00035FF061C0A21FBF7E5FA00B283001B1846
:1050B0005B00F01A092800D90020FEF727F92860C4
:1050C000696001232370002008E006490448286035
:1050D000696002232370002000E0362070BDC046C6
:1050E0000000000000000000F0B5474680B40D1C31
:1050F000141C00231370002831D100F08DFF00280C
:1051000029D028686968FEF7CDF880B283B2092BF0
:1051100027D800B200F000FF071C00F0F7FE061CC5
:105120000A21FBF7A7FA03B29A00D3185B00F31A1F
:105130009846092B17D80F48311C1A1C02F0FEFCA8
:105140004046FEF7E3F828606960002F0DD0012388
:10515000237000200AE002232370002006E036209E
:1051600004E0362002E0002000E0002004BC90466D
:10517000F0BDC046E008010010B50D4803F08AFC00
:10518000830214D50A4BDB68D9B20A4B1B88013362
:105190009BB2FF2B00D90023074A128892B2934298
:1051A00005D0044A108880B2044C2154138010BDED
:1051B00000400540C4FEFF1F90FDFF1F94FDFF1F30
:1051C00030B585B0244B986824490840802292006D
:1051D00010439860586801400A435A60204A214BA6
:1051E000D058214901408020C0040143D15001AC76
:1051F000201C03F017FC012323726372E1235B027E
:105200000193122002F0B6FD021C184D281C211C2F
:1052100003F00CFB281C8021890303F01FFC144BB6
:10522000C32292009958FF20814380200143995066
:10523000802252011A6000230E4A13700E4A137026
:105240000E4A13700E4A13800E4A13800E4802F065
:1052500075FC05B030BDC04600900440FFF8FFFF6C
:105260000070044004100000FFFFFFF30040054001
:1052700000E100E0B4FEFF1F92FDFF1F93FDFF1F42
:10528000C4FEFF1F90FDFF1F6010010008B5074B13
:10529000996F074A0A40A021C9000A439A67FEF79E
:1052A00041FD044802F04AFC08BDC04600D004405D
:1052B000FFF8FFFF9010010008B5074802F03EFC20
:1052C000FEF74CFD054B996F054A0A4080214900C5
:1052D0000A439A6708BDC046A810010000D00440E8
:1052E000FFF8FFFF08B5FFF747FF08BD30B5002501
:1052F000064A8024240405E053682342FCD0435D21
:10530000D3600135A942F7DC30BDC04600400540FE
:10531000F0B50026184C80252D0405E063682B426B
:10532000FCD0C35DE3600136371E032FF6D900269B
:10533000114C80252D040DE063682B42FCD08B19A5
:105340001F78E7601F78102F03D163682B42FCD0D1
:10535000E7600136C378B342EEDC002406498020C2
:10536000000405E04B680342FCD0535DCB60013480
:10537000251E032DF6D9F0BD00400540F0B55F466F
:1053800056464D464446F0B487B083468A46141CC0
:1053900005F04CFF0590059B1C1904940026B146AE
:1053A0000123984600272A4D2A4C41E005F03EFF94
:1053B0000390039A049B9A4211D90599039A2448B1
:1053C00003889BB2234800880090234802F0B6FB74
:1053D000224B1A8801321A800023984604E02A885A
:1053E000238892B29A42E1D04046002822D0184B3E
:1053F0001A8892B2511C89B2198019498A5C1B889B
:105400009BB2FF2B02D90021114B1980102A09D120
:105410004B46102B06D1534601339BB29A460020CF
:10542000814604E05B46DA550137BFB2914601364A
:10543000B245D4DC4046002802D00022074B1A8037
:10544000381C07B03CBC90469946A246AB46F0BD1E
:1054500090FDFF1FC4FEFF1FC010010096FEFF1F3E
:1054600094FDFF1F044B1888044B1B88C01A01D5FC
:105470000130FF307047C046C4FEFF1F90FDFF1F84
:10548000F8B54F464646C0B4FFF7ECFF87B2164B5F
:105490001D8839B2154802F051FB00243FB2144B6D
:1054A0009946144B98460FE06E1CB6B22DB24B468F
:1054B000595D404602F042FB33B2FF2B01DC351C44
:1054C00000E000250134A4B223B2BB42ECDB0A4861
:1054D00002F034FB0023094A1380034A13800CBCFA
:1054E00090469946F8BDC04690FDFF1FFC10010094
:1054F00094FDFF1F2011010020160100C4FEFF1FB4
:1055000070B5051C00230020064E08E0020AEC5C82
:105510006040C4B26400A05B50400133DBB28B42F8
:10552000F4D370BD7C0B010000B583B01023694635
:105530000B7001224A7088700022CA700B7103231D
:105540004B71684602300221FFF7DAFF6A46D080CD
:1055500068460821FFF7CAFE03B000BD00B58DB054
:105560000220FFF7E1FF68463021FA225200FFF7E0
:1055700005FF302806D0164802F0E0FAFFF780FF5A
:10558000002022E069464B8B8A8B12041A43114B90
:105590001A60098A104B19801048089B02F0CEFA55
:1055A0006A46D1780231C9B268460230FFF7A8FFD7
:1055B000021C6B46D98D814206D0094802F0BEFA22
:1055C000FFF75EFF002000E001200DB000BDC046E7
:1055D000281101009CFEFF1FC6FEFF1F8011010065
:1055E00048110100C0B54F464646C0B487B0071CFD
:1055F000002303600A20FFF797FF02A81021FA2278
:105600005200FFF7BBFE102806D01B4802F096FAA6
:10561000FFF736FF002029E002AEB3889946F388F1
:1056200098460498FDF7E4FE00900191134849461E
:10563000424602F083FAF1780231C9B268460A3074
:10564000FFF75EFF021CF189814206D00C4802F090
:1056500075FAFFF715FF002008E002AB9888FCF709
:1056600081F80849FBF77EFB3860012007B00CBCCD
:1056700090469946C0BDC04628110100AC110100FA
:10568000481101000000204130B585B0FDF7B0FEA3
:10569000041C0D1C174B164AFDF740F8FBF744F9A4
:1056A000102369460B7001224A700B228A7008226F
:1056B000CA7088800022CA80002202920B730323E2
:1056C0004B73684602300A21FFF71AFF6A46D08101
:1056D000684601A903AAFFF71BFE0748221C2B1CE2
:1056E00002F02CFA012005B030BDC046C046C046CD
:1056F0000000000000002440D8110100C046C04650
:1057000030B585B0041C002303800E20FFF70CFF8A
:1057100001A80C21FA225200FFF730FE0C2806D017
:10572000124802F00BFAFFF7ABFE00201CE001ADBF
:105730000423E95E0623EA5E0D4802F0FFF9AB8818
:105740002380E9780231C9B268460630FFF7D8FEF7
:10575000021C6989814206D0064802F0EFF9FFF782
:105760008FFE002000E0012005B030BD28110100AF
:10577000EC1101004811010010B586B003AC1023F4
:105780002370012262700F22A2700422E270A080B6
:105790000022E28023720323637268460E300621E2
:1057A000FFF7AEFE6081201C0C21FFF79FFD6846CD
:1057B0000C21FA225200FFF7E1FD0C2806D0134815
:1057C00002F0BCF9FFF75CFE00201DE06B460421EF
:1057D000595E6B4606229A5E0D4802F0AFF96B46A1
:1057E000D9780231C9B268460230FFF789FE021C3F
:1057F0006B465989814206D0064802F09FF9FFF7AF
:105800003FFE002000E0012006B010BD281101007D
:10581000EC1101004811010030B5ADB017AC1025F6
:105820002570012363700523A3704B23E37020715F
:10583000684661304A2209F013FD4F23E5540322E4
:105840005023E254E1780231C9B268465E30FFF776
:1058500057FE5123E054000A5223E054201C18A99B
:105860006A46AB32FFF754FD0C4B1A88CB239B00E2
:105870009A4210D168465C21FA225200FFF77EFD61
:105880005C2806D0064802F059F9FFF7F9FD002020
:1058900002E0012000E001202DB030BDC6FEFF1F58
:1058A0002811010070B584B0061C0D1C081CFF21D6
:1058B0005C2209F0DEFC01AC10232370012262702F
:1058C0000421A170E270267163710323A3716846FD
:1058D00006300321FFF714FEE071000A2072201C3D
:1058E0000921FFF703FD281C5C21FA225200FFF773
:1058F00045FD5C2806D0104802F020F9FFF7C0FDF6
:10590000002016E0A81CE9780231C9B2FFF7F8FDC3
:10591000021C5A23EB5C5B21695C0902194381423A
:1059200006D0064802F00AF9FFF7AAFD002000E0C1
:10593000012004B070BDC0462811010048110100CB
:1059400030B500230121012400250BE0C25CFF2AB1
:1059500000D02C1C002A00D0291C002901D1002CC9
:1059600002D00133492BF1D9002C03D1002903D0F7
:10597000012002E0012000E0002030BD70B598B0A9
:10598000041E032C10D801A9FFF78CFF002869D052
:1059900001AB4A22995A4C229A5A12040A433248BD
:1059A000211C02F0CBF85DE00D285BD8031F4A26CE
:1059B00073432E4EF61801A9FFF774FF002851D04B
:1059C000301CFFF7BDFF00280BD02948211C02F036
:1059D000B5F83BE0CD5CF25C954208D10133DBB217
:1059E00001E0002302A9492BF4D9002300E00123A0
:1059F000002B19D0322005F027FC201C311CFFF7AA
:105A00000BFF4623F35C4722B25C12021A43482381
:105A1000F35C1B041A434923F35C1B061A43154825
:105A2000211C02F08BF811E04623F35C4722B25CA4
:105A300012021A434823F35C1B041A434923F35C04
:105A40001B061A430C48211C02F078F8002301E0E1
:105A50000133DBB2492BFBD9002301E00133DBB278
:105A6000492BFBD918B070BD181201007C0D010044
:105A70003C120100541201007812010008B50C4BD1
:105A80001B78002B12D10222094B1A7005F0CEFBB5
:105A9000084BC018084B186005F0C8FB074B18608E
:105AA0000022074B1A700C20FFF73EFD08BDC046D0
:105AB000BCFEFF1F60EA000098FEFF1FB8FEFF1F3C
:105AC00094FEFF1F30B585B0041C414B1B7803705A
:105AD000404B1B78022B78D1FFF7C4FC0B2823D84E
:105AE00005F0A4FB3C4B1B6898420DD93B4802F0E3
:105AF00025F8FFF7C5FC0023354A13700421354A09
:105B000011702370042061E005F090FB344B1B689A
:105B1000C01AFA218900FAF75FFDC0B22C4B187049
:105B200020702C4B187851E001A80C21FA22520069
:105B3000FFF724FC0C280DD02A4801F0FFFFFFF7E7
:105B40009FFC0023224A13700421224A1170237003
:105B500004203BE001ADE9780231C9B26846063065
:105B6000FFF7CEFC021C698981420DD01E4801F06E
:105B7000E5FFFFF785FC0023154A13700321154A42
:105B800011702370032021E001AB04229B5E012BE6
:105B90000DD001ABD988154801F0D0FF00230C4A85
:105BA000137003210B4A1170237003200EE001AB28
:105BB000D9880F4801F0C2FF6423054A1370012100
:105BC000044A11702370012000E0181C05B030BD9C
:105BD00094FEFF1FBCFEFF1F98FEFF1F9C120100DA
:105BE000B8FEFF1FD012010048110100041301008C
:105BF0002C1301000000000070B588B0051C3C4962
:105C0000142209F02DFB3B4B1B78002B65D0684616
:105C1000033000230370FFF755FF02285FD00022F6
:105C2000354B1A7005F002FB344B1B68984204D2C6
:105C3000334801F083FF002052E00920FFF774FC95
:105C400001A81A21FA225200FFF798FB1A2806D061
:105C50002C4801F073FFFFF713FC002040E001AC7B
:105C6000E1780231C9B268460630FFF749FC021CF0
:105C7000218B814206D0244801F060FFFFF700FC31
:105C800000202DE001AC0423E05EFDF73FFB174B45
:105C9000154AFCF7D9F8164EFDF7FCFB30600623D9
:105CA000E05EFDF733FB114B0F4AFCF7CDF8FDF733
:105CB000F1FB7060A368B3602369F360E46834614A
:105CC000281C311C142209F0CBFA05F0AFFA2D3054
:105CD000FF300A4B1860012002E0002000E00120A4
:105CE00008B070BDC046C04600000000000024405F
:105CF000A0FEFF1F92FDFF1FBCFEFF1FC0FEFF1F87
:105D0000541301002811010048110100C046C0468B
:105D10000022014B1A707047BCFEFF1F08B5FFF749
:105D20004FFA08BD00B583B05F4B1B78002B00D045
:105D3000B7E05E4B1B78002B18D15D4801F0FEFEEA
:105D40005A4B1A7801321A7000235A4A13705A4A71
:105D500013705A4801215A4A02F0F2FC05F066FA23
:105D6000FA239B00C018574B18609AE0524B1B78DF
:105D7000002B00D095E005F059FA524B1B68984271
:105D800000D28EE0494B1B78082B00D989E09A009D
:105D90004D498A5897464D480621494A02F0D0FCA1
:105DA000464801214A4A02F0CBFC404B1A780132A6
:105DB0001A7005F03BFA2D30FF30424B186070E04E
:105DC000444801F0BBFE41480621414A02F0B8FCBC
:105DD00005F02CFA404BC0183A4B186000223F4B9C
