:1000000000600020E9040000CDCC00009DCC000081
:1000100000000000000000000000000000000000E0
:10002000000000000000000000000000FDCC000007
:1000300000000000000000002DCD000059B90000B4
:100040006105000065050000690500006D05000000
:100050004905000049050000490500004905000068
:100060007105000075050000790500007D050000A0
:100070008105000049CE0000890500004905000007
:1000800049050000490500004905000039E000006D
:10009000490500004905000019B900008D05000060
:1000A0003DC8000049050000490500004905000061
:1000B000490500004905000049050000DDB80000C1
:1003C0006B636667FFFFFFFFFFFFFFFFFFFFFFFF9E
:1003D000F0FFFFFFF7081200A8270100FFFFFF0052
:1003E000FFFFFFFFFFFFFFFF00FFFFFFFFFFFFFF1C
:1003F000FFFFFFFF00000000000000000000000001
:10040000FFFFFFFFFFFFFFFFFFFFFFFFFE31FFFFCB
:1004100010B5064C2378002B07D1054B002B02D0DA
:10042000044800E000BF0123237010BD00E2FF1F5D
:10043000000000006842010008B5084B002B03D003
:100440000748084900E000BF07480368002B03D0B5
:10045000064B002B00D0984708BDC04600000000A6
:100460006842010004E2FF1FE4E1FF1F00000000FA
:10047000164B002B00D1144B9D46402292029A1A33
:10048000924600218B460F461348144A121A0FF069
:1004900088FA0F4B002B00D098470E4B002B00D052
:1004A00098470020002104000D000D48002802D0CC
:1004B0000C4800E000BF0FF045FA200029000CF0C6
:1004C00031FB0FF029FAC046000008000060002050
:1004D000000000000000000000E2FF1F18140020D0
:1004E000000000000000000072B60E480E490160D6
:1004F0000A6882F308880D4880470D490D4A0E4B63
:100500009B1A03DD043BC858D050FBDC0B490C4A56
:10051000521A03DD00208850043AFCDA62B609481A
:100520008047000008ED00E000000000B19E0000E0
:100530009042010000E0FF1FE8E1FF1F00E2FF1F03
:1005400018140020710400001148004711480047AA
:10055000114800471148004711480047114800471B
:10056000114800471148004711480047114800470B
:1005700011480047114800471148004711480047FB
:1005800011480047114800471148004711480047EB
:100590005DCD0000CDCC00009DCC0000FDCC000066
:1005A0002DCD000059B90000D1810000E18100008B
:1005B000F181000001820000998E0000B18E0000E0
:1005C000A5960000DD960000B5920000D1920000D3
:1005D000818700007D930000002934D00123002290
:1005E00010B488422CD301242407A14204D28142B2
:1005F00002D209011B01F8E7E400A14204D28142C2
:1006000002D249005B00F8E7884201D3401A1A433E
:100610004C08A04202D3001B5C0822438C08A04275
:1006200002D3001B9C082243CC08A04202D3001B2B
:10063000DC082243002803D01B0901D00909E3E7A5
:10064000101C10BC7047002801D00020C04307B424
:10065000024802A14018029003BDC046D900000024
:100660000029F0D003B5FFF7B9FF0EBC4243891A49
:100670001847C046002941D010B4041C4C40A44681
:1006800001230022002900D54942002800D540421C
:1006900088422CD301242407A14204D2814202D2F1
:1006A00009011B01F8E7E400A14204D2814202D211
:1006B00049005B00F8E7884201D3401A1A434C080E
:1006C000A04202D3001B5C0822438C08A04202D344
:1006D000001B9C082243CC08A04202D3001BDC086C
:1006E0002243002803D01B0901D00909E3E7101CAD
:1006F0006446002C00D5404210BC7047002806D04C
:1007000003DB0020C043400801E08020000607B45E
:10071000024802A14018029003BDC0461900000023
:100720000029EBD003B5FFF7A7FF0EBC4243891A9F
:100730001847C0467047C0468446101C62468C4627
:10074000191C634600E0C0461FB501F049FF0028B0
:1007500001D40021C8421FBD10B501F079FE40420E
:10076000013010BD10B501F03BFF002801DB002077
:1007700010BD012010BDC04610B501F031FF0028AA
:1007800001DD002010BD012010BDC04610B501F0F4
:10079000A9FE002801DC002010BD012010BDC046CC
:1007A00010B501F09FFE002801DA002010BD0120E5
:1007B00010BDC0468446081C6146FFE71FB500F027
:1007C00049FC002801D40021C8421FBD10B500F02B
:1007D000CFFB4042013010BD10B500F03BFC0028BB
:1007E00001DB002010BD012010BDC04610B500F097
:1007F00031FC002801DD002010BD012010BDC046E5
:1008000010B500F0DFFB002801DC002010BD012046
:1008100010BDC04610B500F0D5FB002801DA00205D
:1008200010BD012010BDC046002B15D1002A13D1E8
:10083000002900D1002807D003DB0020C043410875
:1008400002E080210906002007B4024801A14018F7
:10085000029003BDE1FEFFFF03B4684601B50298B4
:1008600000F0BEF8019B9E4602B00CBC7047C0462B
:10087000002B11D1002A0FD1002900D1002802D06D
:100880000021C943081C07B4024802A14018029085
:1008900003BDC046A1FEFFFF03B4684601B5029840
:1008A00000F0BAF8019B9E4602B00CBC7047C046EF
:1008B0009C460304F0B51B0C17043F0C150C1E1CC2
:1008C000041C000C7E436B4347434543FB18300C2C
:1008D0001818874202D980235B02ED18030CED182B
:1008E00063465C434A433604360CA1180004801961
:1008F0004919F0BD9E2110B5C905041CFFF78AFFF8
:10090000002803D1201C00F091FE10BD9E21C905D6
:10091000201C00F015FD00F089FE80231B06C01886
:10092000F3E7C0460000000038B50E4B0C4A051C2A
:100930000C1CFFF717FF002804D1281C211C00F015
:1009400013F838BD80231B06E118281C00F00CF8B2
:10095000021C0B1C002150429941F2E7C046C046E0
:10096000000000000000000070B50E4B0C4A0D1C8A
:10097000041C01F0B3FE02F017FE061C02F0E4FCBA
:10098000094A0A4B01F0AAFE021C0B1C201C291C60
:1009900002F034F902F008FE311C70BDC046C046BA
:1009A000000000000000F03D000000000000F041E9
:1009B00070B5061C081C02F089FC084B064A01F0C1
:1009C0008DFE0D1C041C301C02F0BEFC2B1C221CD6
:1009D00000F0F8FE70BDC046000000000000F041CD
:1009E000F0B583B0161C1F1C0090019102F0FCFDB5
:1009F000041C0D1C221C2B1C301C391CFFF758FF3B
:100A0000009A019B121A8B410899201C0A604B60C6
:100A1000291C03B0F0BDC046F0B583B0141C1D1CEA
:100A20000090019102F0BCFF221C2B1C061C0F1C25
:100A3000FFF73EFF009A019B121A8B410899301C68
:100A40000A604B60391C03B0F0BDC046F8B54302E4
:100A50004400C50F4E024800240E2A1C9B09000EBC
:100A6000C90FB6098D425BD0221A002A00DC89E04A
:100A700000281DD1002E00D075E0580704D00F22A9
:100A80001A40042A00D004338021C90419402A1CCA
:100A900000293AD00134FF2C00D17FE09B015B0A92
:100AA0005B02E4B2E405580AD20720431043F8BDC4
:100AB000FF2CE2D08021C9040E431B2A00DD2DE16A
:100AC000311C2020D140821A9640721E96410E435E
:100AD0009B1B5801D1D59B019F09381C02F046FD94
:100AE000421F974094425BDC141B1F231B1B3A1CC4
:100AF0009F40611C3B1CCA405F1EBB411343002446
:100B0000BBE7131EB9D100230022DB08FF2C04D160
:100B1000002B43D08020C00303435B025B0ABFE786
:100B2000211A002940DD002823D0FF2CA5D08020E9
:100B3000C00406431B2900DDEEE0301C2027C8401E
:100B4000791A8E40711E8E4106439B19590100D4BB
:100B500093E70134FF2C55D0714901221A400B4014
:100B60005B08134389E7013A002AB1D0FF2CA4D1D6
:100B700083E7002E00D180E701390029E5D0FF2C62
:100B8000D8D17AE7002A1BD1621CD2B2012A4BDDF0
:100B90009F1B7A0123D5F71A0D1C9EE700237FE7E0
:100BA0005F4BA41A3B4068E7002946D1611CC8B2DC
:100BB000012829DDFF2924D0F3185B080C1C5CE711
:100BC000002C13D0FF2818D08024E4045242234381
:100BD0001B2A4DDD0123F31A041C0D1C79E7002F9D
:100BE00000D07AE70023002200248EE7002B3BD0C0
:100BF000D243002AEFD0FF28EAD1331CFF240D1C7A
:100C00003BE7FF24002380E7002C5CD1002B00D1C0
:100C100080E0002E00D130E79B19580100D42CE76A
:100C20003F4A0124134028E7002C15D1002B40D166
:100C3000002E63D0331C0D1C1FE7002C21D1002B8C
:100C400054D0C943002904D0FF284CD01B2958DDBB
:100C500001239B19041C79E7002B19D1002E48D0E1
:100C6000331C0D1CFF2408E7331C041C0D1C04E777
:100C70001C1C2025D440AA1A93405A1E934123439A
:100C8000A9E7FF282FD08024E40449422343DDE76D
:100C9000FF24002E00D1F0E68022DB08D2031342AD
:100CA00004D0F608164201D1331C0D1CDB00FF24D2
:100CB000E3E6002E00D1E0E69A1B500100D420E7C5
:100CC000F31A0D1CD9E6002B0DD0FF24002E00D105
:100CD000D3E68022DB08D2031342E7D0F60816429F
:100CE000E4D1331CE2E7331CFF24C6E6331C041CAA
:100CF000C3E6802300229B04FF2406E7231C002276
:100D000003E71C1C2027CC40791A8B40591E8B41CD
:100D100023439EE7331CB0E6012616E70126D7E6FB
:100D2000FFFFFFFBF0B55F4656464D464446F0B424
:100D300046024500C00F85B00F1C760A2D0E804676
:100D400041D0FF2D26D08024240400212643F60024
:100D50007F3D89468B46F90F7C027800640A000EBD
:100D600000918A463CD0FF2834D080231B041C43CA
:100D70000023E4007F380193009F4346019A7B40A3
:100D800049469C4611430F2900D971E0764F8900EE
:100D90007F58BF46002E3ED10822022391469B4633
:100DA000D9E75A46341CC24601920199022937D02C
:100DB000032900D1CFE0012900D0ABE053460B401E
:100DC0000022002632E0002E19D10421012289469A
:100DD0009346C0E7221C531E9A4102320192CBE790
:100DE00001270197002CC7D0201C02F0BFFB431F36
:100DF0009C4076235B420021181A0191BCE7301C0D
:100E000002F0B4FB7625431F9E406D4200232D1A4D
:100E100099469B469FE70C23032199468B469AE708
:100E2000D446012367463B40FF2200267602D205C6
:100E3000700ADB071043184305B03CBC9046994646
:100E4000A246AB46F0BD80260023F603FF22EDE765
:100E500000220026EAE78020C00306423BD004427D
:100E600039D1061C26437602760A009BFF22DDE775
:100E7000281A039076016401A64239D3361B1A2240
:100E800001230120311C5B007600002901DBB44204
:100E900001D8361B0343013A002AF3DC741EA64135
:100EA000341C1C43039A7F32002A27DD630704D0D9
:100EB0000F232340042B00D00434270103D52B4BF0
:100EC000039A1C408032FE2A0BDD012361460B4051
:100ED000FF220026AAE706437602760A4346FF224F
:100EE000A4E7A40101236746660AD2B23B409DE70E
:100EF000039F1B22013F03970023C2E77E23039F2A
:100F00005B42DB1B1B2B07DD012361460B400022EC
:100F100000268BE7D446C5E7221CDA40039B9E33AC
:100F20009C40231C5C1EA34113435A0704D00F228C
:100F30001A40042A00D004335F0105D5012361461D
:100F40000B400122002671E79E01624601231340F7
:100F5000760A00226AE78026F60326437602760A9E
:100F60005346FF2262E7C046100E0100FFFFFFF765
:100F70004A02430270B55C0A550A43004A001B0E40
:100F8000C60F120EC90FFF2B05D0FF2A08D0012073
:100F900093420BD070BD0120002CFBD1FF2AF6D16B
:100FA0000120002DF6D101209342F3D1AC42F1D1C2
:100FB0008E4205D0002BEDD1201C441EA041E9E754
:100FC0000020E7E74A024302F0B55C0A550A4300F5
:100FD0004A001B0EC60F120EC90FFF2B31D0FF2A7D
:100FE00034D0002B16D1604260418446002A14D0D0
:100FF000002820D18E4217D1934215DC04DBAC428D
:1010000012D80020AC4212D27042704140420123FB
:1010100018430CE0002AEDD194466F426F416046C0
:10102000002805D1002FE5D0704201231843F0BD00
:101030000020002FFBD14842484140420123184381
:10104000F5E7002CCBD002204042F0E7002DC8D0BD
:10105000F9E7C0464A024302F0B55C0A550A43006C
:101060004A001B0EC60F120EC90FFF2B27D0FF2AF6
:1010700029D0002B10D0002A15D194466F426F4121
:101080006046002815D00020002F04D14842484176
:10109000404201231843F0BD604260418446002A6B
:1010A000ECD00028F2D18E4211D0704201231843B7
:1010B000F1E7002FF7D0704201231843EBE702203D
:1010C000002CE8D1D3E70220002DE4D1D1E79342F0
:1010D000EBDC04DBAC42E8D80020AC42DBD270424F
:1010E0007041404201231843D5E7C046F0B55F4642
:1010F00056464D464446F0B44402460083B00F1CA9
:10110000640A360EC50F002E41D0FF2E22D0802358
:101110001B0400201C43E4007F3E82468046391CAD
:101120004B007F02C90F7F0A1B0E8B463BD0FF2B63
:1011300034D0802212041743FF007F3B00215A461F
:101140006A40019252460A430F2A63D87A489200B5
:1011500082589746002C3FD1082202239246984697
:10116000DDE70195404602282AD1019A0125154064
:10117000FF2300246402DB05600AED0718432843BF
:1011800003B03CBC90469946A246AB46F0BD002C4D
:1011900027D10420012282469046C0E7391C4A1E0E
:1011A00091410231CBE70121002FC8D0381C02F059
:1011B000DDF9431F9F4076235B421B1A0021BEE7E7
:1011C000032800D1AEE001284FD1019842461040DB
:1011D000C5B200230024CDE70C2303209A468046A5
:1011E0009DE7201C02F0C2F97626431F9C40764200
:1011F0000023361A9A46984691E780240025E40396
:10120000FF23B7E75B463C1C01938846AAE73C1CDA
:101210008846A7E7250C24043A0C240C3F04F61852
:101220003F0C211C231C794353436F435543FB1848
:101230000A0C9B18B1469F4202D980225202AD1877
:1012400009041A04090C521894011B0C611E8C41EC
:10125000920EED181443AD012C43230105D5012254
:1012600063080120144081441C434B467F33002B0C
:101270002DDD600704D00F222240042A00D0043460
:10128000220103D52D4B1C404B468033FE2B17DD2E
:10129000019B01251D400024FF236BE78020C00334
:1012A000044208D0074206D1041C3C436402640A8D
:1012B0005D46FF235EE704436402640AFF2359E7A7
:1012C0000198A4010125640ADBB2054052E77E23A0
:1012D0005B424A469B1A1B2B05DD019B01251D40E5
:1012E0000024002346E7221CDA404B469E339C40F4
:1012F000231C5C1EA3411343580704D00F221A403D
:10130000042A00D004335A0105D5019B01251D4054
:10131000002401232EE701989C010125640A054061
:10132000002327E78027FF03019B3C43640201253C
:101330001D40640AFF231DE7500E0100FFFFFFF769
:10134000F8B5C20F430244004D024800240E161C9B
:101350009B09000EC90FAD09FF2800D183E00127CA
:1013600079408A425CD0221A002A00DC8EE00028F4
:101370001ED1002D00D07AE0580704D00F221A4069
:10138000042A00D004338021C904012219403240CC
:1013900000293AD00134FF2C00D183E09B015B0A85
:1013A0005B02E4B2E405580AD20720431043F8BDBB
:1013B000FF2CE1D08021C9040D431B2A00DD31E15F
:1013C000291C2020D140821A95406A1E95410D4368
:1013D0005B1B5801D0D59B019F09381C02F0C6F851
:1013E000421F974094425FDC141B1F231B1B3A1CB7
:1013F0009F40611C3B1CCA405F1EBB41134300243D
:10140000BAE7131EB8D100230022DB08FF2C04D159
:10141000002B47D08020C00303435B025B0ABFE779
:10142000211A002944DD002827D0FF2CA4D08020D9
:10143000C00405431B2900DDF2E0281C2027C8401A
:10144000791A8D40691E8D4105435B19590100D4FD
:1014500092E70134FF2C59D0734901221A400B4006
:101460005B08134388E7002D00D07AE777E7013A5D
:10147000002AADD0FF2CA0D17EE7002D00D17BE764
:1014800001390029E1D0FF2CD4D175E7002A1BD106
:10149000621CD2B2012A4BDD5F1B7A0123D5EF1A01
:1014A0000E1C9AE700237BE75F4BA41A3B4063E7DF
:1014B000002946D1611CC8B2012829DDFF2924D0AA
:1014C000EB185B080C1C57E7002C13D0FF2818D032
:1014D0008024E404524223431B2A4DDD0123EB1AEE
:1014E000041C0E1C75E7002F00D076E700230022B5
:1014F00000248AE7002B3BD0D243002AEFD0FF28FC
:10150000EAD12B1CFF240E1C36E7FF2400237CE7C6
:10151000002C5CD1002B00D180E0002D00D12BE706
:101520005B19580100D427E73F4A0124134023E701
:10153000002C15D1002B40D1002D63D02B1C0E1C8C
:101540001AE7002C21D1002B54D0C943002904D024
:10155000FF284CD01B2958DD01235B19041C75E7BB
:10156000002B19D1002D48D02B1C0E1CFF2403E7A3
:101570002B1C041C0E1CFFE61C1C2026D440B21A97
:1015800093405A1E93412343A9E7FF282FD080247C
:10159000E40449422343DDE7FF24002D00D1EBE6BC
:1015A0008022DB08D203134204D0ED08154201D19A
:1015B0002B1C0E1CDB00FF24DEE6002D00D1DBE639
:1015C0005A1B500100D41CE7EB1A0E1CD4E6002B6A
:1015D0000DD0FF24002D00D1CEE68022DB08D203FF
:1015E0001342E7D0ED081542E4D12B1CE2E72B1C97
:1015F000FF24C1E62B1C041CBEE6802300229B04B2
:10160000FF2402E7231C0022FFE61C1C2027CC40FD
:10161000791A8B40591E8B4123439EE72B1CABE666
:10162000012512E70125D3E6FFFFFFFB4302590A1C
:101630004300C20F1B0E00207E2B0DDD9D2B0CDC0A
:10164000802000040143952B0ADC9620C31AD94060
:101650004842002A00D1081C7047034BD018FBE712
:10166000963B9940F4E7C046FFFFFF7F70B5041E2C
:101670003CD0C60F00D04442201C01F077FF9E23CF
:10168000251C1B1A962B0CDC083884406402640A63
:10169000DBB2321C6402DB05600AD2071843104338
:1016A00070BD992B0ADD0522121A211CD1400A1C9B
:1016B000011C1B318D40691E8D411543052801DD3C
:1016C000421F9540164C2C406A0704D00F2215404B
:1016D000042D00D0043461010CD59F23181AFF2873
:1016E0001AD0A401640AC3B2321CD3E7002200233B
:1016F0000024CFE7E408FF2B04D06402640ADBB2C5
:10170000321CC7E7002C04D08020C00304436402CD
:10171000640A321CFF23BDE7321CFF230024B9E713
:10172000FFFFFFFB10B5041E33D001F01FFF9E2307
:101730001B1A962B09DC083884406402640ADBB269
:101740006402DB05600A184310BD992B0ADD0522EF
:10175000121A211CD1400A1C011C1B318C40611E35
:101760008C411443052801DD421F9440144A224055
:10177000610704D00F210C40042C00D00432510129
:101780000AD59F23181AFF2816D09401640AC3B201
:10179000D6E700230024D3E7D208FF2B03D054025E
:1017A000640ADBB2CCE7002A06D08024E4031443A9
:1017B0006402640AFF23C3E7FF230024C0E7C04696
:1017C000FFFFFFFBF8B55F46564644464D46F0B472
:1017D0000C034D00CE0F610A440F2143C4001803CF
:1017E00080465800400D8246D80F84464046400A45
:1017F000530F0343D0006D0D371C83465246664598
:1018000000D1A4E0AF1A002F00DC09E1002A3BD18F
:10181000184300D0EAE0630700D187E00F2323409C
:10182000042B00D182E0221DA242A4416442802305
:1018300009191B040B40371C141C002B00D17CE041
:10184000CE4B01359D4200D105E1CD4BE408194056
:101850004807490204430B0B002000211B031A0B0D
:101860000B0D6D051B0513436A08C64DFF071D4090
:1018700015436D006D08291C3943201C3CBC904663
:101880009946A246AB46F8BDBC488542C3D08020ED
:1018900000040343382F00DDF0E01F2F00DD24E1BA
:1018A0002020C01B1A1C814682405846F840024343
:1018B000944658464A469040421E9041FB4062463C
:1018C00002431F1CA21A9442A4416442C91B091B73
:1018D000141C0B029FD549024F0A002F00D1C8E00B
:1018E000381C01F043FE021C083A1F2A00DDB5E057
:1018F0002821091A201C9740C8400743944095426C
:1019000000DDB2E0551B691C1F2900DDDCE01F2251
:10191000551B3B1C221CAB40CA40AC40651EAC4171
:101920001343CF401C43391C002574E780231B045C
:101930000B40371C002B00D082E7904B4807E4088F
:101940000443C9089D4248D009030B0B84E7AA1A37
:101950009446002A00DC98E05046002852D0874880
:10196000854200D157E78020000403436246382AAD
:1019700000DDFCE01F2A00DD4AE120226046101A4B
:101980001A1C82408246914658466246D0404A46DA
:1019900002439046584652469040421E904142466D
:1019A00002436046C3401219A242A441644259183E
:1019B0000919141C080200D42DE7704B01359D4213
:1019C00000D122E16E4B60081940012323401C1C0A
:1019D0000443CB071C4349081DE7231C0B433AD0A3
:1019E00080231B030B431B031B0B35E7013F002F19
:1019F00065D15846221A9442A4416442C91A091B6F
:101A0000141C66E75846184300D104E701225242ED
:101A100094446046002800D0C5E058460219C3E748
:101A2000002F73D1681C4005400D012800DCDEE06A
:101A30005A46A21A9442BF41C81A7F42C71B3802B5
:101A400000D489E05A46141BA3459241591A5242C8
:101A50008F1A664641E700230024FDE6271C28383C
:101A600087400024954200DC4CE74549AD1A3940D7
:101A7000D1E6201C01F07AFD203034E75A461A43A3
:101A8000531E9A41D2B200271CE7002A00D0DCE0A6
:101A9000681C4205520D012A00DC8DE0374DA8423A
:101AA00000D1F3E05D462A19A242A44164425918CC
:101AB0000919CC07520814434908051CABE62F4806
:101AC000854200D0E6E6A6E62B1C1F3B3A1CDA4016
:101AD000131C20296CD03F22551BAF403C43601E95
:101AE00084411C430021002595E6381C20381A1C2F
:101AF000C240101C202F5DD04022D71BBB405A464D
:101B00001A43531E9A4102430027DBE6002D3BD0C7
:101B10001A4DAA4500D193E080252D047F42294328
:101B2000382F00DDACE01F2F00DD29E12025ED1B63
:101B3000081C261CA840FE40AC400643651EAC4174
:101B40003443F9405D462C1BA34592415B1A524237
:101B5000991A55466646BCE6131C3B43141C002BE1
:101B600000D0BAE60027002100250024E5E65A4609
:101B70001A43531E9A41D2B2002314E7FF07000014
:101B8000FFFF7FFFFFFF0F800D1C254358D0FF4351
:101B9000002F51D1041BA3459241591A5242891A70
:101BA0005546664695E69648854200D0DEE632E622
:101BB000002793E70023A2E7081C2043002D00D054
:101BC000C4E0002800D1F7E05846184300D122E6CF
:101BD00058460219A242A441644259180919141C1A
:101BE0000A0200D417E6874B0125194013E6081CAA
:101BF0002043002D39D1002871D15946194303D013
:101C0000191C5C46664606E600270021002494E67F
:101C1000604620381A1CC24060469146202800D1F8
:101C2000ACE04022121A93405A461A43531E9A417E
:101C30004B461A430023B6E6714DAA4500D06FE724
:101C4000191C5C4655466646E5E5002D22D10D1C63
:101C5000254377D0D543002D71D15C445C4592413A
:101C60005918524289185546A4E600284DD15946C4
:101C7000194300D194E0191C5C466646604DCAE5E4
:101C80000C43611E8C41E4B200215BE7051C00217E
:101C9000002452E65A4DAA4554D0554280221004E1
:101CA0000143382D00DD81E01F2D00DD92E0202270
:101CB000501B0A1C84468240201CE8400243904688
:101CC00062469440601E844142461443E9405C44AD
:101CD0005C459241CB185242991855466AE65846DF
:101CE000184300D197E55846271ABC429241C81ABA
:101CF0005242801A020266D55846041BA3459241FF
:101D0000591A5242891A664685E55846184333D017
:101D10004807E40804438020C9080003014208D0B2
:101D2000DD08054205D15946CA085C071443291C41
:101D30006646630FC9001943E400314D6BE5304A34
:101D40009245AED1191C5C46554664E5002836D054
:101D50005846184310D080254807E408C9082D03C9
:101D600004432942E5D0D8082842E2D15D46EA087A
:101D70005C071443011CDCE7214D4CE5002353E7CD
:101D80003D1C203D0A1CEA40151C202F34D0402663
:101D9000F71BB9400C43611E8C412C430021D1E656
:101DA00080210027C903164D0024C6E50C43611E9F
:101DB0008C41E4B200218AE7191C5C462BE5191C12
:101DC0005C460F4D27E5031C3B4300D11CE7011C7B
:101DD0003C1C20E52020404240190A1CC24090468D
:101DE000202D0BD04020451BA9400C43611E8C4187
:101DF00045462C4300216AE70021CBE70021F4E7A8
:101E0000FF070000FFFF7FFFF0B5564644465F46E0
:101E10004D46F0B41F1C0B031B0B98464B0087B0BC
:101E2000041C81465B0DC80F161C9A460090002BBF
:101E300051D06A4B9A4531D08022414652030A4321
:101E4000630FD2001A43664B90460025E20091468C
:101E50009A44002402953B031B0B9B46FD0F7B001D
:101E6000311C5B0D019560D05C4A934254D08021B7
:101E7000584649030143720FC9001143584A8B4623
:101E80009B18F1000020009A04436A4003920F2C33
:101E900000D9ADE0534EA4003459A7464046044350
:101EA0006ED1002102250824884689460295D2E792
:101EB000009C0298C34649460194022864D0032836
:101EC00000D1ABE2012800D038E2019A00240240A0
:101ED0000025A14660E0434623434AD040460028FF
:101EE00000D1C0E101F042FB031E272B00DDB3E16E
:101EF00028210D1A211C083B4246E9409A400D1C3E
:101F00001543221C9A40A8469146374B00251B1AC0
:101F10009A46002402959EE75A4616430320002E57
:101F2000B1D1B34600210220ADE75A4632431BD05F
:101F30005B46002B00D18AE1584601F017FB2728A9
:101F400000DD7DE12822171A011C321C08395B468E
:101F5000FA408B40171C1F43331C8B40BB46191C97
:101F6000214B1B1A00208EE70027BB4600210120D1
:101F700089E70020012504248046814602956AE70E
:101F800003250C24029566E7019C0394039D01221E
:101F90002A400024114DA146002000212403260BD5
:101FA0000C0D2405114B34432D0523402B435B00BE
:101FB0005B08D207191C4846114307B03CBC904649
:101FC0009946A246AB46F0BD0022802424039146E8
:101FD000024DE1E700240025A146DDE7FF070000F0
:101FE00001FCFFFF900E01000DFCFFFFFFFF0F80C3
:101FF0005546ED1A0495D84500D953E100D14EE17C
:10200000049C0025013C4E4604944746A946584688
:1020100003020C0E1C430902250C23041B0C009127
:10202000381C291C0193FEF7D7FA019983464143D6
:10203000381C8A46291CFEF713FB330C090419438C
:102040008A450CD95B460919013B8C4200D947E10E
:102050008A4500D844E1022252429344091953466A
:10206000CB1A181C291C9846FEF7B6FA071C0198D3
:10207000291C784382464046FEF7F2FA36040B04E8
:10208000360C33439A4509D91B197A1E9C4200D954
:1020900024E19A4500D821E1023F1B195E46320433
:1020A0001743380CBB46009E009F51463F0C32043C
:1020B0005B1A5946BA46120C0F043F0C9046514623
:1020C0007A434F434146414356467043CF19160C5D
:1020D000BE19B14202D980277F02C019310C120407
:1020E0003604120C4018B618834200D2C4E000D166
:1020F000BEE0191A4846861BB145BF417F42CF1B3F
:10210000A74200D113E1291C381CFEF765FA01999A
:1021100002904143381C8946291CFEF7A1FA330C72
:102120000904194389450CD9029B0919013B8C42CA
:1021300000D9FFE0894500D8FCE0029F0919023F61
:1021400002974F46CF1B381C291C0597FEF744FA0F
:10215000071C0198291C784381460598FEF780FAF0
:1021600036040904360C0E43B14509D936197B1ED5
:10217000B44200D9E0E0B14500D8DDE0023F3619B5
:10218000029D4946761A290439430B0457460A0C26
:102190001B0C40464546584355437B437A43EB1856
:1021A000070CDB199D4202D980256D0252191D0CC6
:1021B00000041B04000C52191B18964235D300D1A1
:1021C000FCE001231943049E994FF519002D00DC12
:1021D000A1E0480709D00F230B40042B05D00B1DAD
:1021E0008B42894149428B44191C5A46D20107D57A
:1021F000904B5C46049E80271C40FF00A346F519C7
:102200008D4B9D427ADD039C0122224000248B4DA0
:10221000A146C1E680242403474627424CD13C43D3
:102220002403240B009A854DB6E63619481EB442A5
:102230005ED9011C9642C4D1009E9E42C1D1C2E724
:10224000031C283B311C99408B46002188E6301C3A
:1022500001F08CF9203072E6283B211C99400022C5
:102260008846914651E6201C01F080F920303BE67B
:102270000021B14500D33DE7009F5A46B944B94516
:10228000BF417F423F19FB18013A9C421ED298423F
:1022900000D97EE000D1B5E0191A93462AE78945B6
:1022A00000D8ADE64846464642467708D30746087A
:1022B000C0071E438146AAE65846204212D1044375
:1022C00024032A1C240B89465C4D65E6A342E3D116
:1022D000009F4F45DBD9211A93460BE7171CDDE61B
:1022E0009B46BCE63C432403240B009A534D53E623
:1022F000B24259D800D18AE0011C62E75F46C908A2
:102300007B07039E0B437C026D0501229946240B3B
:102310006D0D324040E64A4B049FDB1B382B10DD2D
:10232000039C0122224000240025A14634E601211D
:10233000494248E7029304E71F1C21E7019C0394EC
:1023400041E71F2B40DC3F48049F0C1C3A185846BD
:102350009140DC40904020430A1C511E8A41011CE0
:1023600011435A46DA40131C480709D00F220A408D
:10237000042A05D00A1D8A42894149425B18111C72
:102380001A0234D5039C0122224000240125A146D3
:1023900002E6009F02214942B9448B44B945894174
:1023A00049420919CB18A4E6009D881E6900A9427C
:1023B000AD416D422C19361900913AE7002B00D03F
:1023C00033E70024009437E71F4A049C5D46121B44
:1023D000D5402A1C202B1FD01C4E5F46A3199F40BE
:1023E0003B1C19434B1E994111430023BCE75A077C
:1023F000C9080A43039F91465B0201221C0B3A4025
:102400000025C9E54E45C4D89346002172E6009FD9
:102410009F42C9D3011C0FE70023E2E78024240375
:102420005F463C432403240B019A8946034DB3E5E0
:10243000FF030000FFFFFFFEFE070000FF07000094
:1024400002FCFFFF1E040000E2FBFFFF3E04000051
:10245000F0B55F4656464D464446F0B40D1C041C8C
:102460008046E80F814618030F03000B3F0B83B033
:1024700084461B48009749005E00DF0F490D9246D5
:10248000760DBB4681420CD01548864210D0012003
:10249000B14215D003B03CBC90469946A246AB462B
:1024A000F0BD009F01202743F4D10D488642EED1B4
:1024B000604602430120002AECD10120B142E9D15B
:1024C000009B6345E6D1D045E4D1D94506D000292B
:1024D000E0D11C43201C441EA041DBE70020D9E7CB
:1024E000FF070000F0B55F4656464D464446F0B43F
:1024F000CD0FDE0FAC461D032D0BB146374E0F033B
:102500004C00AB465D0080463F0B640D92466D0D5E
:10251000B44232D0314EB54235D0002C0ED13843C2
:1025200041424141081C002D0BD0002919D1CC4556
:102530002DD0654668420123184318E0002DF6D1DE
:10254000281C59460A4353425341002806D1002B08
:10255000EDD0634658420123184308E00020002BC9
:1025600005D14A46504250414042012318433CBCE9
:1025700090469946A246AB46F0BD3E1C0643C9D0E4
:1025800002204042F3E75E461643C6D0F8E7AC426D
:1025900007DC0BDA614648424841404201231843B8
:1025A000E5E76646704201231843E0E75F450AD835
:1025B0000ED000205F45DAD265466842684140424D
:1025C00001231843D3E76246504201231843CEE764
:1025D000D045F8D80020D045EED3C8E7FF0700006B
:1025E000F0B556464D4644465F46F0B40D1C83B0E8
:1025F000041C0190E80F814618030F03000B3F0BEA
:1026000084463548009749005E00DF0F490D924629
:10261000760DB846814234D02F48864236D0002904
:1026200018D0002E1FD1341C67463A435342534101
:10263000002C1FD00020002B05D1424650425041B3
:1026400040420123184303B03CBC90469946A24641
:10265000AB46F0BD0098044360426041041C002E6C
:10266000E2D00028E9D1C14515D04F467842012378
:102670001843E8E7002BF6D04B4658420123184395
:10268000E1E7009F02202743DDD1C5E7674602202E
:102690001743D8D1C3E7B14204DD4A465042012373
:1026A0001843D0E7B14207DB00986045E4D80AD070
:1026B000009F00206745C6D24F467842784140428D
:1026C00001231843BFE7019A5245D5D8019A00204B
:1026D0005245F1D3B7E7C046FF070000F0B55646B4
:1026E00044465F464D46F0B41F1C0B031B0B9A4635
:1026F0004B0087B0041C80465B0DC80F161C02936C
:102700008146002B68D0694B0299994232D08022D1
:10271000534652031A43D200630F1A439246644A47
:10272000E000891880460291002400253B031B0B22
:102730009B467800FB0F321C400D039300D175E0DF
:102740005A4B984269D08022594652030A43730F6C
:10275000D2001A43564B9346C018F2000023039947
:102760004E4671401C430F2C00D9A9E0514EA400E5
:102770003459A74653461C4300D087E00025AA469B
:10278000A84608240225D1E74946022D6CD0032D26
:1027900000D117E2012D00D058E10D40EDB2002428
:1027A000A9460023A0460020002125030A0D1C0590
:1027B0002D0B1205404B2A43134023435B004C462C
:1027C0005B08E207191C4046114307B03CBC904629
:1027D0009946A246AB46F0BD5346234350D05346DC
:1027E000002B00D184E1504600F0C0FE031E272BD1
:1027F00000DD76E128210D1A211C083B5246E940F4
:102800009A400D1C1543221C9A40AA4690462B4B19
:1028100000241B1A0293002588E75B461E4303230E
:10282000002E9CD1B3460022022398E75B46334337
:1028300021D05846002800D14EE100F097FE27280D
:1028400000DD42E128210F1A021C311C083A5B46C8
:10285000F94093400F1C1F43331C9340BB461A1C86
:10286000164B181A00237AE701230B4000249946DF
:10287000A0460E4B97E70027BB46002201236EE7D8
:10288000002104248A46884601254FE70C240325AD
:102890004CE700258024A9462403A846034B82E781
:1028A000DA46904603991D1C6FE7C046FF070000FB
:1028B00001FCFFFFD00E0100FFFF0F800DFCFFFFAA
:1028C000029F160C381804904046070C0004000CB8
:1028D0001204120C031C5343041C3D1C7443554347
:1028E00098463B1C73436419A44644460293230C48
:1028F00063449D4204D9029D802464022D190295EF
:102900001D0C039545462C041B04240C1C1905942E
:102910005C46230C051C58432404240C8446381CB4
:10292000604365435F438146CC44280C6044BB460A
:10293000814502D980277F02BB442D04070C2D0C52
:10294000000440195546BC462F04E3448446280C35
:102950003D0C2F1C5743B8462F1C77434243B946C2
:1029600047463F0C9144BA46D14446434A4502D9B2
:1029700080225202B6184F463A0CB6183A0447461F
:102980003F043F0CB8462F1C67435D434443584304
:1029900065190190380C2D184244B846AC4204D950
:1029A000019880235B02C0180190039C029F201CA9
:1029B0006044C0196045A44147466442A4462B04C4
:1029C0003C049946240C4C44A046D8448018C24686
:1029D000E24490429241574652429146F219E245F2
:1029E000BF417F424B46BC46D845BF41D4187F42C9
:1029F00063461F432D0C7F19B24292414C45AD41B5
:102A000052426D421543019E7D19AB19E20D5B02E6
:102A1000059F134342023A439A46531E9A41C30DFF
:102A2000101C18436402204380465046C0010DD557
:102A3000454601225646049C6B082A401A43F30778
:102A400001341A43760804949046B246049E634FBC
:102A5000F319002B61DD404640070BD00F2244469E
:102A60002240042A06D04246043242458041404278
:102A7000824490465546ED0107D5594B5646049F72
:102A800080201E40C000B2463B18564A934200DDEB
:102A9000EAE644465546E2086807104301226C0204
:102AA0005B050A408046240B5B0D91467BE6DA46C7
:102AB00090461D1C69E680242403574627421CD1FA
:102AC0003C432403240B484B6DE6031C283B311C7C
:102AD00099408B460022C3E6301C00F047FD2030B1
:102AE000ADE6283B211C994000228A4690468EE69E
:102AF000201C00F03BFD203078E65846204207D1EC
:102B0000044303992403240B89469046364B4AE636
:102B10003C432403240B344B45E6344B049E9B1B5F
:102B2000382B06DD01230B4000249946A0460023E4
:102B300039E61F2B25DC049C2D4D46466019524674
:102B400044468640DC4082405746301C2243DF40EA
:102B5000441EA04102433B1C540709D00F201040E3
:102B6000042805D0101D9042924152429B18021C2D
:102B70001D021AD501230B4000249946A0460123CB
:102B800011E61C48049C5546001BC540281C202B00
:102B900016D0194E5746A21997403A1C43461A437D
:102BA000531E9A4102430023D6E758075B02D2081E
:102BB0001C0B01230B401043994680460023F2E58D
:102BC0000022EBE7802424035046012304431940EC
:102BD0002403240B8946044BE5E5C046FF030000AF
:102BE000FFFFFFFEFE070000FF07000002FCFFFFE3
:102BF0001E040000E2FBFFFF3E040000F8B55F4644
:102C0000564644464D46F0B40C034D00CF0F610AC2
:102C1000440F2143C4001803DE0F8046B4464646E5
:102C20005800760A530F3343D600D14A6D0DBA4689
:102C3000400DB346904200D1F5E062460126724055
:102C40009446674500D1ABE02F1A002F00DC11E15C
:102C500000283ED15846184300D0F1E0600700D16B
:102C600097E00F232340042B00D122E1221DA24232
:102C7000A4416442802309191B04012750460B40DC
:102C80000740141C002B00D179E0B94B01359D425F
:102C900000D10BE1B74BE40819404807490204434F
:102CA0000B0B002000211B031A0B0B0D6D051B05E0
:102CB00013436A08B04DFF071D4015436D006D08B2
:102CC000291C3943201C3CBC90469946A246AB4681
:102CD000F8BDA7488542C1D0802000040343382FA7
:102CE00000DDFDE01F2F00DD31E12020C01B1A1C9C
:102CF0005E468240FE40324394465A468240101C53
:102D0000421E9041FB40624602431F1CA21A94429D
:102D1000A4416442C91B091B141C0A029ED5490226
:102D20004F0A002F00D1D6E0381C00F01FFC021C17
:102D3000083A1F2A00DDC3E02821231C091A974006
:102D4000CB401F439440954200DDC0E0551B691CF9
:102D50001F2900DDEAE01F22551B3B1C221CAB4053
:102D6000CA40AC40651EAC411343CF401C43391CE4
:102D7000002573E780217E4D0027C90300247C4B8A
:102D80004807E4080443C9089D4250D009030B0BCF
:102D900087E780231B04012752460B40174071E749
:102DA0002A1A9446002A00DCA1E0002854D070487A
:102DB000854200D152E78020000403436046382852
:102DC00000DD0EE11F2800DD57E162462020801A59
:102DD0001E1C8640B1465E46D6404A4632435E4699
:102DE00086409046301C421E904142460243604657
:102DF000C3401219A242A441644259180919141C73
:102E0000080200D42AE75A4B01359D4200D131E136
:102E1000584B60081940012323401C1C0443CB0776
:102E20001C4349081AE71E4300D00AE705E7231CA4
:102E30000B433BD080231B030B431B031B0B30E7CF
:102E4000013F002F6DD15E46A21B9442A441644213
:102E5000C91A091B141C60E75846184300D1FDE647
:102E600001267642B4446046002800D0D0E05E4699
:102E70003219BFE7002F00D080E0681C4005400DEC
:102E8000012800DCE8E05A46A21A9442BF41C81A61
:102E90007F42C71B3E0200D498E05846041BA3455E
:102EA0009241591A52428F1AE2463AE7002300240F
:102EB000F7E680231B04012756460B403740E1E626
:102EC000271C283887400024954200DC3EE729492A
:102ED000AD1A3940C2E6201C00F048FB203026E73E
:102EE0005A461A43531E9A41D2B200270EE7002ACF
:102EF00000D0DEE0681C4605760D012E00DC90E077
:102F00001B4DA84200D1F5E05E463219A242A44111
:102F1000644259180919CC07520814434908051C82
:102F20009CE61348854200D0D9E697E62B1C1F3B50
:102F30003E1CDE40331C20296FD03F22551BAF4082
:102F40003C43601E84411C430021002586E6381C5A
:102F500020381E1CC640301C202F60D04022D71BBA
:102F6000BB405A461A43531E9A4102430027CDE6FE
:102F7000FF070000FFFF7FFFFFFF0F80002D37D00E
:102F8000B64DA84200D18FE080252D047F42294311
:102F9000382F00DDA8E01F2F00DD24E12025ED1BE8
:102FA0000E1CAE40B046261CFE404246AC401643C6
:102FB000651EAC413443F9405A46141BA345924167
:102FC0005B1A5242991A051CE246A6E6131C3B43C3
:102FD000141C002B00D0A4E60027002100250024AB
:102FE000CDE65A461A43531E9A41D2B2002300E757
:102FF0000D1C254358D0FF43002F51D15A46141BB6
:10300000A3459241591A5242891A051CE24684E6A8
:103010009248854200D0D1E620E6002790E70023C1
:103020009FE7081C2043002D00D0C2E0002800D1FB
:10303000EFE05846184300D110E658460219A24264
:10304000A441644259180919141C0A0200D405E667
:10305000834B0125194001E6081C2043002D38D17F
:1030600000286FD15946194303D0191C5C46E2462B
:10307000F4E500270021002481E6604620381A1C70
:10308000C2406646101C202E00D1AAE04022921BAE
:1030900093405A461A43531E9A4102430023A8E61E
:1030A0006E4DA84200D073E7191C5C46051CE24631
:1030B000D4E5002D22D10D1C254376D0D543002D1B
:1030C00070D15C445C459241591852428918051CE4
:1030D00096E600284CD15946194300D14AE6191CFE
:1030E0005C46E2465D4DB9E50C43611E8C41E4B29D
:1030F000002161E7051C0021002440E6574DA8424D
:1031000053D05542802216043143382D7BDC1F2DCD
:1031100000DD8CE02022561B0A1CB446B240261C5F
:10312000EE403243904662469440661EB4414246A9
:103130001443E9405C445C459241CB1852429918D3
:10314000051C5DE65846184300D187E55E46A71B7F
:10315000BC429241C81A5242801A060260D55846B3
:10316000041BA3459241591A5242891AE24675E559
:103170005846184333D04807E40804438020C90860
:103180000003014208D0DD08054205D15946CA08AE
:103190005C071443291CE246630FC9001943E4008D
:1031A0002E4D5BE52D4A9042AFD1191C5C46051CA3
:1031B00054E5002830D05846184310D080254807E1
:1031C000E408C9082D0304432942E5D0D808284261
:1031D000E2D15D46EA085C071443011CDCE71F4DA1
:1031E0003CE5002355E73D1C203D0E1CEE40351C00
:1031F000202F2ED04026F71BB9400C43611E8C4176
:103200002C430021D8E60C43611E8C41E4B200211E
:1032100090E7191C5C4621E5191C5C460F4D1DE525
:10322000031C3B4300D124E7011C3C1C16E520266F
:10323000764276190A1CF2409046202D0BD040268B
:10324000751BA9400C43611E8C4145462C4300214F
:1032500070E70021D1E70021F4E7C046FF07000036
:10326000FFFF7FFF70B50B1C124C09030E0B5900BA
:10327000021C490DDD0F0020A14211DD0E488142E4
:103280000FDC8020400306430C48401A1F280BDD4A
:103290000B4A521AD640321C5042002D00D1101C4D
:1032A00070BD084BE818FBE7074BC240C9188E40B9
:1032B0003243F1E7FE0300001D0400003304000068
:1032C00013040000FFFFFF7FEDFBFFFFF8B5041EB6
:1032D00031D0C70F00D04442201C00F047F9184DF0
:1032E0002D1A0A2819DD0B38844024036D05240BA0
:1032F0006D0D3A1C0026002000210B0D2403240B29
:103300001B0523430F4C2D051C402C43640064080F
:10331000D307211C301C1943F8BD061C1536231C8D
:10332000B3401E1C0B23181AC44024036D05240B44
:103330006D0D3A1CDFE70022002500240026DAE7A5
:103340001E040000FFFF0F8010B5041E28D000F0FF
:103350000DF9154A121A0A2815DD0B38844024038A
:103360005205240B520D0023002000212403181CB9
:103370000B0D240B1B0523430C4C12051C4014435E
:103380006400610810BD031C1533211C99400B1CFF
:103390000B21081AC44024035205240B520DE3E705
:1033A000002200240023DFE71E040000FFFF0F803F
:1033B00043001B0E5A1C4102D2B270B54C0AC50F15
:1033C000012A17DDE02292006407090B98180022F9
:1033D00000231E0D221C34050C431B4940054008E8
:1033E0002140014349004908ED070B1C2B43101CE9
:1033F000191C70BD002B15D1002C1CD0201C00F016
:10340000B5F80A281ADC0B21091A231CCB40191C19
:10341000031C15339C400D4B0903181A4005090B7A
:10342000400DD4E7002C03D06407090B0848CEE711
:1034300007480021CBE700200021C8E7011C0B3919
:103440008C40211C0024E6E7FFFF0F808903000069
:10345000FF070000F0B54B000D03420F5B0D6D0A36
:1034600015435A1C5205CC0FC600520D012A27DD08
:10347000394FDA19FE2A1ADC002A35DD8001ED0009
:10348000431E98412843760F3043430704D00F234F
:103490000340042B00D004308021C904014027D010
:1034A0000132FF2A1DD083015B0AD1B201E0FF2166
:1034B00000235802C905400AE40708432043F0BD31
:1034C000002B06D1354311D10021002043025B0AB5
:1034D000EFE72E43EBD08020ED0080042843FF224D
:1034E000D3E7FF210023E4E717320DDA052000229D
:1034F000C008D1B2FF2AE9D10028D9D08023DB034C
:1035000003435B025B0AD4E780221449120415438B
:10351000C91A1F290DDC124A371C9B18281C9F4012
:1035200098403B1C5A1E93411843CE403043002222
:10353000ABE70C4F2A1CFF1AFA40171C202909D0B0
:10354000094A98188540281C3043461EB04138432C
:1035500000229AE70020F7E780FCFFFF9E030000AF
:1035600082FCFFFF7E030000A2FCFFFF1C21012361
:103570001B04984201D3000C10391B0A984201D356
:10358000000A08391B09984201D30009043902A234
:10359000105C40187047C04604030202010101019B
:1035A000000000000000000038B50E4B0C4A041C5F
:1035B0000D1CFDF7F5F8002804D1201C291CFFF78D
:1035C00051FE38BD074B064A201C291CFFF716FB8D
:1035D000FFF748FE80231B06C018F2E7C046C0462E
:1035E000000000000000E041F0B544465F4656464A
:1035F0004D46F0B41C1C85B0002900DADBE00F1C3E
:103600000021061C8A46101C191C002C00DAC9E097
:103610000196009089468046002951D1B84200D8D1
:1036200071E0FFF7A3FF002809D020234546311C95
:103630001B1A85408740D940A8460F438640424622
:10364000150C13041B0C291C381C9B46FCF7C4FFEB
:103650005B464343041C291C381C9946FDF700F8BF
:10366000330C08041843814509D94044631E804542
:1036700000D978E1814500D875E1023C40444946D3
:10368000411A8946081C291CFCF7A6FF5A464243EA
:10369000071C291C48469346FCF7E2FF3604090440
:1036A000360C0E43B34507D946447B1EB04502D8BD
:1036B000023FB34500D81F1C24042743002403E025
:1036C000B94211D9002400275246381C211C002A77
:1036D00003D03B1C00215842A14105B03CBC9046A0
:1036E0009946A246AB46F0BD081CFFF73FFF041EFB
:1036F00000D0BFE0B94500D242E1019D0099071C0E
:103700008D424741E0E7002804D101200021FCF769
:1037100063FF80464046FFF729FF002852D141460B
:1037200044460B043C1B1B0CA3460D0C00930124C8
:10373000291C5846FCF750FF009F81464743291C2F
:103740005846FCF78DFF330C090419438F4208D902
:103750004B464144013B884502D88F4200D91AE1CB
:103760009946C91B8B46081C291CFCF735FF009B9A
:10377000291C4343071C58460093FCF771FF36048D
:10378000009D0904360C0E43B54207D946447B1E02
:10379000B04502D8023FB54200D81F1C49460E046E
:1037A000374391E75246D243031C0C1C924600213A
:1037B0005842A1412CE7002746428F41012149424E
:1037C0008A4620E720231B1A4246351C82403C1CB7
:1037D000DD40DC4087402B1C150C3B43291C8640F8
:1037E000201C009317049046FCF7F6FE3F0C011CCA
:1037F000794381468B46201C291CFCF731FF009C35
:103800000904230C19438B450CD94B464144013B19
:10381000884500D9BDE08B4500D8BAE0022252426B
:10382000914441445C460C1B201C291C0194FCF76C
:10383000D3FE391C4143041C8B460198291CFCF71C
:103840000FFF009A090413041B0C19438B4509D977
:103850004144631E884500D997E08B4500D894E029
:10386000023C41445B46CB1A49469B460B041C4331
:1038700000975DE7009D20231B1A4A468240DD40E9
:103880001543391C009AD94082408846311C009269
:10389000D9403A1C82400B1C134301932F0C2B047C
:1038A0001B0C391C40460293FCF796FE029A814697
:1038B0004243391C40469346FCF7D2FE019A090464
:1038C000130C19438B450AD94B464919013B8D42CC
:1038D0005DD88B455BD902235B42994449195A460E
:1038E0008A1A101C391C0392FCF776FE029B804654
:1038F0004343391C03989B46FCF7B2FE019A090426
:1039000013041B0C19438B450AD943464919013B43
:103910008D4238D88B4536D902235B4298444919E9
:103920005D464D1BAB464946009D0F04424617437A
:103930002A04120C3B042D0C1B0C380C111C59438F
:1039400042436B436843D3180D0C5B198C469A4273
:1039500002D98022520280181D0C401983450CD3D5
:1039600003D00024B0E61C1C89E665462A041B042B
:10397000120C9B18A6409E42F3D2013F0024A3E6FE
:1039800000240127A0E69846CAE71C1C6AE799466E
:10399000A5E7994646E70222524291444144E0E6B7
:1039A000F0B55F4656464D464446F0B40D1C85B012
:1039B000061C924698460290019103921F1C141C0B
:1039C0008346A946002B59D1AA4269D9101CFFF79A
:1039D000CDFD00280AD020231B1A311CD940854078
:1039E0000B1C2B43864084409946B346250C230488
:1039F0001B0C291C48469846FCF7EEFD4646071C62
:103A00004643291C4846FCF72BFE5A460904130C72
:103A100019438E4209D909197B1E8C4200D957E1FE
:103A20008E4200D854E1023F0919891B8946081CBF
:103A3000291CFCF7D1FD43464343061C291C48467C
:103A40009846FCF70DFE5A46130409041B0C194353
:103A5000884508D90919731E8C4200D936E1023E07
:103A6000884500D832E1380430430027391C05B0BE
:103A70003CBC90469946A246AB46F0BD019A9342A3
:103A800062D8181CFFF772FD041E60D1019B9F4293
:103A900000D22CE1029F03998F4260410027E5E7A5
:103AA000002A04D101200021FCF796FD041C201CF3
:103AB000FFF75CFD002800D0B9E023042D1B1B0C90
:103AC000A946260C98460127311C4846FCF784FD80
:103AD00041464143051C8A464846311CFCF7C0FD5F
:103AE0005A460804130C1843824507D900196B1E67
:103AF000844202D8824500D910E11D1C5346C31AE6
:103B0000181C311C9A46FCF767FD4146414381462B
:103B100088465046311CFCF7A3FD5A46130409049D
:103B20001B0C194388450BD94B460919013B8C42A4
:103B300000D9CFE0884500D8CCE002235B4299440D
:103B400028044946084391E7002700208EE72023F8
:103B50001B1A424657468240DF4017435246824076
:103B60000192321CDA40291CD9408540131C2B439A
:103B700002933D0C3B041B0C8846081C291C9A46EA
:103B8000FCF72AFD534643438146291C40469B4689
:103B9000FCF766FD029A0904130C19438B4506D9FC
:103BA0004B46C919013B8F4200D8ABE099465A46B3
:103BB0008A1A101C291C9346FCF70EFD53464343FA
:103BC000291C804658469A46FCF74AFD029A090489
:103BD00015042D0C29438A4506D94346C919013BD2
:103BE0008F4200D886E098465746CF1BBA464946D2
:103BF000019F0804424610433D042D0C03043F0C72
:103C00001B0C020C291C594355437B437A43EB1888
:103C10000F0CDB198C469D4202D980277F02D219F6
:103C20001D0C521992455FD356D000271EE7202362
:103C30001B1A311C2F1CD940DF4085400B1C8440CF
:103C40002B4386400193B3462304260C1B0C381CDF
:103C5000311C9846FCF7C0FC42464243051C311C0F
:103C6000381C9146FCF7FCFC019F09043B0C1943EE
:103C7000894507D909196B1E8C424DD889454BD906
:103C8000023D09194A468A1A101C311C9246FCF75B
:103C9000A3FC43464343071C311C50469946FCF79E
:103CA000DFFC019A090413041B0C1943894507D949
:103CB00009197B1E8C422DD889452BD9023F091941
:103CC0004B46CB1A2D0499462F43FDE61E1CCAE62F
:103CD0001F1CAAE6994633E761460A041B04120C2E
:103CE0009B18A6409E42A0D201380027BEE60027BE
:103CF0000120BBE68A4500D875E702235B42984461
:103D0000C91971E78B4500D850E702235B429944FB
:103D1000C9194CE71F1CD3E71D1CB3E7023D00196E
:103D2000ECE6C04608B5094A094BD058094901409C
:103D30008020C0040143D15003F05EFF031C0648FD
:103D4000E1214902022203F0D7FC08BD00700440C3
:103D500004100000FFFFFFF30040054000B585B0F0
:103D600002A80D49083106220BF012FE00236A4614
:103D7000137080235B0201930849094B094AD15013
:103D800002A803F0B5FF684603F0DAFE064A074BC7
:103D90001A6005B000BDC046F00D0100000007101C
:103DA0004410000000700440006CDC0208E0FF1FBB
:103DB00038B507F017FE1D4B59681D4A1140596070
:103DC0001C4B98681040802189000843986058680F
:103DD000104001435960D8691040802149000843D0
:103DE000D8615869104008435861986910400843E9
:103DF0009861114B986F0240114399670F4C104D19
:103E0000201C07212A1C04F0BFFC201C05212A1CB1
:103E100004F0BAFC0B4D201C06212A1C04F0B4FC53
:103E200009481E212A1C04F0AFFC38BD00A0044044
:103E3000FFF8FFFF00B0044000D0044080F00F40C6
:103E4000100F0100140F010000F10F40F0B54746BC
:103E500080B488B0041C0D1C002689E0F302484A97
:103E60009B5C002B00D182E0F3029B5C012B28D1EC
:103E70000122444B9A55F302414AD3181A695B69EF
:103E8000AB4274DC01D1A24271D8F3023C4AD31890
:103E90001B7A002B04D0F302D3189C61DD610CE087
:103EA000F102374B5918CB68069300220792069A05
:103EB000079B12196B418A61CB61F3020221304AE0
:103EC0009954F3022E4AD3189A69DB69AB424EDC4F
:103ED00001D1A2424BD82B4B9B5D002B0CD0002272
:103EE000284B9A55F102264B5918002200238A626A
:103EF000CB6230310C230B70F102214B59180C624C
:103F00004D62CB68049300220592049A059B121916
:103F10006B418A61CB611C4B1B78002B03D00122C3
:103F20001A4B1A7023E001F0A7FE002802D11848AE
:103F300003F038FC174B1B68174A90460422009286
:103F40009B0001930127029740461449144B04F04B
:103F50000DF814480221424603F082FF0A4B1F70FD
:103F6000114A092313601148002103F0E3FC0136D4
:103F7000012E00DC72E708B004BC9046F0BDC046DC
:103F800038E6FF1F34E2FF1F1CE2FF1F30E2FF1F75
:103F9000340F010000E0FF1FC40D002010B00340EB
:103FA00038E2FF1F00800040BC0D002000B003403D
:103FB000F8B5334A1F2313603248002103F0BAFCDE
:103FC000002300203049314C03E09A001259801838
:103FD00001330A689342F8D32B4B1968FCF7FCFABB
:103FE0002B4B188000271D1C023543E0FB02294A99
:103FF0009B5C022B3DD10024274E05E0281C01F0DC
:104000004FFE002802D10134B442F7DDFB02214CFF
:10401000E4183C34201C0BF093F90D2803D91F4BF6
:104020001B78002B20D0FB021A4AD318EA22D200B8
:104030009B181B79002B13D1FB02164AD618326A43
:10404000736AB262F362331C30330D221A70F8B215
:10405000402106F0A9FBEA22D200B31801221A710E
:104060000E4B1B78002B04D0201C09490E220BF0AC
:10407000A7F80137012FB9DD0022094B1A70F8BDEE
:10408000BC0D002000B0034000E0FF1F38E2FF1F1E
:1040900020E2FF1F38E6FF1FE703000030E2FF1FAA
:1040A0001CE2FF1F7047C04638B5041CC3020F480E
:1040B000C518682007F0A4FE002815D0EC23DB000B
:1040C000ED18011C5831281C28220BF061FC074B0D
:1040D000E0020021C1541A185160FA218900D16010
:1040E000101C3C300BF036F938BDC04638E6FF1FD7
:1040F000F8B564204A490AF06FF84A4C201C03F0D6
:10410000E1FB0123237000226270A270E370A371AF
:1041100023720323237104236371434D281C211C44
:1041200003F074FB2B6A402293432B62281C03216B
:1041300003F0E6FB281C03F041FC002802D03B48BA
:1041400003F030FB3A4B09221A6000221A715A71AF
:10415000354B196A04220A431A62364B9A783F217A
:104160008A4328210A439A70997880220A439A70D8
:10417000314D324C281C211C022203F0B9FE281CB0
:104180002F49002203F068FF96235B00E15880224C
:1041900012060A43E250E1582A4A0A408021890562
:1041A0000A43E250284AC0239B00D05827490140C7
:1041B000802000040143D15009F088F8682007F0FE
:1041C0001FFE011C7031224C201C0A220BF0E0FB68
:1041D000201C01F069FB00241E4D1A271D261CE03F
:1041E000E0022B18EA21C9005A18577196711E2156
:1041F000D171EB22D2009B181F221A7000225A7034
:104200009A702918543128183C30E022D2000AF064
:10421000CFFFE0B2FFF748FF0134012CE0DDF8BD2D
:104220004D3E0000B00D002000B00340440F0100DF
:10423000BC0D002000100240A00D002000800040B6
:10424000B13F0000FFFFFFDF00E100E0FFFF00FFE4
:1042500038F6FF1F38E6FF1FF0B557464E46454675
:10426000E0B4041C8846161C08AB06CB1B789946A4
:104270000BAB1F783A4A9246C50250193C300BF0FE
:1042800069F851464B1900259D70EA21C9005A185A
:10429000157142465A60DE600899099A19615A619F
:1042A0004A461A725F701A1C303215700121517023
:1042B0009D63FF21C9005B181D605D60301CFDF728
:1042C00031FAFFF775F8234B214AFEF707FA224A25
:1042D000224BFDF799FDFFF7BDF8FC218905FCF79E
:1042E000B5FBFCF707FB1F4B18601B68002B02D1C6
:1042F00001221C4B1A601B4B1A6880235B009A42F8
:1043000002D91A1C174B1A60164B1968164803F08D
:1043100049FA1648211C03F045FA0023144A137089
:10432000144A1370144A116813791B01CB1809330E
:10433000FF3359688022D2050A435A60E402012201
:10434000074BE2541CBC90469946A246F0BDC046BD
:104350009A9999999999B93F0000000000C052407C
:1043600038E6FF1F00E0FF1F680F0100800F01000B
:1043700030E2FF1F1CE2FF1FA00D0020C046C04618
:10438000F8B5041C164EC5020027AF55154A1F2369
:1043900013601548002103F0CDFA144803F0C0FE65
:1043A000134B1F701348211C03F0FCF975191248B8
:1043B000211CAA6B03F0F6F9EA23DB00ED182B7938
:1043C000002B03D00D48211C03F0ECF90C4B1B789B
:1043D000002B03D00B48211C03F0E4F9F8BDC046C4
:1043E00038E6FF1FBC0D002000B00340A00D0020E8
:1043F0001CE2FF1F980F0100B00F0100D00F010059
:1044000030E2FF1FF80F0100CBB2062B33D8990022
:104410001A4B5B589F46C002194B1818EA23DB0061
:10442000C018407928E0C002154B1818EA23DB00B9
:10443000C018807920E0C002114B1818EA23DB0075
:10444000C018C07918E0C0020D4B1818EB23DB0030
:10445000C018007810E0C002094B1818EB23DB00ED
:10446000C018407808E0C002054B1818EB23DB00A9
:10447000C018807800E000207047C046180F010087
:1044800038E6FF1F70B51E1C049D0024FF2001E0CC
:10449000285501341F2CFBDD012913D1B218802AC5
:1044A00012D10021002402E00878444001317E2925
:1044B000FADD281C0021321C0BF06AFA7F23EC5431
:1044C000B0B202E0202000E0202000B270BDC04663
:1044D000081C7047C002EC23DB00C018014B181801
:1044E0007047C04638E6FF1F08B5C002F123DB0065
:1044F000C018044B181800216C220BF052FA00204F
:1045000008BDC04638E6FF1FF0B508291AD80E4C82
:104510004D006B189B00C0021B18E318F127FF0029
:10452000DE1901273770F226F6009B191A60691808
:10453000890009186418F127FF00E419002363605B
:10454000002000E03220F0BD38E6FF1F08B5082942
:104550000FD84B0059188900C0020918F123DB005D
:10456000C918054B5918101C0C220BF011FA002029
:1045700000E0322008BDC04638E6FF1F70B584B0A9
:10458000061C141C0B78012B01D9032B11D1301CF4
:10459000FFF7F6FEE26A61680024002500940195A9
:1045A0000123029300230393301CFFF755FE3020B4
:1045B00028E0022B04D1042001F050FB302021E040
:1045C000042B04D1002001F049FB30201AE0052B18
:1045D00015D11378012B04D1012001F03FFB3020CD
:1045E00010E0042B04D1022001F038FB302009E058
:1045F000072B06D1032001F031FB302002E03620EA
:1046000000E0362004B070BDF0B55F4656464D461A
:104610004446F0B48DB089469246C002E34E361847
:104620000B78012B02D9032B00D007E1341C3C345A
:104630000494201C0AF07CFE00B20E21FBF7CCFF94
:1046400084B220B2FDF712F8079057463969FCF79B
:10465000C3F8002800D0FDE10025012706970022BD
:10466000904603920027029727B2059708AF331CA4
:1046700046469B462AE00498391C0E220AF0EEFDBD
:104680003888FDF74FF8041C2BB2012B1CDD069A6D
:10469000002A03D08046039000230693201C039930
:1046A000FCF7AEF8002800D00394201C4146FCF72C
:1046B00093F8002800D0A046301C211CFCF7C6F956
:1046C000061C029C013402940135ADB22BB2059C4C
:1046D000A342D0DB5B46B3461E1C0298FCF7C6FF24
:1046E000011C5846FCF71EFB041C0398211CFCF718
:1046F00027FEFCF79BFF051C4046211CFCF720FE13
:10470000FCF794FF002D00DA6D42002800DA4042E9
:10471000A84200DC281C57463A7851008A189200BB
:10472000B218F223DB00D218079F176053461A789D
:1047300051008A189200B218F127FF00D219012502
:1047400015701A78013251008A189200B218F223BB
:10475000DB00D218146057463A7801329046FCF7D5
:1047600085FF071C4246530043449B00F318F12287
:10477000D2009B1858605246137801335A00D31860
:104780009B00F318F122D2009B181D704A46137843
:10479000032B2AD1EE23DB00F3589946181C211C69
:1047A000FCF7A4FC824BF558291CFCF74FF9804616
:1047B000F523DB00F050381C4946FCF797FC7D4B95
:1047C000F0500124F423DB00F454F223DB00F05812
:1047D0004146FCF7B5FD011C281CFCF737F9764B68
:1047E000F050764BF454002041E154462378042BDA
:1047F00000D031E1F223DB00F1586F4BF358F52282
:10480000D200B0586E4AB258FB27FF00F5196D4F21
:10481000F4190095019409F0D9F9002806D105236F
:10482000FA22D200B354684AB35420E10123FA2299
:10483000D200B354644AB354002018E1022B57D17C
:1048400001F040FA002800D108E1FE2292055F4BFA
:10485000F2500025F323DB00F55001245C4BF454A7
:104860005C4F0422B85EFCF701FFF523DB00F0503B
:10487000504BF550F423DB00F4540623F85EFCF7AC
:10488000F5FE4D4BF050F623DB00F5504B4BF45446
:104890000822B85EFCF7EAFEF823DB00F0504E4B2E
:1048A000F550F723DB00F45400203856FCF7DEFE09
:1048B000434BF050F923DB00F550484BF4540120F2
:1048C0003856FCF7D3FEFB23DB00F050444BF55089
:1048D000FA23DB00F45402203856FCF7C7FE394BAC
:1048E000F050FC23DB00F550374BF4540020BEE0C1
:1048F000042B35D101F0E6F9002800D1B0E0FE220A
:104900009205324BF2500025F323DB00F5500124D1
:104910002F4BF4542F4F0423F85EFCF7A7FEF5232A
:10492000DB00F050234BF550F423DB00F454062257
:10493000B85EFCF79BFE204BF050F623DB00F550F1
:104940001E4BF4540823F85EFCF790FEF823DB00BE
:10495000F050214BF550F723DB00F454002086E0A3
:10496000052B00D07EE001F0ADF9002800D17BE0FE
:1049700054462378012B35D1FE229205134BF25079
:104980000025F323DB00F5500124114BF454114BA7
:1049900000201856FCF76AFEF523DB00F050054BAB
:1049A000F550F423DB00F454002060E038E6FF1FEC
:1049B00074070000A4070000B4070000AC07000063
:1049C000CC070000E4070000DC0700009C070000A3
:1049D0009407000038F6FF1FBC070000C407000062
:1049E000D4070000042B19D1FE229205F823DB0026
:1049F000F2500025214BF5500124F723DB00F4543D
:104A00001F4B01201856FCF731FE1E4BF050F923C6
:104A1000DB00F5501C4BF454002028E0072B25D177
:104A2000FE229205194BF2500025FC23DB00F550C5
:104A30000124174BF454124B02201856FCF716FEB3
:104A4000FE23DB00F050134BF550FD23DB00F45444
:104A500000200CE030200AE0002008E0302006E0D2
:104A6000302004E0362002E0302000E036200DB097
:104A70003CBC90469946A246AB46F0BDBC07000040
:104A800038F6FF1FCC070000C4070000E407000051
:104A9000DC070000EC070000F8B55F4656464D46BF
:104AA0004446F0B4051CC302634CE4180B78012B98
:104AB00022D8FB23DB00E358EE27FF00E3515F4BD6
:104AC000E358EE27FF00E61973600A785C48291C5A
:104AD00002F068FEE059FEF76BFC021C0B1C594803
:104AE00002F060FE7068FEF763FC021C0B1C564867
:104AF00002F058FE002099E0022B3BD1534B9A88DC
:104B0000534883462252DA885248824622521A89F2
:104B1000F020C000814622521A78EF20C000804663
:104B200022545A784C4FE2559B784C4EA3550A7844
:104B30004348291C02F036FE5A46A15E484802F05E
:104B400031FE5346E15E474802F02CFE4846215EA6
:104B5000454802F027FE4246A156444802F022FE94
:104B6000E157434802F01EFEA157424802F01AFEE8
:104B700000205BE0032B14D13F4BE358EE20C00034
:104B8000241863600A782E48291C02F00BFE606826
:104B9000FEF70EFC021C0B1C2B4802F003FE00204B
:104BA00044E0042B1FD1294B9A8829488046225281
:104BB000DA88284FE2531B89F026F600A3530A78BF
:104BC0001F48291C02F0EEFD4246A15E244802F077
:104BD000E9FDE15F234802F0E5FDA15F224802F014
:104BE000E1FD002022E0052B1FD1184B1A78EF20A1
:104BF000C000804622545A78174FE2559B78174ED2
:104C0000A3550A780E48291C02F0CCFD4246A15655
:104C10001A4802F0C7FDE157194802F0C3FDA15739
:104C2000184802F0BFFD002000E032203CBC904656
:104C30009946A246AB46F8BD38E6FF1FE4070000E0
:104C400024100100541001006410010038F6FF1F09
:104C50007C0700007E070000790700007A0700004B
:104C600074100100881001009C100100B0100100B8
:104C7000C4100100D8100100B4070000EC100100BE
:104C80000011010014110100F0B5474680B484B052
:104C900080460C1C94460AA900228E5E0BAD2F782C
:104CA0002578022D45D13122A25C002A10D0009334
:104CB000231C323301930133029301330393606861
:104CC0002049E268634605F043FE00223123E254A6
:104CD0003023E35C002B16D0002F03D000223023BA
:104CE000E25410E0A278009261680191029340467C
:104CF000A26AE36A05F0AEFDA3780133A370002237
:104D00003023E25418E0201C3C300AF011FB00B2C2
:104D1000311CFBF7AFFC00B23323E35C98420ADBA3
:104D20000C9A138040460021FF220AF03AFE064802
:104D300002E0002000E0002000B204B004BC904675
:104D4000F0BDC046A0860100FFFF0000000000008B
:104D5000F0B557464E464546E0B48AB00F1C6B4648
:104D600000225A821233C0028F4C24180E21009167
:104D700001920293381C211C09220423FFF784FFAF
:104D8000002800DBFBE0002600253C22121991469A
:104D9000E8239B059A46D4E0484605A90E220AF06E
:104DA0005DFA6268920719D5EE23DB00E358984656
:104DB00005AB1888FCF75AFC011C4046FCF796F935
:104DC0007A4BE158FBF742FE099028B238180930B7
:104DD00009A904220AF0DCFD0435ADB263685B0763
:104DE00019D505AB0822985EFCF740FCFEF7E0FA07
:104DF000684B674AFDF772FCFEF72CFB5146FCF747
:104E000075F9099028B23818093009A904220AF066
:104E1000BFFD0435ADB263681B0719D505AB0A2287
:104E2000985EFCF723FCFEF7C3FA5A4B584AFDF78D
:104E300055FCFEF70FFB5146FCF758F9099028B2D4
:104E40003818093009A904220AF0A2FD0435ADB2D0
:104E50006368DB0619D505AB0C22985EFCF706FCEF
:104E6000FEF7A6FA4B4B4A4AFDF738FCFEF7F2FA7A
:104E70005146FCF73BF9099028B23818093009A9C6
:104E800004220AF085FD0435ADB263689B061AD58D
:104E900005AB0222985EFCF7E9FBFEF789FA3E4A71
:104EA0003E4BFDF71BFC3E4A3E4BFCF7ADFFFEF7C9
:104EB000D1FA099028B23818093009A904220AF059
:104EC00067FD0435ADB263685B061AD505AB0422F5
:104ED000985EFCF7CBFBFEF76BFA2F4A2F4BFDF7E2
:104EE000FDFB2F4A2F4BFCF78FFFFEF7B3FA09901B
:104EF00028B23818093009A904220AF049FD0435FE
:104F0000ADB263681B061AD505AB0622985EFCF7A6
:104F1000ADFBFEF74DFA204A204BFDF7DFFB204AA0
:104F2000204BFCF771FFFEF795FA099028B238186C
:104F3000093009A904220AF02BFD0435ADB201366F
:104F4000B6B26B46598A33B20AB2934200DA23E70B
:104F5000002D13D0131CA26BD318A363C9B2322344
:104F6000E25C6378A078451CA570A4880090019449
:104F700006200290381C05F0C5FC00E0002000B2BD
:104F80000AB01CBC90469946A246F0BDC046C04639
:104F900005A3923A019D2340182D4454FB2109405A
:104FA000000000000010A74038E6FF1F7407000053
:104FB000F0B55F4656464D464446F0B491B0049174
:104FC0006B460022DA852E33C002DD4A17180E2206
:104FD0000092012201920293081C391C082202232C
:104FE000FFF752FE002800DBBBE1002291460026BD
:104FF0000023E822920592461D1CB346C8466CE188
:10500000381C3C300CAC211C0E220AF027F9EE2390
:10501000DB00FE582088FCF729FB011C301CFCF744
:1050200065F8C84BF958FBF711FD09900823E05EBD
:10503000FCF71CFBFEF7BCF9B64BB54AFDF74EFB7F
:10504000FEF708FA5146FCF751F881460A22A05EA5
:10505000FCF70CFBFEF7ACF9AE4BAD4AFDF73EFB9F
:10506000FEF7F8F95146FCF741F805900C23E05E95
:10507000FCF7FCFAFEF79CF9A64BA54AFDF72EFBC0
:10508000FEF7E8F95146FCF731F806900222A05EDF
:10509000FCF7ECFAFEF78CF99F4AA04BFCF7B4FE44
:1050A000FEF7D8F9061C0423E05EFCF7DFFAFEF7F2
:1050B0007FF9994A994BFCF7A7FEFEF7CBF90790C9
:1050C0000622A05EFCF7D2FAFEF772F9924A934BE1
:1050D000FCF79AFEFEF7BEF908907B689B071FD588
:1050E000994BFB5C1A2B1BD109989849FCF728F9BE
:1050F0008F21C905FBF7FAFF9549FBF713FE051C45
:10510000FBF7F8FB0BA908805A4610B20830049B45
:10511000181802220AF03CFC5B4602339BB29B4605
:105120007A68520744D58B4BFC5C1D2C18D1802328
:105130001B06181C4844FEF73BF9794A794BFDF7EA
:105140005DFDFEF787F98F21C905FBF7CFFFFEF75D
:105150002FF9754A754BFCF757FEFEF77BF9051CD6
:10516000FF2C14D1301CFEF723F9714A714BFDF767
:10517000B5FA714A714BFCF725FBFEF76BF98F21ED
:10518000C905FBF7B3FF7449FBF7CCFD051C281CD0
:10519000FBF7B0FB0BA908805A4610B20830049BFD
:1051A000181802220AF0F4FB5B4602339BB29B46BE
:1051B0007A68120744D5694BFC5C1E2C18D1059BFC
:1051C000802212069818FEF7F3F8554A554BFDF762
:1051D00015FDFEF73FF98F21C905FBF787FFFEF7A5
:1051E000E7F8514A514BFCF70FFEFEF733F9051C67
:1051F000FF2C14D10798FEF7DBF84D4A4D4BFDF715
:105200006DFA4D4A4D4BFCF7DDFAFEF723F98F217D
:10521000C905FBF76BFF5049FBF784FD051C281CF3
:10522000FBF768FB0BA908805B4618B20830049AAC
:10523000101802220AF0ACFB5B4602339BB29B467D
:105240007B68DB0645D5EB23DB00FC5C1F2C18D10B
:10525000069A80231B06D018FEF7AAF8304A314B75
:10526000FDF7CCFCFEF7F6F88F21C905FBF73EFFF2
:10527000FEF79EF82C4A2D4BFCF7C6FDFEF7EAF828
:10528000051CFF2C14D10898FEF792F8284A294BE8
:10529000FDF724FA284A294BFCF794FAFEF7DAF8CE
:1052A0008F21C905FBF722FF2B49FBF73BFD051CAE
:1052B000281CFBF71FFB0BA908805A4610B20830C8
:1052C000049B181802220AF063FB5B4602339BB270
:1052D0009B46434601339BB298466B46D98D424666
:1052E00013B20AB2934200DA8AE65E46002E37D045
:1052F000C9B23223FA5C7B78B878441CBC703C7924
:105300000090019400200290049805F0D7FA28E05C
:1053100005A3923A019D2340666666666666304044
:10532000E3A59BC420E0494048E17A14AEA75CC0E5
:105330007B14AE47E17A543F0000000000000440B7
:1053400038E6FF1F74070000550700000000754293
:105350000000F5C2560700000000A04057070000FB
:10536000002000B211B03CBC90469946A246AB4624
:10537000F0BDC046C046C04610B5041C01230370F2
:10538000013021490AF08DFB201C11301F490AF021
:1053900088FB201C21301E490AF083FB00200021DD
:1053A0004223E0524423E0524623E1544723E15490
:1053B0000223A3648023E15496235B00E364154B2E
:1053C00023655823E1540022002322666366124BB2
:1053D000A366124BE3667023E1547123E1547223F8
:1053E000E1547423E0527623E0527823E052002304
:1053F000002203E0E15C8A18D2B20133872BF9D98D
:105400008023E25410BDC04628110100381101006C
:1054100030110100C0A80000C971273B6666A8C210
:1054200038B5041C0578012D08D0FFF7A5FF2278B8
:105430000348291C02F0B6F9012000E0002038BD25
:10544000441101007047C046F0B587B0B94B012246
:105450005A701B79182B00D911E29B00B64AD35819
:105460009F46B44C221C603268200021012300F0CA
:10547000F3FA23790133237101E268207E2115229A
:1054800000F06EFBAB4B1A7901321A71F7E168201C
:105490004321002200F064FBA64B1A7901321A71F5
:1054A000EDE1A44C221C603268204321012300F06E
:1054B000D3FA237901332371E1E1682042212C22C0
:1054C00000F04EFB9B4B1A7901321A71D7E1994CCF
:1054D000221C603268204221012300F0BDFA2379AA
:1054E00001332371CBE1934C221C603268201B21D5
:1054F000012300F0B1FA237901332371BFE1602366
:105500008C4AD35C5A0612D58C4D29888C4802F0FF
:1055100049F9884C221C603268201B21012300F0CD
:105520009BFA00232B80237901332371A7E16820A4
:105530001B21804A6032012300F08EFA7F4B1A88CB
:1055400001321A809BE168207E21112200F008FBC5
:10555000784B1A7901321A7191E1682041210C22AD
:1055600000F0FEFA734B1A7901321A7187E1714C1F
:10557000221C603268204121012300F06DFA23795A
:10558000013323717BE1682040212C2200F0E8FAEE
:10559000684B1A7901321A7171E1664C221C603233
:1055A00068204021012300F057FA23790133237149
:1055B00065E168207A21152200F0D2FA5D4B1A7954
:1055C00001321A715BE168207B210B2200F0C8FADE
:1055D000584B1A7901321A7151E15A4B1B681978EC
:1055E000594A117059785170997891709988D17091
:1055F000D988117119895171C020907105201856F0
:1056000003242040C0242043907106241B5F9B117B
:105610000C242340184309B20911302319400843D0
:10562000907168207121072300F058FA414B1A79D4
:1056300001321A7123E13F4C221C603268200C2198
:105640000C2300F009FA23790133237117E1394C57
:10565000211C60313D480C220AF09AF9237901336C
:1056600023710CE16846163000230380314C211C65
:10567000603102220AF08CF911232371FFE0344BD0
:105680001B78002B09D0012B09D0022B09D0032B4A
:1056900009D0042B09D0002208E0402206E01022A5
:1056A00004E0082202E0012200E07D226820692156
:1056B00000F056FA1F4B1A7901321A71DFE06820A8
:1056C0007E21032200F04CFA1A4B1A7901321A712A
:1056D000D5E0184C221C603268201B21012300F009
:1056E000BBF9237901332371C9E06023114AD35CEC
:1056F0001A0712D5114D2988164802F053F80D4C9F
:10570000221C603268207121072300F0A5F90023D4
:105710002B80237901332371B1E068201B21054AD6
:105720006032012300F098F9044B1A8801321A8084
:10573000A5E0C0465CF6FF1FD413010044F6FF1F2E
:105740003814010048F6FF1FDCF6FF1F4CF6FF1F60
:1057500058F6FF1F501401004B486023C15C6123C1
:10576000C25C6223C35C6324065D6424055D65241A
:10577000045D6627C05D009601950294039043483E
:1057800002F010F8424B1B78002B01D0042B41D1C2
:10579000404B186866233C4AD35C032213401B022B
:1057A000838080229200134202D0FC2109020B4325
:1057B0008380354A6321515C194381806623D35C21
:1057C0000C2213409B01C38080229200134202D01E
:1057D000FC2212021343C3802B4C6422A25C1A43A6
:1057E000C2806623E35C302423401B0103818024B4
:1057F000A400234202D0FC24240223430381652415
:10580000214D2C5D1C43048189B292B2A3B222487F
:1058100001F0C8FF1E4B1B78012B01D0042B08D1CF
:105820001C4B1B6860221849895C19701B4801F0E9
:10583000B9FF174B1B78022B01D0042B08D1154B55
:105840001B6861221049895C5970154801F0AAFF54
:105850000F4B1B78033B012B08D80E4B1B686222B1
:105860000949895C99700F4801F09CFF064A0023A2
:105870001371603268200021012300F0EDF800224E
:10588000014B5A7007B0F0BD5CF6FF1F64140100B5
:1058900058F6FF1F48F6FF1FA4140100C8140100AA
:1058A000E0140100F8140100F0B585B0071C01A850
:1058B00002F0F2FF174B0293002002F0E1F9021C04
:1058C000154E301C01A903F06FF8144C251C083547
:1058D000281C002128220AF064F8301C291C104AD8
:1058E000002303F06DFA0F4AC2239B00D0580E49E3
:1058F00001408020C0010143D1500C4B1F600023A8
:10590000E370237023716370A370FFF79DFD05B0F2
:10591000F0BDC046801A0600007006405CF6FF1F0E
:10592000ED5B000000E100E0FF00FFFF48F6FF1F15
:10593000F0B54F464646C0B483B00122374B9A704B
:10594000374802F08FFF374B98683749084080226C
:10595000520010439860586801400A435A6001A8F9
:10596000324902220AF014F8314C201C022101AA0B
:1059700002F00AFF201C012101AA02F005FF2D48B8
:1059800001F010FF04236360022363602A4801F0E2
:1059900009FF2A4801F006FF0025274B9946284BAE
:1059A00098460CE00427676002266660484601F0CE
:1059B000F9FE6760A660404601F0F4FE0135092D4E
:1059C000F0DD204801F0EEFE194C0426A660022509
:1059D000A5601D4801F0E6FEA66065601B4801F069
:1059E000E1FE66606560144801F0DCFE184801F0D5
:1059F000D9FE0C4B98680C49084080229200104355
:105A00009860586801400A435A60124B1868FFF7C3
:105A10004BFF03B00CBC90469946F0BD5CF6FF1FEF
:105A20000070064000B00440FFF8FFFF080E0100C0
:105A300080F00F40101501003015010040150100E5
:105A4000601501007015010094150100A4150100F6
:105A5000B415010048F6FF1F38B51C4CA478002C83
:105A600032D11A4C34256055012035256055A1638B
:105A70003C2160542264636400232363201C48306B
:105A8000251C3035291C182209F082FF211C083101
:105A90000F482A1C03F0D0F9041E05D10B4B01223C
:105AA0001A700022DA700DE0084DEA780132D2B2A5
:105AB000EA700848211C01F075FEEB78142B01D91F
:105AC000FFF736FF201C00E0034838BD5CF6FF1FDF
:105AD00000700640D41501004C04000038B51C4C81
:105AE0002478002C32D11A4C3425605500203525FD
:105AF0006055A16301253C216554226463642063E1
:105B0000201C4830251C3035291C182209F040FF84
:105B1000211C08310F482A1C03F08EF9041E05D100
:105B20000B4B01221A700022DA700DE0084DEA7862
:105B30000132D2B2EA700848211C01F033FEEB7842
:105B4000142B01D9FFF7F4FE201C00E0034838BDF8
:105B50005CF6FF1F00700640F81501004C040000C1
:105B600038B51D4B1B78002B34D11C4D2A701A4CB4
:105B70003423E05400233522A354A16301223C21A5
:105B80006254256462642363201C4830251C303530
:105B9000291C182209F0FCFE211C083110482A1C7F
:105BA00003F04AF9041E05D10B4B01221A700022A2
:105BB000DA700DE0084DEA780132D2B2EA70094895
:105BC000211C01F0EFFDEB78142B01D9FFF7B0FE9B
:105BD000201C00E0044838BD5CF6FF1FE4F6FF1F00
:105BE00000700640F81501004C040000F8B5002ACA
:105BF00006D01548111C01F0D5FDFFF799FE21E0F4
:105C00004D23124AD35C002B17D1131C4C22995CF4
:105C10001A6D0F4801F0C6FD00240C4D2F1C0D4ECF
:105C200005E0BB6D195D301C01F0BCFD0134EB6D6E
:105C30009C42F6D3084801F0B5FD0022034B1A70D0
:105C4000FFF702FCF8BDC0461C1601005CF6FF1F02
:105C50004016010060160100201A010008B5044B2F
:105C600018701422034B1A71FFF7EEFB08BDC046F3
:105C700058F6FF1F5CF6FF1F08B5084B1B79122B67
:105C80000AD1064A11231371603268200C210C23BB
:105C9000FFF7E2FE012000E0002008BD5CF6FF1FD8
:105CA00008B5064B1B79122B05D105490C2209F0CA
:105CB0006FFE012000E0002008BDC0465CF6FF1F1B
:105CC0004CF6FF1F034B1879123843425841C0B2BB
:105CD0007047C0465CF6FF1FEFF3108372B6036097
:105CE00072B6704780F310887047C046012803D809
:105CF000024B0B60002000E006207047D016010028
:105D000070B50F250D40CC0900281ED04668002E26
:105D100019D06D0025436C006419A4000419247D7A
:105D2000002C14D16C006519AD00451901242C75A7
:105D30004CB2002C03DAB4680068A04708E0F468AD
:105D40000068A04704E0062002E0032000E00220F3
:105D500070BDC04608B5002808D04368002B03D0AA
:105D60005B690068984702E0062000E0032008BD58
:105D700038B5051C01226F23C2540E210022FFF703
:105D8000E9FF02226E23EA5400226C23EA54002326
:105D9000002107E05A00D2189200AA18D1601161C0
:105DA00011750133072BF5D9281C01210022AB689E
:105DB000984700226F23EA54002038BD70B582B0A6
:105DC000051C0E1C01A8FFF787FF002314E0DA0072
:105DD000D21A12011A495258002A0CD0DA00D21AEB
