:1000000000600020E90400009DCA00006DCA0000E5
:1000100000000000000000000000000000000000E0
:10002000000000000000000000000000CDCA000039
:100030000000000000000000FDCA000021B7000021
:100040006105000065050000690500006D05000000
:100050004905000049050000490500004905000068
:100060007105000075050000790500007D050000A0
:100070008105000019CC0000890500004905000039
:10008000490500004905000049050000C1DE0000E7
:100090004905000049050000E1B600008D0500009B
:1000A0000DC6000049050000490500004905000093
:1000B000490500004905000049050000A5B60000FB
:1003C0006B636667FFFFFFFFFFFFFFFFFFFFFFFF9E
:1003D000F0FFFFFFF708120008260100FFFFFF00F3
:1003E000FFFFFFFFFFFFFFFF00FFFFFFFFFFFFFF1C
:1003F000FFFFFFFF00000000000000000000000001
:10040000FFFFFFFFFFFFFFFFFFFFFFFFFE31FFFFCB
:1004100010B5064C2378002B07D1054B002B02D0DA
:10042000044800E000BF0123237010BD00E2FF1F5D
:10043000000000005043010008B5084B002B03D01A
:100440000748084900E000BF07480368002B03D0B5
:10045000064B002B00D0984708BDC04600000000A6
:100460005043010004E2FF1FE8E1FF1F000000000D
:10047000164B002B00D1144B9D46402292029A1A33
:10048000924600218B460F461348144A121A0FF069
:10049000CCF90F4B002B00D098470E4B002B00D00F
:1004A00098470020002104000D000D48002802D0CC
:1004B0000C4800E000BF0FF089F9200029000CF083
:1004C00019FA0FF06DF9C046000008000060002026
:1004D000000000000000000000E2FF1F501100209B
:1004E000000000000000000072B60E480E490160D6
:1004F0000A6882F308880D4880470D490D4A0E4B63
:100500009B1A03DD043BC858D050FBDC0B490C4A56
:10051000521A03DD00208850043AFCDA62B609481A
:100520008047000008ED00E000000000699C00002A
:100530007843010000E0FF1FECE1FF1F00E2FF1F16
:100540005011002071040000114800471148004775
:10055000114800471148004711480047114800471B
:10056000114800471148004711480047114800470B
:1005700011480047114800471148004711480047FB
:1005800011480047114800471148004711480047EB
:100590002DCB00009DCA00006DCA0000CDCA00002E
:1005A000FDCA000021B70000897F0000997F00008C
:1005B000A97F0000B97F0000518C0000698C000009
:1005C0005D940000959400006D90000089900000FB
:1005D0003985000035910000002934D00123002224
:1005E00010B488422CD301242407A14204D28142B2
:1005F00002D209011B01F8E7E400A14204D28142C2
:1006000002D249005B00F8E7884201D3401A1A433E
:100610004C08A04202D3001B5C0822438C08A04275
:1006200002D3001B9C082243CC08A04202D3001B2B
:10063000DC082243002803D01B0901D00909E3E7A5
:10064000101C10BC7047002801D00020C04307B424
:10065000024802A14018029003BDC046D900000024
:100660000029F0D003B5FFF7B9FF0EBC4243891A49
:100670001847C046002941D010B4041C4C40A44681
:1006800001230022002900D54942002800D540421C
:1006900088422CD301242407A14204D2814202D2F1
:1006A00009011B01F8E7E400A14204D2814202D211
:1006B00049005B00F8E7884201D3401A1A434C080E
:1006C000A04202D3001B5C0822438C08A04202D344
:1006D000001B9C082243CC08A04202D3001BDC086C
:1006E0002243002803D01B0901D00909E3E7101CAD
:1006F0006446002C00D5404210BC7047002806D04C
:1007000003DB0020C043400801E08020000607B45E
:10071000024802A14018029003BDC0461900000023
:100720000029EBD003B5FFF7A7FF0EBC4243891A9F
:100730001847C0467047C0468446101C62468C4627
:10074000191C634600E0C0461FB501F049FF0028B0
:1007500001D40021C8421FBD10B501F079FE40420E
:10076000013010BD10B501F03BFF002801DB002077
:1007700010BD012010BDC04610B501F031FF0028AA
:1007800001DD002010BD012010BDC04610B501F0F4
:10079000A9FE002801DC002010BD012010BDC046CC
:1007A00010B501F09FFE002801DA002010BD0120E5
:1007B00010BDC0468446081C6146FFE71FB500F027
:1007C00049FC002801D40021C8421FBD10B500F02B
:1007D000CFFB4042013010BD10B500F03BFC0028BB
:1007E00001DB002010BD012010BDC04610B500F097
:1007F00031FC002801DD002010BD012010BDC046E5
:1008000010B500F0DFFB002801DC002010BD012046
:1008100010BDC04610B500F0D5FB002801DA00205D
:1008200010BD012010BDC046002B15D1002A13D1E8
:10083000002900D1002807D003DB0020C043410875
:1008400002E080210906002007B4024801A14018F7
:10085000029003BDE1FEFFFF03B4684601B50298B4
:1008600000F0BEF8019B9E4602B00CBC7047C0462B
:10087000002B11D1002A0FD1002900D1002802D06D
:100880000021C943081C07B4024802A14018029085
:1008900003BDC046A1FEFFFF03B4684601B5029840
:1008A00000F0BAF8019B9E4602B00CBC7047C046EF
:1008B0009C460304F0B51B0C17043F0C150C1E1CC2
:1008C000041C000C7E436B4347434543FB18300C2C
:1008D0001818874202D980235B02ED18030CED182B
:1008E00063465C434A433604360CA1180004801961
:1008F0004919F0BD9E2110B5C905041CFFF78AFFF8
:10090000002803D1201C00F091FE10BD9E21C905D6
:10091000201C00F015FD00F089FE80231B06C01886
:10092000F3E7C0460000000038B50E4B0C4A051C2A
:100930000C1CFFF717FF002804D1281C211C00F015
:1009400013F838BD80231B06E118281C00F00CF8B2
:10095000021C0B1C002150429941F2E7C046C046E0
:10096000000000000000000070B50E4B0C4A0D1C8A
:10097000041C01F0B3FE02F017FE061C02F0E4FCBA
:10098000094A0A4B01F0AAFE021C0B1C201C291C60
:1009900002F034F902F008FE311C70BDC046C046BA
:1009A000000000000000F03D000000000000F041E9
:1009B00070B5061C081C02F089FC084B064A01F0C1
:1009C0008DFE0D1C041C301C02F0BEFC2B1C221CD6
:1009D00000F0F8FE70BDC046000000000000F041CD
:1009E000F0B583B0161C1F1C0090019102F0FCFDB5
:1009F000041C0D1C221C2B1C301C391CFFF758FF3B
:100A0000009A019B121A8B410899201C0A604B60C6
:100A1000291C03B0F0BDC046F0B583B0141C1D1CEA
:100A20000090019102F0BCFF221C2B1C061C0F1C25
:100A3000FFF73EFF009A019B121A8B410899301C68
:100A40000A604B60391C03B0F0BDC046F8B54302E4
:100A50004400C50F4E024800240E2A1C9B09000EBC
:100A6000C90FB6098D425BD0221A002A00DC89E04A
:100A700000281DD1002E00D075E0580704D00F22A9
:100A80001A40042A00D004338021C90419402A1CCA
:100A900000293AD00134FF2C00D17FE09B015B0A92
:100AA0005B02E4B2E405580AD20720431043F8BDC4
:100AB000FF2CE2D08021C9040E431B2A00DD2DE16A
:100AC000311C2020D140821A9640721E96410E435E
:100AD0009B1B5801D1D59B019F09381C02F046FD94
:100AE000421F974094425BDC141B1F231B1B3A1CC4
:100AF0009F40611C3B1CCA405F1EBB411343002446
:100B0000BBE7131EB9D100230022DB08FF2C04D160
:100B1000002B43D08020C00303435B025B0ABFE786
:100B2000211A002940DD002823D0FF2CA5D08020E9
:100B3000C00406431B2900DDEEE0301C2027C8401E
:100B4000791A8E40711E8E4106439B19590100D4BB
:100B500093E70134FF2C55D0714901221A400B4014
:100B60005B08134389E7013A002AB1D0FF2CA4D1D6
:100B700083E7002E00D180E701390029E5D0FF2C62
:100B8000D8D17AE7002A1BD1621CD2B2012A4BDDF0
:100B90009F1B7A0123D5F71A0D1C9EE700237FE7E0
:100BA0005F4BA41A3B4068E7002946D1611CC8B2DC
:100BB000012829DDFF2924D0F3185B080C1C5CE711
:100BC000002C13D0FF2818D08024E4045242234381
:100BD0001B2A4DDD0123F31A041C0D1C79E7002F9D
:100BE00000D07AE70023002200248EE7002B3BD0C0
:100BF000D243002AEFD0FF28EAD1331CFF240D1C7A
:100C00003BE7FF24002380E7002C5CD1002B00D1C0
:100C100080E0002E00D130E79B19580100D42CE76A
:100C20003F4A0124134028E7002C15D1002B40D166
:100C3000002E63D0331C0D1C1FE7002C21D1002B8C
:100C400054D0C943002904D0FF284CD01B2958DDBB
:100C500001239B19041C79E7002B19D1002E48D0E1
:100C6000331C0D1CFF2408E7331C041C0D1C04E777
:100C70001C1C2025D440AA1A93405A1E934123439A
:100C8000A9E7FF282FD08024E40449422343DDE76D
:100C9000FF24002E00D1F0E68022DB08D2031342AD
:100CA00004D0F608164201D1331C0D1CDB00FF24D2
:100CB000E3E6002E00D1E0E69A1B500100D420E7C5
:100CC000F31A0D1CD9E6002B0DD0FF24002E00D105
:100CD000D3E68022DB08D2031342E7D0F60816429F
:100CE000E4D1331CE2E7331CFF24C6E6331C041CAA
:100CF000C3E6802300229B04FF2406E7231C002276
:100D000003E71C1C2027CC40791A8B40591E8B41CD
:100D100023439EE7331CB0E6012616E70126D7E6FB
:100D2000FFFFFFFBF0B55F4656464D464446F0B424
:100D300046024500C00F85B00F1C760A2D0E804676
:100D400041D0FF2D26D08024240400212643F60024
:100D50007F3D89468B46F90F7C027800640A000EBD
:100D600000918A463CD0FF2834D080231B041C43CA
:100D70000023E4007F380193009F4346019A7B40A3
:100D800049469C4611430F2900D971E0764F8900EE
:100D90007F58BF46002E3ED10822022391469B4633
:100DA000D9E75A46341CC24601920199022937D02C
:100DB000032900D1CFE0012900D0ABE053460B401E
:100DC0000022002632E0002E19D10421012289469A
:100DD0009346C0E7221C531E9A4102320192CBE790
:100DE00001270197002CC7D0201C02F0BFFB431F36
:100DF0009C4076235B420021181A0191BCE7301C0D
:100E000002F0B4FB7625431F9E406D4200232D1A4D
:100E100099469B469FE70C23032199468B469AE708
:100E2000D446012367463B40FF2200267602D205C6
:100E3000700ADB071043184305B03CBC9046994646
:100E4000A246AB46F0BD80260023F603FF22EDE765
:100E500000220026EAE78020C00306423BD004427D
:100E600039D1061C26437602760A009BFF22DDE775
:100E7000281A039076016401A64239D3361B1A2240
:100E800001230120311C5B007600002901DBB44204
:100E900001D8361B0343013A002AF3DC741EA64135
:100EA000341C1C43039A7F32002A27DD630704D0D9
:100EB0000F232340042B00D00434270103D52B4BF0
:100EC000039A1C408032FE2A0BDD012361460B4051
:100ED000FF220026AAE706437602760A4346FF224F
:100EE000A4E7A40101236746660AD2B23B409DE70E
:100EF000039F1B22013F03970023C2E77E23039F2A
:100F00005B42DB1B1B2B07DD012361460B400022EC
:100F100000268BE7D446C5E7221CDA40039B9E33AC
:100F20009C40231C5C1EA34113435A0704D00F228C
:100F30001A40042A00D004335F0105D5012361461D
:100F40000B400122002671E79E01624601231340F7
:100F5000760A00226AE78026F60326437602760A9E
:100F60005346FF2262E7C046980C0100FFFFFFF7DF
:100F70004A02430270B55C0A550A43004A001B0E40
:100F8000C60F120EC90FFF2B05D0FF2A08D0012073
:100F900093420BD070BD0120002CFBD1FF2AF6D16B
:100FA0000120002DF6D101209342F3D1AC42F1D1C2
:100FB0008E4205D0002BEDD1201C441EA041E9E754
:100FC0000020E7E74A024302F0B55C0A550A4300F5
:100FD0004A001B0EC60F120EC90FFF2B31D0FF2A7D
:100FE00034D0002B16D1604260418446002A14D0D0
:100FF000002820D18E4217D1934215DC04DBAC428D
:1010000012D80020AC4212D27042704140420123FB
:1010100018430CE0002AEDD194466F426F416046C0
:10102000002805D1002FE5D0704201231843F0BD00
:101030000020002FFBD14842484140420123184381
:10104000F5E7002CCBD002204042F0E7002DC8D0BD
:10105000F9E7C0464A024302F0B55C0A550A43006C
:101060004A001B0EC60F120EC90FFF2B27D0FF2AF6
:1010700029D0002B10D0002A15D194466F426F4121
:101080006046002815D00020002F04D14842484176
:10109000404201231843F0BD604260418446002A6B
:1010A000ECD00028F2D18E4211D0704201231843B7
:1010B000F1E7002FF7D0704201231843EBE702203D
:1010C000002CE8D1D3E70220002DE4D1D1E79342F0
:1010D000EBDC04DBAC42E8D80020AC42DBD270424F
:1010E0007041404201231843D5E7C046F0B55F4642
:1010F00056464D464446F0B44402460083B00F1CA9
:10110000640A360EC50F002E41D0FF2E22D0802358
:101110001B0400201C43E4007F3E82468046391CAD
:101120004B007F02C90F7F0A1B0E8B463BD0FF2B63
:1011300034D0802212041743FF007F3B00215A461F
:101140006A40019252460A430F2A63D87A489200B5
:1011500082589746002C3FD1082202239246984697
:10116000DDE70195404602282AD1019A0125154064
:10117000FF2300246402DB05600AED0718432843BF
:1011800003B03CBC90469946A246AB46F0BD002C4D
:1011900027D10420012282469046C0E7391C4A1E0E
:1011A00091410231CBE70121002FC8D0381C02F059
:1011B000DDF9431F9F4076235B421B1A0021BEE7E7
:1011C000032800D1AEE001284FD1019842461040DB
:1011D000C5B200230024CDE70C2303209A468046A5
:1011E0009DE7201C02F0C2F97626431F9C40764200
:1011F0000023361A9A46984691E780240025E40396
:10120000FF23B7E75B463C1C01938846AAE73C1CDA
:101210008846A7E7250C24043A0C240C3F04F61852
:101220003F0C211C231C794353436F435543FB1848
:101230000A0C9B18B1469F4202D980225202AD1877
:1012400009041A04090C521894011B0C611E8C41EC
:10125000920EED181443AD012C43230105D5012254
:1012600063080120144081441C434B467F33002B0C
:101270002DDD600704D00F222240042A00D0043460
:10128000220103D52D4B1C404B468033FE2B17DD2E
:10129000019B01251D400024FF236BE78020C00334
:1012A000044208D0074206D1041C3C436402640A8D
:1012B0005D46FF235EE704436402640AFF2359E7A7
:1012C0000198A4010125640ADBB2054052E77E23A0
:1012D0005B424A469B1A1B2B05DD019B01251D40E5
:1012E0000024002346E7221CDA404B469E339C40F4
:1012F000231C5C1EA3411343580704D00F221A403D
:10130000042A00D004335A0105D5019B01251D4054
:10131000002401232EE701989C010125640A054061
:10132000002327E78027FF03019B3C43640201253C
:101330001D40640AFF231DE7D80C0100FFFFFFF7E3
:10134000F8B5C20F430244004D024800240E161C9B
:101350009B09000EC90FAD09FF2800D183E00127CA
:1013600079408A425CD0221A002A00DC8EE00028F4
:101370001ED1002D00D07AE0580704D00F221A4069
:10138000042A00D004338021C904012219403240CC
:1013900000293AD00134FF2C00D183E09B015B0A85
:1013A0005B02E4B2E405580AD20720431043F8BDBB
:1013B000FF2CE1D08021C9040D431B2A00DD31E15F
:1013C000291C2020D140821A95406A1E95410D4368
:1013D0005B1B5801D0D59B019F09381C02F0C6F851
:1013E000421F974094425FDC141B1F231B1B3A1CB7
:1013F0009F40611C3B1CCA405F1EBB41134300243D
:10140000BAE7131EB8D100230022DB08FF2C04D159
:10141000002B47D08020C00303435B025B0ABFE779
:10142000211A002944DD002827D0FF2CA4D08020D9
:10143000C00405431B2900DDF2E0281C2027C8401A
:10144000791A8D40691E8D4105435B19590100D4FD
:1014500092E70134FF2C59D0734901221A400B4006
:101460005B08134388E7002D00D07AE777E7013A5D
:10147000002AADD0FF2CA0D17EE7002D00D17BE764
:1014800001390029E1D0FF2CD4D175E7002A1BD106
:10149000621CD2B2012A4BDD5F1B7A0123D5EF1A01
:1014A0000E1C9AE700237BE75F4BA41A3B4063E7DF
:1014B000002946D1611CC8B2012829DDFF2924D0AA
:1014C000EB185B080C1C57E7002C13D0FF2818D032
:1014D0008024E404524223431B2A4DDD0123EB1AEE
:1014E000041C0E1C75E7002F00D076E700230022B5
:1014F00000248AE7002B3BD0D243002AEFD0FF28FC
:10150000EAD12B1CFF240E1C36E7FF2400237CE7C6
:10151000002C5CD1002B00D180E0002D00D12BE706
:101520005B19580100D427E73F4A0124134023E701
:10153000002C15D1002B40D1002D63D02B1C0E1C8C
:101540001AE7002C21D1002B54D0C943002904D024
:10155000FF284CD01B2958DD01235B19041C75E7BB
:10156000002B19D1002D48D02B1C0E1CFF2403E7A3
:101570002B1C041C0E1CFFE61C1C2026D440B21A97
:1015800093405A1E93412343A9E7FF282FD080247C
:10159000E40449422343DDE7FF24002D00D1EBE6BC
:1015A0008022DB08D203134204D0ED08154201D19A
:1015B0002B1C0E1CDB00FF24DEE6002D00D1DBE639
:1015C0005A1B500100D41CE7EB1A0E1CD4E6002B6A
:1015D0000DD0FF24002D00D1CEE68022DB08D203FF
:1015E0001342E7D0ED081542E4D12B1CE2E72B1C97
:1015F000FF24C1E62B1C041CBEE6802300229B04B2
:10160000FF2402E7231C0022FFE61C1C2027CC40FD
:10161000791A8B40591E8B4123439EE72B1CABE666
:10162000012512E70125D3E6FFFFFFFB4302590A1C
:101630004300C20F1B0E00207E2B0DDD9D2B0CDC0A
:10164000802000040143952B0ADC9620C31AD94060
:101650004842002A00D1081C7047034BD018FBE712
:10166000963B9940F4E7C046FFFFFF7F70B5041E2C
:101670003CD0C60F00D04442201C01F077FF9E23CF
:10168000251C1B1A962B0CDC083884406402640A63
:10169000DBB2321C6402DB05600AD2071843104338
:1016A00070BD992B0ADD0522121A211CD1400A1C9B
:1016B000011C1B318D40691E8D411543052801DD3C
:1016C000421F9540164C2C406A0704D00F2215404B
:1016D000042D00D0043461010CD59F23181AFF2873
:1016E0001AD0A401640AC3B2321CD3E7002200233B
:1016F0000024CFE7E408FF2B04D06402640ADBB2C5
:10170000321CC7E7002C04D08020C00304436402CD
:10171000640A321CFF23BDE7321CFF230024B9E713
:10172000FFFFFFFB10B5041E33D001F01FFF9E2307
:101730001B1A962B09DC083884406402640ADBB269
:101740006402DB05600A184310BD992B0ADD0522EF
:10175000121A211CD1400A1C011C1B318C40611E35
:101760008C411443052801DD421F9440144A224055
:10177000610704D00F210C40042C00D00432510129
:101780000AD59F23181AFF2816D09401640AC3B201
:10179000D6E700230024D3E7D208FF2B03D054025E
:1017A000640ADBB2CCE7002A06D08024E4031443A9
:1017B0006402640AFF23C3E7FF230024C0E7C04696
:1017C000FFFFFFFBF8B55F46564644464D46F0B472
:1017D0000C034D00CE0F610A440F2143C4001803CF
:1017E00080465800400D8246D80F84464046400A45
:1017F000530F0343D0006D0D371C83465246664598
:1018000000D1A4E0AF1A002F00DC09E1002A3BD18F
:10181000184300D0EAE0630700D187E00F2323409C
:10182000042B00D182E0221DA242A4416442802305
:1018300009191B040B40371C141C002B00D17CE041
:10184000CE4B01359D4200D105E1CD4BE408194056
:101850004807490204430B0B002000211B031A0B0D
:101860000B0D6D051B0513436A08C64DFF071D4090
:1018700015436D006D08291C3943201C3CBC904663
:101880009946A246AB46F8BDBC488542C3D08020ED
:1018900000040343382F00DDF0E01F2F00DD24E1BA
:1018A0002020C01B1A1C814682405846F840024343
:1018B000944658464A469040421E9041FB4062463C
:1018C00002431F1CA21A9442A4416442C91B091B73
:1018D000141C0B029FD549024F0A002F00D1C8E00B
:1018E000381C01F043FE021C083A1F2A00DDB5E057
:1018F0002821091A201C9740C8400743944095426C
:1019000000DDB2E0551B691C1F2900DDDCE01F2251
:10191000551B3B1C221CAB40CA40AC40651EAC4171
:101920001343CF401C43391C002574E780231B045C
:101930000B40371C002B00D082E7904B4807E4088F
:101940000443C9089D4248D009030B0B84E7AA1A37
:101950009446002A00DC98E05046002852D0874880
:10196000854200D157E78020000403436246382AAD
:1019700000DDFCE01F2A00DD4AE120226046101A4B
:101980001A1C82408246914658466246D0404A46DA
:1019900002439046584652469040421E904142466D
:1019A00002436046C3401219A242A441644259183E
:1019B0000919141C080200D42DE7704B01359D4213
:1019C00000D122E16E4B60081940012323401C1C0A
:1019D0000443CB071C4349081DE7231C0B433AD0A3
:1019E00080231B030B431B031B0B35E7013F002F19
:1019F00065D15846221A9442A4416442C91A091B6F
:101A0000141C66E75846184300D104E701225242ED
:101A100094446046002800D0C5E058460219C3E748
:101A2000002F73D1681C4005400D012800DCDEE06A
:101A30005A46A21A9442BF41C81A7F42C71B3802B5
:101A400000D489E05A46141BA3459241591A5242C8
:101A50008F1A664641E700230024FDE6271C28383C
:101A600087400024954200DC4CE74549AD1A3940D7
:101A7000D1E6201C01F07AFD203034E75A461A43A3
:101A8000531E9A41D2B200271CE7002A00D0DCE0A6
:101A9000681C4205520D012A00DC8DE0374DA8423A
:101AA00000D1F3E05D462A19A242A44164425918CC
:101AB0000919CC07520814434908051CABE62F4806
:101AC000854200D0E6E6A6E62B1C1F3B3A1CDA4016
:101AD000131C20296CD03F22551BAF403C43601E95
:101AE00084411C430021002595E6381C20381A1C2F
:101AF000C240101C202F5DD04022D71BBB405A464D
:101B00001A43531E9A4102430027DBE6002D3BD0C7
:101B10001A4DAA4500D193E080252D047F42294328
:101B2000382F00DDACE01F2F00DD29E12025ED1B63
:101B3000081C261CA840FE40AC400643651EAC4174
:101B40003443F9405D462C1BA34592415B1A524237
:101B5000991A55466646BCE6131C3B43141C002BE1
:101B600000D0BAE60027002100250024E5E65A4609
:101B70001A43531E9A41D2B2002314E7FF07000014
:101B8000FFFF7FFFFFFF0F800D1C254358D0FF4351
:101B9000002F51D1041BA3459241591A5242891A70
:101BA0005546664695E69648854200D0DEE632E622
:101BB000002793E70023A2E7081C2043002D00D054
:101BC000C4E0002800D1F7E05846184300D122E6CF
:101BD00058460219A242A441644259180919141C1A
:101BE0000A0200D417E6874B0125194013E6081CAA
:101BF0002043002D39D1002871D15946194303D013
:101C0000191C5C46664606E600270021002494E67F
:101C1000604620381A1CC24060469146202800D1F8
:101C2000ACE04022121A93405A461A43531E9A417E
:101C30004B461A430023B6E6714DAA4500D06FE724
:101C4000191C5C4655466646E5E5002D22D10D1C63
:101C5000254377D0D543002D71D15C445C4592413A
:101C60005918524289185546A4E600284DD15946C4
:101C7000194300D194E0191C5C466646604DCAE5E4
:101C80000C43611E8C41E4B200215BE7051C00217E
:101C9000002452E65A4DAA4554D0554280221004E1
:101CA0000143382D00DD81E01F2D00DD92E0202270
:101CB000501B0A1C84468240201CE8400243904688
:101CC00062469440601E844142461443E9405C44AD
:101CD0005C459241CB185242991855466AE65846DF
:101CE000184300D197E55846271ABC429241C81ABA
:101CF0005242801A020266D55846041BA3459241FF
:101D0000591A5242891A664685E55846184333D017
:101D10004807E40804438020C9080003014208D0B2
:101D2000DD08054205D15946CA085C071443291C41
:101D30006646630FC9001943E400314D6BE5304A34
:101D40009245AED1191C5C46554664E5002836D054
:101D50005846184310D080254807E408C9082D03C9
:101D600004432942E5D0D8082842E2D15D46EA087A
:101D70005C071443011CDCE7214D4CE5002353E7CD
:101D80003D1C203D0A1CEA40151C202F34D0402663
:101D9000F71BB9400C43611E8C412C430021D1E656
:101DA00080210027C903164D0024C6E50C43611E9F
:101DB0008C41E4B200218AE7191C5C462BE5191C12
:101DC0005C460F4D27E5031C3B4300D11CE7011C7B
:101DD0003C1C20E52020404240190A1CC24090468D
:101DE000202D0BD04020451BA9400C43611E8C4187
:101DF00045462C4300216AE70021CBE70021F4E7A8
:101E0000FF070000FFFF7FFFF0B5564644465F46E0
:101E10004D46F0B41F1C0B031B0B98464B0087B0BC
:101E2000041C81465B0DC80F161C9A460090002BBF
:101E300051D06A4B9A4531D08022414652030A4321
:101E4000630FD2001A43664B90460025E20091468C
:101E50009A44002402953B031B0B9B46FD0F7B001D
:101E6000311C5B0D019560D05C4A934254D08021B7
:101E7000584649030143720FC9001143584A8B4623
:101E80009B18F1000020009A04436A4003920F2C33
:101E900000D9ADE0534EA4003459A7464046044350
:101EA0006ED1002102250824884689460295D2E792
:101EB000009C0298C34649460194022864D0032836
:101EC00000D1ABE2012800D038E2019A00240240A0
:101ED0000025A14660E0434623434AD040460028FF
:101EE00000D1C0E101F042FB031E272B00DDB3E16E
:101EF00028210D1A211C083B4246E9409A400D1C3E
:101F00001543221C9A40A8469146374B00251B1AC0
:101F10009A46002402959EE75A4616430320002E57
:101F2000B1D1B34600210220ADE75A4632431BD05F
:101F30005B46002B00D18AE1584601F017FB2728A9
:101F400000DD7DE12822171A011C321C08395B468E
:101F5000FA408B40171C1F43331C8B40BB46191C97
:101F6000214B1B1A00208EE70027BB4600210120D1
:101F700089E70020012504248046814602956AE70E
:101F800003250C24029566E7019C0394039D01221E
:101F90002A400024114DA146002000212403260BD5
:101FA0000C0D2405114B34432D0523402B435B00BE
:101FB0005B08D207191C4846114307B03CBC904649
:101FC0009946A246AB46F0BD0022802424039146E8
:101FD000024DE1E700240025A146DDE7FF070000F0
:101FE00001FCFFFF180D01000DFCFFFFFFFF0F803C
:101FF0005546ED1A0495D84500D953E100D14EE17C
:10200000049C0025013C4E4604944746A946584688
:1020100003020C0E1C430902250C23041B0C009127
:10202000381C291C0193FEF7D7FA019983464143D6
:10203000381C8A46291CFEF713FB330C090419438C
:102040008A450CD95B460919013B8C4200D947E10E
:102050008A4500D844E1022252429344091953466A
:10206000CB1A181C291C9846FEF7B6FA071C0198D3
:10207000291C784382464046FEF7F2FA36040B04E8
:10208000360C33439A4509D91B197A1E9C4200D954
:1020900024E19A4500D821E1023F1B195E46320433
:1020A0001743380CBB46009E009F51463F0C32043C
:1020B0005B1A5946BA46120C0F043F0C9046514623
:1020C0007A434F434146414356467043CF19160C5D
:1020D000BE19B14202D980277F02C019310C120407
:1020E0003604120C4018B618834200D2C4E000D166
:1020F000BEE0191A4846861BB145BF417F42CF1B3F
:10210000A74200D113E1291C381CFEF765FA01999A
:1021100002904143381C8946291CFEF7A1FA330C72
:102120000904194389450CD9029B0919013B8C42CA
:1021300000D9FFE0894500D8FCE0029F0919023F61
:1021400002974F46CF1B381C291C0597FEF744FA0F
:10215000071C0198291C784381460598FEF780FAF0
:1021600036040904360C0E43B14509D936197B1ED5
:10217000B44200D9E0E0B14500D8DDE0023F3619B5
:10218000029D4946761A290439430B0457460A0C26
:102190001B0C40464546584355437B437A43EB1856
:1021A000070CDB199D4202D980256D0252191D0CC6
:1021B00000041B04000C52191B18964235D300D1A1
:1021C000FCE001231943049E994FF519002D00DC12
:1021D000A1E0480709D00F230B40042B05D00B1DAD
:1021E0008B42894149428B44191C5A46D20107D57A
:1021F000904B5C46049E80271C40FF00A346F519C7
:102200008D4B9D427ADD039C0122224000248B4DA0
:10221000A146C1E680242403474627424CD13C43D3
:102220002403240B009A854DB6E63619481EB442A5
:102230005ED9011C9642C4D1009E9E42C1D1C2E724
:10224000031C283B311C99408B46002188E6301C3A
:1022500001F08CF9203072E6283B211C99400022C5
:102260008846914651E6201C01F080F920303BE67B
:102270000021B14500D33DE7009F5A46B944B94516
:10228000BF417F423F19FB18013A9C421ED298423F
:1022900000D97EE000D1B5E0191A93462AE78945B6
:1022A00000D8ADE64846464642467708D30746087A
:1022B000C0071E438146AAE65846204212D1044375
:1022C00024032A1C240B89465C4D65E6A342E3D116
:1022D000009F4F45DBD9211A93460BE7171CDDE61B
:1022E0009B46BCE63C432403240B009A534D53E623
:1022F000B24259D800D18AE0011C62E75F46C908A2
:102300007B07039E0B437C026D0501229946240B3B
:102310006D0D324040E64A4B049FDB1B382B10DD2D
:10232000039C0122224000240025A14634E601211D
:10233000494248E7029304E71F1C21E7019C0394EC
:1023400041E71F2B40DC3F48049F0C1C3A185846BD
:102350009140DC40904020430A1C511E8A41011CE0
:1023600011435A46DA40131C480709D00F220A408D
:10237000042A05D00A1D8A42894149425B18111C72
:102380001A0234D5039C0122224000240125A146D3
:1023900002E6009F02214942B9448B44B945894174
:1023A00049420919CB18A4E6009D881E6900A9427C
:1023B000AD416D422C19361900913AE7002B00D03F
:1023C00033E70024009437E71F4A049C5D46121B44
:1023D000D5402A1C202B1FD01C4E5F46A3199F40BE
:1023E0003B1C19434B1E994111430023BCE75A077C
:1023F000C9080A43039F91465B0201221C0B3A4025
:102400000025C9E54E45C4D89346002172E6009FD9
:102410009F42C9D3011C0FE70023E2E78024240375
:102420005F463C432403240B019A8946034DB3E5E0
:10243000FF030000FFFFFFFEFE070000FF07000094
:1024400002FCFFFF1E040000E2FBFFFF3E04000051
:10245000F0B55F4656464D464446F0B40D1C041C8C
:102460008046E80F814618030F03000B3F0B83B033
:1024700084461B48009749005E00DF0F490D9246D5
:10248000760DBB4681420CD01548864210D0012003
:10249000B14215D003B03CBC90469946A246AB462B
:1024A000F0BD009F01202743F4D10D488642EED1B4
:1024B000604602430120002AECD10120B142E9D15B
:1024C000009B6345E6D1D045E4D1D94506D000292B
:1024D000E0D11C43201C441EA041DBE70020D9E7CB
:1024E000FF070000F0B55F4656464D464446F0B43F
:1024F000CD0FDE0FAC461D032D0BB146374E0F033B
:102500004C00AB465D0080463F0B640D92466D0D5E
:10251000B44232D0314EB54235D0002C0ED13843C2
:1025200041424141081C002D0BD0002919D1CC4556
:102530002DD0654668420123184318E0002DF6D1DE
:10254000281C59460A4353425341002806D1002B08
:10255000EDD0634658420123184308E00020002BC9
:1025600005D14A46504250414042012318433CBCE9
:1025700090469946A246AB46F0BD3E1C0643C9D0E4
:1025800002204042F3E75E461643C6D0F8E7AC426D
:1025900007DC0BDA614648424841404201231843B8
:1025A000E5E76646704201231843E0E75F450AD835
:1025B0000ED000205F45DAD265466842684140424D
:1025C00001231843D3E76246504201231843CEE764
:1025D000D045F8D80020D045EED3C8E7FF0700006B
:1025E000F0B556464D4644465F46F0B40D1C83B0E8
:1025F000041C0190E80F814618030F03000B3F0BEA
:1026000084463548009749005E00DF0F490D924629
:10261000760DB846814234D02F48864236D0002904
:1026200018D0002E1FD1341C67463A435342534101
:10263000002C1FD00020002B05D1424650425041B3
:1026400040420123184303B03CBC90469946A24641
:10265000AB46F0BD0098044360426041041C002E6C
:10266000E2D00028E9D1C14515D04F467842012378
:102670001843E8E7002BF6D04B4658420123184395
:10268000E1E7009F02202743DDD1C5E7674602202E
:102690001743D8D1C3E7B14204DD4A465042012373
:1026A0001843D0E7B14207DB00986045E4D80AD070
:1026B000009F00206745C6D24F467842784140428D
:1026C00001231843BFE7019A5245D5D8019A00204B
:1026D0005245F1D3B7E7C046FF070000F0B55646B4
:1026E00044465F464D46F0B41F1C0B031B0B9A4635
:1026F0004B0087B0041C80465B0DC80F161C02936C
:102700008146002B68D0694B0299994232D08022D1
:10271000534652031A43D200630F1A439246644A47
:10272000E000891880460291002400253B031B0B22
:102730009B467800FB0F321C400D039300D175E0DF
:102740005A4B984269D08022594652030A43730F6C
:10275000D2001A43564B9346C018F2000023039947
:102760004E4671401C430F2C00D9A9E0514EA400E5
:102770003459A74653461C4300D087E00025AA469B
:10278000A84608240225D1E74946022D6CD0032D26
:1027900000D117E2012D00D058E10D40EDB2002428
:1027A000A9460023A0460020002125030A0D1C0590
:1027B0002D0B1205404B2A43134023435B004C462C
:1027C0005B08E207191C4046114307B03CBC904629
:1027D0009946A246AB46F0BD5346234350D05346DC
:1027E000002B00D184E1504600F0C0FE031E272BD1
:1027F00000DD76E128210D1A211C083B5246E940F4
:102800009A400D1C1543221C9A40AA4690462B4B19
:1028100000241B1A0293002588E75B461E4303230E
:10282000002E9CD1B3460022022398E75B46334337
:1028300021D05846002800D14EE100F097FE27280D
:1028400000DD42E128210F1A021C311C083A5B46C8
:10285000F94093400F1C1F43331C9340BB461A1C86
:10286000164B181A00237AE701230B4000249946DF
:10287000A0460E4B97E70027BB46002201236EE7D8
:10288000002104248A46884601254FE70C240325AD
:102890004CE700258024A9462403A846034B82E781
:1028A000DA46904603991D1C6FE7C046FF070000FB
:1028B00001FCFFFF580D0100FFFF0F800DFCFFFF23
:1028C000029F160C381804904046070C0004000CB8
:1028D0001204120C031C5343041C3D1C7443554347
:1028E00098463B1C73436419A44644460293230C48
:1028F00063449D4204D9029D802464022D190295EF
:102900001D0C039545462C041B04240C1C1905942E
:102910005C46230C051C58432404240C8446381CB4
:10292000604365435F438146CC44280C6044BB460A
:10293000814502D980277F02BB442D04070C2D0C52
:10294000000440195546BC462F04E3448446280C35
:102950003D0C2F1C5743B8462F1C77434243B946C2
:1029600047463F0C9144BA46D14446434A4502D9B2
:1029700080225202B6184F463A0CB6183A0447461F
:102980003F043F0CB8462F1C67435D434443584304
:1029900065190190380C2D184244B846AC4204D950
:1029A000019880235B02C0180190039C029F201CA9
:1029B0006044C0196045A44147466442A4462B04C4
:1029C0003C049946240C4C44A046D8448018C24686
:1029D000E24490429241574652429146F219E245F2
:1029E000BF417F424B46BC46D845BF41D4187F42C9
:1029F00063461F432D0C7F19B24292414C45AD41B5
:102A000052426D421543019E7D19AB19E20D5B02E6
:102A1000059F134342023A439A46531E9A41C30DFF
:102A2000101C18436402204380465046C0010DD557
:102A3000454601225646049C6B082A401A43F30778
:102A400001341A43760804949046B246049E634FBC
:102A5000F319002B61DD404640070BD00F2244469E
:102A60002240042A06D04246043242458041404278
:102A7000824490465546ED0107D5594B5646049F72
:102A800080201E40C000B2463B18564A934200DDEB
:102A9000EAE644465546E2086807104301226C0204
:102AA0005B050A408046240B5B0D91467BE6DA46C7
:102AB00090461D1C69E680242403574627421CD1FA
:102AC0003C432403240B484B6DE6031C283B311C7C
:102AD00099408B460022C3E6301C00F047FD2030B1
:102AE000ADE6283B211C994000228A4690468EE69E
:102AF000201C00F03BFD203078E65846204207D1EC
:102B0000044303992403240B89469046364B4AE636
:102B10003C432403240B344B45E6344B049E9B1B5F
:102B2000382B06DD01230B4000249946A0460023E4
:102B300039E61F2B25DC049C2D4D46466019524674
:102B400044468640DC4082405746301C2243DF40EA
:102B5000441EA04102433B1C540709D00F201040E3
:102B6000042805D0101D9042924152429B18021C2D
:102B70001D021AD501230B4000249946A0460123CB
:102B800011E61C48049C5546001BC540281C202B00
:102B900016D0194E5746A21997403A1C43461A437D
:102BA000531E9A4102430023D6E758075B02D2081E
:102BB0001C0B01230B401043994680460023F2E58D
:102BC0000022EBE7802424035046012304431940EC
:102BD0002403240B8946044BE5E5C046FF030000AF
:102BE000FFFFFFFEFE070000FF07000002FCFFFFE3
:102BF0001E040000E2FBFFFF3E040000F8B55F4644
:102C0000564644464D46F0B40C034D00CF0F610AC2
:102C1000440F2143C4001803DE0F8046B4464646E5
:102C20005800760A530F3343D600D14A6D0DBA4689
:102C3000400DB346904200D1F5E062460126724055
:102C40009446674500D1ABE02F1A002F00DC11E15C
:102C500000283ED15846184300D0F1E0600700D16B
:102C600097E00F232340042B00D122E1221DA24232
:102C7000A4416442802309191B04012750460B40DC
:102C80000740141C002B00D179E0B94B01359D425F
:102C900000D10BE1B74BE40819404807490204434F
:102CA0000B0B002000211B031A0B0B0D6D051B05E0
:102CB00013436A08B04DFF071D4015436D006D08B2
:102CC000291C3943201C3CBC90469946A246AB4681
:102CD000F8BDA7488542C1D0802000040343382FA7
:102CE00000DDFDE01F2F00DD31E12020C01B1A1C9C
:102CF0005E468240FE40324394465A468240101C53
:102D0000421E9041FB40624602431F1CA21A94429D
:102D1000A4416442C91B091B141C0A029ED5490226
:102D20004F0A002F00D1D6E0381C00F01FFC021C17
:102D3000083A1F2A00DDC3E02821231C091A974006
:102D4000CB401F439440954200DDC0E0551B691CF9
:102D50001F2900DDEAE01F22551B3B1C221CAB4053
:102D6000CA40AC40651EAC411343CF401C43391CE4
:102D7000002573E780217E4D0027C90300247C4B8A
:102D80004807E4080443C9089D4250D009030B0BCF
:102D900087E780231B04012752460B40174071E749
:102DA0002A1A9446002A00DCA1E0002854D070487A
:102DB000854200D152E78020000403436046382852
:102DC00000DD0EE11F2800DD57E162462020801A59
:102DD0001E1C8640B1465E46D6404A4632435E4699
:102DE00086409046301C421E904142460243604657
:102DF000C3401219A242A441644259180919141C73
:102E0000080200D42AE75A4B01359D4200D131E136
:102E1000584B60081940012323401C1C0443CB0776
:102E20001C4349081AE71E4300D00AE705E7231CA4
:102E30000B433BD080231B030B431B031B0B30E7CF
:102E4000013F002F6DD15E46A21B9442A441644213
:102E5000C91A091B141C60E75846184300D1FDE647
:102E600001267642B4446046002800D0D0E05E4699
:102E70003219BFE7002F00D080E0681C4005400DEC
:102E8000012800DCE8E05A46A21A9442BF41C81A61
:102E90007F42C71B3E0200D498E05846041BA3455E
:102EA0009241591A52428F1AE2463AE7002300240F
:102EB000F7E680231B04012756460B403740E1E626
:102EC000271C283887400024954200DC3EE729492A
:102ED000AD1A3940C2E6201C00F048FB203026E73E
:102EE0005A461A43531E9A41D2B200270EE7002ACF
:102EF00000D0DEE0681C4605760D012E00DC90E077
:102F00001B4DA84200D1F5E05E463219A242A44111
:102F1000644259180919CC07520814434908051C82
:102F20009CE61348854200D0D9E697E62B1C1F3B50
:102F30003E1CDE40331C20296FD03F22551BAF4082
:102F40003C43601E84411C430021002586E6381C5A
:102F500020381E1CC640301C202F60D04022D71BBA
:102F6000BB405A461A43531E9A4102430027CDE6FE
:102F7000FF070000FFFF7FFFFFFF0F80002D37D00E
:102F8000B64DA84200D18FE080252D047F42294311
:102F9000382F00DDA8E01F2F00DD24E12025ED1BE8
:102FA0000E1CAE40B046261CFE404246AC401643C6
:102FB000651EAC413443F9405A46141BA345924167
:102FC0005B1A5242991A051CE246A6E6131C3B43C3
:102FD000141C002B00D0A4E60027002100250024AB
:102FE000CDE65A461A43531E9A41D2B2002300E757
:102FF0000D1C254358D0FF43002F51D15A46141BB6
:10300000A3459241591A5242891A051CE24684E6A8
:103010009248854200D0D1E620E6002790E70023C1
:103020009FE7081C2043002D00D0C2E0002800D1FB
:10303000EFE05846184300D110E658460219A24264
:10304000A441644259180919141C0A0200D405E667
:10305000834B0125194001E6081C2043002D38D17F
:1030600000286FD15946194303D0191C5C46E2462B
:10307000F4E500270021002481E6604620381A1C70
:10308000C2406646101C202E00D1AAE04022921BAE
:1030900093405A461A43531E9A4102430023A8E61E
:1030A0006E4DA84200D073E7191C5C46051CE24631
:1030B000D4E5002D22D10D1C254376D0D543002D1B
:1030C00070D15C445C459241591852428918051CE4
:1030D00096E600284CD15946194300D14AE6191CFE
:1030E0005C46E2465D4DB9E50C43611E8C41E4B29D
:1030F000002161E7051C0021002440E6574DA8424D
:1031000053D05542802216043143382D7BDC1F2DCD
:1031100000DD8CE02022561B0A1CB446B240261C5F
:10312000EE403243904662469440661EB4414246A9
:103130001443E9405C445C459241CB1852429918D3
:10314000051C5DE65846184300D187E55E46A71B7F
:10315000BC429241C81A5242801A060260D55846B3
:10316000041BA3459241591A5242891AE24675E559
:103170005846184333D04807E40804438020C90860
:103180000003014208D0DD08054205D15946CA08AE
:103190005C071443291CE246630FC9001943E4008D
:1031A0002E4D5BE52D4A9042AFD1191C5C46051CA3
:1031B00054E5002830D05846184310D080254807E1
:1031C000E408C9082D0304432942E5D0D808284261
:1031D000E2D15D46EA085C071443011CDCE71F4DA1
:1031E0003CE5002355E73D1C203D0E1CEE40351C00
:1031F000202F2ED04026F71BB9400C43611E8C4176
:103200002C430021D8E60C43611E8C41E4B200211E
:1032100090E7191C5C4621E5191C5C460F4D1DE525
:10322000031C3B4300D124E7011C3C1C16E520266F
:10323000764276190A1CF2409046202D0BD040268B
:10324000751BA9400C43611E8C4145462C4300214F
:1032500070E70021D1E70021F4E7C046FF07000036
:10326000FFFF7FFF70B50B1C124C09030E0B5900BA
:10327000021C490DDD0F0020A14211DD0E488142E4
:103280000FDC8020400306430C48401A1F280BDD4A
:103290000B4A521AD640321C5042002D00D1101C4D
:1032A00070BD084BE818FBE7074BC240C9188E40B9
:1032B0003243F1E7FE0300001D0400003304000068
:1032C00013040000FFFFFF7FEDFBFFFFF8B5041EB6
:1032D00031D0C70F00D04442201C00F047F9184DF0
:1032E0002D1A0A2819DD0B38844024036D05240BA0
:1032F0006D0D3A1C0026002000210B0D2403240B29
:103300001B0523430F4C2D051C402C43640064080F
:10331000D307211C301C1943F8BD061C1536231C8D
:10332000B3401E1C0B23181AC44024036D05240B44
:103330006D0D3A1CDFE70022002500240026DAE7A5
:103340001E040000FFFF0F8010B5041E28D000F0FF
:103350000DF9154A121A0A2815DD0B38844024038A
:103360005205240B520D0023002000212403181CB9
:103370000B0D240B1B0523430C4C12051C4014435E
:103380006400610810BD031C1533211C99400B1CFF
:103390000B21081AC44024035205240B520DE3E705
:1033A000002200240023DFE71E040000FFFF0F803F
:1033B00043001B0E5A1C4102D2B270B54C0AC50F15
:1033C000012A17DDE02292006407090B98180022F9
:1033D00000231E0D221C34050C431B4940054008E8
:1033E0002140014349004908ED070B1C2B43101CE9
:1033F000191C70BD002B15D1002C1CD0201C00F016
:10340000B5F80A281ADC0B21091A231CCB40191C19
:10341000031C15339C400D4B0903181A4005090B7A
:10342000400DD4E7002C03D06407090B0848CEE711
:1034300007480021CBE700200021C8E7011C0B3919
:103440008C40211C0024E6E7FFFF0F808903000069
:10345000FF070000F0B54B000D03420F5B0D6D0A36
:1034600015435A1C5205CC0FC600520D012A27DD08
:10347000394FDA19FE2A1ADC002A35DD8001ED0009
:10348000431E98412843760F3043430704D00F234F
:103490000340042B00D004308021C904014027D010
:1034A0000132FF2A1DD083015B0AD1B201E0FF2166
:1034B00000235802C905400AE40708432043F0BD31
:1034C000002B06D1354311D10021002043025B0AB5
:1034D000EFE72E43EBD08020ED0080042843FF224D
:1034E000D3E7FF210023E4E717320DDA052000229D
:1034F000C008D1B2FF2AE9D10028D9D08023DB034C
:1035000003435B025B0AD4E780221449120415438B
:10351000C91A1F290DDC124A371C9B18281C9F4012
:1035200098403B1C5A1E93411843CE403043002222
:10353000ABE70C4F2A1CFF1AFA40171C202909D0B0
:10354000094A98188540281C3043461EB04138432C
:1035500000229AE70020F7E780FCFFFF9E030000AF
:1035600082FCFFFF7E030000A2FCFFFF1C21012361
:103570001B04984201D3000C10391B0A984201D356
:10358000000A08391B09984201D30009043902A234
:10359000105C40187047C04604030202010101019B
:1035A000000000000000000038B50E4B0C4A041C5F
:1035B0000D1CFDF7F5F8002804D1201C291CFFF78D
:1035C00051FE38BD074B064A201C291CFFF716FB8D
:1035D000FFF748FE80231B06C018F2E7C046C0462E
:1035E000000000000000E041F0B544465F4656464A
:1035F0004D46F0B41C1C85B0002900DADBE00F1C3E
:103600000021061C8A46101C191C002C00DAC9E097
:103610000196009089468046002951D1B84200D8D1
:1036200071E0FFF7A3FF002809D020234546311C95
:103630001B1A85408740D940A8460F438640424622
:10364000150C13041B0C291C381C9B46FCF7C4FFEB
:103650005B464343041C291C381C9946FDF700F8BF
:10366000330C08041843814509D94044631E804542
:1036700000D978E1814500D875E1023C40444946D3
:10368000411A8946081C291CFCF7A6FF5A464243EA
:10369000071C291C48469346FCF7E2FF3604090440
:1036A000360C0E43B34507D946447B1EB04502D8BD
:1036B000023FB34500D81F1C24042743002403E025
:1036C000B94211D9002400275246381C211C002A77
:1036D00003D03B1C00215842A14105B03CBC9046A0
:1036E0009946A246AB46F0BD081CFFF73FFF041EFB
:1036F00000D0BFE0B94500D242E1019D0099071C0E
:103700008D424741E0E7002804D101200021FCF769
:1037100063FF80464046FFF729FF002852D141460B
:1037200044460B043C1B1B0CA3460D0C00930124C8
:10373000291C5846FCF750FF009F81464743291C2F
:103740005846FCF78DFF330C090419438F4208D902
:103750004B464144013B884502D88F4200D91AE1CB
:103760009946C91B8B46081C291CFCF735FF009B9A
:10377000291C4343071C58460093FCF771FF36048D
:10378000009D0904360C0E43B54207D946447B1E02
:10379000B04502D8023FB54200D81F1C49460E046E
:1037A000374391E75246D243031C0C1C924600213A
:1037B0005842A1412CE7002746428F41012149424E
:1037C0008A4620E720231B1A4246351C82403C1CB7
:1037D000DD40DC4087402B1C150C3B43291C8640F8
:1037E000201C009317049046FCF7F6FE3F0C011CCA
:1037F000794381468B46201C291CFCF731FF009C35
:103800000904230C19438B450CD94B464144013B19
:10381000884500D9BDE08B4500D8BAE0022252426B
:10382000914441445C460C1B201C291C0194FCF76C
:10383000D3FE391C4143041C8B460198291CFCF71C
:103840000FFF009A090413041B0C19438B4509D977
:103850004144631E884500D997E08B4500D894E029
:10386000023C41445B46CB1A49469B460B041C4331
:1038700000975DE7009D20231B1A4A468240DD40E9
:103880001543391C009AD94082408846311C009269
:10389000D9403A1C82400B1C134301932F0C2B047C
:1038A0001B0C391C40460293FCF796FE029A814697
:1038B0004243391C40469346FCF7D2FE019A090464
:1038C000130C19438B450AD94B464919013B8D42CC
:1038D0005DD88B455BD902235B42994449195A460E
:1038E0008A1A101C391C0392FCF776FE029B804654
:1038F0004343391C03989B46FCF7B2FE019A090426
:1039000013041B0C19438B450AD943464919013B43
:103910008D4238D88B4536D902235B4298444919E9
:103920005D464D1BAB464946009D0F04424617437A
:103930002A04120C3B042D0C1B0C380C111C59438F
:1039400042436B436843D3180D0C5B198C469A4273
:1039500002D98022520280181D0C401983450CD3D5
:1039600003D00024B0E61C1C89E665462A041B042B
:10397000120C9B18A6409E42F3D2013F0024A3E6FE
:1039800000240127A0E69846CAE71C1C6AE799466E
:10399000A5E7994646E70222524291444144E0E6B7
:1039A000F0B55F4656464D464446F0B40D1C85B012
:1039B000061C924698460290019103921F1C141C0B
:1039C0008346A946002B59D1AA4269D9101CFFF79A
:1039D000CDFD00280AD020231B1A311CD940854078
:1039E0000B1C2B43864084409946B346250C230488
:1039F0001B0C291C48469846FCF7EEFD4646071C62
:103A00004643291C4846FCF72BFE5A460904130C72
:103A100019438E4209D909197B1E8C4200D957E1FE
:103A20008E4200D854E1023F0919891B8946081CBF
:103A3000291CFCF7D1FD43464343061C291C48467C
:103A40009846FCF70DFE5A46130409041B0C194353
:103A5000884508D90919731E8C4200D936E1023E07
:103A6000884500D832E1380430430027391C05B0BE
:103A70003CBC90469946A246AB46F0BD019A9342A3
:103A800062D8181CFFF772FD041E60D1019B9F4293
:103A900000D22CE1029F03998F4260410027E5E7A5
:103AA000002A04D101200021FCF796FD041C201CF3
:103AB000FFF75CFD002800D0B9E023042D1B1B0C90
:103AC000A946260C98460127311C4846FCF784FD80
:103AD00041464143051C8A464846311CFCF7C0FD5F
:103AE0005A460804130C1843824507D900196B1E67
:103AF000844202D8824500D910E11D1C5346C31AE6
:103B0000181C311C9A46FCF767FD4146414381462B
:103B100088465046311CFCF7A3FD5A46130409049D
:103B20001B0C194388450BD94B460919013B8C42A4
:103B300000D9CFE0884500D8CCE002235B4299440D
:103B400028044946084391E7002700208EE72023F8
:103B50001B1A424657468240DF4017435246824076
:103B60000192321CDA40291CD9408540131C2B439A
:103B700002933D0C3B041B0C8846081C291C9A46EA
:103B8000FCF72AFD534643438146291C40469B4689
:103B9000FCF766FD029A0904130C19438B4506D9FC
:103BA0004B46C919013B8F4200D8ABE099465A46B3
:103BB0008A1A101C291C9346FCF70EFD53464343FA
:103BC000291C804658469A46FCF74AFD029A090489
:103BD00015042D0C29438A4506D94346C919013BD2
:103BE0008F4200D886E098465746CF1BBA464946D2
:103BF000019F0804424610433D042D0C03043F0C72
:103C00001B0C020C291C594355437B437A43EB1888
:103C10000F0CDB198C469D4202D980277F02D219F6
:103C20001D0C521992455FD356D000271EE7202362
:103C30001B1A311C2F1CD940DF4085400B1C8440CF
:103C40002B4386400193B3462304260C1B0C381CDF
:103C5000311C9846FCF7C0FC42464243051C311C0F
:103C6000381C9146FCF7FCFC019F09043B0C1943EE
:103C7000894507D909196B1E8C424DD889454BD906
:103C8000023D09194A468A1A101C311C9246FCF75B
:103C9000A3FC43464343071C311C50469946FCF79E
:103CA000DFFC019A090413041B0C1943894507D949
:103CB00009197B1E8C422DD889452BD9023F091941
:103CC0004B46CB1A2D0499462F43FDE61E1CCAE62F
:103CD0001F1CAAE6994633E761460A041B04120C2E
:103CE0009B18A6409E42A0D201380027BEE60027BE
:103CF0000120BBE68A4500D875E702235B42984461
:103D0000C91971E78B4500D850E702235B429944FB
:103D1000C9194CE71F1CD3E71D1CB3E7023D00196E
:103D2000ECE6C04608B5094A094BD058094901409C
:103D30008020C0040143D15003F03AFE031C064822
:103D4000E1214902022203F0B3FB08BD00700440E8
:103D500004100000FFFFFFF30040054000B585B0F0
:103D600002A80D49083106220BF056FD00236A46D1
:103D7000137080235B0201930849094B094AD15013
:103D800002A803F091FE684603F0B6FD064A074B11
:103D90001A6005B000BDC046780C01000000071095
:103DA0004410000000700440006CDC020CE0FF1FB7
:103DB00038B507F0FBFC1D4B59681D4A114059608E
:103DC0001C4B98681040802189000843986058680F
:103DD000104001435960D8691040802149000843D0
:103DE000D8615869104008435861986910400843E9
:103DF0009861114B986F0240114399670F4C104D19
:103E0000201C07212A1C04F09BFB201C05212A1CD6
:103E100004F096FB0B4D201C06212A1C04F090FB9D
:103E200009481E212A1C04F08BFB38BD00A0044069
:103E3000FFF8FFFF00B0044000D0044080F00F40C6
:103E4000980D01009C0D010000F10F40F0B55F4698
:103E500056464D464446F0B489B0041C63480BF006
:103E6000B3F980B20B2800D8B9E063885B429BB2FB
:103E70009C4605AB60461880A7885F8026887642FE
:103E8000B6B29E802289524292B29146DA8065890A
:103E9000A8461D81E4886442A5B25D81544A9346D8
:103EA000137854495800C21892008A184C46D4809E
:103EB000444614815581C418A40065466552578054
:103EC0000A199680DFB2BA460133DBB25846037056
:103ED000494A1278934201D300210170474B1B7865
:103EE0009A4202D9013345490B70444B1978013984
:103EF000002500270023B84699460024029400209C
:103F000001903C4B9B46013AD2B20392BC460094CE
:103F10005646AA4631E03A4A535C72B25400A018A1
:103F2000800058440625475F5F43019DED190195C8
:103F30000825475F5F43029DED1902950A25475FFB
:103F40003D1C5D43009F7F190097A518AD005F469B
:103F50007D5F5D43A8440225405F58438444A21816
:103F600092005A440427D25F5A4391449A44731EE4
:103F7000DEB2180600D5039E01390029CBDA4E4681
:103F8000009A91466746554601985146FCF772FBE8
:103F9000041C02985146FCF76DFB82464846291CDA
:103FA000FCF768FB81464046291CFCF763FB804612
:103FB000381C291CFCF75EFB071C301C291CFCF775
:103FC00059FB05A9CC8053460B814C464C81454694
:103FD0000D804F80888005480C220BF035F809B021
:103FE0003CBC90469946A246AB46F0BDD0030020AB
:103FF00064EBFF1F1CE6FF1F38EBFF1F42EBFF1FA8
:1040000044EBFF1F00000000F0B5474680B48EB0BF
:10401000041C0D1C0026634B614A80185941069010
:104020000791B4E0E8235B0073435F495B5C002BBE
:1040300000D1ABE0E82252007243535C012B3ED129
:10404000131CCB181A695B69AB4200DD9EE002D1FC
:10405000A24200D99AE0E8235B007343524AD31886
:104060001C625D62069807999861D9611B7A002BE2
:104070001FD1E8235B007343D7180821C9198C4668
:104080004A680A9200230B93221C2B1C0A980B9956
:1040900012184B413A627B62614649680C910022DA
:1040A0000D92BA69FB690C980D9912184B41BA61CF
:1040B000FB61E8225200724302213B4BD154E823BA
:1040C0005B007343384AD3181A6A5B6AAB421CDC44
:1040D00001D1A24219D8E82149007143324B591845
:1040E000CA68089200230993089A099B12196B4128
:1040F0000A624B622D4B19882D4801F09DFC002867
:1041000003D12C4B1A8801321A80E8235B007343D9
:10411000254AD3189A69DB69AB4237DC01D1A24248
:1041200034D8E821490071431F4B59188C62CD6285
:10413000C868049000220592049A059B12196B41ED
:104140008A61CB611C4B1B78002B03D001221B4BD7
:104150001A701BE01A4B1B681A4880460422009212
:104160009B000193012702971749184B03F0DAFDD2
:1041700017480221424603F04FFD0F4B1F70154AAE
:10418000092313601448002103F0B0FA0136012E10
:1041900000DC47E70EB004BC9046F0BDC046C04608
:1041A000A86100000000000098E7FF1F00E0FF1F6B
:1041B0004D3E000092E7FF1F91E7FF1F90E7FF1FB2
:1041C00004E0FF1FFC0A002010B003401CE2FF1FA8
:1041D00000800040F404002000B00340C046C04608
:1041E00070B52B4A1F2313602A48002103F07EFA82
:1041F000002300202849294C03E09A001259801816
:1042000001330A689342F8D3234B1968FCF7E4F9A9
:10421000234B18800024234D34E0E8235B006343E4
:104220005B5D022B2DD120480AF0CEFF012803D977
:104230001E4B1B78002B1FD0E8235B006343194AF9
:10424000D31840331B78002B12D1E8235B00634363
:10425000D618B26AF36A32637363331C38330D22A3
:104260001A70E0B2402106F0A7F9403601233370FE
:104270000E4B1B78002B04D00B48094902220AF090
:10428000E3FE0134012CC8DD0022094B1A7070BD19
:10429000F404002000B0034004E0FF1F1CE2FF1FF5
:1042A0003CEBFF1F98E7FF1FA803002090E7FF1FCC
:1042B00091E7FF1F08B5074B1A88074B1B889A42E6
:1042C00006D0064803F04AF9034B1A8801321A80D7
:1042D00008BDC04692E7FF1F40EBFF1FBC0D010069
:1042E00038B5041CE8235B0043431048C518682018
:1042F00007F06EFC002817D04835011C5831281CE7
:1043000048220BF089FA094AE8235B005C4300234A
:10431000A35414196360FA239B00E36004480AF075
:104320005DFF04480AF05AFF38BDC04698E7FF1FFA
:10433000D0030020A8030020F8B56420444909F008
:104340008FFE444C201C03F099F9012323700022B6
:104350006270A270E370A37123720323237104239C
:1043600063713D4D281C211C03F02CF92B6A40225F
:1043700093432B62281C032103F09EF9281C03F0B1
:10438000F9F9002802D0354803F0E8F8344B092247
:104390001A6000221A715A712F4B196A04220A43BB
:1043A0001A62304B9A783F218A4328210A439A7037
:1043B000997880220A439A702B4D2C4C281C211C82
:1043C000022203F071FC281C2949002203F020FD81
:1043D00096235B00E158802212060A43E250E1581E
:1043E000244A0A40802189050A43E250224AC02318
:1043F0009B00D05821490140802000040143D15046
:1044000008F04CFE01F08CF91D481E49C022D20074
:104410000AF012FE1C481D49802252000AF00CFED0
:1044200000241B4EE8277F0000250EE03B1C634361
:10443000F31840335D709D70DD701D710D225A714F
:104440009D71E0B2FFF74CFF0134012CEEDDF8BDA9
:1044500009400000E804002000B00340CC0D01003A
:10446000F404002000100240C0030020008000403F
:10447000E1410000FFFFFFDF00E100E0FFFF00FF80
:10448000D0030020FC040020A8030020E803002043
:1044900098E7FF1F00000000F0B557464E4645461E
:1044A000E0B480460F1C161C08AB06CB1D780BAB86
:1044B0001C7877480AF092FE76480AF08FFEE823CF
:1044C0005B00424653437449C918002088700B1C96
:1044D000403318704F60CE60089A099B0A614B61A7
:1044E0000D724C70002200230A634B630B1C38339F
:1044F0000C221A7001225A70D880B931FF3108603D
:104500004860301CFDF70EF9FEF752FF5D4B5C4A28
:10451000FEF7E4F85C4A5D4BFDF776FCFEF79AFF88
:10452000FC218905FCF792FAFCF7E4F95B4B186073
:104530001B68002B02D10122584B1A60574B1A6896
:1045400080235B009A4202D91A1C544B1A60301C1B
:10455000FA21C900FCF740F880B2514B18800028BE
:1045600001D101221A804E4B1B88642B02D9642290
:104570004B4B1A804B48391C02F0F0FF484B19880E
:10458000494802F0EBFF454B1968484802F0E6FF46
:104590000023474A1370474A13704748311CFCF701
:1045A0001BF8C0B201230343444A13701F2B02D9E6
:1045B0001F22424B1A70414B1D78681CC0B2002369
:1045C0003F4E00223F4FB946691ECC0F611849107B
:1045D0008A4617E05C00E11889007118CA80082734
:1045E0007F180A817A80E418A400A2534A808A8046
:1045F0004946C8549A4502DC0238C0B201E0023094
:10460000C0B20133291E9942E4DC2F4802F0A6FF14
:1046100000242A4D2B4F2D4E04E0395D301C02F052
:104620009DFF01342B78A342F7DC294802F096FF66
:104630002848414602F092FF0022002326490A80C2
:1046400026490A80264A1370264A1370264A1168A2
:1046500013791B01CB180933FF3359688022D20527
:104660000A435A60E8235B0047465F4301220A4B36
:10467000FA541CBC90469946A246F0BDC046C046BE
:104680007B14AE47E17A943F0000000000C0524026
:10469000D0030020A803002098E7FF1F04E0FF1FBD
:1046A00000E0FF1FF00D0100000E0100180E0100D8
:1046B00064EBFF1F42EBFF1FA086010038EBFF1FDA
:1046C0001CE6FF1F44EBFF1F300E01004C0E0100E3
:1046D000500E0100540E010040EBFF1F92E7FF1F38
:1046E00090E7FF1F91E7FF1FC0030020C046C046B0
:1046F000F8B5041C134EE8256D0045430027AF555F
:10470000114A1F2313601148002102F0EFFF1048E7
:1047100003F0E2FB0F4B1F700F48211C02F01EFF3D
:10472000751940352B78002B03D00C48211C02F062
:1047300015FF0B4B1B78002B03D00A48211C02F0FD
:104740000DFFF8BD98E7FF1FF404002000B0034000
:10475000C003002091E7FF1F6C0E0100840E0100D2
:1047600090E7FF1FAC0E0100CBB2062B33D89900A7
:104770001A4B5B589F46E8235B005843184B1818A8
:104780004030407828E0E8235B005843144B181869
:104790004030807820E0E8235B005843104B181825
:1047A0004030C07818E0E8235B0058430C4B1818E1
:1047B0004030007910E0E8235B005843084B18189C
:1047C0004030407908E0E8235B005843044B181858
:1047D0004030807900E000207047C046A00D010005
:1047E00098E7FF1F70B51E1C049D0024FF2001E008
:1047F000285501341F2CFBDD012913D1B218802A62
:1048000012D10021002402E00878444001317E29C1
:10481000FADD281C0021321C0AF0FEFF7F23EC5435
:10482000B0B202E0202000E0202000B270BDC046FF
:10483000081C7047E8235B0058434830014B1818A8
:104840007047C04698E7FF1F08B5E8235B00584350
:104850009030044B1818002160220AF0E6FF002077
:1048600008BDC04698E7FF1FF0B5072912D80A4CCB
:104870004D006B189B00E826760070431B18E31868
:104880001E1C90360127377098331A60002373601E
:10489000002000E03220F0BD98E7FF1F08B507298F
:1048A0000FD84B0059188900E8235B0058430918BA
:1048B0009031054B5918101C0C220AF0ADFF002056
:1048C00000E0322008BDC04698E7FF1FF0B585B074
:1048D000071C0E1C141CFFF70BFFE26A6168002422
:1048E0000025009401950123029300230393381CB3
:1048F000FFF7D2FD3378002B17D0012B17D0022BF6
:1049000017D0032B17D0042B17D0052B17D0062B4D
:1049100017D036201DE0E3001B1B9B005819F03018
:10492000301808F0C3FD013410E000240AE0002430
:1049300008E0002406E0002404E0002402E0002453
:1049400000E00024044EE8256D007D43062CE2DDE6
:10495000302005B0F0BDC04698E7FF1F0000000002
:10496000F0B55F4656464D464446F0B48BB083469C
:1049700005910392041CE8235B004343A14AD3182A
:104980000493A1480AF018FC0C21FBF725FE85B220
:104990009E480AF011FC400880B281462BB2002BE1
:1049A00000DC7DE203B2002B00DC7BE22BB202B222
:1049B000934200DCA9460027924DE8267600664324
:1049C000331CF0335B199A466AE007AC8E48211C11
:1049D0000C220AF087FB06A988468C4802220AF0BE
:1049E00081FB42461088FCF79DFE021C50460221C6
:1049F00008F066FD8620400033185B1998460021B8
:104A0000605EFCF733FE021C4046022108F058FDB0
:104A100094225200B3185B1998460223E05EFCF71B
:104A200025FE021C4046022108F04AFDA22040005B
:104A300033185B1998460421605EFCF717FE021CD0
:104A40004046022108F03CFDB0225200B3185B1929
:104A500098460623E05EFCF709FE021C4046022150
:104A600008F02EFDBE20400033185B19984608213F
:104A7000605EFCF7FBFD021C4046022108F020FDB1
:104A8000CC225200B3185B1998460A23E05EFCF76B
:104A9000EDFD021C4046022108F012FD0137BFB2B5
:104AA0003BB24C4622B293428FDBE8235B00584670
:104AB0004343544AD318F0339888FCF7D7FD039941
:104AC0000C69211CFBF788FE002800D0ECE1059A58
:104AD0001378012B5DD8039803785A00D3189B00F4
:104AE0000499CB1898331C6003785A00D3189B00A4
:104AF000CB18903301221A7003780133E821490062
:104B00005C4661433F4841180131FF315800C318EA
:104B10009B00049CE318983348681860039C237832
:104B2000013309685800C3189B00049CE3189033B4
:104B30005960039C237801335900CB189B00049CD7
:104B4000E31890331A70039C2378042B00D0ADE156
:104B50009823049CE158BC23E358B022A058D422E7
:104B6000A258251CE035EC340095019408F072FF42
:104B7000002806D10523D822049CA354E422A35480
:104B800097E10123D822049CA354E422A3540020DB
:104B90008FE1022B3CD1A4230498C45001249C2310
:104BA000C454E8235B0059464B43164AD3180133DB
:104BB000FF339846876D5868391CFCF797FA049ABA
:104BC000D56D291CFBF742FF061CB0230498C65084
:104BD00042461168381CFCF789FAAC230499C85086
:104BE000A823CC549823C858311CFCF7A9FB011CFE
:104BF000281CFBF72BFFBC23049AD050B423D454B9
:104C0000002056E198E7FF1FD0030020A8030020F2
:104C1000032B00D0BAE0A4230498C45001249C23A1
:104C2000C454E8235B0059464B43A94DED188E222E
:104C30005200AE187068FEF7BBFBA24BA04AFDF70E
:104C40004DFDFEF707FCB0230499C8503068FEF70D
:104C5000AFFB9C4B9A4AFDF741FDFEF7FBFBAC23F3
:104C6000049AD050A823D4549C235B00EE1870689B
:104C7000FEF79EFB934B924AFDF730FDFEF7EAFBF1
:104C8000BC230499C8503068FEF792FB8D4B8C4AC8
:104C9000FDF724FDFEF7DEFBB823049AD050B423C1
:104CA000D454AA235B00EE187068FEF781FB854B95
:104CB000834AFDF713FDFEF7CDFBC8230499C850C6
:104CC0003068FEF775FB7F4B7D4AFDF707FDFEF769
:104CD000C1FBC423049AD050C023D454B8235B0032
:104CE000EE187068FEF764FB774A784BFDF7F6FC28
:104CF000FEF7B0FBD4230499C8503068FEF758FB88
:104D0000714A724BFDF7EAFCFEF7A4FBD023049A2C
:104D1000D050CC23D454C6235B00EE187068FEF745
:104D200047FB694A694BFDF7D9FCFEF793FBE0238B
:104D30000499C8503068FEF73BFB634A634BFDF7AC
:104D4000CDFCFEF787FBDC23049AD050D823D45443
:104D5000A935FF356868FEF72BFB5B4A5B4BFDF717
:104D6000BDFCFEF777FBEC230499C8502868FEF7DA
:104D70001FFB554A554BFDF7B1FCFEF76BFBE823D3
:104D8000049AD050E423D454002092E0042B2BD179
:104D9000A4230498C45001249C23C454E8235B003A
:104DA00059464B434A4DED18B8225200AF18786867
:104DB000296EFCF79BF9061CB0230498C65038688E
:104DC000296EFCF793F9AC230499C850A823CC545E
:104DD0009823C858311CFCF7B3FABC23049AD0506E
:104DE000B423D454002064E0052B2BD1A4230498D1
:104DF000C45001249C23C454E8235B0059464B4310
:104E0000334DED18C6225200AF187868A96EFCF732
:104E10006DF9061CB0230498C6503868A96EFCF7DB
:104E200065F9AC230499C850A823CC549823C858DA
:104E3000311CFCF785FABC23049AD050B423D45417
:104E4000002036E0062B33D1A4230498C45001245B
:104E50009C23C454E8235B0059464B431C4DED187A
:104E6000D4225200AF187868296FFCF73FF9061C6E
:104E7000B0230498C6503868296FFCF737F9AC2383
:104E80000499C850A823CC549823C858311CFCF767
:104E900057FABC23049AD050B423D454002008E01D
:104EA000302006E0302004E0302002E0002000E066
:104EB00036200BB03CBC90469946A246AB46F0BDAE
:104EC0004AFDC00EAF6F513FC397923A019D733FA9
:104ED00098E7FF1FC046C046F0B5474680B4061CA1
:104EE0000D1CE824640044436F4B1C190B78012B04
:104EF0001CD8E023E358A365EC23E358E3650A7864
:104F00006A48311C02F02AFBA06DFEF751FA021C20
:104F10000B1C674802F022FBE06DFEF749FA021C09
:104F20000B1C644802F01AFB0020B4E0022B11D1E4
:104F3000BC23E358E3650A785C48311C02F00EFBA1
:104F4000E06DFEF735FA021C0B1C5A4802F006FB16
:104F50000020A0E0032B61D1B023E3588022120689
:104F60009B18E367BC23E3589B188427E351C823AD
:104F7000E3589B188C229046A350D423E3588022F8
:104F800012069B186366E023E058FEF711FA021C34
:104F90000B1C44494248FDF731FEFEF75BFAE06620
:104FA000EC23E358802212069B1863672A783F4857
:104FB000311C02F0D3FAE06FFEF7FAF9021C0B1C69
:104FC0003D4802F0CBFAE059FEF7F2F9021C0B1C47
:104FD0003A4802F0C3FA4346E058FEF7E9F9021CEA
:104FE0000B1C374802F0BAFA606EFEF7E1F9021CBA
:104FF0000B1C344802F0B2FAE06EFEF7D9F9021C3D
:105000000B1C314802F0AAFA606FFEF7D1F9021CBE
:105010000B1C2E4802F0A2FA00203CE0042B11D118
:10502000BC23E35863660A782048311C02F096FAE4
:10503000606EFEF7BDF9021C0B1C254802F08EFACB
:10504000002028E0052B11D1BC23E358E3660A7841
:105050001648311C02F082FAE06EFEF7A9F9021C34
:105060000B1C1C4802F07AFA002014E0062B11D128
:10507000BC23E35863670A780C48311C02F06EFACF
:10508000606FFEF795F9021C0B1C134802F066FADC
:10509000002000E0322004BC9046F0BDC046C0466F
:1050A00005A3923A019D234098E7FF1FD80E010007
:1050B000080F01001C0F0100300F0100440F010018
:1050C000580F01006C0F0100800F0100940F0100C8
:1050D000A80F0100BC0F0100D00F0100C046C04660
:1050E000F0B585B0071C0C1C161C0BA90D78217897
:1050F00002294ED13922A25C002A10D00093231C31
:105100003A330193013302930133039360682549D5
:10511000E268331C05F000FB00223923E2543823F7
:10512000E35C002B16D0002D03D000223823E2547C
:1051300010E0A2780092616801910293381C226B02
:10514000636B05F08FFAA3780133A3700022382334
:10515000E25423E014480AF02FF800B20C21FBF7C8
:105160003BFA85B211480AF027F800B2400880B235
:105170002DB23B23E35C9D420DDB00B283420CDC8D
:105180000C9A1380381C0021FF220AF04EFB0848BD
:1051900004E0002002E0002000E0002000B205B0A2
:1051A000F0BDC046A0860100D0030020A803002067
:1051B000FFFF0000F0B55F4656464D46E0B48AB0AA
:1051C0000F1C6B4600225A821233E82464006043AD
:1051D0007F4C24180E21009101920293381C211C4F
:1051E00009220423FFF77CFF002800DBE9E000260A
:1051F0000025784A9246784B9946C8E0E38F013300
:10520000E387504606A90C2209F06CFF484605A921
:10521000022209F067FF6268920716D5A36D9B46CC
:1052200005AB1888FCF722FA011C5846FBF75EFF15
:10523000E16DFBF70BFC099028B23818093009A979
:1052400004220AF0E9FA0435ADB26268520716D5B5
:10525000236E9B4606AB0622985EFCF707FA59467A
:10526000FBF744FF616EFBF7F1FB099028B2381899
:10527000093009A904220AF0CFFA0435ADB26368F7
:105280001B0716D5A26E934606AB0822985EFCF764
:10529000EDF95946FBF72AFFE16EFBF7D7FB0990C2
:1052A00028B23818093009A904220AF0B5FA0435E1
:1052B000ADB26368DB0616D5226F934606AB0A22B1
:1052C000985EFCF7D3F95946FBF710FF616FFBF7C7
:1052D000BDFB099028B23818093009A904220AF048
:1052E0009BFA0435ADB263689B0616D5A26F934650
:1052F00006AB0022985EFCF7B9F95946FBF7F6FEBB
:10530000E16FFBF7A3FB099028B23818093009A90F
:1053100004220AF081FA0435ADB263685B0618D541
:105320008023E3589B4606AB0222985EFCF79EF969
:105330005946FBF7DBFE8423E158FBF787FB099016
:1053400028B23818093009A904220AF065FA043590
:10535000ADB263681B0618D58823E3589B4606AB9D
:105360000422985EFCF782F95946FBF7BFFE8C23B6
:10537000E158FBF76BFB099028B23818093009A9EE
:1053800004220AF049FA0435ADB20136B6B26B46D2
:10539000598A33B20AB2934200DA2FE7002D0FD0B8
:1053A000C9B23A23E25C6378A078451CA570A48852
:1053B0000090019406200290381C05F087F900E067
:1053C000002000B20AB01CBC91469A46A346F0BD2C
:1053D00098E7FF1FD0030020A8030020002070479B
:1053E00010B5041C01230370013026490AF09DFA10
:1053F000201C113024490AF098FA201C213023493E
:105400000AF093FA002200234221625244216252A0
:105410004622A3544722A3540222A264A022A354EA
:1054200096225200E26422655822A35400220023EF
:1054300022666366164BA366164BE366164A22671E
:1054400000236367A267E367802162508422A35030
:10545000124A882162508C2163509021625094211D
:105460006350982162509C22A3500023002203E045
:10547000E15C8A18D2B20133A72BF9D9A023E254F8
:1054800010BDC046E40F0100EC0F0100F80F010051
:1054900068916D3C0000A0C20AE89C3B787D8B3A85
:1054A00038B5041C0578012D08D0FFF799FF227844
:1054B0000348291C02F052F8012000E0002038BD0A
:1054C000081001007047C046F0B557464E464546A5
:1054D000E0B48A4BDB780D2B00D90AE19B00884AA7
:1054E000D3589F46854C221C5C3268200021012342
:1054F00000F0E2F9E3780133E370FAE068207E21FE
:10550000152200F01BFA7D4BDA780132DA70F0E0F8
:1055100068204321002200F011FA784BDA7801323A
:10552000DA70E6E0754C221C5C32682043210123CE
:1055300000F0C2F9E3780133E370DAE06820422139
:105540002C2200F0FBF96D4BDA780132DA70D0E0F2
:105550006A4C221C5C3268204221012300F0ACF925
:10556000E3780133E370C4E0644C221C5C326820B1
:105570001B21012300F0A0F9E3780133E370B8E0C8
:105580005C235E4AD35C590612D55E4D29885E487D
:1055900001F0E4FF594C221C5C3268201B210123DE
:1055A00000F08AF900232B80E3780133E370A0E058
:1055B00068201B21514A5C32012300F07DF9514BD8
:1055C0001A8801321A8094E068207E21112200F0AE
:1055D000B5F94A4BDA780132DA708AE06820412165
:1055E0000C2200F0ABF9454BDA780132DA7080E03A
:1055F000424C221C5C3268204121012300F05CF9FE
:10560000E3780133E37074E0682040212C2200F03D
:1056100095F93A4BDA780132DA706AE0374C221C9D
:105620005C3268204021012300F046F9E378013321
:10563000E3705EE0354A364B0024105F196840186D
:1056400018600224115F5C686418A1465C60042441
:10565000115F9C686418A0469C600621575EDC6858
:105660003F19DF600821565E1C6936191E610A2148
:10567000525E5C69A418A2465C61264A1388013315
:105680009BB21380244A1488A34206D268200C21BE
:105690001E4A0C2300F010F92BE0211CFAF7EAFF58
:1056A0001A4D28804846211CFAF7E4FF68804046DE
:1056B000211CFAF7DFFFA880381C211CFAF7DAFF5B
:1056C000E880301C211CFAF7D5FF28815046211CA8
:1056D000FAF7D0FF6881114B1B68002B02D0281C01
:1056E0000621984700220D4B1A60044BDA780132EC
:1056F000DA701CBC90469946A246F0BD78EBFF1FBD
:1057000020130100F8EBFF1F5813010068EBFF1F87
:10571000FCEBFF1F14ECFF1F74EBFF1FF4EBFF1FEC
:1057200070B584B001A802F093FF154B02930020DE
:1057300002F082F9021C134E301C01A903F010F88C
:10574000114C251D281C002128220AF06EF8301C5F
:10575000291C0E4A002303F00FFA0D4AC2239B00B6
:10576000D0580C4901408020C0010143D150002392
:10577000A3702370E3706370FFF7A6FE04B070BDE2
:10578000801A06000070064078EBFF1FC959000020
:1057900000E100E0FF00FFFFF0B54F464646C0B411
:1057A00083B00122364B5A70364802F037FF364B31
:1057B0009868364908408022520010439860586823
:1057C00001400A435A6001A8314902220AF024F834
:1057D000304C201C022101AA02F0B2FE201C012143
:1057E00001AA02F0ADFE2C4801F0B8FE042363606C
:1057F00002236360294801F0B1FE294801F0AEFEA2
:105800000025264B9946274B98460CE004276760F5
:1058100002266660484601F0A1FE6760A660404629
:1058200001F09CFE0135092DF0DD1F4801F096FEC8
:10583000184C0426A6600225A5601C4801F08EFEC7
:10584000A66065601A4801F089FE666065601348CD
:1058500001F084FE174801F081FE0B4B98680B495C
:1058600008408022920010439860586801400A4323
:105870005A60FFF755FF03B00CBC90469946F0BD47
:1058800078EBFF1F0070064000B00440FFF8FFFFF8
:10589000900C010080F00F40701301009013010084
:1058A000A0130100C0130100D0130100F413010084
:1058B000041401001414010038B51C4C6478002C49
:1058C00031D11A4C30256055012031256055616376
:1058D00038216054E26323640023E362201C4430D7
:1058E000251C2C35291C182209F096FF211D104873
:1058F0002A1C03F07DF9041E05D10C4B01221A70FD
:1059000000229A700DE0094DAA780132D2B2AA7035
:105910000848211C01F022FEAB78142B01D9FFF7B7
:105920003BFF201C00E0044838BDC04678EBFF1F59
:1059300000700640341401004C04000038B51D4BC3
:105940001B78002B33D11C4D2A701A4C3023E054A5
:1059500000233122A3546163012238216254E5639C
:105960002264E362201C4430251C2C35291C18229B
:1059700009F052FF211D11482A1C03F039F9041EB9
:1059800005D10C4B01221A7000229A700DE0094DCE
:10599000AA780132D2B2AA700948211C01F0DEFDBA
:1059A000AB78142B01D9FFF7F7FE201C00E0054867
:1059B00038BDC04678EBFF1F76EBFF1F0070064036
:1059C000581401004C040000F8B5002A06D0154810
:1059D000111C01F0C3FDFFF7DFFE21E04923124A4D
:1059E000D35C002B17D1131C4822995CDA6C0F484A
:1059F00001F0B4FD00240C4D2F1C0D4E05E07B6D15
:105A0000195D301C01F0AAFD0134AB6D9C42F6D348
:105A1000084801F0A3FD0022034B1A70FFF754FD64
:105A2000F8BDC0467C14010078EBFF1FA0140100F4
:105A3000C01401008018010008B50F4BDB780E2B55
:105A400018D10E4B18600E4B198000230D4A13809D
:105A50000D4A136053609360D360136153610D224C
:105A6000054BDA7068200C21084A0C23FFF724FF4D
:105A7000012000E0002008BD78EBFF1FF4EBFF1FC2
:105A800074EBFF1F14ECFF1FFCEBFF1F68EBFF1F05
:105A9000EFF3108372B6036072B6704780F310881C
:105AA0007047C046012803D8024B0B60002000E07D
:105AB000062070473015010070B50F250D40CC0948
:105AC00000281ED04668002E19D06D0025436C00BA
:105AD0006419A4000419247D002C14D16C006519EC
:105AE000AD00451901242C754CB2002C03DAB468C2
:105AF0000068A04708E0F4680068A04704E00620BA
:105B000002E0032000E0022070BDC04608B5002876
:105B100008D04368002B03D05B690068984702E017
:105B2000062000E0032008BD38B5051C01226F23C4
:105B3000C2540E210022FFF7E9FF02226E23EA542D
:105B400000226C23EA540023002107E05A00D218F7
:105B50009200AA18D160116111750133072BF5D994
:105B6000281C01210022AB68984700226F23EA54C9
:105B7000002038BD70B582B0051C0E1C01A8FFF7CF
:105B800087FF002314E0DA00D21A12011A49525892
:105B9000002A0CD0DA00D21A12018A18683252791F
:105BA000AA4204D10198FFF779FF012022E00133D6
:105BB000002BE8D00023104C16E0DA00D21A1201B4
:105BC0001259002A0FD10C49D800C21A12018A18A2
:105BD00068325571C31A1B01CB1833600198FFF767
:105BE0005DFF002006E00133002BE6D00198FFF7AF
:105BF00055FF022002B070BD18ECFF1F10B582B037
:105C0000041C01A8FFF744FF002323606D22A35466
:105C10000198FFF743FF002002B010BD08B583686C
:105C200006210022984708BD10B584B00B7A0F22D8
:105C30001A40DC09102B02D0152B03D005E0FFF72A
:105C400073FF30E0FFF7EAFF2DE0032A28D8520067
:105C5000224353009B189B00C318DB68002B21D004
:105C600001AC0B6801934B6802934B7A2372002BB3
:105C700004D0002303752021435405E053009B18F2
:105C80009B00C3180021197551008B189B00C31885
:105C9000DB688A1892008218126901A9984702E00D
:105CA000012000E0012004B010BDC04608B5002965
:105CB00007D0002807D08368002B06D0FFF7B4FF79
:105CC00004E0032002E0032000E0012008BDC046FC
:105CD00008B500210022FFF719FF08BD08B5012112
:105CE0000022FFF713FF08BD10B5041E0CD0436857
:105CF000002B04D05B680068984700236360201C79
:105D0000FFF77CFF002000E0032010BDF0B5474600
:105D100080B482B0071C0C1C904600230193002A1B
:105D200055D001A9FFF726FF002851D1019A9460B0
:105D30006D23D75400236C2153546F2153540025F5
:105D400007E05C00E418A4001419E56025612575DE
:105D50000133072BF5D9111D381CFFF7A3FE041ED4
:105D600004D00198FFF74AFF201C31E0019A5368E4
:105D7000002B04D1101CFFF741FF062028E01C680F
:105D8000002C0ED0596800290BD09968002908D042
:105D9000D968002905D01969002902D05B69002B58
:105DA00004D1101CFFF72AFF072011E0381C111C3A
:105DB000A047041E04D00198FFF796FF201C07E0BF
:105DC000019B02216E2299544246136000E0032099
:105DD00002B004BC9046F0BD10B50F2421408024D1
