:1000000000600020E904000059CB000029CB00006B
:1000100000000000000000000000000000000000E0
:1000200000000000000000000000000089CB00007C
:100030000000000000000000B9CB0000E5B70000A0
:100040006105000065050000690500006D05000000
:100050004905000049050000490500004905000068
:100060007105000075050000790500007D050000A0
:1000700081050000D5CC000089050000490500007D
:1000800049050000490500004905000001DF0000A6
:100090004905000049050000A5B700008D050000D6
:1000A000C9C60000490500004905000049050000D7
:1000B00049050000490500004905000069B7000036
:1003C0006B636667FFFFFFFFFFFFFFFFFFFFFFFF9E
:1003D000F0FFFFFFF7081200AC4E0100FFFFFF0027
:1003E000FFFFFFFFFFFFFFFF00FFFFFFFFFFFFFF1C
:1003F000FFFFFFFF00000000000000000000000001
:10040000FFFFFFFFFFFFFFFFFFFFFFFFFE31FFFFCB
:1004100010B5064C2378002B07D1054B002B02D0DA
:10042000044800E000BF0123237010BD00E4FF1F5B
:1004300000000000E065010008B5084B002B03D068
:100440000748084900E000BF07480368002B03D0B5
:10045000064B002B00D0984708BDC04600000000A6
:10046000E065010004E4FF1F48E2FF1F00000000F8
:10047000164B002B00D1144B9D46402292029A1A33
:10048000924600218B460F461348144A121A0FF069
:10049000EEF90F4B002B00D098470E4B002B00D0ED
:1004A00098470020002104000D000D48002802D0CC
:1004B0000C4800E000BF0FF0ABF9200029000CF061
:1004C00077FA0FF08FF9C0460000080000600020A6
:1004D000000000000000000000E4FF1FFC290020D5
:1004E000000000000000000072B60E480E490160D6
:1004F0000A6882F308880D4880470D490D4A0E4B63
:100500009B1A03DD043BC858D050FBDC0B490C4A56
:10051000521A03DD00208850043AFCDA62B609481A
:100520008047000008ED00E000000000799D000019
:100530000866010000E0FF1F4CE2FF1F00E4FF1F00
:10054000FC290020710400001148004711480047B1
:10055000114800471148004711480047114800471B
:10056000114800471148004711480047114800470B
:1005700011480047114800471148004711480047FB
:1005800011480047114800471148004711480047EB
:10059000E9CB000059CB000029CB000089CB00003B
:1005A000B9CB0000E5B7000099800000A9800000E9
:1005B000B9800000C9800000618D0000798D0000C5
:1005C0006D950000A59500007D91000099910000B7
:1005D0004986000045920000002934D00123002202
:1005E00010B488422CD301242407A14204D28142B2
:1005F00002D209011B01F8E7E400A14204D28142C2
:1006000002D249005B00F8E7884201D3401A1A433E
:100610004C08A04202D3001B5C0822438C08A04275
:1006200002D3001B9C082243CC08A04202D3001B2B
:10063000DC082243002803D01B0901D00909E3E7A5
:10064000101C10BC7047002801D00020C04307B424
:10065000024802A14018029003BDC046D900000024
:100660000029F0D003B5FFF7B9FF0EBC4243891A49
:100670001847C046002941D010B4041C4C40A44681
:1006800001230022002900D54942002800D540421C
:1006900088422CD301242407A14204D2814202D2F1
:1006A00009011B01F8E7E400A14204D2814202D211
:1006B00049005B00F8E7884201D3401A1A434C080E
:1006C000A04202D3001B5C0822438C08A04202D344
:1006D000001B9C082243CC08A04202D3001BDC086C
:1006E0002243002803D01B0901D00909E3E7101CAD
:1006F0006446002C00D5404210BC7047002806D04C
:1007000003DB0020C043400801E08020000607B45E
:10071000024802A14018029003BDC0461900000023
:100720000029EBD003B5FFF7A7FF0EBC4243891A9F
:100730001847C0467047C0468446101C62468C4627
:10074000191C634600E0C0461FB501F039FF0028C0
:1007500001D40021C8421FBD10B501F069FE40421E
:10076000013010BD10B501F02BFF002801DB002087
:1007700010BD012010BDC04610B501F021FF0028BA
:1007800001DD002010BD012010BDC04610B501F0F4
:1007900099FE002801DC002010BD012010BDC046DC
:1007A00010B501F08FFE002801DA002010BD0120F5
:1007B00010BDC0468446081C6146FFE71FB500F027
:1007C00089FC002801D40021C8421FBD10B500F0EB
:1007D0000FFC4042013010BD10B500F07BFC00283A
:1007E00001DB002010BD012010BDC04610B500F097
:1007F00071FC002801DD002010BD012010BDC046A5
:1008000010B500F01FFC002801DC002010BD012005
:1008100010BDC04610B500F015FC002801DA00201C
:1008200010BD012010BDC046002B15D1002A13D1E8
:10083000002900D1002807D003DB0020C043410875
:1008400002E080210906002007B4024801A14018F7
:10085000029003BDE1FEFFFF03B4684601B50298B4
:1008600000F0FEF8019B9E4602B00CBC7047C046EB
:10087000002B11D1002A0FD1002900D1002802D06D
:100880000021C943081C07B4024802A14018029085
:1008900003BDC046A1FEFFFF03B4684601B5029840
:1008A00000F0FAF8019B9E4602B00CBC7047C046AF
:1008B0009C460304F0B51B0C17043F0C150C1E1CC2
:1008C000041C000C7E436B4347434543FB18300C2C
:1008D0001818874202D980235B02ED18030CED182B
:1008E00063465C434A433604360CA1180004801961
:1008F0004919F0BD0000000038B50E4B0C4A041C2D
:100900000D1CFFF74DFF002804D1201C291C02F00C
:1009100099FC38BD074B064A201C291C02F05EF9E1
:1009200002F090FC80231B06C018F2E7C046C046C8
:10093000000000000000E04138B50E4B0C4A051CD9
:100940000C1CFFF70FFF002804D1281C211C00F00D
:1009500013F838BD80231B06E118281C00F00CF8A2
:10096000021C0B1C002150429941F2E7C046C046D0
:10097000000000000000000070B50E4B0C4A0D1C7A
:10098000041C01F09BFEFFF7B7FF061C02F0CCFC35
:10099000094A0A4B01F092FE021C0B1C201C291C68
:1009A00002F01CF9FFF7A8FF311C70BDC046C0461D
:1009B000000000000000F03D000000000000F041D9
:1009C00070B5164D144C021C061C0B1C1648A418BE
:1009D0005D41854219D9520504D0F60AF3028026FA
:1009E00036011E43081C02F061FC0D4A0D4B01F05C
:1009F00065FE0D1C041C301C02F096FC2B1C221CF6
:100A000000F0D0FE02F016FD70BD8542EAD1A01CB8
:100A1000E1D8E7E7C046C046FFFFFFFFFFFF1F002A
:100A2000000000000000F041FFFF3F00C046C0464C
:100A300070B5061C081C02F039FC084B064A01F090
:100A40003DFE0D1C041C301C02F06EFC2B1C221CF5
:100A500000F0A8FE70BDC046000000000000F0419C
:100A6000F0B583B0161C1F1C0090019102F08CFDA4
:100A7000041C0D1C221C2B1C301C391CFFF718FFFA
:100A8000009A019B121A8B410899201C0A604B6046
:100A9000291C03B0F0BDC046F0B583B0141C1D1C6A
:100AA0000090019102F04CFF221C2B1C061C0F1C15
:100AB000FFF7FEFE009A019B121A8B410899301C29
:100AC0000A604B60391C03B0F0BDC046F8B5430264
:100AD0004400C50F4E024800240E2A1C9B09000E3C
:100AE000C90FB6098D425BD0221A002A00DC89E0CA
:100AF00000281DD1002E00D075E0580704D00F2229
:100B00001A40042A00D004338021C90419402A1C49
:100B100000293AD00134FF2C00D17FE09B015B0A11
:100B20005B02E4B2E405580AD20720431043F8BD43
:100B3000FF2CE2D08021C9040E431B2A00DD2DE1E9
:100B4000311C2020D140821A9640721E96410E43DD
:100B50009B1B5801D1D59B019F09381C02F0F6FC64
:100B6000421F974094425BDC141B1F231B1B3A1C43
:100B70009F40611C3B1CCA405F1EBB4113430024C5
:100B8000BBE7131EB9D100230022DB08FF2C04D1E0
:100B9000002B43D08020C00303435B025B0ABFE706
:100BA000211A002940DD002823D0FF2CA5D0802069
:100BB000C00406431B2900DDEEE0301C2027C8409E
:100BC000791A8E40711E8E4106439B19590100D43B
:100BD00093E70134FF2C55D0714901221A400B4094
:100BE0005B08134389E7013A002AB1D0FF2CA4D156
:100BF00083E7002E00D180E701390029E5D0FF2CE2
:100C0000D8D17AE7002A1BD1621CD2B2012A4BDD6F
:100C10009F1B7A0123D5F71A0D1C9EE700237FE75F
:100C20005F4BA41A3B4068E7002946D1611CC8B25B
:100C3000012829DDFF2924D0F3185B080C1C5CE790
:100C4000002C13D0FF2818D08024E4045242234300
:100C50001B2A4DDD0123F31A041C0D1C79E7002F1C
:100C600000D07AE70023002200248EE7002B3BD03F
:100C7000D243002AEFD0FF28EAD1331CFF240D1CF9
:100C80003BE7FF24002380E7002C5CD1002B00D140
:100C900080E0002E00D130E79B19580100D42CE7EA
:100CA0003F4A0124134028E7002C15D1002B40D1E6
:100CB000002E63D0331C0D1C1FE7002C21D1002B0C
:100CC00054D0C943002904D0FF284CD01B2958DD3B
:100CD00001239B19041C79E7002B19D1002E48D061
:100CE000331C0D1CFF2408E7331C041C0D1C04E7F7
:100CF0001C1C2025D440AA1A93405A1E934123431A
:100D0000A9E7FF282FD08024E40449422343DDE7EC
:100D1000FF24002E00D1F0E68022DB08D20313422C
:100D200004D0F608164201D1331C0D1CDB00FF2451
:100D3000E3E6002E00D1E0E69A1B500100D420E744
:100D4000F31A0D1CD9E6002B0DD0FF24002E00D184
:100D5000D3E68022DB08D2031342E7D0F60816421E
:100D6000E4D1331CE2E7331CFF24C6E6331C041C29
:100D7000C3E6802300229B04FF2406E7231C0022F5
:100D800003E71C1C2027CC40791A8B40591E8B414D
:100D900023439EE7331CB0E6012616E70126D7E67B
:100DA000FFFFFFFBF0B55F4656464D464446F0B4A4
:100DB00046024500C00F85B00F1C760A2D0E8046F6
:100DC00041D0FF2D26D08024240400212643F600A4
:100DD0007F3D89468B46F90F7C027800640A000E3D
:100DE00000918A463CD0FF2834D080231B041C434A
:100DF0000023E4007F380193009F4346019A7B4023
:100E000049469C4611430F2900D971E0764F89006D
:100E10007F58BF46002E3ED10822022391469B46B2
:100E2000D9E75A46341CC24601920199022937D0AB
:100E3000032900D1CFE0012900D0ABE053460B409D
:100E40000022002632E0002E19D104210122894619
:100E50009346C0E7221C531E9A4102320192CBE70F
:100E600001270197002CC7D0201C02F06FFB431F05
:100E70009C4076235B420021181A0191BCE7301C8C
:100E800002F064FB7625431F9E406D4200232D1A1D
:100E900099469B469FE70C23032199468B469AE788
:100EA000D446012367463B40FF2200267602D20546
:100EB000700ADB071043184305B03CBC90469946C6
:100EC000A246AB46F0BD80260023F603FF22EDE7E5
:100ED00000220026EAE78020C00306423BD00442FD
:100EE00039D1061C26437602760A009BFF22DDE7F5
:100EF000281A039076016401A64239D3361B1A22C0
:100F000001230120311C5B007600002901DBB44283
:100F100001D8361B0343013A002AF3DC741EA641B4
:100F2000341C1C43039A7F32002A27DD630704D058
:100F30000F232340042B00D00434270103D52B4B6F
:100F4000039A1C408032FE2A0BDD012361460B40D0
:100F5000FF220026AAE706437602760A4346FF22CE
:100F6000A4E7A40101236746660AD2B23B409DE78D
:100F7000039F1B22013F03970023C2E77E23039FA9
:100F80005B42DB1B1B2B07DD012361460B4000226C
:100F900000268BE7D446C5E7221CDA40039B9E332C
:100FA0009C40231C5C1EA34113435A0704D00F220C
:100FB0001A40042A00D004335F0105D5012361469D
:100FC0000B400122002671E79E0162460123134077
:100FD000760A00226AE78026F60326437602760A1E
:100FE0005346FF2262E7C046B82B0100FFFFFFF720
:100FF0004A02430270B55C0A550A43004A001B0EC0
:10100000C60F120EC90FFF2B05D0FF2A08D00120F2
:1010100093420BD070BD0120002CFBD1FF2AF6D1EA
:101020000120002DF6D101209342F3D1AC42F1D141
:101030008E4205D0002BEDD1201C441EA041E9E7D3
:101040000020E7E74A024302F0B55C0A550A430074
:101050004A001B0EC60F120EC90FFF2B31D0FF2AFC
:1010600034D0002B16D1604260418446002A14D04F
:10107000002820D18E4217D1934215DC04DBAC420C
:1010800012D80020AC4212D270427041404201237B
:1010900018430CE0002AEDD194466F426F41604640
:1010A000002805D1002FE5D0704201231843F0BD80
:1010B0000020002FFBD14842484140420123184301
:1010C000F5E7002CCBD002204042F0E7002DC8D03D
:1010D000F9E7C0464A024302F0B55C0A550A4300EC
:1010E0004A001B0EC60F120EC90FFF2B27D0FF2A76
:1010F00029D0002B10D0002A15D194466F426F41A1
:101100006046002815D00020002F04D148424841F5
:10111000404201231843F0BD604260418446002AEA
:10112000ECD00028F2D18E4211D070420123184336
:10113000F1E7002FF7D0704201231843EBE70220BC
:10114000002CE8D1D3E70220002DE4D1D1E793426F
:10115000EBDC04DBAC42E8D80020AC42DBD27042CE
:101160007041404201231843D5E7C046F0B55F46C1
:1011700056464D464446F0B44402460083B00F1C28
:10118000640A360EC50F002E41D0FF2E22D08023D8
:101190001B0400201C43E4007F3E82468046391C2D
:1011A0004B007F02C90F7F0A1B0E8B463BD0FF2BE3
:1011B00034D0802212041743FF007F3B00215A469F
:1011C0006A40019252460A430F2A63D87A48920035
:1011D00082589746002C3FD1082202239246984617
:1011E000DDE70195404602282AD1019A01251540E4
:1011F000FF2300246402DB05600AED07184328433F
:1012000003B03CBC90469946A246AB46F0BD002CCC
:1012100027D10420012282469046C0E7391C4A1E8D
:1012200091410231CBE70121002FC8D0381C02F0D8
:101230008DF9431F9F4076235B421B1A0021BEE7B6
:10124000032800D1AEE001284FD10198424610405A
:10125000C5B200230024CDE70C2303209A46804624
:101260009DE7201C02F072F97626431F9C407642CF
:101270000023361A9A46984691E780240025E40315
:10128000FF23B7E75B463C1C01938846AAE73C1C5A
:101290008846A7E7250C24043A0C240C3F04F618D2
:1012A0003F0C211C231C794353436F435543FB18C8
:1012B0000A0C9B18B1469F4202D980225202AD18F7
:1012C00009041A04090C521894011B0C611E8C416C
:1012D000920EED181443AD012C43230105D50122D4
:1012E00063080120144081441C434B467F33002B8C
:1012F0002DDD600704D00F222240042A00D00434E0
:10130000220103D52D4B1C404B468033FE2B17DDAD
:10131000019B01251D400024FF236BE78020C003B3
:10132000044208D0074206D1041C3C436402640A0C
:101330005D46FF235EE704436402640AFF2359E726
:101340000198A4010125640ADBB2054052E77E231F
:101350005B424A469B1A1B2B05DD019B01251D4064
:101360000024002346E7221CDA404B469E339C4073
:10137000231C5C1EA3411343580704D00F221A40BC
:10138000042A00D004335A0105D5019B01251D40D4
:10139000002401232EE701989C010125640A0540E1
:1013A000002327E78027FF03019B3C4364020125BC
:1013B0001D40640AFF231DE7F82B0100FFFFFFF724
:1013C000F8B5C20F430244004D024800240E161C1B
:1013D0009B09000EC90FAD09FF2800D183E001274A
:1013E00079408A425CD0221A002A00DC8EE0002874
:1013F0001ED1002D00D07AE0580704D00F221A40E9
:10140000042A00D004338021C9040122194032404B
:1014100000293AD00134FF2C00D183E09B015B0A04
:101420005B02E4B2E405580AD20720431043F8BD3A
:10143000FF2CE1D08021C9040D431B2A00DD31E1DE
:10144000291C2020D140821A95406A1E95410D43E7
:101450005B1B5801D0D59B019F09381C02F076F820
:10146000421F974094425FDC141B1F231B1B3A1C36
:101470009F40611C3B1CCA405F1EBB4113430024BC
:10148000BAE7131EB8D100230022DB08FF2C04D1D9
:10149000002B47D08020C00303435B025B0ABFE7F9
:1014A000211A002944DD002827D0FF2CA4D0802059
:1014B000C00405431B2900DDF2E0281C2027C8409A
:1014C000791A8D40691E8D4105435B19590100D47D
:1014D00092E70134FF2C59D0734901221A400B4086
:1014E0005B08134388E7002D00D07AE777E7013ADD
:1014F000002AADD0FF2CA0D17EE7002D00D17BE7E4
:1015000001390029E1D0FF2CD4D175E7002A1BD185
:10151000621CD2B2012A4BDD5F1B7A0123D5EF1A80
:101520000E1C9AE700237BE75F4BA41A3B4063E75E
:10153000002946D1611CC8B2012829DDFF2924D029
:10154000EB185B080C1C57E7002C13D0FF2818D0B1
:101550008024E404524223431B2A4DDD0123EB1A6D
:10156000041C0E1C75E7002F00D076E70023002234
:1015700000248AE7002B3BD0D243002AEFD0FF287B
:10158000EAD12B1CFF240E1C36E7FF2400237CE746
:10159000002C5CD1002B00D180E0002D00D12BE786
:1015A0005B19580100D427E73F4A0124134023E781
:1015B000002C15D1002B40D1002D63D02B1C0E1C0C
:1015C0001AE7002C21D1002B54D0C943002904D0A4
:1015D000FF284CD01B2958DD01235B19041C75E73B
:1015E000002B19D1002D48D02B1C0E1CFF2403E723
:1015F0002B1C041C0E1CFFE61C1C2026D440B21A17
:1016000093405A1E93412343A9E7FF282FD08024FB
:10161000E40449422343DDE7FF24002D00D1EBE63B
:101620008022DB08D203134204D0ED08154201D119
:101630002B1C0E1CDB00FF24DEE6002D00D1DBE6B8
:101640005A1B500100D41CE7EB1A0E1CD4E6002BE9
:101650000DD0FF24002D00D1CEE68022DB08D2037E
:101660001342E7D0ED081542E4D12B1CE2E72B1C16
:10167000FF24C1E62B1C041CBEE6802300229B0431
:10168000FF2402E7231C0022FFE61C1C2027CC407D
:10169000791A8B40591E8B4123439EE72B1CABE6E6
:1016A000012512E70125D3E6FFFFFFFB4302590A9C
:1016B0004300C20F1B0E00207E2B0DDD9D2B0CDC8A
:1016C000802000040143952B0ADC9620C31AD940E0
:1016D0004842002A00D1081C7047034BD018FBE792
:1016E000963B9940F4E7C046FFFFFF7F70B5041EAC
:1016F0003CD0C60F00D04442201C01F027FF9E239F
:10170000251C1B1A962B0CDC083884406402640AE2
:10171000DBB2321C6402DB05600AD20718431043B7
:1017200070BD992B0ADD0522121A211CD1400A1C1A
:10173000011C1B318D40691E8D411543052801DDBB
:10174000421F9540164C2C406A0704D00F221540CA
:10175000042D00D0043461010CD59F23181AFF28F2
:101760001AD0A401640AC3B2321CD3E700220023BA
:101770000024CFE7E408FF2B04D06402640ADBB244
:10178000321CC7E7002C04D08020C003044364024D
:10179000640A321CFF23BDE7321CFF230024B9E793
:1017A000FFFFFFFBF8B55F46564644464D46F0B492
:1017B0000C034D00CE0F610A440F2143C4001803EF
:1017C00080465800400D8246D80F84464046400A65
:1017D000530F0343D0006D0D371C834652466645B8
:1017E00000D1A4E0AF1A002F00DC09E1002A3BD1B0
:1017F000184300D0EAE0630700D187E00F232340BD
:10180000042B00D182E0221DA242A4416442802325
:1018100009191B040B40371C141C002B00D17CE061
:10182000CE4B01359D4200D105E1CD4BE408194076
:101830004807490204430B0B002000211B031A0B2D
:101840000B0D6D051B0513436A08C64DFF071D40B0
:1018500015436D006D08291C3943201C3CBC904683
:101860009946A246AB46F8BDBC488542C3D080200D
:1018700000040343382F00DDF0E01F2F00DD24E1DA
:101880002020C01B1A1C814682405846F840024363
:10189000944658464A469040421E9041FB4062465C
:1018A00002431F1CA21A9442A4416442C91B091B93
:1018B000141C0B029FD549024F0A002F00D1C8E02B
:1018C000381C01F043FE021C083A1F2A00DDB5E077
:1018D0002821091A201C9740C8400743944095428C
:1018E00000DDB2E0551B691C1F2900DDDCE01F2272
:1018F000551B3B1C221CAB40CA40AC40651EAC4192
:101900001343CF401C43391C002574E780231B047C
:101910000B40371C002B00D082E7904B4807E408AF
:101920000443C9089D4248D009030B0B84E7AA1A57
:101930009446002A00DC98E05046002852D08748A0
:10194000854200D157E78020000403436246382ACD
:1019500000DDFCE01F2A00DD4AE120226046101A6B
:101960001A1C82408246914658466246D0404A46FA
:1019700002439046584652469040421E904142468D
:1019800002436046C3401219A242A441644259185E
:101990000919141C080200D42DE7704B01359D4233
:1019A00000D122E16E4B60081940012323401C1C2A
:1019B0000443CB071C4349081DE7231C0B433AD0C3
:1019C00080231B030B431B031B0B35E7013F002F39
:1019D00065D15846221A9442A4416442C91A091B8F
:1019E000141C66E75846184300D104E7012252420E
:1019F00094446046002800D0C5E058460219C3E769
:101A0000002F73D1681C4005400D012800DCDEE08A
:101A10005A46A21A9442BF41C81A7F42C71B3802D5
:101A200000D489E05A46141BA3459241591A5242E8
:101A30008F1A664641E700230024FDE6271C28385C
:101A400087400024954200DC4CE74549AD1A3940F7
:101A5000D1E6201C01F07AFD203034E75A461A43C3
:101A6000531E9A41D2B200271CE7002A00D0DCE0C6
:101A7000681C4205520D012A00DC8DE0374DA8425A
:101A800000D1F3E05D462A19A242A44164425918EC
:101A90000919CC07520814434908051CABE62F4826
:101AA000854200D0E6E6A6E62B1C1F3B3A1CDA4036
:101AB000131C20296CD03F22551BAF403C43601EB5
:101AC00084411C430021002595E6381C20381A1C4F
:101AD000C240101C202F5DD04022D71BBB405A466D
:101AE0001A43531E9A4102430027DBE6002D3BD0E8
:101AF0001A4DAA4500D193E080252D047F42294349
:101B0000382F00DDACE01F2F00DD29E12025ED1B83
:101B1000081C261CA840FE40AC400643651EAC4194
:101B20003443F9405D462C1BA34592415B1A524257
:101B3000991A55466646BCE6131C3B43141C002B01
:101B400000D0BAE60027002100250024E5E65A4629
:101B50001A43531E9A41D2B2002314E7FF07000034
:101B6000FFFF7FFFFFFF0F800D1C254358D0FF4371
:101B7000002F51D1041BA3459241591A5242891A90
:101B80005546664695E69648854200D0DEE632E642
:101B9000002793E70023A2E7081C2043002D00D074
:101BA000C4E0002800D1F7E05846184300D122E6EF
:101BB00058460219A242A441644259180919141C3A
:101BC0000A0200D417E6874B0125194013E6081CCA
:101BD0002043002D39D1002871D15946194303D033
:101BE000191C5C46664606E600270021002494E6A0
:101BF000604620381A1CC24060469146202800D119
:101C0000ACE04022121A93405A461A43531E9A419E
:101C10004B461A430023B6E6714DAA4500D06FE744
:101C2000191C5C4655466646E5E5002D22D10D1C83
:101C3000254377D0D543002D71D15C445C4592415A
:101C40005918524289185546A4E600284DD15946E4
:101C5000194300D194E0191C5C466646604DCAE504
:101C60000C43611E8C41E4B200215BE7051C00219E
:101C7000002452E65A4DAA4554D055428022100401
:101C80000143382D00DD81E01F2D00DD92E0202290
:101C9000501B0A1C84468240201CE84002439046A8
:101CA00062469440601E844142461443E9405C44CD
:101CB0005C459241CB185242991855466AE65846FF
:101CC000184300D197E55846271ABC429241C81ADA
:101CD0005242801A020266D55846041BA34592411F
:101CE000591A5242891A664685E55846184333D038
:101CF0004807E40804438020C9080003014208D0D3
:101D0000DD08054205D15946CA085C071443291C61
:101D10006646630FC9001943E400314D6BE5304A54
:101D20009245AED1191C5C46554664E5002836D074
:101D30005846184310D080254807E408C9082D03E9
:101D400004432942E5D0D8082842E2D15D46EA089A
:101D50005C071443011CDCE7214D4CE5002353E7ED
:101D60003D1C203D0A1CEA40151C202F34D0402683
:101D7000F71BB9400C43611E8C412C430021D1E676
:101D800080210027C903164D0024C6E50C43611EBF
:101D90008C41E4B200218AE7191C5C462BE5191C32
:101DA0005C460F4D27E5031C3B4300D11CE7011C9B
:101DB0003C1C20E52020404240190A1CC2409046AD
:101DC000202D0BD04020451BA9400C43611E8C41A7
:101DD00045462C4300216AE70021CBE70021F4E7C8
:101DE000FF070000FFFF7FFFF0B5564644465F4601
:101DF0004D46F0B41F1C0B031B0B98464B0087B0DD
:101E0000041C81465B0DC80F161C9A460090002BDF
:101E100051D06A4B9A4531D08022414652030A4341
:101E2000630FD2001A43664B90460025E2009146AC
:101E30009A44002402953B031B0B9B46FD0F7B003D
:101E4000311C5B0D019560D05C4A934254D08021D7
:101E5000584649030143720FC9001143584A8B4643
:101E60009B18F1000020009A04436A4003920F2C53
:101E700000D9ADE0534EA4003459A7464046044370
:101E80006ED1002102250824884689460295D2E7B2
:101E9000009C0298C34649460194022864D0032856
:101EA00000D1ABE2012800D038E2019A00240240C0
:101EB0000025A14660E0434623434AD0404600281F
:101EC00000D1C0E101F042FB031E272B00DDB3E18E
:101ED00028210D1A211C083B4246E9409A400D1C5E
:101EE0001543221C9A40A8469146374B00251B1AE1
:101EF0009A46002402959EE75A4616430320002E78
:101F0000B1D1B34600210220ADE75A4632431BD07F
:101F10005B46002B00D18AE1584601F017FB2728C9
:101F200000DD7DE12822171A011C321C08395B46AE
:101F3000FA408B40171C1F43331C8B40BB46191CB7
:101F4000214B1B1A00208EE70027BB4600210120F1
:101F500089E70020012504248046814602956AE72E
:101F600003250C24029566E7019C0394039D01223E
:101F70002A400024114DA146002000212403260BF5
:101F80000C0D2405114B34432D0523402B435B00DE
:101F90005B08D207191C4846114307B03CBC904669
:101FA0009946A246AB46F0BD002280242403914608
:101FB000024DE1E700240025A146DDE7FF07000010
:101FC00001FCFFFF382C01000DFCFFFFFFFF0F801D
:101FD0005546ED1A0495D84500D953E100D14EE19C
:101FE000049C0025013C4E4604944746A9465846A9
:101FF00003020C0E1C430902250C23041B0C009148
:10200000381C291C0193FEF7E7FA019983464143E6
:10201000381C8A46291CFEF723FB330C090419439C
:102020008A450CD95B460919013B8C4200D947E12E
:102030008A4500D844E1022252429344091953468A
:10204000CB1A181C291C9846FEF7C6FA071C0198E3
:10205000291C784382464046FEF702FB36040B04F7
:10206000360C33439A4509D91B197A1E9C4200D974
:1020700024E19A4500D821E1023F1B195E46320453
:102080001743380CBB46009E009F51463F0C32045C
:102090005B1A5946BA46120C0F043F0C9046514643
:1020A0007A434F434146414356467043CF19160C7D
:1020B000BE19B14202D980277F02C019310C120427
:1020C0003604120C4018B618834200D2C4E000D186
:1020D000BEE0191A4846861BB145BF417F42CF1B5F
:1020E000A74200D113E1291C381CFEF775FA0199AB
:1020F00002904143381C8946291CFEF7B1FA330C83
:102100000904194389450CD9029B0919013B8C42EA
:1021100000D9FFE0894500D8FCE0029F0919023F81
:1021200002974F46CF1B381C291C0597FEF754FA1F
:10213000071C0198291C784381460598FEF790FA00
:1021400036040904360C0E43B14509D936197B1EF5
:10215000B44200D9E0E0B14500D8DDE0023F3619D5
:10216000029D4946761A290439430B0457460A0C46
:102170001B0C40464546584355437B437A43EB1876
:10218000070CDB199D4202D980256D0252191D0CE6
:1021900000041B04000C52191B18964235D300D1C1
:1021A000FCE001231943049E994FF519002D00DC32
:1021B000A1E0480709D00F230B40042B05D00B1DCD
:1021C0008B42894149428B44191C5A46D20107D59A
:1021D000904B5C46049E80271C40FF00A346F519E7
:1021E0008D4B9D427ADD039C0122224000248B4DC1
:1021F000A146C1E680242403474627424CD13C43F4
:102200002403240B009A854DB6E63619481EB442C5
:102210005ED9011C9642C4D1009E9E42C1D1C2E744
:10222000031C283B311C99408B46002188E6301C5A
:1022300001F08CF9203072E6283B211C99400022E5
:102240008846914651E6201C01F080F920303BE69B
:102250000021B14500D33DE7009F5A46B944B94536
:10226000BF417F423F19FB18013A9C421ED298425F
:1022700000D97EE000D1B5E0191A93462AE78945D6
:1022800000D8ADE64846464642467708D30746089A
:10229000C0071E438146AAE65846204212D1044395
:1022A00024032A1C240B89465C4D65E6A342E3D136
:1022B000009F4F45DBD9211A93460BE7171CDDE63B
:1022C0009B46BCE63C432403240B009A534D53E643
:1022D000B24259D800D18AE0011C62E75F46C908C2
:1022E0007B07039E0B437C026D0501229946240B5C
:1022F0006D0D324040E64A4B049FDB1B382B10DD4E
:10230000039C0122224000240025A14634E601213D
:10231000494248E7029304E71F1C21E7019C03940C
:1023200041E71F2B40DC3F48049F0C1C3A185846DD
:102330009140DC40904020430A1C511E8A41011C00
:1023400011435A46DA40131C480709D00F220A40AD
:10235000042A05D00A1D8A42894149425B18111C92
:102360001A0234D5039C0122224000240125A146F3
:1023700002E6009F02214942B9448B44B945894194
:1023800049420919CB18A4E6009D881E6900A9429C
:10239000AD416D422C19361900913AE7002B00D05F
:1023A00033E70024009437E71F4A049C5D46121B64
:1023B000D5402A1C202B1FD01C4E5F46A3199F40DE
:1023C0003B1C19434B1E994111430023BCE75A079C
:1023D000C9080A43039F91465B0201221C0B3A4045
:1023E0000025C9E54E45C4D89346002172E6009FFA
:1023F0009F42C9D3011C0FE70023E2E78024240396
:102400005F463C432403240B019A8946034DB3E500
:10241000FF030000FFFFFFFEFE070000FF070000B4
:1024200002FCFFFF1E040000E2FBFFFF3E04000071
:10243000F0B55F4656464D464446F0B40D1C041CAC
:102440008046E80F814618030F03000B3F0B83B053
:1024500084461B48009749005E00DF0F490D9246F5
:10246000760DBB4681420CD01548864210D0012023
:10247000B14215D003B03CBC90469946A246AB464B
:10248000F0BD009F01202743F4D10D488642EED1D4
:10249000604602430120002AECD10120B142E9D17B
:1024A000009B6345E6D1D045E4D1D94506D000294B
:1024B000E0D11C43201C441EA041DBE70020D9E7EB
:1024C000FF070000F0B55F4656464D464446F0B45F
:1024D000CD0FDE0FAC461D032D0BB146374E0F035B
:1024E0004C00AB465D0080463F0B640D92466D0D7F
:1024F000B44232D0314EB54235D0002C0ED13843E3
:1025000041424141081C002D0BD0002919D1CC4576
:102510002DD0654668420123184318E0002DF6D1FE
:10252000281C59460A4353425341002806D1002B28
:10253000EDD0634658420123184308E00020002BE9
:1025400005D14A46504250414042012318433CBC09
:1025500090469946A246AB46F0BD3E1C0643C9D004
:1025600002204042F3E75E461643C6D0F8E7AC428D
:1025700007DC0BDA614648424841404201231843D8
:10258000E5E76646704201231843E0E75F450AD855
:102590000ED000205F45DAD265466842684140426D
:1025A00001231843D3E76246504201231843CEE784
:1025B000D045F8D80020D045EED3C8E7FF0700008B
:1025C000F0B556464D4644465F46F0B40D1C83B008
:1025D000041C0190E80F814618030F03000B3F0B0A
:1025E00084463548009749005E00DF0F490D92464A
:1025F000760DB846814234D02F48864236D0002925
:1026000018D0002E1FD1341C67463A435342534121
:10261000002C1FD00020002B05D1424650425041D3
:1026200040420123184303B03CBC90469946A24661
:10263000AB46F0BD0098044360426041041C002E8C
:10264000E2D00028E9D1C14515D04F467842012398
:102650001843E8E7002BF6D04B46584201231843B5
:10266000E1E7009F02202743DDD1C5E7674602204E
:102670001743D8D1C3E7B14204DD4A465042012393
:102680001843D0E7B14207DB00986045E4D80AD090
:10269000009F00206745C6D24F46784278414042AD
:1026A00001231843BFE7019A5245D5D8019A00206B
:1026B0005245F1D3B7E7C046FF070000F0B55646D4
:1026C00044465F464D46F0B41F1C0B031B0B9A4655
:1026D0004B0087B0041C80465B0DC80F161C02938C
:1026E0008146002B68D0694B0299994232D08022F2
:1026F000534652031A43D200630F1A439246644A68
:10270000E000891880460291002400253B031B0B42
:102710009B467800FB0F321C400D039300D175E0FF
:102720005A4B984269D08022594652030A43730F8C
:10273000D2001A43564B9346C018F2000023039967
:102740004E4671401C430F2C00D9A9E0514EA40005
:102750003459A74653461C4300D087E00025AA46BB
:10276000A84608240225D1E74946022D6CD0032D46
:1027700000D117E2012D00D058E10D40EDB2002448
:10278000A9460023A0460020002125030A0D1C05B0
:102790002D0B1205404B2A43134023435B004C464C
:1027A0005B08E207191C4046114307B03CBC904649
:1027B0009946A246AB46F0BD5346234350D05346FC
:1027C000002B00D184E1504600F0C0FE031E272BF1
:1027D00000DD76E128210D1A211C083B5246E94014
:1027E0009A400D1C1543221C9A40AA4690462B4B3A
:1027F00000241B1A0293002588E75B461E4303232F
:10280000002E9CD1B3460022022398E75B46334357
:1028100021D05846002800D14EE100F097FE27282D
:1028200000DD42E128210F1A021C311C083A5B46E8
:10283000F94093400F1C1F43331C9340BB461A1CA6
:10284000164B181A00237AE701230B4000249946FF
:10285000A0460E4B97E70027BB46002201236EE7F8
:10286000002104248A46884601254FE70C240325CD
:102870004CE700258024A9462403A846034B82E7A1
:10288000DA46904603991D1C6FE7C046FF0700001B
:1028900001FCFFFF782C0100FFFF0F800DFCFFFF04
:1028A000029F160C381804904046070C0004000CD8
:1028B0001204120C031C5343041C3D1C7443554367
:1028C00098463B1C73436419A44644460293230C68
:1028D00063449D4204D9029D802464022D1902950F
:1028E0001D0C039545462C041B04240C1C1905944F
:1028F0005C46230C051C58432404240C8446381CD5
:10290000604365435F438146CC44280C6044BB462A
:10291000814502D980277F02BB442D04070C2D0C72
:10292000000440195546BC462F04E3448446280C55
:102930003D0C2F1C5743B8462F1C77434243B946E2
:1029400047463F0C9144BA46D14446434A4502D9D2
:1029500080225202B6184F463A0CB6183A0447463F
:102960003F043F0CB8462F1C67435D434443584324
:1029700065190190380C2D184244B846AC4204D970
:10298000019880235B02C0180190039C029F201CC9
:102990006044C0196045A44147466442A4462B04E4
:1029A0003C049946240C4C44A046D8448018C246A6
:1029B000E24490429241574652429146F219E24512
:1029C000BF417F424B46BC46D845BF41D4187F42E9
:1029D00063461F432D0C7F19B24292414C45AD41D5
:1029E00052426D421543019E7D19AB19E20D5B0207
:1029F000059F134342023A439A46531E9A41C30D20
:102A0000101C18436402204380465046C0010DD577
:102A1000454601225646049C6B082A401A43F30798
:102A200001341A43760804949046B246049E634FDC
:102A3000F319002B61DD404640070BD00F224446BE
:102A40002240042A06D04246043242458041404298
:102A5000824490465546ED0107D5594B5646049F92
:102A600080201E40C000B2463B18564A934200DD0B
:102A7000EAE644465546E2086807104301226C0224
:102A80005B050A408046240B5B0D91467BE6DA46E7
:102A900090461D1C69E680242403574627421CD11A
:102AA0003C432403240B484B6DE6031C283B311C9C
:102AB00099408B460022C3E6301C00F047FD2030D1
:102AC000ADE6283B211C994000228A4690468EE6BE
:102AD000201C00F03BFD203078E65846204207D10C
:102AE000044303992403240B89469046364B4AE657
:102AF0003C432403240B344B45E6344B049E9B1B80
:102B0000382B06DD01230B4000249946A046002304
:102B100039E61F2B25DC049C2D4D46466019524694
:102B200044468640DC4082405746301C2243DF400A
:102B3000441EA04102433B1C540709D00F20104003
:102B4000042805D0101D9042924152429B18021C4D
:102B50001D021AD501230B4000249946A0460123EB
:102B600011E61C48049C5546001BC540281C202B20
:102B700016D0194E5746A21997403A1C43461A439D
:102B8000531E9A4102430023D6E758075B02D2083E
:102B90001C0B01230B401043994680460023F2E5AD
:102BA0000022EBE78024240350460123044319400C
:102BB0002403240B8946044BE5E5C046FF030000CF
:102BC000FFFFFFFEFE070000FF07000002FCFFFF03
:102BD0001E040000E2FBFFFF3E040000F8B55F4664
:102BE000564644464D46F0B40C034D00CF0F610AE3
:102BF000440F2143C4001803DE0F8046B446464606
:102C00005800760A530F3343D600D14A6D0DBA46A9
:102C1000400DB346904200D1F5E062460126724075
:102C20009446674500D1ABE02F1A002F00DC11E17C
:102C300000283ED15846184300D0F1E0600700D18B
:102C400097E00F232340042B00D122E1221DA24252
:102C5000A4416442802309191B04012750460B40FC
:102C60000740141C002B00D179E0B94B01359D427F
:102C700000D10BE1B74BE40819404807490204436F
:102C80000B0B002000211B031A0B0B0D6D051B0500
:102C900013436A08B04DFF071D4015436D006D08D2
:102CA000291C3943201C3CBC90469946A246AB46A1
:102CB000F8BDA7488542C1D0802000040343382FC7
:102CC00000DDFDE01F2F00DD31E12020C01B1A1CBC
:102CD0005E468240FE40324394465A468240101C73
:102CE000421E9041FB40624602431F1CA21A9442BE
:102CF000A4416442C91B091B141C0A029ED5490247
:102D00004F0A002F00D1D6E0381C00F01FFC021C37
:102D1000083A1F2A00DDC3E02821231C091A974026
:102D2000CB401F439440954200DDC0E0551B691C19
:102D30001F2900DDEAE01F22551B3B1C221CAB4073
:102D4000CA40AC40651EAC411343CF401C43391C04
:102D5000002573E780217E4D0027C90300247C4BAA
:102D60004807E4080443C9089D4250D009030B0BEF
:102D700087E780231B04012752460B40174071E769
:102D80002A1A9446002A00DCA1E0002854D070489A
:102D9000854200D152E78020000403436046382872
:102DA00000DD0EE11F2800DD57E162462020801A79
:102DB0001E1C8640B1465E46D6404A4632435E46B9
:102DC00086409046301C421E904142460243604677
:102DD000C3401219A242A441644259180919141C93
:102DE000080200D42AE75A4B01359D4200D131E157
:102DF000584B60081940012323401C1C0443CB0797
:102E00001C4349081AE71E4300D00AE705E7231CC4
:102E10000B433BD080231B030B431B031B0B30E7EF
:102E2000013F002F6DD15E46A21B9442A441644233
:102E3000C91A091B141C60E75846184300D1FDE667
:102E400001267642B4446046002800D0D0E05E46B9
:102E50003219BFE7002F00D080E0681C4005400D0C
:102E6000012800DCE8E05A46A21A9442BF41C81A81
:102E70007F42C71B3E0200D498E05846041BA3457E
:102E80009241591A52428F1AE2463AE7002300242F
:102E9000F7E680231B04012756460B403740E1E646
:102EA000271C283887400024954200DC3EE729494A
:102EB000AD1A3940C2E6201C00F048FB203026E75E
:102EC0005A461A43531E9A41D2B200270EE7002AEF
:102ED00000D0DEE0681C4605760D012E00DC90E097
:102EE0001B4DA84200D1F5E05E463219A242A44132
:102EF000644259180919CC07520814434908051CA3
:102F00009CE61348854200D0D9E697E62B1C1F3B70
:102F10003E1CDE40331C20296FD03F22551BAF40A2
:102F20003C43601E84411C430021002586E6381C7A
:102F300020381E1CC640301C202F60D04022D71BDA
:102F4000BB405A461A43531E9A4102430027CDE61E
:102F5000FF070000FFFF7FFFFFFF0F80002D37D02E
:102F6000B64DA84200D18FE080252D047F42294331
:102F7000382F00DDA8E01F2F00DD24E12025ED1B08
:102F80000E1CAE40B046261CFE404246AC401643E6
:102F9000651EAC413443F9405A46141BA345924187
:102FA0005B1A5242991A051CE246A6E6131C3B43E3
:102FB000141C002B00D0A4E60027002100250024CB
:102FC000CDE65A461A43531E9A41D2B2002300E777
:102FD0000D1C254358D0FF43002F51D15A46141BD6
:102FE000A3459241591A5242891A051CE24684E6C9
:102FF0009248854200D0D1E620E6002790E70023E2
:103000009FE7081C2043002D00D0C2E0002800D11B
:10301000EFE05846184300D110E658460219A24284
:10302000A441644259180919141C0A0200D405E687
:10303000834B0125194001E6081C2043002D38D19F
:1030400000286FD15946194303D0191C5C46E2464B
:10305000F4E500270021002481E6604620381A1C90
:10306000C2406646101C202E00D1AAE04022921BCE
:1030700093405A461A43531E9A4102430023A8E63E
:103080006E4DA84200D073E7191C5C46051CE24651
:10309000D4E5002D22D10D1C254376D0D543002D3B
:1030A00070D15C445C459241591852428918051C04
:1030B00096E600284CD15946194300D14AE6191C1E
:1030C0005C46E2465D4DB9E50C43611E8C41E4B2BD
:1030D000002161E7051C0021002440E6574DA8426D
:1030E00053D05542802216043143382D7BDC1F2DEE
:1030F00000DD8CE02022561B0A1CB446B240261C80
:10310000EE403243904662469440661EB4414246C9
:103110001443E9405C445C459241CB1852429918F3
:10312000051C5DE65846184300D187E55E46A71B9F
:10313000BC429241C81A5242801A060260D55846D3
:10314000041BA3459241591A5242891AE24675E579
:103150005846184333D04807E40804438020C90880
:103160000003014208D0DD08054205D15946CA08CE
:103170005C071443291CE246630FC9001943E400AD
:103180002E4D5BE52D4A9042AFD1191C5C46051CC3
:1031900054E5002830D05846184310D08025480701
:1031A000E408C9082D0304432942E5D0D808284281
:1031B000E2D15D46EA085C071443011CDCE71F4DC1
:1031C0003CE5002355E73D1C203D0E1CEE40351C20
:1031D000202F2ED04026F71BB9400C43611E8C4196
:1031E0002C430021D8E60C43611E8C41E4B200213F
:1031F00090E7191C5C4621E5191C5C460F4D1DE546
:10320000031C3B4300D124E7011C3C1C16E520268F
:10321000764276190A1CF2409046202D0BD04026AB
:10322000751BA9400C43611E8C4145462C4300216F
:1032300070E70021D1E70021F4E7C046FF07000056
:10324000FFFF7FFF70B50B1C124C09030E0B5900DA
:10325000021C490DDD0F0020A14211DD0E48814204
:103260000FDC8020400306430C48401A1F280BDD6A
:103270000B4A521AD640321C5042002D00D1101C6D
:1032800070BD084BE818FBE7074BC240C9188E40D9
:103290003243F1E7FE0300001D0400003304000088
:1032A00013040000FFFFFF7FEDFBFFFFF8B5041ED6
:1032B00031D0C70F00D04442201C00F047F9184D10
:1032C0002D1A0A2819DD0B38844024036D05240BC0
:1032D0006D0D3A1C0026002000210B0D2403240B49
:1032E0001B0523430F4C2D051C402C436400640830
:1032F000D307211C301C1943F8BD061C1536231CAE
:10330000B3401E1C0B23181AC44024036D05240B64
:103310006D0D3A1CDFE70022002500240026DAE7C5
:103320001E040000FFFF0F8010B5041E28D000F01F
:103330000DF9154A121A0A2815DD0B3884402403AA
:103340005205240B520D0023002000212403181CD9
:103350000B0D240B1B0523430C4C12051C4014437E
:103360006400610810BD031C1533211C99400B1C1F
:103370000B21081AC44024035205240B520DE3E725
:10338000002200240023DFE71E040000FFFF0F805F
:1033900043001B0E5A1C4102D2B270B54C0AC50F35
:1033A000012A17DDE02292006407090B9818002219
:1033B00000231E0D221C34050C431B494005400808
:1033C0002140014349004908ED070B1C2B43101C09
:1033D000191C70BD002B15D1002C1CD0201C00F036
:1033E000B5F80A281ADC0B21091A231CCB40191C3A
:1033F000031C15339C400D4B0903181A4005090B9B
:10340000400DD4E7002C03D06407090B0848CEE731
:1034100007480021CBE700200021C8E7011C0B3939
:103420008C40211C0024E6E7FFFF0F808903000089
:10343000FF070000F0B54B000D03420F5B0D6D0A56
:1034400015435A1C5205CC0FC600520D012A27DD28
:10345000394FDA19FE2A1ADC002A35DD8001ED0029
:10346000431E98412843760F3043430704D00F236F
:103470000340042B00D004308021C904014027D030
:103480000132FF2A1DD083015B0AD1B201E0FF2186
:1034900000235802C905400AE40708432043F0BD51
:1034A000002B06D1354311D10021002043025B0AD5
:1034B000EFE72E43EBD08020ED0080042843FF226D
:1034C000D3E7FF210023E4E717320DDA05200022BD
:1034D000C008D1B2FF2AE9D10028D9D08023DB036C
:1034E00003435B025B0AD4E78022144912041543AC
:1034F000C91A1F290DDC124A371C9B18281C9F4033
:1035000098403B1C5A1E93411843CE403043002242
:10351000ABE70C4F2A1CFF1AFA40171C202909D0D0
:10352000094A98188540281C3043461EB04138434C
:1035300000229AE70020F7E780FCFFFF9E030000CF
:1035400082FCFFFF7E030000A2FCFFFF1C21012381
:103550001B04984201D3000C10391B0A984201D376
:10356000000A08391B09984201D30009043902A254
:10357000105C40187047C0460403020201010101BB
:103580000000000000000000F0B544465F465646CB
:103590004D46F0B41C1C85B0002900DADBE00F1C9E
:1035A0000021061C8A46101C191C002C00DAC9E0F8
:1035B0000196009089468046002951D1B84200D832
:1035C00071E0FFF7C3FF002809D020234546311CD6
:1035D0001B1A85408740D940A8460F438640424683
:1035E000150C13041B0C291C381C9B46FCF7F4FF1C
:1035F0005B464343041C291C381C9946FDF730F8F0
:10360000330C08041843814509D94044631E8045A2
:1036100000D978E1814500D875E1023C4044494633
:10362000411A8946081C291CFCF7D6FF5A4642431A
:10363000071C291C48469346FDF712F83604090476
:10364000360C0E43B34507D946447B1EB04502D81D
:10365000023FB34500D81F1C24042743002403E085
:10366000B94211D9002400275246381C211C002AD7
:1036700003D03B1C00215842A14105B03CBC904600
:103680009946A246AB46F0BD081CFFF75FFF041E3B
:1036900000D0BFE0B94500D242E1019D0099071C6E
:1036A0008D424741E0E7002804D101200021FCF7CA
:1036B00093FF80464046FFF749FF002852D141461C
:1036C00044460B043C1B1B0CA3460D0C0093012429
:1036D000291C5846FCF780FF009F81464743291C60
:1036E0005846FCF7BDFF330C090419438F4208D933
:1036F0004B464144013B884502D88F4200D91AE12C
:103700009946C91B8B46081C291CFCF765FF009BCA
:10371000291C4343071C58460093FCF7A1FF3604BD
:10372000009D0904360C0E43B54207D946447B1E62
:10373000B04502D8023FB54200D81F1C49460E04CE
:10374000374391E75246D243031C0C1C924600219A
:103750005842A1412CE7002746428F4101214942AE
:103760008A4620E720231B1A4246351C82403C1C17
:10377000DD40DC4087402B1C150C3B43291C864058
:10378000201C009317049046FCF726FF3F0C011CF9
:10379000794381468B46201C291CFCF761FF009C65
:1037A0000904230C19438B450CD94B464144013B7A
:1037B000884500D9BDE08B4500D8BAE002225242CC
:1037C000914441445C460C1B201C291C0194FCF7CD
:1037D00003FF391C4143041C8B460198291CFCF74C
:1037E0003FFF009A090413041B0C19438B4509D9A8
:1037F0004144631E884500D997E08B4500D894E08A
:10380000023C41445B46CB1A49469B460B041C4391
:1038100000975DE7009D20231B1A4A468240DD4049
:103820001543391C009AD94082408846311C0092C9
:10383000D9403A1C82400B1C134301932F0C2B04DC
:103840001B0C391C40460293FCF7C6FE029A8146C7
:103850004243391C40469346FCF702FF019A090493
:10386000130C19438B450AD94B464919013B8D422C
:103870005DD88B455BD902235B42994449195A466E
:103880008A1A101C391C0392FCF7A6FE029B804684
:103890004343391C03989B46FCF7E2FE019A090456
:1038A00013041B0C19438B450AD943464919013BA4
:1038B0008D4238D88B4536D902235B42984449194A
:1038C0005D464D1BAB464946009D0F0442461743DB
:1038D0002A04120C3B042D0C1B0C380C111C5943F0
:1038E00042436B436843D3180D0C5B198C469A42D4
:1038F00002D98022520280181D0C401983450CD336
:1039000003D00024B0E61C1C89E665462A041B048B
:10391000120C9B18A6409E42F3D2013F0024A3E65E
:1039200000240127A0E69846CAE71C1C6AE79946CE
:10393000A5E7994646E70222524291444144E0E617
:10394000F0B55F4656464D464446F0B40D1C85B072
:10395000061C924698460290019103921F1C141C6B
:103960008346A946002B59D1AA4269D9101CFFF7FA
:10397000EDFD00280AD020231B1A311CD9408540B8
:103980000B1C2B43864084409946B346250C2304E8
:103990001B0C291C48469846FCF71EFE4646071C91
:1039A0004643291C4846FCF75BFE5A460904130CA3
:1039B00019438E4209D909197B1E8C4200D957E15F
:1039C0008E4200D854E1023F0919891B8946081C20
:1039D000291CFCF701FE43464343061C291C4846AC
:1039E0009846FCF73DFE5A46130409041B0C194384
:1039F000884508D90919731E8C4200D936E1023E68
:103A0000884500D832E1380430430027391C05B01E
:103A10003CBC90469946A246AB46F0BD019A934203
:103A200062D8181CFFF792FD041E60D1019B9F42D3
:103A300000D22CE1029F03998F4260410027E5E705
:103A4000002A04D101200021FCF7C6FD041C201C23
:103A5000FFF77CFD002800D0B9E023042D1B1B0CD0
:103A6000A946260C98460127311C4846FCF7B4FDB0
:103A700041464143051C8A464846311CFCF7F0FD8F
:103A80005A460804130C1843824507D900196B1EC7
:103A9000844202D8824500D910E11D1C5346C31A46
:103AA000181C311C9A46FCF797FD4146414381465C
:103AB00088465046311CFCF7D3FD5A4613040904CE
:103AC0001B0C194388450BD94B460919013B8C4205
:103AD00000D9CFE0884500D8CCE002235B4299446E
:103AE00028044946084391E7002700208EE7202359
:103AF0001B1A424657468240DF40174352468240D7
:103B00000192321CDA40291CD9408540131C2B43FA
:103B100002933D0C3B041B0C8846081C291C9A464A
:103B2000FCF75AFD534643438146291C40469B46B9
:103B3000FCF796FD029A0904130C19438B4506D92C
:103B40004B46C919013B8F4200D8ABE099465A4613
:103B50008A1A101C291C9346FCF73EFD534643432A
:103B6000291C804658469A46FCF77AFD029A0904B9
:103B700015042D0C29438A4506D94346C919013B32
:103B80008F4200D886E098465746CF1BBA46494632
:103B9000019F0804424610433D042D0C03043F0CD2
:103BA0001B0C020C291C594355437B437A43EB18E9
:103BB0000F0CDB198C469D4202D980277F02D21957
:103BC0001D0C521992455FD356D000271EE72023C3
:103BD0001B1A311C2F1CD940DF4085400B1C844030
:103BE0002B4386400193B3462304260C1B0C381C40
:103BF000311C9846FCF7F0FC42464243051C311C40
:103C0000381C9146FCF72CFD019F09043B0C19431D
:103C1000894507D909196B1E8C424DD889454BD966
:103C2000023D09194A468A1A101C311C9246FCF7BB
:103C3000D3FC43464343071C311C50469946FCF7CE
:103C40000FFD019A090413041B0C1943894507D978
:103C500009197B1E8C422DD889452BD9023F0919A1
:103C60004B46CB1A2D0499462F43FDE61E1CCAE68F
:103C70001F1CAAE6994633E761460A041B04120C8E
:103C80009B18A6409E42A0D201380027BEE600271E
:103C90000120BBE68A4500D875E702235B429844C1
:103CA000C91971E78B4500D850E702235B4299445C
:103CB000C9194CE71F1CD3E71D1CB3E7023D0019CF
:103CC000ECE6C04608B5094A094BD05809490140FD
:103CD0008020C0040143D15003F090FF031C06482C
:103CE000E1214902022203F05BFE08BD007004409E
:103CF00004100000FFFFFFF30040054000B585B051
:103D000002A80D49083106220BF0A8FD00236A46DF
:103D1000137080235B0201930849094B094AD15073
:103D200002A803F0E7FF684603F00CFF064A074BC2
:103D30001A6005B000BDC046982B010000000710B6
:103D40004410000000700440006CDC026CE0FF1FB7
:103D5000F0B5474680B482B080460E1C101CFFF7B9
:103D600017FB041C0D1C301CFFF712FB021C0B1C64
:103D7000201C291CFEF738F8021C0B1CFDF712FD55
:103D80002A4B294AFEF79AFC0BF016FE021C0B1C6C
:103D9000FDF708FD041C0D1C254A264BFDF702FD0E
:103DA000061C0F1C244A254BFCF7D6FC002814D116
:103DB000201C291C1E4A1F4BFEF710FF321C3B1C07
:103DC000FEF712F800900191201C291C321C3B1CAC
:103DD000FEF70AF8041C0D1C03E0194C194D009461
:103DE0000195002642469268966043469F68009877
:103DF0000199FFF71FFB7860FE239B0542469268FE
:103E0000136043469B685E6142469668201C291CED
:103E1000FFF710FB306142469368D86002B004BCE3
:103E20009046F0BDC046C046182D4454FB21F93FD2
:103E30000000000000000040000000000000000042
:103E4000000000000000F03FF8B50F1C85684668D0
:103E50006868FE218905FCF739FEA968FCF736FE83
:103E6000041C381CFDF742FC211CFCF79BFF041CC2
:103E700030607060B060E968FDF778F9061C296968
:103E8000201CFDF773F9011C301CFCF71FFEFDF729
:103E90000DFCF8BDF0B5474680B4041C081CFDF7C6
:103EA00025FC051CA668646867687068391CFDF706
:103EB0005DF9011C281CFDF783FA051C2060F168E0
:103EC000FDF754F980463169381CFDF74FF9011CA4
:103ED0004046FCF7FBFD6560FDF7E8FB04BC90463F
:103EE000F0BDC04608B507F0C3FC064B986806490C
:103EF00008408022920010439860586801400A43AD
:103F00005A6008BD00B00440FFF8FFFF70B5051C03
:103F1000154B1B78154C5C43154B1C192378022B51
:103F200020D1144AA618301C0BF070F980B2032877
:103F300013D8114BE35C002B14D1226A636AA2628E
:103F4000E3620D223023E254074B1878402106F03B
:103F50009DFB0122084BE25404E0301C291C042282
:103F60000BF090F870BDC046380C0020880D0000A2
:103F700068E4FF1F580C0000C10C0000F0B589B0C8
:103F8000041C0D1C002685E0454B7343454FDB5D4B
:103F9000002B00D17DE0424B7343DB5D012B3CD114
:103FA0003F4B7343FB181A695B69AB4271DC01D16B
:103FB000A2426ED83A4B73433A4AD3181B7A002B6D
:103FC0000AD0374B7343D3189C61DD61D8221201AC
:103FD0009B181C605D601BE0314B73433149C9186D
:103FE000CB68049300270597049A059B12196B412F
:103FF0008A61CB612C480B185B6806930797069A79
:10400000079B12196B41D8273F01C9190A604B6001
:10401000234A72430221234BD154214B734321483D
:10402000C3189A69DB69AB4233DC01D1A24230D8B4
:104030001B4971431B4B59180C624D62CA680092B0
:1040400000230193009A019B12196B418A61CB6195
:10405000D8273F01C9190A684B68AB4217DC01D168
:10406000A24214D80E4870430E4B18180E4A8118FD
:104070004B68029300230393029A039B12196B412E
:10408000D8273F01C0190260436001230B7001F083
:104090008FFD0136012E00DC76E709B0F0BDC04689
:1040A000880D000068E4FF1F680D0000F0B557465A
:1040B0004E464546E0B44D4B58434D4B18184D4BBA
:1040C000C35C002B00D187E000224A4BC2544A4A0D
:1040D00083181A685B68002B03DC33D1474B9A4284
:1040E00030D9D7231B01C1180C684D68444BC65802
:1040F000321C002312196B410A604B60414D424C47
:10410000424A91460E1CAC460023984616E04B00EE
:104110005B18DB004B449A689246DF68326873682C
:10412000BB4202D80ED152450CD9013189B2634647
:104130001980632902D94346324A1380298823888B
:104140009942E4D12C4A81180C684D682C4BC05818
:10415000021C002312196B410A604B60294B1B881B
:10416000294A1288D21A92B294B221B2002901DAF5
:10417000643294B222B2012A30DD9DB21B19013B98
:104180009BB29AB211B2632902DD1A1C643A92B250
:104190001E4B12B251008A18D2009A189068D1684A
:1041A0002AB25500AA18D2009B189A68DB68801AB8
:1041B0009941FCF705FC1649FCF7F4FD051C0021AC
:1041C000FCF714FB00280BD124B2601EFDF78EFA19
:1041D000291CFCF7E7FD04E00E4802E0002000E0A7
:1041E00000201CBC90469946A246F0BD880D0000F8
:1041F00068E4FF1F680D0000780D000080C3C9014E
:104200006C0D0000900200209C020020C8020020DB
:10421000C0E1644C0000C07FF0B55F4656464D4695
:104220004446F0B483B0071C0E1C9046BE4B43437B
:10423000BE4AD318D868FFF777F8B44BB24AFDF7F7
:10424000D3FDFFF7F7F8011C4046FCF78FFFB84B92
:104250001968FCF78BFF3378717809021943B3783A
:104260001B041943F3781B061943FCF72FFC041CAD
:104270003070020A7270020CB270030EF370AD4B14
:104280001968FDF79DF83071020A7271020CB27163
:10429000030EF371337A042B00D936E29B00A64A51
:1042A000D3589F460021002333707370B370F370AE
:1042B00033717371B371F371A04AA14B1A60A14AB3
:1042C000A14B1A60A14B1960A14B19600022002379
:1042D000A04C22606360A04C22606360954B196023
:1042E0009E4B19709E4B19704046FFF751F8041C05
:1042F0000D1C874A874BFCF749FA002804D001239C
:104300003372974A137000E2201C291C824A834BA7
:10431000FCF728FA002800D1F7E1032333720122C9
:104320008E4B1A70F1E1884B1968201CFCF768FA73
:10433000002807D0844B1C60874B8A4A12681A6099
:1043400000225A604046FFF723F800900191744A1A
:10435000744BFCF707FA002800D1D6E17A4B1868B5
:104360007A4B1968FDF72CF8041C7F4B1B88002B37
:1043700002D18021090644187C4B1B88013B9BB26B
:10438000012B36D8684B7B43684AD3185B685A06C2
:104390002FD5774D2B889946764988465B009A46FB
:1043A0004B44DB0006225A54201C0BF039FB5346C9
:1043B0004B44DB00434418612B8899465A4B7B439E
:1043C0005A4AD318D8680021634B1A685B68FCF717
:1043D0006FFA4A4653004B44DB0043449860D9606F
:1043E0004B4601339BB22B801F2B02D90022604B1E
:1043F0001A804D4B7B434D4AD3185D682B062CD554
:104400005B498B460A8890465A4B9A465200914621
:10441000131C4344DB00072251465A544B46434485
:10442000DB0053441C61404B7B43404AD318D8689F
:104430000021494B1A685B68FCF73AFA4B46434443
:10444000DB0053449860D960434601339BB2594620
:104450000B801F2B01D900220A80AA0529D5464BC3
:104460009A461D88454A90466B0099465B19DB00C9
:10447000092241465A544A465319DB0043441C6101
:10448000294B5F43294BDF19F8680021324B1A682A
:104490005B68FCF70DFA4A465319DB004344986009
:1044A000D9600135ADB253461D80632D01D900227C
:1044B0001A802A4B1B78002B03D0234B1A681D4B04
:1044C0001A60214B224A196811601E4A1A6000982E
:1044D0000199114A114BFCF745F9002802D003233A
:1044E000337212E1022333720FE14046FEF750FFB0
:1044F000094A0A4BFCF736F9002800D105E10323ED
:10450000337202E1C046C0460000000080842E41A4
:10451000666666666666D63F666666666666D6BF29
:10452000EC51B81E85EBC13F880D000068E4FF1F09
:104530004CE0FF1F7CFFFF1FB82C010000007A44F5
:10454000BC02002000007AC424E4FF1FB80200204F
:10455000C0020020B0020020300C00201EE4FF1F2B
:10456000990200209402002030E0FF1F280C002058
:10457000A202002090FFFF1F9C020020C802002022
:104580006F4B1968201CFCF727F9002807D06C4BEB
:104590001C606C4B6C4A12681A6000225A604046DC
:1045A000FEF7F6FE041C0D1C624B614AFCF7EEF8A8
:1045B000002800D1A9E0624B1868644B1968FCF729
:1045C000FFFE8146624B1B88002B04D1802212061D
:1045D000131C4B4499465F4B1B88002B01D0022BC8
:1045E0003AD15D4B7B435D4AD3185B68590633D59E
:1045F0005B4A904613889B465A498A465B00009363
:104600005B44DB0006225A5448460BF009FA009A34
:10461000131C5B44DB005344186143461B889B46D4
:104620004D4B7B434D4AD318D8680021454B1A683F
:104630005B68FCF73DF95A4653005B44DB0053448A
:104640009860D9605B4601339BB241460B801F2BBB
:1046500002D90022424B1A803F4B7B433F4AD3187A
:104660005B68DA052AD53E4B1B8898463D498A4649
:104670005B009B464344DB0008225A545B4643449C
:10468000DB00534449461961334B5F43334BDF1919
:10469000F86800212B4B1A685B68FCF709F95B4648
:1046A0004344DB0053449860D960434601339BB2D6
:1046B0002B490B801F2B01D900220A802A4B1B7823
:1046C000002B03D01E4B1A68284B1A601C4B284A3B
:1046D00019681160274A1A60201C291C164A174BBA
:1046E000FCF754F8002802D0012333720DE00423B4
:1046F00033720AE04046FEF74BFE0F4A0F4BFCF7C1
:1047000045F8002801D00123337233787078000215
:104710001843B3781B041843F3781B06184303B0FF
:104720003CBC90469946A246AB46F0BDC046C0464A
:10473000EC51B81E85EBC1BF666666666666D63FFD
:10474000BC020020B002002094020020C002002021
:1047500030E0FF1F280C0020880D000068E4FF1FD8
:10476000A202002090FFFF1F990200207CFFFF1F84
:10477000B802002000007A44F0B55F4656464D4628
:104780004446F0B489B001F03BFA002511E1924CA7
:104790006C43924804192378022B00D008E1904919
:1047A00009198A46081C0AF029FD03B29B089BB22E
:1047B00099460027F7E0504607A904220AF0B0FC0A
:1047C000884A1388012B12D107AB874A5A80874841
:1047D00001884A1C92B2028049008548095A198012
:1047E000844B1B889A4202D30022804B1A8007AB6D
:1047F0001888814B1B78002B11D0804B1B78002B25
:1048000008D101B27E48FFF71FFB80B201227B4B2B
:104810001A7004E001B27A48FFF73CFB80B200B2A4
:1048200001F01CF880460BF0FBF8061C754B19686C
:10483000FBF7E6FF002814D0734BE3589B46734BFD
:10484000E158301C0BF0A8FA011C5846FCF78EFC0E
:104850006F4BE158FCF73AF96E49FCF7A3FA061CD6
:1048600014E06D4BE3589B46CE231B01E158301CEE
:104870000BF092FA011C5846FCF778FC674BE158A4
:10488000FCF724F96349FCF78DFA061C4046002129
:10489000FBF7A2FF002802D0802109067618301C01
:1048A0000BF0BEF8FEF774FD484B474AFBF75AFF82
:1048B000002802D001225A4B1A70594B1B78002B4A
:1048C0000DD0301C0BF0ACF8FEF762FD404A414BB6
:1048D000FBF75CFF002802D00022514B1A70504BAE
:1048E0001B78002B01D1321C00E00022EBB298466D
:1048F000181C4C4BE118FFF78FFC0190029607AE95
:104900000021705E00F0AAFF03900222B05E00F06A
:10491000B5FF0490444BE35805934046FFF7C6FBB0
:104920000690424B1B88002B04D101988021090678
:1049300042180192002B04D1059A8020000613181A
:1049400005933B4B1B88002B04D102998022120651
:104950008B180293374B1B78002B1FD0261C383640
:10496000301C0AF053FC80B2172812D8324BE35C9B
:10497000002B17D1206A616AA062E1620D22302308
:10498000E2544046402105F081FE01222A4BE254C8
:1049900008E0301C01A918220AF074FB274B1A68A2
:1049A00001321A60013749460BB2BB4200DD02E713
:1049B0000135012D00DCEAE609B03CBC9046994681
:1049C000A246AB46F0BDC046EC51B81E85EBC13FD8
:1049D0000AD7A3703D0AC73F880D000068E4FF1F97
:1049E000580C000078FFFF1F881300001CE4FF1F15
:1049F000302E010020E4FF1FA002002098020020BA
:104A000050E0FF1FC4020020E80C0000EC0C000086
:104A1000E40C000000007042DC0C0000D80C000028
:104A2000A8020020B80C0000BC0C000030E0FF1F02
:104A3000A60200209A020020C10C0000940200206F
:104A4000F8B5061C1C4B43431C48C518682007F0EA
:104A50001DF9041E2ED01A4BE818211C583138229B
:104A60000AF0FCFE154D144B5E4300277755AB1939
:104A70005F60144ADA60144BF01828180AF0D0FB73
:104A80003836A8190AF0CCFB8823E25A0F4B1A805B
:104A90008623E25A0E4B1A808023E2580D4B1A608F
:104AA0008A23E25A0C4B1A808423E25A0B4B1A8059
:104AB0000B4B1F80F8BDC046880D000068E4FF1F47
:104AC000C80C000088130000580C0000A60200204B
:104AD00030E0FF1F4CE0FF1F32E0FF1F280C0020DA
:104AE00078FFFF1FF0B5474680B46420154909F0F0
:104AF000D7FA08F031FB002000F0CAFE0024124E65
:104B0000124B9846C0273F0116E045466543104BBF
:104B1000E91871180F4BE818301840220AF0A8FA6B
:104B2000291C58317118383570193A1C0AF0A0FA4E
:104B3000E0B2FFF785FF0134012CE6DD04BC9046AE
:104B4000F0BDC0467D3F000068E4FF1F880D0000F7
:104B5000780C0000580C0000F0B55F4656464D46F4
:104B60004446F0B489B006900791904612AB03CB4F
:104B70001F7815AB1E78A84B06991970A74DA84C45
:104B80004C43A84AA01828180AF04AFB201C3830C9
:104B900028180AF045FB2B1900229A70CC2000013E
:104BA00019184A70079959604046D86012981399AD
:104BB000186159611F725E70002400259C62DD62DD
:104BC000191C30310C2008700120487096481918C3
:104BD0000A70D72000011A1814605560934A9B1878
:104BE0001C605D60924B4B60984508D98C4B0698D1
:104BF00043438A4AD3188C495B1842465A600022C4
:104C00008C4B1A808C4A8D4B1A808D4B00221A7067
:104C10008C4B1A708C484146FBF7DEFCC0B2012376
:104C200003438A4A13701F2B02D91F22874B1A7025
:104C3000864B1A78541C0023854E00278548511E48
:104C4000CD0F691849100AE05D00AF532C5299420C
:104C500002DC023CA4B201E00234A4B201339A4265
:104C6000F2DC4046FEF760FB021C0B1C6549644801
:104C7000FDF7BAF8FEF7DEFB041C774B1A88042A0E
:104C800003D89300754AD3589F4600239A460DE0F7
:104C9000734882460AE073498A4607E0724A9246A0
:104CA00004E0724B9A4601E0714882460023714A43
:104CB0001370714A137050465146FBF707FF211CD1
:104CC000FBF794FD00282CD050460021FBF798FDFF
:104CD000002826D0694D281C211C5246FFF738F8C1
:104CE000AB6859688946DB689846201CFEF750FB84
:104CF000041C0D1C5046FEF74BFB009001914846EA
:104D0000FEF746FB029003914046FEF741FB0490FC
:104D100005915B48221C2B1C02F098FE0122554B8A
:104D20001A7001229146574B1A703D4B0699594310
:104D30008A463A4A9046D044534B9B46C344594610
:104D40000868FEF725FB021C0B1C2F482F49FDF7B6
:104D500045FF041C0D1C5A465068FEF719FB021C47
:104D60000B1C201C291CFDF73FF8FEF763FB041CFD
:104D7000CE200001031C43441968FE208005FCF787
:104D800011F8011C201C0BF007F8404B1860FEF7CF
:104D9000FFFA021C0B1C1E4C1E4D009401953C4852
:104DA00002F054FE3B4B079F1F407B1E9F413A4B36
:104DB0001F700023394A1360394A1380394A13801F
:104DC000394A1380394A1380CC2109010B1C434412
:104DD00000221A703648032100F0DCFE354806999F
:104DE00002F034FE484652460C4BD05409B03CBC4D
:104DF00090469946A246AB46F0BDC046C046C04666
:104E00000000000080842E410000000000006E4081
:104E10000000000000001040380C002068E4FF1F74
:104E2000880D0000580C0000680D0000780D00008F
:104E3000809698001CE4FF1FDD05000020E4FF1FA2
:104E4000A402002022E4FF1F40420F00A102002024
:104E500028E4FF1F3C0C002032E0FF1FCC2C010097
:104E60000000A0400000E040000020410000704130
:104E700000004040A00200209802002050E0FF1FE8
:104E8000EC390100A8020020D80C0000C402002068
:104E9000183A01003E0200009A020020940200200D
:104EA000A20200209E0200209C020020900200200E
:104EB0000D3F0000403A010010B5041C064A424371
:104EC0000021064BD154002000F064FE0448211C50
:104ED00002F0BCFD10BDC046880D000068E4FF1F55
:104EE000583A01000020704700207047081C7047A6
:104EF000034B5843034BC018034B18187047C04668
:104F0000880D0000C80C000068E4FF1F08B5064BC0
:104F10005843D0231B01C018044B1818002130221D
:104F20000AF0A5FC002008BD880D000068E4FF1F02
:104F3000F0B503291AD80E4C4D006B189B000D4E8E
:104F400070431B18E318D0273F01DE190127377083
:104F5000094E9B191A606918890009186418D0272E
:104F60003F01E41900236360002000E03220F0BD1F
:104F700068E4FF1F880D0000080D000008B5032934
:104F800010D84B0059188900074B58430918D023F3
:104F90001B01C918054B5918101C0C220AF05EFCA5
:104FA000002000E0322008BD880D000068E4FF1FEB
:104FB00070B584B0061C0B78002B1CD1D36A5168E5
:104FC0000024002500940195012202920022039200
:104FD0001A1CFFF7C1FD094C094B5E43D3231B018B
:104FE000F018201808F0BEFA064BF618A01908F0C1
:104FF000B9FA302000E0362004B070BD68E4FF1F2D
:10500000880D00004C0D0000F0B55F4656464D4639
:105010004446F0B489B0051C9346414F4743414B89
:10502000DF190C78002C6DD13820C01980460AF0A9
:10503000E5F800B21821FBF7CFFA80B203B2002BDB
:1050400062DD00269A46364B2A1C5A439146D320ED
:105050000001031C4B443349CB18019314E0404634
:1050600002A918220AF05CF801980521049A08F0B8
:1050700083FA2D4A101C48442A4B1818059A05211A
:1050800008F07AFA0136B6B233B25345E7DB244B67
:105090006B43244AD318D32000011B189888FCF7CF
:1050A00025FB59460E69311CFBF796FB00282DD1D4
:1050B0001E4BFE500126D0231B01FE54184B5D43AE
:1050C000184B5B19D42000011A1819495068785000
:1050D0001168D1221201B950164ABE5416495B1804
:1050E000D22212015868B8501A68144BFA50144B67
:1050F000FE5400F03FFFFCF7F9FA124BF850124B48
:10510000FE5404E0322402E0302400E03024201C6D
:1051100009B03CBC90469946A246AB46F0BDC0469D
:10512000880D000068E4FF1F4C0D0000080D000012
:10513000140D00000C0D00005C0D00001C0D0000A3
:10514000180D00002C0D0000240D00000878002828
:1051500000D032207047C046F0B5474680B484B0D6
:1051600080460C1C94460AA900228E5E0BAD2F7857
:105170002578022D48D13122A25C002A12D026487F
:10518000626810400093231C323301930133029371
:10519000013303932149E268634605F04BFB00228B
:1051A0003123E2543023E35C002B1CD0002F03D0CA
:1051B00000223023E25416E040460021FF220AF08C
:1051C00056FBA2783025635D0092626801920293DB
:1051D0004046A26AE36A05F0AFFAA3780133A370F0
:1051E0000023635513E0201C38300AF007F800B2A2
:1051F000311CFBF73FFA00B23323E35C984205DB36
:105200000C9A1380064802E0002000E0002000B263
:1052100004B004BC9046F0BD3FFEFFFFA086010035
:10522000FFFF0000F0B54F4680B48CB00E1C6B46FB
:1052300000225A821233694C6043694C24181821A9
:10524000009101920293301C211C09220423FFF7D4
:1052500083FF051E00DDBCE0301C0021FF220AF0A8
:1052600006FB604B1B88604A1288934231D05A007B
:10527000D218D2005D4FBF1801339BB2594A138038
:105280001F2B02D90022574B1A803B7801229A40EB
:10529000131C626813421CD0301C0830391C1031BA
:1052A00004220AF0DBFA301C0C30391C08310822C9
:1052B0000AF0D4FA6378A278511CA1703978009270
:1052C00001910A220292301C01210C2205F08EFA73
:1052D0007FE0002D7AD00027002538231B1999463E
:1052E0005AE0484605A9182209F01AFF6268920799
:1052F0000AD5069B0B9328B2301809300BA904225B
:105300000AF0ACFA0435ADB2626852070AD5059BC3
:105310000B9328B2301809300BA904220AF09EFA28
:105320000435ADB2626812070AD5079B0B9328B209
:10533000301809300BA904220AF090FA0435ADB2F6
:105340006268D2060AD5089B0B9328B23018093040
:105350000BA904220AF082FA0435ADB26268920603
:105360000AD5099B0B9328B2301809300BA90422E7
:105370000AF074FA0435ADB2626892050AD50A9B48
:105380000B9328B2301809300BA904220AF066FAF0
:105390000435ADB27B1C9FB26A46518A3BB20AB259
:1053A00093429EDB002D13D06568C9B23223E25CC4
:1053B0006378A078471CA7700D4C2C400090019496
:1053C00006200290301C05F0EBF902E0002000E01E
:1053D000002000B20CB004BC9146F0BD880D000066
:1053E00068E4FF1F9E020020A202002090FFFF1F22
:1053F0003FFE00000020704738B5041C01250570F1
:10540000013024490AF0B3FA201C113022490AF075
:10541000AEFA201C213021490AF0A9FA002100230C
:105420004222A1524422A1524622A3544722A3540D
:105430000622A2649022A35496235B00E3642365B2
:1054400004225823E25400220023226663660023CC
:10545000A366134AE266134A22676367124BA36787
:10546000124BE367FE2292058023E2508423E1522F
:105470008623E5528823E1528A23E5520023002245
:1054800003E0E15C8A18D2B20133972BF9D990235B
:10549000E25438BD703A0100803A0100783A0100C8
:1054A0003199A541B1DC123F3F35D1413C4E013F1E
:1054B00038B5041C0578012D08D0FFF79DFF227830
:1054C0000348291C02F0C2FA012000E0002038BD88
:1054D0008C3A01007047C0460620704743001818F8
:1054E0000001014B18187047102D010070B50D1CFC
:1054F000141C0023137005285CD880002E4B1B5809
:105500009F462E4E3068FDF743FF286069600123F7
:1055100023703068FDF73CFF021C0B1C284802F08A
:1055200095FA002047E0274E3088FDF7FDFE286001
:105530006960012323703188234802F087FA002034
:1055400039E0224E3088FDF7EFFE286069600123C4
:10555000237031881E4802F079FA00202BE01D4E9E
:105560003088FDF7E1FE28606960012323703188EF
:10557000194802F06BFA00201DE0184E3088FDF744
:10558000D3FE28606960012323703188144802F03B
:105590005DFA00200FE0134B1E88301CFDF7C4FE9F
:1055A00028606960012323700F48311C02F04EFA15
:1055B000002000E0362070BDE02C01004CE0FF1F11
:1055C000C03A0100280C0020E83A010030E0FF1F3B
:1055D000083B0100A6020020303B010032E0FF1F23
:1055E0005C3B010078FFFF1F803B0100F8B5041C05
:1055F0000E1C151C00231370052877D883003C4A25
:10560000D3589F4608684968FDF714FF394F386042
:10561000682006F049FB8030391C04220AF01EF98C
:10562000682006F05FFB01232B7057E0086849688B
:10563000FBF762F9304F3880682006F035FB843084
:10564000391C02220AF00AF9682006F04BFB0123FC
:105650002B7043E008684968FBF74EF9274F388004
:10566000682006F021FB8630391C02220AF0F6F889
:10567000682006F037FB01232B702FE0086849688B
:10568000FBF73AF91E4F3880682006F00DFB883092
:10569000391C02220AF0E2F8682006F023FB0123FD
:1056A0002B701BE008684968FBF726F9154F388016
:1056B000682006F0F9FA8A30391C02220AF0CEF886
:1056C000682006F00FFB01232B7007E0086849688B
:1056D000FBF712F90C4B188001232B7032687368AA
:1056E0000A48211C02F0B2F9002000E03620F8BD83
:1056F000F82C01004CE0FF1F280C002030E0FF1FB9
:10570000A602002032E0FF1F78FFFF1F9C3B010034
:1057100008B5002A07D00648111C02F097F90122AB
:10572000044B5A7002E00022024B1A7008BDC046BA
:10573000483D0100A80C0020F0B5FF2300250827F4
:10574000312612E0425D53403A1C0AE05CB2002C64
:1057500003DA5B007340DBB201E05B00DBB2013ACD
:10576000D2B2002AF2D10135ADB28D42EAD3181C73
:10577000F0BDC04638B5141CFFF7DEFF011C051E46
:10578000A54203D00448221C02F060F9A54201D0D2
:10579000002000E0012038BD783D010070B5002AEE
:1057A00007D02848111C02F051F90122264B5A70EB
:1057B00047E0254C201C64306623E25C0221FFF7A1
:1057C000D9FF051C201C67306923E25C0221FFF72A
:1057D000D1FF0540E8B200280CD11B4B9A7801326A
:1057E000D2B29A709B78DBB2042B20D90122164BDF
:1057F0005A7026E0144B00229A706422995C0902C8
:1058000065229A5C1143114A11806721595C090293
:1058100068201B5C0B43538009E03368002B01D0E8
:105820000A4898470A4B1A7801321A7002E0094D6B
:10583000074C094E2A7823789A42EED10022024B77
:105840001A7070BDAC3D0100A80C0020900C002027
:105850007C0C0020A10C00202C0D002010B5FBF7C3
:1058600045FF041C044B1888FBF740FF011C201C5B
:10587000FBF798FA10BDC046840C002008B5FBF772
:1058800035FF0249FBF78EFA08BDC04600004843C9
:10589000F0B585B0071C01A802F062FF234B02930C
:1058A000002002F0EFF9021C214E301C01A902F089
:1058B000DFFF204AC2239B00D0581F4901408020AF
:1058C00000020143D1501D4C251C0C35281C002121
:1058D000282209F0CCFF301C291C0022002303F0F1
:1058E000D3F9002323706370A3706360144A1370AC
:1058F000144A1370144A1370144A1360144A137034
:10590000002F10D100210D4B1972124B196000228B
:1059100000231148026043603C22104B1A80104B58
:105920001960104B197005B0F0BDC046801A060012
:105930000070064000E100E0FF00FFFFA80C00201F
:105940007D0C0020A10C00207C0C0020880C002085
:10595000A00C0020A40C0020980C0020840C002037
:105960002C0D0020860C0020F0B54F464646C0B4F2
:1059700083B0364802F0DAFE354B98683549084066
:105980008022520010439860586801400A435A60D0
:1059900001A83149022209F061FF304C201C02218C
:1059A00001AA02F055FE201C012101AA02F050FEBE
:1059B0002B4802F04BF804236360022363602948FC
:1059C00002F044F8284802F041F80025254B99469A
:1059D000264B98460CE0042767600226666048461E
:1059E00002F034F86760A660404602F02FF80135F7
:1059F000092DF0DD1E4802F029F8184C0426A66097
:105A00000225A5601B4802F021F8A66065601A48CF
:105A100002F01CF866606560124802F017F817483B
:105A200002F014F80A4B98680A4908408022920054
:105A300010439860586801400A435A600120FFF7FC
:105A400027FF03B00CBC90469946F0BD007006409D
:105A500000B00440FFF8FFFFB02B010080F00F40C2
:105A6000E03D0100003E0100103E0100303E01001B
:105A7000403E0100643E0100743E0100843E01008E
:105A800038B5124CE3623823E05401203923E05446
:105A9000E16302214023E154231C64336364A26464
:105AA00000236363201C4C30251C3435291C18222C
:105AB00009F0D4FE211C0C3105482A1C03F020F902
:105AC000002802D10122014B1A7038BDA80C002019
:105AD0000070064038B5124CE2623823E0540122CF
:105AE0003923E2540023E3634022A354221C64328E
:105AF0006264A1646363201C4C30251C3435291C6E
:105B0000182209F0ABFE211C0C3106482A1C03F0B8
:105B1000F7F8002802D10122014B1A7038BDC046A7
:105B2000A80C00200070064038B5164B1B78002BDF
:105B300025D1154D0B0A2B706970124CE262382387
:105B4000E05400233922A354E1634022A354656446
:105B50000222A2646363201C4C30251C3435291CAE
:105B6000182209F07BFE211C0C3108482A1C03F086
:105B7000C7F8002804D10122024B1A7000E0044843
:105B800038BDC046A80C00208C0C002000700640D8
:105B90004C0400000622034B1A72034B1970034B8E
:105BA00018607047A80C0020A00C0020880C002072
:105BB00000B583B00F4B1B7A092B18D10D4B5B78C6
:105BC000002B14D10C4B1A7801321A70094B1B7838
:105BD000002B0CD105F030FE0190019A2D32FF32DE
:105BE000044B5A6021200621044AFFF773FF03B0DB
:105BF00000BDC046A80C0020A10C00209D5700004D
:105C000030B583B005F018FE0190B94B1B78002B1E
:105C10000BD0B74B5A68019B9A4200D966E1B54850
:105C200001F014FF0122B24B5A70B14B5B78002B8C
:105C300004D0FFF799FE0022AD4B1A72AC4B1B7AD1
:105C4000082B00D952E19B00AB4AD3589F46AB4882
:105C500001F0FCFE019A1932A94B1A60A44B1A7A82
:105C600001321A7242E1019AA54B1B689A4200D296
:105C70003CE1A44801F0EAFE019A1932A04B1A60F7
:105C8000019B2D33FF339A4C636021209E499F4A2C
:105C9000FFF74AFF237A0133237227E1019A984BD9
:105CA0001B689A4200D221E1019B2D33FF33904CB7
:105CB000636021209649954AFFF736FF237A013326
:105CC000237213E1019B2D33FF33894C6360212044
:105CD000904912228D4BFFF7D3FE237A01332372B2
:105CE00004E1834C201C64306623E25C0221FFF750
:105CF00041FD051C201C67306923E25C0221FFF78F
:105D000039FD0540EDB2201C6A306C23E25C0221B3
:105D1000FFF730FD0540201C6D306F23E25C02214F
:105D2000FFF728FD0540201C70307223E25C022141
:105D3000FFF720FD0540201C73307523E25C022133
:105D4000FFF718FD284206D10122694B5A707248AC
:105D500001F07CFECAE0664B6422995C0902652270
:105D60009A5C1143090267229A5C11430902682276
:105D70009A5C1143694A11606A229C5C684824025B
:105D80006B229A5C1443220E24026D255D5D2C4328
:105D9000250E12022A4324026E255D5D2C43250E3A
:105DA00012022A43240270255D5D2C43250E120247
:105DB0002A43240271255D5D2C43250E12022A43DD
:105DC000240273255D5D2C43250E12022A43240212
:105DD00074255B5D1C4304604260524B994203D1C1
