:1000000000600020E904000021D90000F1D80000C0
:1000100000000000000000000000000000000000E0
:1000200000000000000000000000000051D90000A6
:10003000000000000000000081D90000F5C40000AD
:100040006105000065050000690500006D05000000
:100050004905000049050000490500004905000068
:100060007105000075050000790500007D050000A0
:10007000810500009DDA00008905000049050000A7
:10008000490500004905000049050000F9EC0000A1
:100090004905000049050000B5C400008D050000B9
:1000A0008DD4000049050000490500004905000005
:1000B00049050000490500004905000079C4000019
:1003C0006B636667FFFFFFFFFFFFFFFFFFFFFFFF9E
:1003D000F0FFFFFFF70812003C560100FFFFFF008F
:1003E000FFFFFFFFFFFFFFFF00FFFFFFFFFFFFFF1C
:1003F000FFFFFFFF00000000000000000000000001
:10040000FFFFFFFFFFFFFFFFFFFFFFFFFE31FFFFCB
:1004100010B5064C2378002B07D1054B002B02D0DA
:10042000044800E000BF0123237010BD00E4FF1F5B
:10043000000000001079010008B5084B002B03D024
:100440000748084900E000BF07480368002B03D0B5
:10045000064B002B00D0984708BDC04600000000A6
:100460001079010004E4FF1F08E2FF1F00000000F4
:10047000164B002B00D1144B9D46402292029A1A33
:10048000924600218B460F461348144A121A10F068
:10049000E8F80F4B002B00D098470E4B002B00D0F4
:1004A00098470020002104000D000D48002802D0CC
:1004B0000C4800E000BF10F0A5F8200029000DF066
:1004C00059F910F089F8C0460000080000600020CB
:1004D000000000000000000000E4FF1FEC130020FB
:1004E000000000000000000072B60E480E490160D6
:1004F0000A6882F308880D4880470D490D4A0E4B63
:100500009B1A03DD043BC858D050FBDC0B490C4A56
:10051000521A03DD00208850043AFCDA62B609481A
:100520008047000008ED00E00000000035A8000052
:100530003879010000E0FF1F0CE2FF1F00E4FF1FFD
:10054000EC130020710400001148004711480047D7
:10055000114800471148004711480047114800471B
:10056000114800471148004711480047114800470B
:1005700011480047114800471148004711480047FB
:1005800011480047114800471148004711480047EB
:10059000B1D9000021D90000F1D8000051D90000E4
:1005A00081D90000F5C40000E1890000F189000054
:1005B000018A0000118A0000A9960000C19600007F
:1005C00029A0000061A00000C59A0000E19A000087
:1005D000918F00008D9B0000002934D00123002260
:1005E00010B488422CD301242407A14204D28142B2
:1005F00002D209011B01F8E7E400A14204D28142C2
:1006000002D249005B00F8E7884201D3401A1A433E
:100610004C08A04202D3001B5C0822438C08A04275
:1006200002D3001B9C082243CC08A04202D3001B2B
:10063000DC082243002803D01B0901D00909E3E7A5
:10064000101C10BC7047002801D00020C04307B424
:10065000024802A14018029003BDC046D900000024
:100660000029F0D003B5FFF7B9FF0EBC4243891A49
:100670001847C046002941D010B4041C4C40A44681
:1006800001230022002900D54942002800D540421C
:1006900088422CD301242407A14204D2814202D2F1
:1006A00009011B01F8E7E400A14204D2814202D211
:1006B00049005B00F8E7884201D3401A1A434C080E
:1006C000A04202D3001B5C0822438C08A04202D344
:1006D000001B9C082243CC08A04202D3001BDC086C
:1006E0002243002803D01B0901D00909E3E7101CAD
:1006F0006446002C00D5404210BC7047002806D04C
:1007000003DB0020C043400801E08020000607B45E
:10071000024802A14018029003BDC0461900000023
:100720000029EBD003B5FFF7A7FF0EBC4243891A9F
:100730001847C0467047C0468446101C62468C4627
:10074000191C634600E0C0461FB501F0F9FE002801
:1007500001D40021C8421FBD10B501F029FE40425E
:10076000013010BD10B501F0EBFE002801DB0020C8
:1007700010BD012010BDC04610B501F0E1FE0028FB
:1007800001DD002010BD012010BDC04610B501F0F4
:1007900059FE002801DC002010BD012010BDC0461C
:1007A00010B501F04FFE002801DA002010BD012035
:1007B00010BDC0468446081C6146FFE71FB500F027
:1007C00049FC002801D40021C8421FBD10B500F02B
:1007D000CFFB4042013010BD10B500F03BFC0028BB
:1007E00001DB002010BD012010BDC04610B500F097
:1007F00031FC002801DD002010BD012010BDC046E5
:1008000010B500F0DFFB002801DC002010BD012046
:1008100010BDC04610B500F0D5FB002801DA00205D
:1008200010BD012010BDC046002B15D1002A13D1E8
:10083000002900D1002807D003DB0020C043410875
:1008400002E080210906002007B4024801A14018F7
:10085000029003BDE1FEFFFF03B4684601B50298B4
:1008600000F0BEF8019B9E4602B00CBC7047C0462B
:10087000002B11D1002A0FD1002900D1002802D06D
:100880000021C943081C07B4024802A14018029085
:1008900003BDC046A1FEFFFF03B4684601B5029840
:1008A00000F0BAF8019B9E4602B00CBC7047C046EF
:1008B0009C460304F0B51B0C17043F0C150C1E1CC2
:1008C000041C000C7E436B4347434543FB18300C2C
:1008D0001818874202D980235B02ED18030CED182B
:1008E00063465C434A433604360CA1180004801961
:1008F0004919F0BD9E2110B5C905041CFFF78AFFF8
:10090000002803D1201C00F091FE10BD9E21C905D6
:10091000201C00F015FD00F089FE80231B06C01886
:10092000F3E7C0460000000038B50E4B0C4A051C2A
:100930000C1CFFF717FF002804D1281C211C00F015
:1009400013F838BD80231B06E118281C00F00CF8B2
:10095000021C0B1C002150429941F2E7C046C046E0
:10096000000000000000000070B50E4B0C4A0D1C8A
:10097000041C01F063FE02F0C7FD061C02F094FCAB
:10098000094A0A4B01F05AFE021C0B1C201C291CB0
:1009900002F0E4F802F0B8FD311C70BDC046C0465C
:1009A000000000000000F03D000000000000F041E9
:1009B00070B5061C081C02F039FC084B064A01F011
:1009C0003DFE0D1C041C301C02F06EFC2B1C221C76
:1009D00000F0A8FE70BDC046000000000000F0411D
:1009E000F0B583B0161C1F1C0090019102F0ACFD05
:1009F000041C0D1C221C2B1C301C391CFFF758FF3B
:100A0000009A019B121A8B410899201C0A604B60C6
:100A1000291C03B0F0BDC046F0B583B0141C1D1CEA
:100A20000090019102F06CFF221C2B1C061C0F1C75
:100A3000FFF73EFF009A019B121A8B410899301C68
:100A40000A604B60391C03B0F0BDC046F8B54302E4
:100A50004400C50F4E024800240E2A1C9B09000EBC
:100A6000C90FB6098D425BD0221A002A00DC89E04A
:100A700000281DD1002E00D075E0580704D00F22A9
:100A80001A40042A00D004338021C90419402A1CCA
:100A900000293AD00134FF2C00D17FE09B015B0A92
:100AA0005B02E4B2E405580AD20720431043F8BDC4
:100AB000FF2CE2D08021C9040E431B2A00DD2DE16A
:100AC000311C2020D140821A9640721E96410E435E
:100AD0009B1B5801D1D59B019F09381C02F0F6FCE5
:100AE000421F974094425BDC141B1F231B1B3A1CC4
:100AF0009F40611C3B1CCA405F1EBB411343002446
:100B0000BBE7131EB9D100230022DB08FF2C04D160
:100B1000002B43D08020C00303435B025B0ABFE786
:100B2000211A002940DD002823D0FF2CA5D08020E9
:100B3000C00406431B2900DDEEE0301C2027C8401E
:100B4000791A8E40711E8E4106439B19590100D4BB
:100B500093E70134FF2C55D0714901221A400B4014
:100B60005B08134389E7013A002AB1D0FF2CA4D1D6
:100B700083E7002E00D180E701390029E5D0FF2C62
:100B8000D8D17AE7002A1BD1621CD2B2012A4BDDF0
:100B90009F1B7A0123D5F71A0D1C9EE700237FE7E0
:100BA0005F4BA41A3B4068E7002946D1611CC8B2DC
:100BB000012829DDFF2924D0F3185B080C1C5CE711
:100BC000002C13D0FF2818D08024E4045242234381
:100BD0001B2A4DDD0123F31A041C0D1C79E7002F9D
:100BE00000D07AE70023002200248EE7002B3BD0C0
:100BF000D243002AEFD0FF28EAD1331CFF240D1C7A
:100C00003BE7FF24002380E7002C5CD1002B00D1C0
:100C100080E0002E00D130E79B19580100D42CE76A
:100C20003F4A0124134028E7002C15D1002B40D166
:100C3000002E63D0331C0D1C1FE7002C21D1002B8C
:100C400054D0C943002904D0FF284CD01B2958DDBB
:100C500001239B19041C79E7002B19D1002E48D0E1
:100C6000331C0D1CFF2408E7331C041C0D1C04E777
:100C70001C1C2025D440AA1A93405A1E934123439A
:100C8000A9E7FF282FD08024E40449422343DDE76D
:100C9000FF24002E00D1F0E68022DB08D2031342AD
:100CA00004D0F608164201D1331C0D1CDB00FF24D2
:100CB000E3E6002E00D1E0E69A1B500100D420E7C5
:100CC000F31A0D1CD9E6002B0DD0FF24002E00D105
:100CD000D3E68022DB08D2031342E7D0F60816429F
:100CE000E4D1331CE2E7331CFF24C6E6331C041CAA
:100CF000C3E6802300229B04FF2406E7231C002276
:100D000003E71C1C2027CC40791A8B40591E8B41CD
:100D100023439EE7331CB0E6012616E70126D7E6FB
:100D2000FFFFFFFBF0B55F4656464D464446F0B424
:100D300046024500C00F85B00F1C760A2D0E804676
:100D400041D0FF2D26D08024240400212643F60024
:100D50007F3D89468B46F90F7C027800640A000EBD
:100D600000918A463CD0FF2834D080231B041C43CA
:100D70000023E4007F380193009F4346019A7B40A3
:100D800049469C4611430F2900D971E0764F8900EE
:100D90007F58BF46002E3ED10822022391469B4633
:100DA000D9E75A46341CC24601920199022937D02C
:100DB000032900D1CFE0012900D0ABE053460B401E
:100DC0000022002632E0002E19D10421012289469A
:100DD0009346C0E7221C531E9A4102320192CBE790
:100DE00001270197002CC7D0201C02F06FFB431F86
:100DF0009C4076235B420021181A0191BCE7301C0D
:100E000002F064FB7625431F9E406D4200232D1A9D
:100E100099469B469FE70C23032199468B469AE708
:100E2000D446012367463B40FF2200267602D205C6
:100E3000700ADB071043184305B03CBC9046994646
:100E4000A246AB46F0BD80260023F603FF22EDE765
:100E500000220026EAE78020C00306423BD004427D
:100E600039D1061C26437602760A009BFF22DDE775
:100E7000281A039076016401A64239D3361B1A2240
:100E800001230120311C5B007600002901DBB44204
:100E900001D8361B0343013A002AF3DC741EA64135
:100EA000341C1C43039A7F32002A27DD630704D0D9
:100EB0000F232340042B00D00434270103D52B4BF0
:100EC000039A1C408032FE2A0BDD012361460B4051
:100ED000FF220026AAE706437602760A4346FF224F
:100EE000A4E7A40101236746660AD2B23B409DE70E
:100EF000039F1B22013F03970023C2E77E23039F2A
:100F00005B42DB1B1B2B07DD012361460B400022EC
:100F100000268BE7D446C5E7221CDA40039B9E33AC
:100F20009C40231C5C1EA34113435A0704D00F228C
:100F30001A40042A00D004335F0105D5012361461D
:100F40000B400122002671E79E01624601231340F7
:100F5000760A00226AE78026F60326437602760A9E
:100F60005346FF2262E7C0467C3D0100FFFFFFF7CA
:100F70004A02430270B55C0A550A43004A001B0E40
:100F8000C60F120EC90FFF2B05D0FF2A08D0012073
:100F900093420BD070BD0120002CFBD1FF2AF6D16B
:100FA0000120002DF6D101209342F3D1AC42F1D1C2
:100FB0008E4205D0002BEDD1201C441EA041E9E754
:100FC0000020E7E74A024302F0B55C0A550A4300F5
:100FD0004A001B0EC60F120EC90FFF2B31D0FF2A7D
:100FE00034D0002B16D1604260418446002A14D0D0
:100FF000002820D18E4217D1934215DC04DBAC428D
:1010000012D80020AC4212D27042704140420123FB
:1010100018430CE0002AEDD194466F426F416046C0
:10102000002805D1002FE5D0704201231843F0BD00
:101030000020002FFBD14842484140420123184381
:10104000F5E7002CCBD002204042F0E7002DC8D0BD
:10105000F9E7C0464A024302F0B55C0A550A43006C
:101060004A001B0EC60F120EC90FFF2B27D0FF2AF6
:1010700029D0002B10D0002A15D194466F426F4121
:101080006046002815D00020002F04D14842484176
:10109000404201231843F0BD604260418446002A6B
:1010A000ECD00028F2D18E4211D0704201231843B7
:1010B000F1E7002FF7D0704201231843EBE702203D
:1010C000002CE8D1D3E70220002DE4D1D1E79342F0
:1010D000EBDC04DBAC42E8D80020AC42DBD270424F
:1010E0007041404201231843D5E7C046F0B55F4642
:1010F00056464D464446F0B44402460083B00F1CA9
:10110000640A360EC50F002E41D0FF2E22D0802358
:101110001B0400201C43E4007F3E82468046391CAD
:101120004B007F02C90F7F0A1B0E8B463BD0FF2B63
:1011300034D0802212041743FF007F3B00215A461F
:101140006A40019252460A430F2A63D87A489200B5
:1011500082589746002C3FD1082202239246984697
:10116000DDE70195404602282AD1019A0125154064
:10117000FF2300246402DB05600AED0718432843BF
:1011800003B03CBC90469946A246AB46F0BD002C4D
:1011900027D10420012282469046C0E7391C4A1E0E
:1011A00091410231CBE70121002FC8D0381C02F059
:1011B0008DF9431F9F4076235B421B1A0021BEE737
:1011C000032800D1AEE001284FD1019842461040DB
:1011D000C5B200230024CDE70C2303209A468046A5
:1011E0009DE7201C02F072F97626431F9C40764250
:1011F0000023361A9A46984691E780240025E40396
:10120000FF23B7E75B463C1C01938846AAE73C1CDA
:101210008846A7E7250C24043A0C240C3F04F61852
:101220003F0C211C231C794353436F435543FB1848
:101230000A0C9B18B1469F4202D980225202AD1877
:1012400009041A04090C521894011B0C611E8C41EC
:10125000920EED181443AD012C43230105D5012254
:1012600063080120144081441C434B467F33002B0C
:101270002DDD600704D00F222240042A00D0043460
:10128000220103D52D4B1C404B468033FE2B17DD2E
:10129000019B01251D400024FF236BE78020C00334
:1012A000044208D0074206D1041C3C436402640A8D
:1012B0005D46FF235EE704436402640AFF2359E7A7
:1012C0000198A4010125640ADBB2054052E77E23A0
:1012D0005B424A469B1A1B2B05DD019B01251D40E5
:1012E0000024002346E7221CDA404B469E339C40F4
:1012F000231C5C1EA3411343580704D00F221A403D
:10130000042A00D004335A0105D5019B01251D4054
:10131000002401232EE701989C010125640A054061
:10132000002327E78027FF03019B3C43640201253C
:101330001D40640AFF231DE7BC3D0100FFFFFFF7CE
:10134000F8B5C20F430244004D024800240E161C9B
:101350009B09000EC90FAD09FF2800D183E00127CA
:1013600079408A425CD0221A002A00DC8EE00028F4
:101370001ED1002D00D07AE0580704D00F221A4069
:10138000042A00D004338021C904012219403240CC
:1013900000293AD00134FF2C00D183E09B015B0A85
:1013A0005B02E4B2E405580AD20720431043F8BDBB
:1013B000FF2CE1D08021C9040D431B2A00DD31E15F
:1013C000291C2020D140821A95406A1E95410D4368
:1013D0005B1B5801D0D59B019F09381C02F076F8A1
:1013E000421F974094425FDC141B1F231B1B3A1CB7
:1013F0009F40611C3B1CCA405F1EBB41134300243D
:10140000BAE7131EB8D100230022DB08FF2C04D159
:10141000002B47D08020C00303435B025B0ABFE779
:10142000211A002944DD002827D0FF2CA4D08020D9
:10143000C00405431B2900DDF2E0281C2027C8401A
:10144000791A8D40691E8D4105435B19590100D4FD
:1014500092E70134FF2C59D0734901221A400B4006
:101460005B08134388E7002D00D07AE777E7013A5D
:10147000002AADD0FF2CA0D17EE7002D00D17BE764
:1014800001390029E1D0FF2CD4D175E7002A1BD106
:10149000621CD2B2012A4BDD5F1B7A0123D5EF1A01
:1014A0000E1C9AE700237BE75F4BA41A3B4063E7DF
:1014B000002946D1611CC8B2012829DDFF2924D0AA
:1014C000EB185B080C1C57E7002C13D0FF2818D032
:1014D0008024E404524223431B2A4DDD0123EB1AEE
:1014E000041C0E1C75E7002F00D076E700230022B5
:1014F00000248AE7002B3BD0D243002AEFD0FF28FC
:10150000EAD12B1CFF240E1C36E7FF2400237CE7C6
:10151000002C5CD1002B00D180E0002D00D12BE706
:101520005B19580100D427E73F4A0124134023E701
:10153000002C15D1002B40D1002D63D02B1C0E1C8C
:101540001AE7002C21D1002B54D0C943002904D024
:10155000FF284CD01B2958DD01235B19041C75E7BB
:10156000002B19D1002D48D02B1C0E1CFF2403E7A3
:101570002B1C041C0E1CFFE61C1C2026D440B21A97
:1015800093405A1E93412343A9E7FF282FD080247C
:10159000E40449422343DDE7FF24002D00D1EBE6BC
:1015A0008022DB08D203134204D0ED08154201D19A
:1015B0002B1C0E1CDB00FF24DEE6002D00D1DBE639
:1015C0005A1B500100D41CE7EB1A0E1CD4E6002B6A
:1015D0000DD0FF24002D00D1CEE68022DB08D203FF
:1015E0001342E7D0ED081542E4D12B1CE2E72B1C97
:1015F000FF24C1E62B1C041CBEE6802300229B04B2
:10160000FF2402E7231C0022FFE61C1C2027CC40FD
:10161000791A8B40591E8B4123439EE72B1CABE666
:10162000012512E70125D3E6FFFFFFFB4302590A1C
:101630004300C20F1B0E00207E2B0DDD9D2B0CDC0A
:10164000802000040143952B0ADC9620C31AD94060
:101650004842002A00D1081C7047034BD018FBE712
:10166000963B9940F4E7C046FFFFFF7F70B5041E2C
:101670003CD0C60F00D04442201C01F027FF9E231F
:10168000251C1B1A962B0CDC083884406402640A63
:10169000DBB2321C6402DB05600AD2071843104338
:1016A00070BD992B0ADD0522121A211CD1400A1C9B
:1016B000011C1B318D40691E8D411543052801DD3C
:1016C000421F9540164C2C406A0704D00F2215404B
:1016D000042D00D0043461010CD59F23181AFF2873
:1016E0001AD0A401640AC3B2321CD3E7002200233B
:1016F0000024CFE7E408FF2B04D06402640ADBB2C5
:10170000321CC7E7002C04D08020C00304436402CD
:10171000640A321CFF23BDE7321CFF230024B9E713
:10172000FFFFFFFBF8B55F46564644464D46F0B412
:101730000C034D00CE0F610A440F2143C40018036F
:1017400080465800400D8246D80F84464046400AE5
:10175000530F0343D0006D0D371C83465246664538
:1017600000D1A4E0AF1A002F00DC09E1002A3BD130
:10177000184300D0EAE0630700D187E00F2323403D
:10178000042B00D182E0221DA242A44164428023A6
:1017900009191B040B40371C141C002B00D17CE0E2
:1017A000CE4B01359D4200D105E1CD4BE4081940F7
:1017B0004807490204430B0B002000211B031A0BAE
:1017C0000B0D6D051B0513436A08C64DFF071D4031
:1017D00015436D006D08291C3943201C3CBC904604
:1017E0009946A246AB46F8BDBC488542C3D080208E
:1017F00000040343382F00DDF0E01F2F00DD24E15B
:101800002020C01B1A1C814682405846F8400243E3
:10181000944658464A469040421E9041FB406246DC
:1018200002431F1CA21A9442A4416442C91B091B13
:10183000141C0B029FD549024F0A002F00D1C8E0AB
:10184000381C01F043FE021C083A1F2A00DDB5E0F7
:101850002821091A201C9740C8400743944095420C
:1018600000DDB2E0551B691C1F2900DDDCE01F22F2
:10187000551B3B1C221CAB40CA40AC40651EAC4112
:101880001343CF401C43391C002574E780231B04FD
:101890000B40371C002B00D082E7904B4807E40830
:1018A0000443C9089D4248D009030B0B84E7AA1AD8
:1018B0009446002A00DC98E05046002852D0874821
:1018C000854200D157E78020000403436246382A4E
:1018D00000DDFCE01F2A00DD4AE120226046101AEC
:1018E0001A1C82408246914658466246D0404A467B
:1018F00002439046584652469040421E904142460E
:1019000002436046C3401219A242A44164425918DE
:101910000919141C080200D42DE7704B01359D42B3
:1019200000D122E16E4B60081940012323401C1CAA
:101930000443CB071C4349081DE7231C0B433AD043
:1019400080231B030B431B031B0B35E7013F002FB9
:1019500065D15846221A9442A4416442C91A091B0F
:10196000141C66E75846184300D104E7012252428E
:1019700094446046002800D0C5E058460219C3E7E9
:10198000002F73D1681C4005400D012800DCDEE00B
:101990005A46A21A9442BF41C81A7F42C71B380256
:1019A00000D489E05A46141BA3459241591A524269
:1019B0008F1A664641E700230024FDE6271C2838DD
:1019C00087400024954200DC4CE74549AD1A394078
:1019D000D1E6201C01F07AFD203034E75A461A4344
:1019E000531E9A41D2B200271CE7002A00D0DCE047
:1019F000681C4205520D012A00DC8DE0374DA842DB
:101A000000D1F3E05D462A19A242A441644259186C
:101A10000919CC07520814434908051CABE62F48A6
:101A2000854200D0E6E6A6E62B1C1F3B3A1CDA40B6
:101A3000131C20296CD03F22551BAF403C43601E35
:101A400084411C430021002595E6381C20381A1CCF
:101A5000C240101C202F5DD04022D71BBB405A46ED
:101A60001A43531E9A4102430027DBE6002D3BD068
:101A70001A4DAA4500D193E080252D047F422943C9
:101A8000382F00DDACE01F2F00DD29E12025ED1B04
:101A9000081C261CA840FE40AC400643651EAC4115
:101AA0003443F9405D462C1BA34592415B1A5242D8
:101AB000991A55466646BCE6131C3B43141C002B82
:101AC00000D0BAE60027002100250024E5E65A46AA
:101AD0001A43531E9A41D2B2002314E7FF070000B5
:101AE000FFFF7FFFFFFF0F800D1C254358D0FF43F2
:101AF000002F51D1041BA3459241591A5242891A11
:101B00005546664695E69648854200D0DEE632E6C2
:101B1000002793E70023A2E7081C2043002D00D0F4
:101B2000C4E0002800D1F7E05846184300D122E66F
:101B300058460219A242A441644259180919141CBA
:101B40000A0200D417E6874B0125194013E6081C4A
:101B50002043002D39D1002871D15946194303D0B3
:101B6000191C5C46664606E600270021002494E620
:101B7000604620381A1CC24060469146202800D199
:101B8000ACE04022121A93405A461A43531E9A411F
:101B90004B461A430023B6E6714DAA4500D06FE7C5
:101BA000191C5C4655466646E5E5002D22D10D1C04
:101BB000254377D0D543002D71D15C445C459241DB
:101BC0005918524289185546A4E600284DD1594665
:101BD000194300D194E0191C5C466646604DCAE585
:101BE0000C43611E8C41E4B200215BE7051C00211F
:101BF000002452E65A4DAA4554D055428022100482
:101C00000143382D00DD81E01F2D00DD92E0202210
:101C1000501B0A1C84468240201CE8400243904628
:101C200062469440601E844142461443E9405C444D
:101C30005C459241CB185242991855466AE658467F
:101C4000184300D197E55846271ABC429241C81A5A
:101C50005242801A020266D55846041BA34592419F
:101C6000591A5242891A664685E55846184333D0B8
:101C70004807E40804438020C9080003014208D053
:101C8000DD08054205D15946CA085C071443291CE2
:101C90006646630FC9001943E400314D6BE5304AD5
:101CA0009245AED1191C5C46554664E5002836D0F5
:101CB0005846184310D080254807E408C9082D036A
:101CC00004432942E5D0D8082842E2D15D46EA081B
:101CD0005C071443011CDCE7214D4CE5002353E76E
:101CE0003D1C203D0A1CEA40151C202F34D0402604
:101CF000F71BB9400C43611E8C412C430021D1E6F7
:101D000080210027C903164D0024C6E50C43611E3F
:101D10008C41E4B200218AE7191C5C462BE5191CB2
:101D20005C460F4D27E5031C3B4300D11CE7011C1B
:101D30003C1C20E52020404240190A1CC24090462D
:101D4000202D0BD04020451BA9400C43611E8C4127
:101D500045462C4300216AE70021CBE70021F4E748
:101D6000FF070000FFFF7FFFF0B5564644465F4681
:101D70004D46F0B41F1C0B031B0B98464B0087B05D
:101D8000041C81465B0DC80F161C9A460090002B60
:101D900051D06A4B9A4531D08022414652030A43C2
:101DA000630FD2001A43664B90460025E20091462D
:101DB0009A44002402953B031B0B9B46FD0F7B00BE
:101DC000311C5B0D019560D05C4A934254D0802158
:101DD000584649030143720FC9001143584A8B46C4
:101DE0009B18F1000020009A04436A4003920F2CD4
:101DF00000D9ADE0534EA4003459A74640460443F1
:101E00006ED1002102250824884689460295D2E732
:101E1000009C0298C34649460194022864D00328D6
:101E200000D1ABE2012800D038E2019A0024024040
:101E30000025A14660E0434623434AD0404600289F
:101E400000D1C0E101F042FB031E272B00DDB3E10E
:101E500028210D1A211C083B4246E9409A400D1CDE
:101E60001543221C9A40A8469146374B00251B1A61
:101E70009A46002402959EE75A4616430320002EF8
:101E8000B1D1B34600210220ADE75A4632431BD000
:101E90005B46002B00D18AE1584601F017FB27284A
:101EA00000DD7DE12822171A011C321C08395B462F
:101EB000FA408B40171C1F43331C8B40BB46191C38
:101EC000214B1B1A00208EE70027BB460021012072
:101ED00089E70020012504248046814602956AE7AF
:101EE00003250C24029566E7019C0394039D0122BF
:101EF0002A400024114DA146002000212403260B76
:101F00000C0D2405114B34432D0523402B435B005E
:101F10005B08D207191C4846114307B03CBC9046E9
:101F20009946A246AB46F0BD002280242403914688
:101F3000024DE1E700240025A146DDE7FF07000090
:101F400001FCFFFFFC3D01000DFCFFFFFFFF0F80C8
:101F50005546ED1A0495D84500D953E100D14EE11C
:101F6000049C0025013C4E4604944746A946584629
:101F700003020C0E1C430902250C23041B0C0091C8
:101F8000381C291C0193FEF727FB01998346414326
:101F9000381C8A46291CFEF763FB330C09041943DD
:101FA0008A450CD95B460919013B8C4200D947E1AF
:101FB0008A4500D844E1022252429344091953460B
:101FC000CB1A181C291C9846FEF706FB071C019823
:101FD000291C784382464046FEF742FB36040B0438
:101FE000360C33439A4509D91B197A1E9C4200D9F5
:101FF00024E19A4500D821E1023F1B195E463204D4
:102000001743380CBB46009E009F51463F0C3204DC
:102010005B1A5946BA46120C0F043F0C90465146C3
:102020007A434F434146414356467043CF19160CFD
:10203000BE19B14202D980277F02C019310C1204A7
:102040003604120C4018B618834200D2C4E000D106
:10205000BEE0191A4846861BB145BF417F42CF1BDF
:10206000A74200D113E1291C381CFEF7B5FA0199EB
:1020700002904143381C8946291CFEF7F1FA330CC3
:102080000904194389450CD9029B0919013B8C426B
:1020900000D9FFE0894500D8FCE0029F0919023F02
:1020A00002974F46CF1B381C291C0597FEF794FA60
:1020B000071C0198291C784381460598FEF7D0FA41
:1020C00036040904360C0E43B14509D936197B1E76
:1020D000B44200D9E0E0B14500D8DDE0023F361956
:1020E000029D4946761A290439430B0457460A0CC7
:1020F0001B0C40464546584355437B437A43EB18F7
:10210000070CDB199D4202D980256D0252191D0C66
:1021100000041B04000C52191B18964235D300D141
:10212000FCE001231943049E994FF519002D00DCB2
:10213000A1E0480709D00F230B40042B05D00B1D4D
:102140008B42894149428B44191C5A46D20107D51A
:10215000904B5C46049E80271C40FF00A346F51967
:102160008D4B9D427ADD039C0122224000248B4D41
:10217000A146C1E680242403474627424CD13C4374
:102180002403240B009A854DB6E63619481EB44246
:102190005ED9011C9642C4D1009E9E42C1D1C2E7C5
:1021A000031C283B311C99408B46002188E6301CDB
:1021B00001F08CF9203072E6283B211C9940002266
:1021C0008846914651E6201C01F080F920303BE61C
:1021D0000021B14500D33DE7009F5A46B944B945B7
:1021E000BF417F423F19FB18013A9C421ED29842E0
:1021F00000D97EE000D1B5E0191A93462AE7894557
:1022000000D8ADE64846464642467708D30746081A
:10221000C0071E438146AAE65846204212D1044315
:1022200024032A1C240B89465C4D65E6A342E3D1B6
:10223000009F4F45DBD9211A93460BE7171CDDE6BB
:102240009B46BCE63C432403240B009A534D53E6C3
:10225000B24259D800D18AE0011C62E75F46C90842
:102260007B07039E0B437C026D0501229946240BDC
:102270006D0D324040E64A4B049FDB1B382B10DDCE
:10228000039C0122224000240025A14634E60121BE
:10229000494248E7029304E71F1C21E7019C03948D
:1022A00041E71F2B40DC3F48049F0C1C3A1858465E
:1022B0009140DC40904020430A1C511E8A41011C81
:1022C00011435A46DA40131C480709D00F220A402E
:1022D000042A05D00A1D8A42894149425B18111C13
:1022E0001A0234D5039C0122224000240125A14674
:1022F00002E6009F02214942B9448B44B945894115
:1023000049420919CB18A4E6009D881E6900A9421C
:10231000AD416D422C19361900913AE7002B00D0DF
:1023200033E70024009437E71F4A049C5D46121BE4
:10233000D5402A1C202B1FD01C4E5F46A3199F405E
:102340003B1C19434B1E994111430023BCE75A071C
:10235000C9080A43039F91465B0201221C0B3A40C5
:102360000025C9E54E45C4D89346002172E6009F7A
:102370009F42C9D3011C0FE70023E2E78024240316
:102380005F463C432403240B019A8946034DB3E581
:10239000FF030000FFFFFFFEFE070000FF07000035
:1023A00002FCFFFF1E040000E2FBFFFF3E040000F2
:1023B000F0B55F4656464D464446F0B40D1C041C2D
:1023C0008046E80F814618030F03000B3F0B83B0D4
:1023D00084461B48009749005E00DF0F490D924676
:1023E000760DBB4681420CD01548864210D00120A4
:1023F000B14215D003B03CBC90469946A246AB46CC
:10240000F0BD009F01202743F4D10D488642EED154
:10241000604602430120002AECD10120B142E9D1FB
:10242000009B6345E6D1D045E4D1D94506D00029CB
:10243000E0D11C43201C441EA041DBE70020D9E76B
:10244000FF070000F0B55F4656464D464446F0B4DF
:10245000CD0FDE0FAC461D032D0BB146374E0F03DB
:102460004C00AB465D0080463F0B640D92466D0DFF
:10247000B44232D0314EB54235D0002C0ED1384363
:1024800041424141081C002D0BD0002919D1CC45F7
:102490002DD0654668420123184318E0002DF6D17F
:1024A000281C59460A4353425341002806D1002BA9
:1024B000EDD0634658420123184308E00020002B6A
:1024C00005D14A46504250414042012318433CBC8A
:1024D00090469946A246AB46F0BD3E1C0643C9D085
:1024E00002204042F3E75E461643C6D0F8E7AC420E
:1024F00007DC0BDA61464842484140420123184359
:10250000E5E76646704201231843E0E75F450AD8D5
:102510000ED000205F45DAD26546684268414042ED
:1025200001231843D3E76246504201231843CEE704
:10253000D045F8D80020D045EED3C8E7FF0700000B
:10254000F0B556464D4644465F46F0B40D1C83B088
:10255000041C0190E80F814618030F03000B3F0B8A
:1025600084463548009749005E00DF0F490D9246CA
:10257000760DB846814234D02F48864236D00029A5
:1025800018D0002E1FD1341C67463A4353425341A2
:10259000002C1FD00020002B05D142465042504154
:1025A00040420123184303B03CBC90469946A246E2
:1025B000AB46F0BD0098044360426041041C002E0D
:1025C000E2D00028E9D1C14515D04F467842012319
:1025D0001843E8E7002BF6D04B4658420123184336
:1025E000E1E7009F02202743DDD1C5E767460220CF
:1025F0001743D8D1C3E7B14204DD4A465042012314
:102600001843D0E7B14207DB00986045E4D80AD010
:10261000009F00206745C6D24F467842784140422D
:1026200001231843BFE7019A5245D5D8019A0020EB
:102630005245F1D3B7E7C046FF070000F0B5564654
:1026400044465F464D46F0B41F1C0B031B0B9A46D5
:102650004B0087B0041C80465B0DC80F161C02930C
:102660008146002B68D0694B0299994232D0802272
:10267000534652031A43D200630F1A439246644AE8
:10268000E000891880460291002400253B031B0BC3
:102690009B467800FB0F321C400D039300D175E080
:1026A0005A4B984269D08022594652030A43730F0D
:1026B000D2001A43564B9346C018F20000230399E8
:1026C0004E4671401C430F2C00D9A9E0514EA40086
:1026D0003459A74653461C4300D087E00025AA463C
:1026E000A84608240225D1E74946022D6CD0032DC7
:1026F00000D117E2012D00D058E10D40EDB20024C9
:10270000A9460023A0460020002125030A0D1C0530
:102710002D0B1205404B2A43134023435B004C46CC
:102720005B08E207191C4046114307B03CBC9046C9
:102730009946A246AB46F0BD5346234350D053467C
:10274000002B00D184E1504600F0C0FE031E272B71
:1027500000DD76E128210D1A211C083B5246E94094
:102760009A400D1C1543221C9A40AA4690462B4BBA
:1027700000241B1A0293002588E75B461E430323AF
:10278000002E9CD1B3460022022398E75B463343D8
:1027900021D05846002800D14EE100F097FE2728AE
:1027A00000DD42E128210F1A021C311C083A5B4669
:1027B000F94093400F1C1F43331C9340BB461A1C27
:1027C000164B181A00237AE701230B400024994680
:1027D000A0460E4B97E70027BB46002201236EE779
:1027E000002104248A46884601254FE70C2403254E
:1027F0004CE700258024A9462403A846034B82E722
:10280000DA46904603991D1C6FE7C046FF0700009B
:1028100001FCFFFF3C3E0100FFFF0F800DFCFFFFAE
:10282000029F160C381804904046070C0004000C58
:102830001204120C031C5343041C3D1C74435543E7
:1028400098463B1C73436419A44644460293230CE8
:1028500063449D4204D9029D802464022D1902958F
:102860001D0C039545462C041B04240C1C190594CF
:102870005C46230C051C58432404240C8446381C55
:10288000604365435F438146CC44280C6044BB46AB
:10289000814502D980277F02BB442D04070C2D0CF3
:1028A000000440195546BC462F04E3448446280CD6
:1028B0003D0C2F1C5743B8462F1C77434243B94663
:1028C00047463F0C9144BA46D14446434A4502D953
:1028D00080225202B6184F463A0CB6183A044746C0
:1028E0003F043F0CB8462F1C67435D4344435843A5
:1028F00065190190380C2D184244B846AC4204D9F1
:10290000019880235B02C0180190039C029F201C49
:102910006044C0196045A44147466442A4462B0464
:102920003C049946240C4C44A046D8448018C24626
:10293000E24490429241574652429146F219E24592
:10294000BF417F424B46BC46D845BF41D4187F4269
:1029500063461F432D0C7F19B24292414C45AD4155
:1029600052426D421543019E7D19AB19E20D5B0287
:10297000059F134342023A439A46531E9A41C30DA0
:10298000101C18436402204380465046C0010DD5F8
:10299000454601225646049C6B082A401A43F30719
:1029A00001341A43760804949046B246049E634F5D
:1029B000F319002B61DD404640070BD00F2244463F
:1029C0002240042A06D04246043242458041404219
:1029D000824490465546ED0107D5594B5646049F13
:1029E00080201E40C000B2463B18564A934200DD8C
:1029F000EAE644465546E2086807104301226C02A5
:102A00005B050A408046240B5B0D91467BE6DA4667
:102A100090461D1C69E680242403574627421CD19A
:102A20003C432403240B484B6DE6031C283B311C1C
:102A300099408B460022C3E6301C00F047FD203051
:102A4000ADE6283B211C994000228A4690468EE63E
:102A5000201C00F03BFD203078E65846204207D18C
:102A6000044303992403240B89469046364B4AE6D7
:102A70003C432403240B344B45E6344B049E9B1B00
:102A8000382B06DD01230B4000249946A046002385
:102A900039E61F2B25DC049C2D4D46466019524615
:102AA00044468640DC4082405746301C2243DF408B
:102AB000441EA04102433B1C540709D00F20104084
:102AC000042805D0101D9042924152429B18021CCE
:102AD0001D021AD501230B4000249946A04601236C
:102AE00011E61C48049C5546001BC540281C202BA1
:102AF00016D0194E5746A21997403A1C43461A431E
:102B0000531E9A4102430023D6E758075B02D208BE
:102B10001C0B01230B401043994680460023F2E52D
:102B20000022EBE78024240350460123044319408C
:102B30002403240B8946044BE5E5C046FF0300004F
:102B4000FFFFFFFEFE070000FF07000002FCFFFF83
:102B50001E040000E2FBFFFF3E040000F8B55F46E4
:102B6000564644464D46F0B40C034D00CF0F610A63
:102B7000440F2143C4001803DE0F8046B446464686
:102B80005800760A530F3343D600D14A6D0DBA462A
:102B9000400DB346904200D1F5E0624601267240F6
:102BA0009446674500D1ABE02F1A002F00DC11E1FD
:102BB00000283ED15846184300D0F1E0600700D10C
:102BC00097E00F232340042B00D122E1221DA242D3
:102BD000A4416442802309191B04012750460B407D
:102BE0000740141C002B00D179E0B94B01359D4200
:102BF00000D10BE1B74BE4081940480749020443F0
:102C00000B0B002000211B031A0B0B0D6D051B0580
:102C100013436A08B04DFF071D4015436D006D0852
:102C2000291C3943201C3CBC90469946A246AB4621
:102C3000F8BDA7488542C1D0802000040343382F47
:102C400000DDFDE01F2F00DD31E12020C01B1A1C3C
:102C50005E468240FE40324394465A468240101CF3
:102C6000421E9041FB40624602431F1CA21A94423E
:102C7000A4416442C91B091B141C0A029ED54902C7
:102C80004F0A002F00D1D6E0381C00F01FFC021CB8
:102C9000083A1F2A00DDC3E02821231C091A9740A7
:102CA000CB401F439440954200DDC0E0551B691C9A
:102CB0001F2900DDEAE01F22551B3B1C221CAB40F4
:102CC000CA40AC40651EAC411343CF401C43391C85
:102CD000002573E780217E4D0027C90300247C4B2B
:102CE0004807E4080443C9089D4250D009030B0B70
:102CF00087E780231B04012752460B40174071E7EA
:102D00002A1A9446002A00DCA1E0002854D070481A
:102D1000854200D152E780200004034360463828F2
:102D200000DD0EE11F2800DD57E162462020801AF9
:102D30001E1C8640B1465E46D6404A4632435E4639
:102D400086409046301C421E9041424602436046F7
:102D5000C3401219A242A441644259180919141C13
:102D6000080200D42AE75A4B01359D4200D131E1D7
:102D7000584B60081940012323401C1C0443CB0717
:102D80001C4349081AE71E4300D00AE705E7231C45
:102D90000B433BD080231B030B431B031B0B30E770
:102DA000013F002F6DD15E46A21B9442A4416442B4
:102DB000C91A091B141C60E75846184300D1FDE6E8
:102DC00001267642B4446046002800D0D0E05E463A
:102DD0003219BFE7002F00D080E0681C4005400D8D
:102DE000012800DCE8E05A46A21A9442BF41C81A02
:102DF0007F42C71B3E0200D498E05846041BA345FF
:102E00009241591A52428F1AE2463AE700230024AF
:102E1000F7E680231B04012756460B403740E1E6C6
:102E2000271C283887400024954200DC3EE72949CA
:102E3000AD1A3940C2E6201C00F048FB203026E7DE
:102E40005A461A43531E9A41D2B200270EE7002A6F
:102E500000D0DEE0681C4605760D012E00DC90E017
:102E60001B4DA84200D1F5E05E463219A242A441B2
:102E7000644259180919CC07520814434908051C23
:102E80009CE61348854200D0D9E697E62B1C1F3BF1
:102E90003E1CDE40331C20296FD03F22551BAF4023
:102EA0003C43601E84411C430021002586E6381CFB
:102EB00020381E1CC640301C202F60D04022D71B5B
:102EC000BB405A461A43531E9A4102430027CDE69F
:102ED000FF070000FFFF7FFFFFFF0F80002D37D0AF
:102EE000B64DA84200D18FE080252D047F422943B2
:102EF000382F00DDA8E01F2F00DD24E12025ED1B89
:102F00000E1CAE40B046261CFE404246AC40164366
:102F1000651EAC413443F9405A46141BA345924107
:102F20005B1A5242991A051CE246A6E6131C3B4363
:102F3000141C002B00D0A4E600270021002500244B
:102F4000CDE65A461A43531E9A41D2B2002300E7F7
:102F50000D1C254358D0FF43002F51D15A46141B56
:102F6000A3459241591A5242891A051CE24684E649
:102F70009248854200D0D1E620E6002790E7002362
:102F80009FE7081C2043002D00D0C2E0002800D19C
:102F9000EFE05846184300D110E658460219A24205
:102FA000A441644259180919141C0A0200D405E608
:102FB000834B0125194001E6081C2043002D38D120
:102FC00000286FD15946194303D0191C5C46E246CC
:102FD000F4E500270021002481E6604620381A1C11
:102FE000C2406646101C202E00D1AAE04022921B4F
:102FF00093405A461A43531E9A4102430023A8E6BF
:103000006E4DA84200D073E7191C5C46051CE246D1
:10301000D4E5002D22D10D1C254376D0D543002DBB
:1030200070D15C445C459241591852428918051C84
:1030300096E600284CD15946194300D14AE6191C9E
:103040005C46E2465D4DB9E50C43611E8C41E4B23D
:10305000002161E7051C0021002440E6574DA842ED
:1030600053D05542802216043143382D7BDC1F2D6E
:1030700000DD8CE02022561B0A1CB446B240261C00
:10308000EE403243904662469440661EB44142464A
:103090001443E9405C445C459241CB185242991874
:1030A000051C5DE65846184300D187E55E46A71B20
:1030B000BC429241C81A5242801A060260D5584654
:1030C000041BA3459241591A5242891AE24675E5FA
:1030D0005846184333D04807E40804438020C90801
:1030E0000003014208D0DD08054205D15946CA084F
:1030F0005C071443291CE246630FC9001943E4002E
:103100002E4D5BE52D4A9042AFD1191C5C46051C43
:1031100054E5002830D05846184310D08025480781
:10312000E408C9082D0304432942E5D0D808284201
:10313000E2D15D46EA085C071443011CDCE71F4D41
:103140003CE5002355E73D1C203D0E1CEE40351CA0
:10315000202F2ED04026F71BB9400C43611E8C4116
:103160002C430021D8E60C43611E8C41E4B20021BF
:1031700090E7191C5C4621E5191C5C460F4D1DE5C6
:10318000031C3B4300D124E7011C3C1C16E5202610
:10319000764276190A1CF2409046202D0BD040262C
:1031A000751BA9400C43611E8C4145462C430021F0
:1031B00070E70021D1E70021F4E7C046FF070000D7
:1031C000FFFF7FFF70B50B1C124C09030E0B59005B
:1031D000021C490DDD0F0020A14211DD0E48814285
:1031E0000FDC8020400306430C48401A1F280BDDEB
:1031F0000B4A521AD640321C5042002D00D1101CEE
:1032000070BD084BE818FBE7074BC240C9188E4059
:103210003243F1E7FE0300001D0400003304000008
:1032200013040000FFFFFF7FEDFBFFFFF8B5041E56
:1032300031D0C70F00D04442201C00F047F9184D90
:103240002D1A0A2819DD0B38844024036D05240B40
:103250006D0D3A1C0026002000210B0D2403240BC9
:103260001B0523430F4C2D051C402C4364006408B0
:10327000D307211C301C1943F8BD061C1536231C2E
:10328000B3401E1C0B23181AC44024036D05240BE5
:103290006D0D3A1CDFE70022002500240026DAE746
:1032A0001E040000FFFF0F8010B5041E28D000F0A0
:1032B0000DF9154A121A0A2815DD0B38844024032B
:1032C0005205240B520D0023002000212403181C5A
:1032D0000B0D240B1B0523430C4C12051C401443FF
:1032E0006400610810BD031C1533211C99400B1CA0
:1032F0000B21081AC44024035205240B520DE3E7A6
:10330000002200240023DFE71E040000FFFF0F80DF
:1033100043001B0E5A1C4102D2B270B54C0AC50FB5
:10332000012A17DDE02292006407090B9818002299
:1033300000231E0D221C34050C431B494005400888
:103340002140014349004908ED070B1C2B43101C89
:10335000191C70BD002B15D1002C1CD0201C00F0B6
:10336000B5F80A281ADC0B21091A231CCB40191CBA
:10337000031C15339C400D4B0903181A4005090B1B
:10338000400DD4E7002C03D06407090B0848CEE7B2
:1033900007480021CBE700200021C8E7011C0B39BA
:1033A0008C40211C0024E6E7FFFF0F80890300000A
:1033B000FF070000F0B54B000D03420F5B0D6D0AD7
:1033C00015435A1C5205CC0FC600520D012A27DDA9
:1033D000394FDA19FE2A1ADC002A35DD8001ED00AA
:1033E000431E98412843760F3043430704D00F23F0
:1033F0000340042B00D004308021C904014027D0B1
:103400000132FF2A1DD083015B0AD1B201E0FF2106
:1034100000235802C905400AE40708432043F0BDD1
:10342000002B06D1354311D10021002043025B0A55
:10343000EFE72E43EBD08020ED0080042843FF22ED
:10344000D3E7FF210023E4E717320DDA052000223D
:10345000C008D1B2FF2AE9D10028D9D08023DB03EC
:1034600003435B025B0AD4E780221449120415432C
:10347000C91A1F290DDC124A371C9B18281C9F40B3
:1034800098403B1C5A1E93411843CE4030430022C3
:10349000ABE70C4F2A1CFF1AFA40171C202909D051
:1034A000094A98188540281C3043461EB0413843CD
:1034B00000229AE70020F7E780FCFFFF9E03000050
:1034C00082FCFFFF7E030000A2FCFFFF1C21012302
:1034D0001B04984201D3000C10391B0A984201D3F7
:1034E000000A08391B09984201D30009043902A2D5
:1034F000105C40187047C04604030202010101013C
:10350000000000000000000038B50E4B0C4A041CFF
:103510000D1CFDF745F9002804D1201C291CFFF7DC
:1035200051FE38BD074B064A201C291CFFF716FB2D
:10353000FFF748FE80231B06C018F2E7C046C046CE
:10354000000000000000E041F0B544465F465646EA
:103550004D46F0B41C1C85B0002900DADBE00F1CDE
:103560000021061C8A46101C191C002C00DAC9E038
:103570000196009089468046002951D1B84200D872
:1035800071E0FFF7A3FF002809D020234546311C36
:103590001B1A85408740D940A8460F4386404246C3
:1035A000150C13041B0C291C381C9B46FDF714F842
:1035B0005B464343041C291C381C9946FDF750F810
:1035C000330C08041843814509D94044631E8045E3
:1035D00000D978E1814500D875E1023C4044494674
:1035E000411A8946081C291CFCF7F6FF5A4642433B
:1035F000071C291C48469346FDF732F83604090497
:10360000360C0E43B34507D946447B1EB04502D85D
:10361000023FB34500D81F1C24042743002403E0C5
:10362000B94211D9002400275246381C211C002A17
:1036300003D03B1C00215842A14105B03CBC904640
:103640009946A246AB46F0BD081CFFF73FFF041E9B
:1036500000D0BFE0B94500D242E1019D0099071CAE
:103660008D424741E0E7002804D101200021FCF70A
:10367000B3FF80464046FFF729FF002852D141465C
:1036800044460B043C1B1B0CA3460D0C0093012469
:10369000291C5846FCF7A0FF009F81464743291C80
:1036A0005846FCF7DDFF330C090419438F4208D953
:1036B0004B464144013B884502D88F4200D91AE16C
:1036C0009946C91B8B46081C291CFCF785FF009BEB
:1036D000291C4343071C58460093FCF7C1FF3604DE
:1036E000009D0904360C0E43B54207D946447B1EA3
:1036F000B04502D8023FB54200D81F1C49460E040F
:10370000374391E75246D243031C0C1C92460021DA
:103710005842A1412CE7002746428F4101214942EE
:103720008A4620E720231B1A4246351C82403C1C57
:10373000DD40DC4087402B1C150C3B43291C864098
:10374000201C009317049046FCF746FF3F0C011C19
:10375000794381468B46201C291CFCF781FF009C85
:103760000904230C19438B450CD94B464144013BBA
:10377000884500D9BDE08B4500D8BAE0022252420C
:10378000914441445C460C1B201C291C0194FCF70D
:1037900023FF391C4143041C8B460198291CFCF76C
:1037A0005FFF009A090413041B0C19438B4509D9C8
:1037B0004144631E884500D997E08B4500D894E0CA
:1037C000023C41445B46CB1A49469B460B041C43D2
:1037D00000975DE7009D20231B1A4A468240DD408A
:1037E0001543391C009AD94082408846311C00920A
:1037F000D9403A1C82400B1C134301932F0C2B041D
:103800001B0C391C40460293FCF7E6FE029A8146E7
:103810004243391C40469346FCF722FF019A0904B3
:10382000130C19438B450AD94B464919013B8D426C
:103830005DD88B455BD902235B42994449195A46AE
:103840008A1A101C391C0392FCF7C6FE029B8046A4
:103850004343391C03989B46FCF702FF019A090475
:1038600013041B0C19438B450AD943464919013BE4
:103870008D4238D88B4536D902235B42984449198A
:103880005D464D1BAB464946009D0F04424617431B
:103890002A04120C3B042D0C1B0C380C111C594330
:1038A00042436B436843D3180D0C5B198C469A4214
:1038B00002D98022520280181D0C401983450CD376
:1038C00003D00024B0E61C1C89E665462A041B04CC
:1038D000120C9B18A6409E42F3D2013F0024A3E69F
:1038E00000240127A0E69846CAE71C1C6AE799460F
:1038F000A5E7994646E70222524291444144E0E658
:10390000F0B55F4656464D464446F0B40D1C85B0B2
:10391000061C924698460290019103921F1C141CAB
:103920008346A946002B59D1AA4269D9101CFFF73A
:10393000CDFD00280AD020231B1A311CD940854018
:103940000B1C2B43864084409946B346250C230428
:103950001B0C291C48469846FCF73EFE4646071CB1
:103960004643291C4846FCF77BFE5A460904130CC3
:1039700019438E4209D909197B1E8C4200D957E19F
:103980008E4200D854E1023F0919891B8946081C60
:10399000291CFCF721FE43464343061C291C4846CC
:1039A0009846FCF75DFE5A46130409041B0C1943A4
:1039B000884508D90919731E8C4200D936E1023EA8
:1039C000884500D832E1380430430027391C05B05F
:1039D0003CBC90469946A246AB46F0BD019A934244
:1039E00062D8181CFFF772FD041E60D1019B9F4234
:1039F00000D22CE1029F03998F4260410027E5E746
:103A0000002A04D101200021FCF7E6FD041C201C43
:103A1000FFF75CFD002800D0B9E023042D1B1B0C30
:103A2000A946260C98460127311C4846FCF7D4FDD0
:103A300041464143051C8A464846311CFCF710FEAE
:103A40005A460804130C1843824507D900196B1E07
:103A5000844202D8824500D910E11D1C5346C31A86
:103A6000181C311C9A46FCF7B7FD4146414381467C
:103A700088465046311CFCF7F3FD5A4613040904EE
:103A80001B0C194388450BD94B460919013B8C4245
:103A900000D9CFE0884500D8CCE002235B429944AE
:103AA00028044946084391E7002700208EE7202399
:103AB0001B1A424657468240DF4017435246824017
:103AC0000192321CDA40291CD9408540131C2B433B
:103AD00002933D0C3B041B0C8846081C291C9A468B
:103AE000FCF77AFD534643438146291C40469B46DA
:103AF000FCF7B6FD029A0904130C19438B4506D94D
:103B00004B46C919013B8F4200D8ABE099465A4653
:103B10008A1A101C291C9346FCF75EFD534643434A
:103B2000291C804658469A46FCF79AFD029A0904D9
:103B300015042D0C29438A4506D94346C919013B72
:103B40008F4200D886E098465746CF1BBA46494672
:103B5000019F0804424610433D042D0C03043F0C12
:103B60001B0C020C291C594355437B437A43EB1829
:103B70000F0CDB198C469D4202D980277F02D21997
:103B80001D0C521992455FD356D000271EE7202303
:103B90001B1A311C2F1CD940DF4085400B1C844070
:103BA0002B4386400193B3462304260C1B0C381C80
:103BB000311C9846FCF710FD42464243051C311C5F
:103BC000381C9146FCF74CFD019F09043B0C19433E
:103BD000894507D909196B1E8C424DD889454BD9A7
:103BE000023D09194A468A1A101C311C9246FCF7FC
:103BF000F3FC43464343071C311C50469946FCF7EF
:103C00002FFD019A090413041B0C1943894507D998
:103C100009197B1E8C422DD889452BD9023F0919E1
:103C20004B46CB1A2D0499462F43FDE61E1CCAE6CF
:103C30001F1CAAE6994633E761460A041B04120CCE
:103C40009B18A6409E42A0D201380027BEE600275E
:103C50000120BBE68A4500D875E702235B42984401
:103C6000C91971E78B4500D850E702235B4299449C
:103C7000C9194CE71F1CD3E71D1CB3E7023D00190F
:103C8000ECE6C04608B5094A094BD058094901403D
:103C90008020C0040143D15004F054FC031C0648AA
:103CA000E1214902022204F01FFB08BD007004401C
:103CB00004100000FFFFFFF30040054000B585B091
:103CC00002A80D49083106220CF0C2FC00236A4606
:103CD000137080235B0201930849094B094AD150B4
:103CE00002A804F0ABFC684604F0D0FB064A074B80
:103CF0001A6005B000BDC046583D01000000071025
:103D00004410000000700440006CDC022CE0FF1F37
:103D1000F0B5474680B482B080460E1C101CFFF7F9
:103D2000F7FA041C0D1C301CFFF7F2FA021C0B1CE6
:103D3000201C291CFEF718F8021C0B1CFDF7F2FCD6
:103D40002A4B294AFEF77AFC0CF03AFD021C0B1CA8
:103D5000FDF7E8FC041C0D1C254A264BFDF7E2FC90
:103D6000061C0F1C244A254BFCF7F6FC002814D136
:103D7000201C291C1E4A1F4BFEF7F0FE321C3B1C68
:103D8000FDF7F2FF00900191201C291C321C3B1C06
:103D9000FDF7EAFF041C0D1C03E0194C194D0094BB
:103DA0000195002642469268966043469F680098B7
:103DB0000199FFF7FFFA7860FE239B05424692685F
:103DC000136043469B685E6142469668201C291C2E
:103DD000FFF7F0FA306142469368D86002B004BC45
:103DE0009046F0BDC046C046182D4454FB21F93F13
:103DF0000000000000000040000000000000000083
:103E0000000000000000F03FF8B50F1C8568466810
:103E10006868FE218905FCF719FEA968FCF716FE03
:103E2000041C381CFDF722FC211CFCF77BFF041C42
:103E300030607060B060E968FDF758F9061C2969C8
:103E4000201CFDF753F9011C301CFCF7FFFDFDF7AA
:103E5000EDFBF8BDF0B5474680B4041C081CFDF727
:103E600005FC051CA668646867687068391CFDF766
:103E70003DF9011C281CFDF763FA051C2060F16860
:103E8000FDF734F980463169381CFDF72FF9011C24
:103E90004046FCF7DBFD6560FDF7C8FB04BC9046BF
:103EA000F0BDC04670B508F0B5FB344A9068344B9D
:103EB00018408021890008439060506818400843EA
:103EC0005060304CE06818400843E060A06818403B
:103ED0000843A0602C4D2E6E1E40802040000643FB
:103EE0002E6655691D400543556195691D40054382
:103EF0009561656C1D400543656414681C4004436E
:103F00001460D4691C400443D461204A14681C40E6
:103F10002043106050681840084350609068184073
:103F200008439060D06803401943D160184C194D84
:103F3000201C06212A1C05F02FF8201C07212A1C12
:103F400005F02AF8144811212A1C05F025F8201C38
:103F500000212A1C05F020F8104D114818212A1CB8
:103F600005F01AF8201C05212A1C05F015F80D484B
:103F700000212A1C05F010F870BDC04600B00440B6
:103F8000FFF8FFFF00A0044000D0044000C0044040
:103F900080F00F407C3E010040F00F40803E010069
:103FA00000F10F40C0F00F40F8B5071C0E1C0024B4
:103FB00034E0A6239B0063431A4A9B5C022B2CD15E
:103FC000A6239B0063435033D518281C0CF018F827
:103FD00086421DDDA6239B006343124AD318683333
:103FE0001B78002B19D1A6239B006343D518AA6B1D
:103FF000EB6B2A646B642B1C48330D221A70E0B201
:10400000402107F091F92B1C683301221A7004E05B
:10401000281C391C321C0BF033FF0134012CC8DD85
:10402000F8BDC04620EFFF1FF0B5474680B48CB006
:10403000041C0D1CA6239B009B4AD35C002B2AD199
:104040001378002B27D1994B1B78002B23D0984B4A
:104050001B78002B06D08F4B8D4A12196B41954966
:104060000A604B60934B18685A68934B19685B68F9
:104070009A4202DC0FD188420DD9874A874B121928
:104080006B418D490A604B6001F0E6FE002802D1C9
:104090008A4804F07FF900268149824A09196A4159
:1040A00002910392ECE0A6239B0073437E4A9B5C43
:1040B000002B00D1E3E0A622920072437A4BD35C3E
:1040C000012B5FD1131C784AD3189A69DB69AB4284
:1040D00000DDD4E002D1A24200D9D0E0A6239B00AB
:1040E0007343714AD3181B7A002B1DD0A6239B0063
:1040F0007343D3180299039A19625A626E4B196876
:104100005A68954202DC03D18C4201D9211C2A1C39
:10411000A6239B0073436448C3189962DA62196A44
:104120005A6A19635A6327E0A6239B0073435E4FC4
:10413000FF18FA680A9200230B930A9A0B9B121934
:104140006B415748574980185941386279625A493A
:10415000086849688B4202D803D1824201D9101CF9
:10416000191CA6239B0073434F4AD3189862D96247
:10417000196A5A6A19635A63A6229200724302218D
:10418000494BD154A6239B007343474AD318A4221A
:1041900092009B18DB79002B41D0A6239B00734330
:1041A000414AD3189A6ADB6AAB421BDC01D1A242B6
:1041B00018D8A621890071433B4B59180B69089305
:1041C00000220992089A099B12196B418A62CB62FC
:1041D00039490A604B6001F03FFE002802D138489F
:1041E00004F0D8F8A6239B0073432F4AD3181A6B08
:1041F0005B6BAB4215DC01D1A24212D8A62189002B
:104200007143294B59180B69069300220792069AAD
:10421000079B12196B410A634B63012702E00027D9
:1042200000E00027A622920072431F498A18136AF1
:10423000526AAA4223DC01D1A34220D8A6218900D8
:104240007143194B59188C63CD63CB6804930022DA
:104250000592049A059B12196B410A624B62A422D3
:1042600092008B18187959799A79164B00933B1C58
:1042700002F090FA002802D1134804F08BF80136BE
:10428000012E00DC0FE70CB004BC9046F0BDC04628
:10429000404B4C0000000000A8610000000000003E
:1042A000F05500000000000020EFFF1F50F4FF1F3A
:1042B00060F4FF1F58F4FF1F68F4FF1FA03E0100C9
:1042C000C03E0100A93F0000D03E0100C046C046EC
:1042D0007047C04670B582B0051CA624A4004443B4
:1042E000174B1C19682008F0B3FB002826D0231CAC
:1042F0007033011C5831181C60220CF0A9F980237E
:10430000E0588823E1589023E2588423E3588C2610
:10431000A65900969426A659019601F0D5FD084BA2
:10432000A620800068430021C1541A185160FA2168
:104330008900D160503018180BF06CFE02B070BDCF
:1043400020EFFF1FF8B564201A490AF0A5FD09F017
:10435000E7FD194802F030F801F0DCFB02F05CFAEE
:104360000024164DA627BF00154E1AE0381C6043E6
:1043700029180B1C68333A225A701B229A70DA7083
:1043800000221A715A719A710E4B0B615030281825
:10439000311CB02212010BF06BFDE0B2FFF79AFF67
:1043A0000134012CE2DD0123074A1370074A137020
:1043B000F8BDC04629400000A93F000020EFFF1FC4
:1043C00020E4FF1FA861000050F4FF1F60F4FF1FEE
:1043D000F0B557464E464546E0B4051C0E1C9046C7
:1043E00008AB06CB1B7899460BAB1F784E4A92461A
:1043F000A624A4004443201C503050440BF00AFE75
:1044000054440020A070231C683318706660434633
:10441000E3600899099AA161E2614A4622726770D5
:104420000022002322646364231C48330C221A7088
:1044300001225A70A4239B00E41820716071A071BE
:10444000E0713A4B1E4209D0A6239B006B43364ACB
:10445000D318A42189005B1801221A7170233342FA
:1044600009D0A6239B006B432F4AD318A4229200A5
:104470009B1801225A7173050CD5A6239B006B4330
:10448000294AD318A42189005B180122DA7100227D
:10449000274B1A70320509D5A6239B006B43224A8D
:1044A000D318A42189005B1801229A71A624A400C4
:1044B0006C431D4B1C191F48206101F081FAA42296
:1044C0009200A4182379002B02D01B4803F062FF4E
:1044D000A6239B006B43144AD318A42189005B18C0
:1044E0005B79002B02D0154803F054FFA6239B00F4
:1044F0006B430D4AD318A42292009B18DB79002B42
:1045000002D00F4803F046FFA62292006A43012121
:10451000054BD1540B48291C03F03CFF1CBC9046B2
:104520009946A246F0BDC04620EFFF1F8E0B00004B
:1045300060F4FF1FA8610000E03E0100F43E0100AE
:10454000083F0100203F010010B5041C01F0AEFC43
:10455000A622920062430021044BD1540122044B55
:104560001A700448211C03F015FF10BD20EFFF1F37
:1045700060F4FF1F383F0100CBB2062B33D89900FF
:104580001A4B5B589F46A6239B005843184B18189C
:104590006830407828E0A6239B005843144B181835
:1045A0006830807820E0A6239B005843104B1818F1
:1045B0006830C07818E0A6239B0058430C4B1818AD
:1045C0006830007910E0A6239B005843084B181868
:1045D0006830407908E0A6239B005843044B181824
:1045E0006830807900E000207047C046843E0100BA
:1045F00020EFFF1F00990023FF2201E0CA5401337E
:104600001F2BFBDD20207047081C7047A6239B0052
:1046100058437030014B18187047C04620EFFF1FF9
:1046200008B5A6239B005843D030044B181800212E
:1046300090220CF016F8002008BDC04620EFFF1FA6
:10464000F0B50B2912D80A4C4D006B189B00A6261A
:10465000B60070431B18E3181E1CD03601273770B4
:10466000D8331A6000237360002000E03220F0BDD0
:1046700020EFFF1F08B50B290FD84B0059188900F0
:10468000A6239B0058430918D031054B5918101C1C
:104690000C220BF0DDFF002000E0322008BDC046F8
:1046A00020EFFF1FF0B585B0071C0E1C141CFFF790
:1046B0004BFFE26A61680024002500940195012304
:1046C000029300230393381CFFF782FE3378002BFC
:1046D00020D0012B20D0022B20D0032B20D0042B64
:1046E00020D0052B20D0062B20D0072B20D0082B44
:1046F00020D0092B20D00A2B20D0362026E0E30042
:104700001B1B9B0058196130FF30301809F010FE58
:10471000013418E0002412E0002410E000240EE030
:1047200000240CE000240AE0002408E0002406E055
:10473000002404E0002402E0002400E00024044EF1
:10474000A625AD007D430A2CD9DD302005B0F0BD93
:1047500020EFFF1F00000000F0B55F4656464D46B3
:104760004446F0B48BB00090039102920190A623CE
:104770009B004343E24AD218934650218A46DA44CA
:1047800050460BF035FC00B21621FBF725FF80B236
:10479000814603B2002B00DC96E300239846D84FF5
:1047A000A626B60001994E4321E0504604A91622E0
:1047B0000BF0B4FB002413E023B25A00D800C01A57
:1047C000800085196135FF357D1904AB985EFCF7D3
:1047D0004DFF021C281C022109F0B4FD0134A4B2D3
:1047E00023B20A2BE8DD45460135ADB2A846414665
:1047F0000BB249460AB29342D7DBA6239B00009A2C
:104800005343BF4AD3186133FF339888FCF72EFF18
:10481000029B1C69211CFBF7DFFF002800D056E338
:10482000039909788846002900D06BE1E4235A46B1
:10483000D4500122DC235946CA5400229146A627AF
:10484000BF00019B5F43AE49CF19B8225200D21975
:104850009246A64DA44C414601915E46CB46B846D1
:1048600023E152465068FEF753FD221C2B1CFDF736
:10487000E5FEFEF79FFDF023F05053461868FEF763
:1048800047FD221C2B1CFDF7D9FEFEF793FDEC2300
:10489000F0500127E823F754C62149008946C14456
:1048A0004A465068FEF734FD221C2B1CFDF7C6FE5D
:1048B000FEF780FDFC23F0504B461868FEF728FDFC
:1048C000221C2B1CFDF7BAFEFEF774FDF823F050F6
:1048D000F423F754D42149008946C1444A4650681C
:1048E000FEF716FD221C2B1CFDF7A8FEFEF762FD4D
:1048F00084235B00F0504B461868FEF709FD221C2C
:104900002B1CFDF79BFEFEF755FD82235B00F0504C
:1049100080235B00F754E22149008946C1444A469E
:104920005068FEF7F5FC724A724BFDF787FEFEF702
:1049300041FD8A235B00F0504B461868FEF7E8FC07
:104940006B4A6C4BFDF77AFEFEF734FD88235B0063
:10495000F05086235B00F754F02149008946C1449A
:104960004A465068FEF7D4FC614A624BFDF766FE8A
:10497000FEF720FD90235B00F0504B461868FEF7D1
:10498000C7FC5B4A5B4BFDF759FEFEF713FD8E2318
:104990005B00F0508C235B00F754FE2149008946F0
:1049A000C1444A465068FEF7B3FC514A514BFDF7EB
:1049B00045FEFEF7FFFC96235B00F0504B4618685F
:1049C000FEF7A6FC4A4A4B4BFDF738FEFEF7F2FC19
:1049D00094235B00F05092235B00F75486218900FA
:1049E0008946C1444A465068FEF792FC424A434B0E
:1049F000FDF724FEFEF7DEFC9C235B00F0504B46E7
:104A00001868FEF785FC3C4A3C4BFDF717FEFEF7A5
:104A1000D1FC9A235B00F05098235B00F7548D2162
:104A200089008946C1444A465068FEF771FC324A03
:104A3000324BFDF703FEFEF7BDFCA2235B00F050F6
:104A40004B461868FEF764FC2B4A2C4BFDF7F6FD2D
:104A5000FEF7B0FCA0235B00F0509E235B00F754F0
:104A6000942189008946C1444A465068FEF750FCAB
:104A7000214A224BFDF7E2FDFEF79CFCA8235B00D8
:104A8000F0504B461868FEF743FC1B4A1B4BFDF7E2
:104A9000D5FDFEF78FFCA6235B00F050A4235B003E
:104AA000F7545B4601339BB29B4659460BB2082B29
:104AB00000DCD6E6019A904601F0D2FE002809D02B
:104AC000FE229205AE235B00F2500122AA235B0076
:104AD000F25403E20022AE235B00F2500222AA232A
:104AE0005B00F254FAE1C0464AFDC00EAF6F513F81
:104AF000C397923A019D733F8B7CA87EEFC0EE3F37
:104B000020EFFF1F01292DD1E4235946CC50012469
:104B1000DC23CC54A6239B00009A5343ED4EF61899
:104B2000E2235B00F718803678683168FCF7DEFA1C
:104B3000051CF0235946C85038683168FCF7D6FA8E
:104B4000EC235A46D050E823D454D823D058291CFB
:104B5000FCF7F6FBFC235946C850F423CC54002242
:104B60009046BBE102292DD1E4235946CC500124C3
:104B7000DC23CC54A6239B00009A5343D54EF61851
:104B8000F0235B00F718883678683168FCF7AEFAD6
:104B9000051CF0235946C85038683168FCF7A6FA5E
:104BA000EC235A46D050E823D454D823D058291C9B
:104BB000FCF7C6FBFC235946C850F423CC54002212
:104BC00090468BE103292DD1E4235946CC50012492
:104BD000DC23CC54A6239B00009A5343BD4EF61809
:104BE000FE235B00F718903678683168FCF77EFA90
:104BF000051CF0235946C85038683168FCF776FA2E
:104C0000EC235A46D050E823D454D823D058291C3A
:104C1000FCF796FBFC235946C850F423CC540022E1
:104C200090465BE104292DD1E4235946CC50012460
:104C3000DC23CC54A6239B00009A5343A54EF618C0
:104C400086239B00F718983678683168FCF74EFA8F
:104C5000051CF0235946C85038683168FCF746FAFD
:104C6000EC235A46D050E823D454D823D058291CDA
:104C7000FCF766FBFC235946C850F423CC540022B1
:104C800090462BE105292DD1E4235946CC5001242F
:104C9000DC23CC54A6239B00009A53438D4EF61878
:104CA0008D239B00F718A03678683168FCF71EFA50
:104CB000051CF0235946C85038683168FCF716FACD
:104CC000EC235A46D050E823D454D823D058291C7A
:104CD000FCF736FBFC235946C850F423CC54002281
:104CE0009046FBE006292DD1E4235946CC500124FF
:104CF000DC23CC54A6239B00009A5343754EF61830
:104D000094239B00F718A83678683168FCF7EEF911
:104D1000051CF0235946C85038683168FCF7E6F99D
:104D2000EC235A46D050E823D454D823D058291C19
:104D3000FCF706FBFC235946C850F423CC54002250
:104D40009046CBE007292DD1E4235946CC500124CD
:104D5000DC23CC54A6239B00009A53435D4EF618E7
:104D6000B8235B00F718B03678683168FCF7BEF9F5
:104D7000051CF0235946C85038683168FCF7B6F96D
:104D8000EC235A46D050E823D454D823D058291CB9
:104D9000FCF7D6FAFC235946C850F423CC54002221
:104DA00090469BE008292DD1E4235946CC5001249C
:104DB000DC23CC54A6239B00009A5343454EF6189F
:104DC000C6235B00F718B83678683168FCF78EF9AF
:104DD000051CF0235946C85038683168FCF786F93D
:104DE000EC235A46D050E823D454D823D058291C59
:104DF000FCF7A6FAFC235946C850F423CC540022F1
:104E000090466BE009292DD1E4235946CC5001246A
:104E1000DC23CC54A6239B00009A53432D4EF61856
:104E2000D4235B00F718C03678683168FCF75EF968
:104E3000051CF0235946C85038683168FCF756F90C
:104E4000EC235A46D050E823D454D823D058291CF8
:104E5000FCF776FAFC235946C850F423CC540022C0
:104E600090463BE00A2937D1E4235946CC5001242F
:104E7000DC23CC54A6239B00009A5343154EF6180E
:104E80009B239B00F6187068FBF734FD80B200F09E
:104E9000A7FFF025594648513068FBF72BFD80B23B
:104EA00000F09EFFEC235A46D050E823D454D82378
:104EB000D0585159FCF744FAFC235946C850F42302
:104EC000CC540022904609E03023984606E0302179
:104ED000884603E020EFFF1F3622904640460BB085
:104EE0003CBC90469946A246AB46F0BDC046C04683
:104EF000F0B55F4656464D464446F0B487B0061CB2
:104F00000F1CA624A4004443DF4B1C190D78002D70
:104F100000D0DAE0DD4B802163508A225200A25893
:104F200080210906521884218A4662508822A350A3
:104F300090225200A2588021090652188C218946DD
:104F400062509022A35096235B00E058FEF7E0F9F0
:104F5000021C0B1CCB49CA48FDF700FE942398465F
:104F6000FEF728FA41466050C94B9822A3509C2274
:104F70005200A2588021090652189C216250A0229A
:104F8000A350A2225200A258802109065218A4213F
:104F90006250A822A350A8235B00E058FEF7B8F99E
:104FA000021C0B1CB749B648FDF7D8FDFEF702FA04
:104FB000AC22A050B74BB022A350F022A2588021BF
:104FC00009065218B4216250B822A350FC22A258FC
:104FD000802109065218BC216250C022A3508423AC
:104FE0005B00E358802212069B18C4218B46635055
:104FF0003A78A948311C03F0CDF95346E35805939C
:10500000181CFEF785F9021C0B1CA44803F0C2F91A
:105010004E46A6590496301CFEF77AF9021C0B1C6A
:105020009F4803F0B7F9414661580391081CFEF709
:105030006FF9021C0B1C9B4803F0ACF99C22A05892
:10504000FEF766F9021C0B1C974803F0A3F9A42392
:10505000E058FEF75DF9021C0B1C944803F09AF926
:10506000AC26A059FEF754F9021C0B1C904803F023
:1050700091F9B4216058FEF74BF9021C0B1C8D48C6
:1050800003F088F9BC22A058FEF742F9021C0B1C61
:10509000894803F07FF95B46E058FEF739F9021CB6
:1050A0000B1C864803F076F98026A0598822A15867
:1050B0009023E2585646A3594E46A65900964646B6
:1050C000A459019400F000FFD2E0012D12D1FC237D
:1050D000E358842563510A786F48311C03F05AF96C
:1050E0006059FEF715F9021C0B1C6C4803F052F9CD
:1050F0000025BDE0022D12D1FC23E3588C2563511D
:105100000A786548311C03F045F96059FEF700F94B
:10511000021C0B1C624803F03DF90025A8E0032D9A
:1051200012D1FC23E358942563510A785A48311C64
:1051300003F030F96059FEF7EBF8021C0B1C5948DC
:1051400003F028F9002593E0042D12D1FC23E35845
:105150009C2563510A785048311C03F01BF96059B3
:10516000FEF7D6F8021C0B1C4F4803F013F900257C
:105170007EE0052D12D1FC23E358A42563510A7863
:105180004548311C03F006F96059FEF7C1F8021CCE
:105190000B1C464803F0FEF8002569E0062D12D1ED
:1051A000FC23E358AC2563510A783B48311C03F0DB
:1051B000F1F86059FEF7ACF8021C0B1C3C4803F0F8
:1051C000E9F8002554E0072D12D1FC23E358B4255B
:1051D00063510A783048311C03F0DCF86059FEF75F
:1051E00097F8021C0B1C334803F0D4F800253FE06D
:1051F000082D12D1FC23E358BC2563510A782648B8
:10520000311C03F0C7F86059FEF782F8021C0B1C32
:10521000294803F0BFF800252AE0092D12D1FC230C
:10522000E358C42563510A781B48311C03F0B2F8D7
:105230006059FEF76DF8021C0B1C204803F0AAF819
:10524000002515E00A2D12D1FC23E358CC2563512B
:105250000A781148311C03F09DF86059FEF758F8A0
:10526000021C0B1C164803F095F8002500E03225BF
:10527000281C07B03CBC90469946A246AB46F0BD00
:1052800005A3923A019D234020EFFF1F0AE89C3BB3
:105290007C07763F787D8B3A503F0100803F0100CC
:1052A000943F0100A83F0100BC3F0100D03F010036
:1052B000E43F0100F83F01000C40010020400100E4
:1052C00034400100C046C046F0B5474680B484B0C3
:1052D00080460C1C94460AA900228E5E0BAD2F78E6
:1052E0002578022D4CD14922A25C002A17D00093C8
:1052F000231C4A3301930133029301330393606803
:105300002349E268634606F0E7F84B23E35C3A2B57
:1053100002D93A224B23E25400224923E254482383
:10532000E35C002B16D0002F03D000224823E25468
:1053300010E0A27800926168019102934046226CCD
:10534000636C06F047F8A3780133A370002248236A
:10535000E25418E0201C50300AF04AFE00B2311C22
:10536000FBF788F900B24B23E35C98420ADB0C9A06
:10537000138040460021FF220BF073F9054802E03C
:10538000002000E0002000B204B004BC9046F0BD54
:10539000A0860100FFFF0000F0B557464E46C0B49E
:1053A0008DB00F1C6B4600225A821233A624A40033
:1053B0006043A54C24181621009101920293381CD9
:1053C000211C0B220423FFF77FFF002800DB35E1BF
:1053D00000208146002550221219924605AE12E1A6
:1053E0005046311C16220AF099FD63689B0715D5BB
:1053F0000622B05EFCF73AF98023E158FBF776FE0F
:105400008423E158FBF722FB0B9028B238180B30AD
:105410000BA904220BF01CF90435ADB263685B07DD
:1054200015D50822B05EFCF721F98823E158FBF777
:105430005DFE8C23E158FBF709FB0B9028B238186E
:105440000B300BA904220BF003F90435ADB26368ED
:105450001B0715D50A22B05EFCF708F99023E15826
:10546000FBF744FE9423E158FBF7F0FA0B9028B2C7
:1054700038180B300BA904220BF0EAF80435ADB252
:105480006368DB0615D50C22B05EFCF7EFF89823B5
:10549000E158FBF72BFE9C23E158FBF7D7FA0B9062
:1054A00028B238180B300BA904220BF0D1F80435C0
:1054B000ADB263689B0615D50E22B05EFCF7D6F838
:1054C000A023E158FBF712FEA423E158FBF7BEFA34
:1054D0000B9028B238180B300BA904220BF0B8F847
:1054E0000435ADB263685B0615D51022B05EFCF7DB
:1054F000BDF8A823E158FBF7F9FDAC23E158FBF711
:10550000A5FA0B9028B238180B300BA904220BF027
:105510009FF80435ADB263681B0615D50022B05E56
:10552000FCF7A4F8B023E158FBF7E0FDB423E15801
:10553000FBF78CFA0B9028B238180B300BA9042219
:105540000BF086F80435ADB26368DB0515D5022291
:10555000B05EFCF78BF8B823E158FBF7C7FDBC231E
:10556000E158FBF773FA0B9028B238180B300BA9EF
:1055700004220BF06DF80435ADB263689B0515D5B8
:105580000422B05EFCF772F8C023E158FBF7AEFDD1
:10559000C423E158FBF75AFA0B9028B238180B30A5
:1055A0000BA904220BF054F80435ADB263685B0517
:1055B00014D5708A00F014FCC823E158FBF796FD5F
:1055C000CC23E158FBF742FA0B9028B238180B3085
:1055D0000BA904220BF03CF80435ADB2606800055D
:1055E0000DD51422B05EFCF741F80B9028B23818A4
:1055F0000B300BA904220BF02BF80435ADB24B464F
:1056000001339BB299466B46598A484603B20AB2A7
:10561000934200DAE4E6002D0FD0C9B24A23E25CDF
:105620006378A078451CA5706468019400900720F9
:105630000290381C05F026FF00E0002000B20DB0FB
:105640000CBC91469A46F0BD20EFFF1F0000000001
:10565000F0B55F4656464D464446F0B48DB0884698
:105660006B460022DA821633A624A40060438E4CD7
:10567000241816220092012201920293081C211C78
:1056800008220223FFF720FE002800DBF7E00025B8
:1056900000268F22D2059146D7E0201C503006A963
:1056A00016220AF03BFC63689B0736D506AB588A86
:1056B00000F096FB071C0BF047F8002802D07B4B4C
:1056C00018680BE0C823E058391CFBF70FFD011CDC
:1056D000CC23E058FBF7BAF9744A1060FDF718FEC6
:1056E0006C4B6B4AFCF71EF8FDF764FE4946FBF76E
:1056F000FDFCFDF70DFE684A684BFCF735FBFDF736
:1057000059FEFBF7F7F805A9088030B2083040448D
:1057100002220AF09DFF0236B6B263685B0728D505
:1057200006AB0A22985EFBF7A1FF011C9023E0580C
:10573000FBF7DCFC011C9423E058FBF787F9FDF72D
:10574000E7FD574A574BFBF7EDFFFDF733FE4946A0
:10575000FBF7CCFC5649FBF7E5FAFBF7CBF805A9BC
:10576000088030B20830404402220AF071FF02364D
:10577000B6B263681B0766D506AF0622B85EFBF7B4
:1057800075FF83460823F85EFBF770FF82460A2206
:10579000B85EFBF76BFF071C8023E0585946FBF708
:1057A000A5FC011C8423E058FBF750F983468823AD
:1057B000E0585146FBF79AFC011C8C23E058FBF79C
:1057C00045F982469023E058391CFBF78FFC011CF9
:1057D0009423E058FBF73AF9071C58465946FBF763
:1057E00085FC834650465146FBF780FC8246381CB8
:1057F000391CFBF77BFC071C58465146FBF726F982
:10580000391CFBF723F9FDF783FD0BF0EDFAFDF7EB
:10581000D1FDFDF77DFD224A224BFBF783FFFDF70B
:10582000C9FD4946FBF762FC2149FBF77BFAFBF710
:1058300061F805A9088030B20830404402220AF01D
:1058400007FF0236B6B20135ADB26B46D98A2BB22C
:105850000AB2934200DA20E7002E0FD0C9B24A23E1
:10586000E25C6378A078451CA570247900900194CF
:1058700000200290404605F0E1FD00E0002000B26B
:105880000DB03CBC90469946A246AB46F0BDC04622
:10589000713D0AD7A3688140666666666628A240A5
:1058A000CDCCCCCCCCFC714020EFFF1F1CE4FF1F03
:1058B00000E01F44C046C04610B5041C012303701D
:1058C00001302D490AF056FF201C11302B490AF0F7
:1058D00051FF201C21302A490AF04CFF00220023EE
:1058E00042216252442162524622A3544722A354C9
:1058F0000222A264B822A35496225200E264214AF2
:1059000022655822A35400220023226663661E4AA1
:10591000A2660023E36622676367A267E3671B4A08
:105920008021625084216350882162508C21635011
:10593000902162509422A350154A982162509C21D4
:105940006350A0216250A4216350A8216250AC2270
:10595000A350FE218905B022A150B422A3500023F8
:10596000002203E0E15C8A18D2B20133BF2BF9D9DF
:10597000B823E25410BDC046484001005840010021
:1059800050400100C0A800000AE89C3B7C07763F1D
:10599000787D8B3A38B5041C0578012D08D0FFF7C7
:1059A0008BFF22780348291C02F0F4FC012000E060
:1059B000002038BD644001007047C0460000000070
:1059C000F0B587B0FDF770FC021C0B1C1D491C488C
:1059D000FCF7CAF9FDF7EEFC041C00231C4A137007
:1059E0001C4A13708021C905FAF714FF002824D03F
:1059F000194D281C211CFB229205FEF789F9AB6882
:105A00005F68DE68201CFDF783FC041C0D1C0E4A39
:105A10000E4B00920193381CFDF77AFC0290039123
:105A2000301CFDF775FC049005910C48221C2B1CC2
:105A300002F0B0FC0122064B1A7007B0F0BDC04660
:105A40000000000080842E41000000000000D83FCC
:105A500004F5FF1F70F4FF1F18E0FF1FFC43010057
:105A600008B5264BDB78012B02D0022B35D043E062
:105A70005C23224AD35C9A0626D4204B5D22995C93
:105A800009025E229B5C19431D4B1B78002B0FD033
:105A90001C4B1B78002B07D11B48FEF7B5F981B2D0
:105AA0000122184B1A7003E01748FEF7D3F981B2B0
:105AB000164B19800022114BDA70154B1B68002B16
:105AC0001AD0081C984717E00C490123CB705C31B1
:105AD0002720052200F0E8F80EE05C23074AD35C9B
:105AE0009A0603D40022054BDA7005E0272003490B
:105AF0005C31052200F0D8F808BDC04678F4FF1FDD
:105B000004F5FF1F70F4FF1F18E0FF1FF4F4FF1FE0
:105B100074F4FF1F70B584B001A803F0C5FA154BEB
:105B20000293002002F052FD021C134E301C01A90A
:105B300003F042FB114AC2239B00D158FF2081434E
:105B400040200143D1500E4C251D281C0021282245
:105B50000AF087FD301C291C0A4A002303F038FD97
:105B60000023A3702370E3706370FFF779FF04B024
:105B700070BDC046801A06000060064000E100E0EB
:105B800078F4FF1FB95D0000F0B54F464646C0B43B
:105B900083B00122364B5A70364803F06BFA364B0D
:105BA000D86836490840802252001043D86098686F
:105BB00001400A439A6001A8314902220AF048FDD7
:105BC000304C201C032101AA03F0E6F9201C02211D
:105BD00001AA03F0E1F92C4802F0DCFB0823636022
:105BE00004236360294802F0D5FB294802F0D2FB68
:105BF0000025264B9946274B98460CE008276760FE
:105C000004266660484602F0C5FB6760A660404611
:105C100002F0C0FB0135092DF0DD1F4802F0BAFB90
:105C2000184C0826A6600425A5601C4802F0B2FBAB
:105C3000A66065601A4802F0ADFB666065601348B7
:105C400002F0A8FB174802F0A5FB0B4BD8680B49E4
:105C50000840802292001043D860986801400A43AF
:105C60009A60FFF757FF03B00CBC90469946F0BD11
:105C700078F4FF1F0060064000A00440FFF8FFFF1B
:105C8000703D010040F00F403044010050440100DD
:105C9000604401008044010090440100B8440100C8
:105CA000C8440100D844010038B51C4B1B78002BB8
:105CB00031D11A4C3023E05401203123E054002329
:105CC000636338202354E1632264E362201C443080
:105CD000251C2C35291C18220AF0BAFC211D10485D
:105CE0002A1C03F0B1FC041E05D10C4B01221A70D2
:105CF00000229A700DE0094DAA780132D2B2AA7042
:105D00000848211C02F046FBAB78142B01D9FFF7A1
:105D10003BFF201C00E0044838BDC04678F4FF1F5C
:105D200000600640F84401004C04000038B51D4BEB
:105D30001B78002B34D11C4AAC231370194C302330
:105D4000E054002331216354636338216354E263D8
:105D500001222264E362201C4430251C2C35291CBE
:105D600018220AF075FC211D10482A1C03F06CFC57
:105D7000041E05D10B4B01221A7000229A700DE00F
:105D8000084DAA780132D2B2AA700948211C02F04B
:105D900001FBAB78142B01D9FFF7F6FE201C00E0C5
:105DA000044838BD78F4FF1F05F5FF1F006006406A
:105DB0001C4501004C04000008B5002A04D0054829
:105DC000111C02F0E7FA04E00022034B1A70FFF7FF
:105DD00047FE08BD4045010078F4FF1F00000000A9
